{
	"Reward.sol": {
		"CryptoPOSWithCoupons": {
			"abi": [
				{
					"inputs": [],
					"stateMutability": "nonpayable",
					"type": "constructor"
				},
				{
					"anonymous": false,
					"inputs": [
						{
							"indexed": true,
							"internalType": "bytes32",
							"name": "uid",
							"type": "bytes32"
						},
						{
							"indexed": false,
							"internalType": "uint8",
							"name": "couponType",
							"type": "uint8"
						},
						{
							"indexed": false,
							"internalType": "uint256",
							"name": "newBalance",
							"type": "uint256"
						}
					],
					"name": "CouponGranted",
					"type": "event"
				},
				{
					"anonymous": false,
					"inputs": [
						{
							"indexed": true,
							"internalType": "bytes32",
							"name": "uid",
							"type": "bytes32"
						},
						{
							"indexed": false,
							"internalType": "uint8",
							"name": "couponType",
							"type": "uint8"
						},
						{
							"indexed": false,
							"internalType": "string",
							"name": "details",
							"type": "string"
						}
					],
					"name": "CouponRedeemed",
					"type": "event"
				},
				{
					"anonymous": false,
					"inputs": [
						{
							"indexed": true,
							"internalType": "bytes32",
							"name": "uid",
							"type": "bytes32"
						},
						{
							"indexed": true,
							"internalType": "address",
							"name": "merchant",
							"type": "address"
						},
						{
							"indexed": false,
							"internalType": "uint256",
							"name": "amount",
							"type": "uint256"
						},
						{
							"indexed": false,
							"internalType": "uint256",
							"name": "rewardEarned",
							"type": "uint256"
						},
						{
							"indexed": true,
							"internalType": "address",
							"name": "triggeredBy",
							"type": "address"
						}
					],
					"name": "Payment",
					"type": "event"
				},
				{
					"anonymous": false,
					"inputs": [
						{
							"indexed": true,
							"internalType": "bytes32",
							"name": "uid",
							"type": "bytes32"
						},
						{
							"indexed": false,
							"internalType": "uint256",
							"name": "pointsRedeemed",
							"type": "uint256"
						},
						{
							"indexed": false,
							"internalType": "string",
							"name": "serviceId",
							"type": "string"
						},
						{
							"indexed": true,
							"internalType": "address",
							"name": "triggeredBy",
							"type": "address"
						}
					],
					"name": "RewardsRedeemed",
					"type": "event"
				},
				{
					"anonymous": false,
					"inputs": [
						{
							"indexed": true,
							"internalType": "address",
							"name": "terminal",
							"type": "address"
						},
						{
							"indexed": false,
							"internalType": "bool",
							"name": "approved",
							"type": "bool"
						}
					],
					"name": "TerminalApproved",
					"type": "event"
				},
				{
					"anonymous": false,
					"inputs": [
						{
							"indexed": true,
							"internalType": "bytes32",
							"name": "uid",
							"type": "bytes32"
						},
						{
							"indexed": false,
							"internalType": "uint256",
							"name": "amount",
							"type": "uint256"
						},
						{
							"indexed": true,
							"internalType": "address",
							"name": "from",
							"type": "address"
						}
					],
					"name": "TopUp",
					"type": "event"
				},
				{
					"stateMutability": "payable",
					"type": "fallback"
				},
				{
					"inputs": [],
					"name": "NUM_COUPONS",
					"outputs": [
						{
							"internalType": "uint8",
							"name": "",
							"type": "uint8"
						}
					],
					"stateMutability": "view",
					"type": "function"
				},
				{
					"inputs": [],
					"name": "REWARD_RATE_DIVISOR",
					"outputs": [
						{
							"internalType": "uint256",
							"name": "",
							"type": "uint256"
						}
					],
					"stateMutability": "view",
					"type": "function"
				},
				{
					"inputs": [
						{
							"internalType": "address",
							"name": "",
							"type": "address"
						}
					],
					"name": "approvedTerminals",
					"outputs": [
						{
							"internalType": "bool",
							"name": "",
							"type": "bool"
						}
					],
					"stateMutability": "view",
					"type": "function"
				},
				{
					"inputs": [
						{
							"internalType": "bytes32",
							"name": "",
							"type": "bytes32"
						}
					],
					"name": "balances",
					"outputs": [
						{
							"internalType": "uint256",
							"name": "",
							"type": "uint256"
						}
					],
					"stateMutability": "view",
					"type": "function"
				},
				{
					"inputs": [
						{
							"internalType": "bytes32",
							"name": "",
							"type": "bytes32"
						},
						{
							"internalType": "uint8",
							"name": "",
							"type": "uint8"
						}
					],
					"name": "couponBalances",
					"outputs": [
						{
							"internalType": "uint256",
							"name": "",
							"type": "uint256"
						}
					],
					"stateMutability": "view",
					"type": "function"
				},
				{
					"inputs": [],
					"name": "owner",
					"outputs": [
						{
							"internalType": "address",
							"name": "",
							"type": "address"
						}
					],
					"stateMutability": "view",
					"type": "function"
				},
				{
					"inputs": [
						{
							"internalType": "address payable",
							"name": "to",
							"type": "address"
						},
						{
							"internalType": "uint256",
							"name": "amount",
							"type": "uint256"
						}
					],
					"name": "ownerWithdraw",
					"outputs": [],
					"stateMutability": "nonpayable",
					"type": "function"
				},
				{
					"inputs": [
						{
							"internalType": "bytes32",
							"name": "uid",
							"type": "bytes32"
						},
						{
							"internalType": "address payable",
							"name": "merchant",
							"type": "address"
						},
						{
							"internalType": "uint256",
							"name": "amount",
							"type": "uint256"
						}
					],
					"name": "pay",
					"outputs": [],
					"stateMutability": "nonpayable",
					"type": "function"
				},
				{
					"inputs": [
						{
							"internalType": "bytes32",
							"name": "uid",
							"type": "bytes32"
						},
						{
							"internalType": "uint8",
							"name": "couponType",
							"type": "uint8"
						},
						{
							"internalType": "string",
							"name": "details",
							"type": "string"
						}
					],
					"name": "redeemCoupon",
					"outputs": [],
					"stateMutability": "nonpayable",
					"type": "function"
				},
				{
					"inputs": [
						{
							"internalType": "bytes32",
							"name": "uid",
							"type": "bytes32"
						},
						{
							"internalType": "uint256",
							"name": "points",
							"type": "uint256"
						},
						{
							"internalType": "string",
							"name": "serviceId",
							"type": "string"
						}
					],
					"name": "redeemRewards",
					"outputs": [],
					"stateMutability": "nonpayable",
					"type": "function"
				},
				{
					"inputs": [
						{
							"internalType": "bytes32",
							"name": "",
							"type": "bytes32"
						}
					],
					"name": "rewardPoints",
					"outputs": [
						{
							"internalType": "uint256",
							"name": "",
							"type": "uint256"
						}
					],
					"stateMutability": "view",
					"type": "function"
				},
				{
					"inputs": [
						{
							"internalType": "address",
							"name": "terminal",
							"type": "address"
						},
						{
							"internalType": "bool",
							"name": "approved",
							"type": "bool"
						}
					],
					"name": "setTerminal",
					"outputs": [],
					"stateMutability": "nonpayable",
					"type": "function"
				},
				{
					"inputs": [
						{
							"internalType": "bytes32",
							"name": "uid",
							"type": "bytes32"
						}
					],
					"name": "topUp",
					"outputs": [],
					"stateMutability": "payable",
					"type": "function"
				},
				{
					"stateMutability": "payable",
					"type": "receive"
				}
			],
			"devdoc": {
				"kind": "dev",
				"methods": {},
				"title": "Crypto POS with Rewards + 6 Brand Coupons",
				"version": 1
			},
			"evm": {
				"assembly": "    /* \"Reward.sol\":193:4770  contract CryptoPOSWithCoupons {... */\n  mstore(0x40, 0x80)\n    /* \"Reward.sol\":1672:1723  constructor() {... */\n  callvalue\n  dup1\n  iszero\n  tag_1\n  jumpi\n  revert(0x00, 0x00)\ntag_1:\n  pop\n    /* \"Reward.sol\":1705:1715  msg.sender */\n  caller\n    /* \"Reward.sol\":1697:1702  owner */\n  0x00\n  0x00\n    /* \"Reward.sol\":1697:1715  owner = msg.sender */\n  0x0100\n  exp\n  dup2\n  sload\n  dup2\n  0xffffffffffffffffffffffffffffffffffffffff\n  mul\n  not\n  and\n  swap1\n  dup4\n  0xffffffffffffffffffffffffffffffffffffffff\n  and\n  mul\n  or\n  swap1\n  sstore\n  pop\n    /* \"Reward.sol\":193:4770  contract CryptoPOSWithCoupons {... */\n  dataSize(sub_0)\n  dup1\n  dataOffset(sub_0)\n  0x00\n  codecopy\n  0x00\n  return\nstop\n\nsub_0: assembly {\n        /* \"Reward.sol\":193:4770  contract CryptoPOSWithCoupons {... */\n      mstore(0x40, 0x80)\n      jumpi(tag_1, lt(calldatasize, 0x04))\n      shr(0xe0, calldataload(0x00))\n      dup1\n      0x9d42ee83\n      gt\n      tag_16\n      jumpi\n      dup1\n      0xcdc39f7b\n      gt\n      tag_17\n      jumpi\n      dup1\n      0xcdc39f7b\n      eq\n      tag_12\n      jumpi\n      dup1\n      0xcfa54f39\n      eq\n      tag_13\n      jumpi\n      dup1\n      0xd9c88e14\n      eq\n      tag_14\n      jumpi\n      dup1\n      0xffa35e7a\n      eq\n      tag_15\n      jumpi\n      jump(tag_2)\n    tag_17:\n      dup1\n      0x9d42ee83\n      eq\n      tag_9\n      jumpi\n      dup1\n      0xae9dc4f1\n      eq\n      tag_10\n      jumpi\n      dup1\n      0xc7b4f09a\n      eq\n      tag_11\n      jumpi\n      jump(tag_2)\n    tag_16:\n      dup1\n      0x26ab5568\n      eq\n      tag_3\n      jumpi\n      dup1\n      0x48221613\n      eq\n      tag_4\n      jumpi\n      dup1\n      0x8909aa3f\n      eq\n      tag_5\n      jumpi\n      dup1\n      0x8da5cb5b\n      eq\n      tag_6\n      jumpi\n      dup1\n      0x91b6f3b6\n      eq\n      tag_7\n      jumpi\n      dup1\n      0x97d4df67\n      eq\n      tag_8\n      jumpi\n      jump(tag_2)\n    tag_1:\n    tag_2:\n      stop\n        /* \"Reward.sol\":3967:4361  function redeemCoupon(... */\n    tag_3:\n      callvalue\n      dup1\n      iszero\n      tag_22\n      jumpi\n      revert(0x00, 0x00)\n    tag_22:\n      pop\n      tag_23\n      0x04\n      dup1\n      calldatasize\n      sub\n      dup2\n      add\n      swap1\n      tag_24\n      swap2\n      swap1\n      tag_25\n      jump\t// in\n    tag_24:\n      tag_26\n      jump\t// in\n    tag_23:\n      stop\n        /* \"Reward.sol\":627:677  uint256 public constant REWARD_RATE_DIVISOR = 1e16 */\n    tag_4:\n      callvalue\n      dup1\n      iszero\n      tag_27\n      jumpi\n      revert(0x00, 0x00)\n    tag_27:\n      pop\n      tag_28\n      tag_29\n      jump\t// in\n    tag_28:\n      mload(0x40)\n      tag_30\n      swap2\n      swap1\n      tag_31\n      jump\t// in\n    tag_30:\n      mload(0x40)\n      dup1\n      swap2\n      sub\n      swap1\n      return\n        /* \"Reward.sol\":363:406  mapping(bytes32 => uint256) public balances */\n    tag_5:\n      callvalue\n      dup1\n      iszero\n      tag_32\n      jumpi\n      revert(0x00, 0x00)\n    tag_32:\n      pop\n      tag_33\n      0x04\n      dup1\n      calldatasize\n      sub\n      dup2\n      add\n      swap1\n      tag_34\n      swap2\n      swap1\n      tag_35\n      jump\t// in\n    tag_34:\n      tag_36\n      jump\t// in\n    tag_33:\n      mload(0x40)\n      tag_37\n      swap2\n      swap1\n      tag_31\n      jump\t// in\n    tag_37:\n      mload(0x40)\n      dup1\n      swap2\n      sub\n      swap1\n      return\n        /* \"Reward.sol\":230:250  address public owner */\n    tag_6:\n      callvalue\n      dup1\n      iszero\n      tag_38\n      jumpi\n      revert(0x00, 0x00)\n    tag_38:\n      pop\n      tag_39\n      tag_40\n      jump\t// in\n    tag_39:\n      mload(0x40)\n      tag_41\n      swap2\n      swap1\n      tag_42\n      jump\t// in\n    tag_41:\n      mload(0x40)\n      dup1\n      swap2\n      sub\n      swap1\n      return\n        /* \"Reward.sol\":581:618  uint8 public constant NUM_COUPONS = 6 */\n    tag_7:\n      callvalue\n      dup1\n      iszero\n      tag_43\n      jumpi\n      revert(0x00, 0x00)\n    tag_43:\n      pop\n      tag_44\n      tag_45\n      jump\t// in\n    tag_44:\n      mload(0x40)\n      tag_46\n      swap2\n      swap1\n      tag_47\n      jump\t// in\n    tag_46:\n      mload(0x40)\n      dup1\n      swap2\n      sub\n      swap1\n      return\n        /* \"Reward.sol\":2331:2934  function pay(... */\n    tag_8:\n      callvalue\n      dup1\n      iszero\n      tag_48\n      jumpi\n      revert(0x00, 0x00)\n    tag_48:\n      pop\n      tag_49\n      0x04\n      dup1\n      calldatasize\n      sub\n      dup2\n      add\n      swap1\n      tag_50\n      swap2\n      swap1\n      tag_51\n      jump\t// in\n    tag_50:\n      tag_52\n      jump\t// in\n    tag_49:\n      stop\n        /* \"Reward.sol\":1781:1986  function setTerminal(address terminal, bool approved)... */\n    tag_9:\n      callvalue\n      dup1\n      iszero\n      tag_53\n      jumpi\n      revert(0x00, 0x00)\n    tag_53:\n      pop\n      tag_54\n      0x04\n      dup1\n      calldatasize\n      sub\n      dup2\n      add\n      swap1\n      tag_55\n      swap2\n      swap1\n      tag_56\n      jump\t// in\n    tag_55:\n      tag_57\n      jump\t// in\n    tag_54:\n      stop\n        /* \"Reward.sol\":259:308  mapping(address => bool) public approvedTerminals */\n    tag_10:\n      callvalue\n      dup1\n      iszero\n      tag_58\n      jumpi\n      revert(0x00, 0x00)\n    tag_58:\n      pop\n      tag_59\n      0x04\n      dup1\n      calldatasize\n      sub\n      dup2\n      add\n      swap1\n      tag_60\n      swap2\n      swap1\n      tag_61\n      jump\t// in\n    tag_60:\n      tag_62\n      jump\t// in\n    tag_59:\n      mload(0x40)\n      tag_63\n      swap2\n      swap1\n      tag_64\n      jump\t// in\n    tag_63:\n      mload(0x40)\n      dup1\n      swap2\n      sub\n      swap1\n      return\n        /* \"Reward.sol\":3576:3899  function redeemRewards(... */\n    tag_11:\n      callvalue\n      dup1\n      iszero\n      tag_65\n      jumpi\n      revert(0x00, 0x00)\n    tag_65:\n      pop\n      tag_66\n      0x04\n      dup1\n      calldatasize\n      sub\n      dup2\n      add\n      swap1\n      tag_67\n      swap2\n      swap1\n      tag_68\n      jump\t// in\n    tag_67:\n      tag_69\n      jump\t// in\n    tag_66:\n      stop\n        /* \"Reward.sol\":506:573  mapping(bytes32 => mapping(uint8 => uint256)) public couponBalances */\n    tag_12:\n      callvalue\n      dup1\n      iszero\n      tag_70\n      jumpi\n      revert(0x00, 0x00)\n    tag_70:\n      pop\n      tag_71\n      0x04\n      dup1\n      calldatasize\n      sub\n      dup2\n      add\n      swap1\n      tag_72\n      swap2\n      swap1\n      tag_73\n      jump\t// in\n    tag_72:\n      tag_74\n      jump\t// in\n    tag_71:\n      mload(0x40)\n      tag_75\n      swap2\n      swap1\n      tag_31\n      jump\t// in\n    tag_75:\n      mload(0x40)\n      dup1\n      swap2\n      sub\n      swap1\n      return\n        /* \"Reward.sol\":2059:2248  function topUp(bytes32 uid) external payable {... */\n    tag_13:\n      tag_76\n      0x04\n      dup1\n      calldatasize\n      sub\n      dup2\n      add\n      swap1\n      tag_77\n      swap2\n      swap1\n      tag_35\n      jump\t// in\n    tag_77:\n      tag_78\n      jump\t// in\n    tag_76:\n      stop\n        /* \"Reward.sol\":4430:4653  function ownerWithdraw(address payable to, uint256 amount)... */\n    tag_14:\n      callvalue\n      dup1\n      iszero\n      tag_79\n      jumpi\n      revert(0x00, 0x00)\n    tag_79:\n      pop\n      tag_80\n      0x04\n      dup1\n      calldatasize\n      sub\n      dup2\n      add\n      swap1\n      tag_81\n      swap2\n      swap1\n      tag_82\n      jump\t// in\n    tag_81:\n      tag_83\n      jump\t// in\n    tag_80:\n      stop\n        /* \"Reward.sol\":413:460  mapping(bytes32 => uint256) public rewardPoints */\n    tag_15:\n      callvalue\n      dup1\n      iszero\n      tag_84\n      jumpi\n      revert(0x00, 0x00)\n    tag_84:\n      pop\n      tag_85\n      0x04\n      dup1\n      calldatasize\n      sub\n      dup2\n      add\n      swap1\n      tag_86\n      swap2\n      swap1\n      tag_35\n      jump\t// in\n    tag_86:\n      tag_87\n      jump\t// in\n    tag_85:\n      mload(0x40)\n      tag_88\n      swap2\n      swap1\n      tag_31\n      jump\t// in\n    tag_88:\n      mload(0x40)\n      dup1\n      swap2\n      sub\n      swap1\n      return\n        /* \"Reward.sol\":3967:4361  function redeemCoupon(... */\n    tag_26:\n        /* \"Reward.sol\":1564:1569  owner */\n      0x00\n      0x00\n      swap1\n      sload\n      swap1\n      0x0100\n      exp\n      swap1\n      div\n      0xffffffffffffffffffffffffffffffffffffffff\n      and\n        /* \"Reward.sol\":1550:1569  msg.sender == owner */\n      0xffffffffffffffffffffffffffffffffffffffff\n      and\n        /* \"Reward.sol\":1550:1560  msg.sender */\n      caller\n        /* \"Reward.sol\":1550:1569  msg.sender == owner */\n      0xffffffffffffffffffffffffffffffffffffffff\n      and\n      eq\n        /* \"Reward.sol\":1550:1602  msg.sender == owner || approvedTerminals[msg.sender] */\n      dup1\n      tag_90\n      jumpi\n      pop\n        /* \"Reward.sol\":1573:1590  approvedTerminals */\n      0x01\n        /* \"Reward.sol\":1573:1602  approvedTerminals[msg.sender] */\n      0x00\n        /* \"Reward.sol\":1591:1601  msg.sender */\n      caller\n        /* \"Reward.sol\":1573:1602  approvedTerminals[msg.sender] */\n      0xffffffffffffffffffffffffffffffffffffffff\n      and\n      0xffffffffffffffffffffffffffffffffffffffff\n      and\n      dup2\n      mstore\n      0x20\n      add\n      swap1\n      dup2\n      mstore\n      0x20\n      add\n      0x00\n      keccak256\n      0x00\n      swap1\n      sload\n      swap1\n      0x0100\n      exp\n      swap1\n      div\n      0xff\n      and\n        /* \"Reward.sol\":1550:1602  msg.sender == owner || approvedTerminals[msg.sender] */\n    tag_90:\n        /* \"Reward.sol\":1528:1644  require(... */\n      tag_91\n      jumpi\n      mload(0x40)\n      0x08c379a000000000000000000000000000000000000000000000000000000000\n      dup2\n      mstore\n      0x04\n      add\n      tag_92\n      swap1\n      tag_93\n      jump\t// in\n    tag_92:\n      mload(0x40)\n      dup1\n      swap2\n      sub\n      swap1\n      revert\n    tag_91:\n        /* \"Reward.sol\":617:618  6 */\n      0x06\n        /* \"Reward.sol\":4127:4151  couponType < NUM_COUPONS */\n      0xff\n      and\n        /* \"Reward.sol\":4127:4137  couponType */\n      dup4\n        /* \"Reward.sol\":4127:4151  couponType < NUM_COUPONS */\n      0xff\n      and\n      lt\n        /* \"Reward.sol\":4119:4170  require(couponType < NUM_COUPONS, \"Invalid coupon\") */\n      tag_95\n      jumpi\n      mload(0x40)\n      0x08c379a000000000000000000000000000000000000000000000000000000000\n      dup2\n      mstore\n      0x04\n      add\n      tag_96\n      swap1\n      tag_97\n      jump\t// in\n    tag_96:\n      mload(0x40)\n      dup1\n      swap2\n      sub\n      swap1\n      revert\n    tag_95:\n        /* \"Reward.sol\":4223:4224  0 */\n      0x00\n        /* \"Reward.sol\":4189:4203  couponBalances */\n      0x04\n        /* \"Reward.sol\":4189:4208  couponBalances[uid] */\n      0x00\n        /* \"Reward.sol\":4204:4207  uid */\n      dup7\n        /* \"Reward.sol\":4189:4208  couponBalances[uid] */\n      dup2\n      mstore\n      0x20\n      add\n      swap1\n      dup2\n      mstore\n      0x20\n      add\n      0x00\n      keccak256\n        /* \"Reward.sol\":4189:4220  couponBalances[uid][couponType] */\n      0x00\n        /* \"Reward.sol\":4209:4219  couponType */\n      dup6\n        /* \"Reward.sol\":4189:4220  couponBalances[uid][couponType] */\n      0xff\n      and\n      0xff\n      and\n      dup2\n      mstore\n      0x20\n      add\n      swap1\n      dup2\n      mstore\n      0x20\n      add\n      0x00\n      keccak256\n      sload\n        /* \"Reward.sol\":4189:4224  couponBalances[uid][couponType] > 0 */\n      gt\n        /* \"Reward.sol\":4181:4248  require(couponBalances[uid][couponType] > 0, \"No coupon available\") */\n      tag_98\n      jumpi\n      mload(0x40)\n      0x08c379a000000000000000000000000000000000000000000000000000000000\n      dup2\n      mstore\n      0x04\n      add\n      tag_99\n      swap1\n      tag_100\n      jump\t// in\n    tag_99:\n      mload(0x40)\n      dup1\n      swap2\n      sub\n      swap1\n      revert\n    tag_98:\n        /* \"Reward.sol\":4296:4297  1 */\n      0x01\n        /* \"Reward.sol\":4261:4275  couponBalances */\n      0x04\n        /* \"Reward.sol\":4261:4280  couponBalances[uid] */\n      0x00\n        /* \"Reward.sol\":4276:4279  uid */\n      dup7\n        /* \"Reward.sol\":4261:4280  couponBalances[uid] */\n      dup2\n      mstore\n      0x20\n      add\n      swap1\n      dup2\n      mstore\n      0x20\n      add\n      0x00\n      keccak256\n        /* \"Reward.sol\":4261:4292  couponBalances[uid][couponType] */\n      0x00\n        /* \"Reward.sol\":4281:4291  couponType */\n      dup6\n        /* \"Reward.sol\":4261:4292  couponBalances[uid][couponType] */\n      0xff\n      and\n      0xff\n      and\n      dup2\n      mstore\n      0x20\n      add\n      swap1\n      dup2\n      mstore\n      0x20\n      add\n      0x00\n      keccak256\n      0x00\n        /* \"Reward.sol\":4261:4297  couponBalances[uid][couponType] -= 1 */\n      dup3\n      dup3\n      sload\n      tag_101\n      swap2\n      swap1\n      tag_102\n      jump\t// in\n    tag_101:\n      swap3\n      pop\n      pop\n      dup2\n      swap1\n      sstore\n      pop\n        /* \"Reward.sol\":4328:4331  uid */\n      dup4\n        /* \"Reward.sol\":4313:4353  CouponRedeemed(uid, couponType, details) */\n      0x9f192884dcf38a54909ab68532ade405c820d94514784be00c0ffb916f7ce9e4\n        /* \"Reward.sol\":4333:4343  couponType */\n      dup5\n        /* \"Reward.sol\":4345:4352  details */\n      dup5\n      dup5\n        /* \"Reward.sol\":4313:4353  CouponRedeemed(uid, couponType, details) */\n      mload(0x40)\n      tag_103\n      swap4\n      swap3\n      swap2\n      swap1\n      tag_104\n      jump\t// in\n    tag_103:\n      mload(0x40)\n      dup1\n      swap2\n      sub\n      swap1\n      log2\n        /* \"Reward.sol\":3967:4361  function redeemCoupon(... */\n      pop\n      pop\n      pop\n      pop\n      jump\t// out\n        /* \"Reward.sol\":627:677  uint256 public constant REWARD_RATE_DIVISOR = 1e16 */\n    tag_29:\n        /* \"Reward.sol\":673:677  1e16 */\n      0x2386f26fc10000\n        /* \"Reward.sol\":627:677  uint256 public constant REWARD_RATE_DIVISOR = 1e16 */\n      dup2\n      jump\t// out\n        /* \"Reward.sol\":363:406  mapping(bytes32 => uint256) public balances */\n    tag_36:\n      mstore(0x20, 0x02)\n      dup1\n      0x00\n      mstore\n      keccak256(0x00, 0x40)\n      0x00\n      swap2\n      pop\n      swap1\n      pop\n      sload\n      dup2\n      jump\t// out\n        /* \"Reward.sol\":230:250  address public owner */\n    tag_40:\n      0x00\n      0x00\n      swap1\n      sload\n      swap1\n      0x0100\n      exp\n      swap1\n      div\n      0xffffffffffffffffffffffffffffffffffffffff\n      and\n      dup2\n      jump\t// out\n        /* \"Reward.sol\":581:618  uint8 public constant NUM_COUPONS = 6 */\n    tag_45:\n        /* \"Reward.sol\":617:618  6 */\n      0x06\n        /* \"Reward.sol\":581:618  uint8 public constant NUM_COUPONS = 6 */\n      dup2\n      jump\t// out\n        /* \"Reward.sol\":2331:2934  function pay(... */\n    tag_52:\n        /* \"Reward.sol\":1564:1569  owner */\n      0x00\n      0x00\n      swap1\n      sload\n      swap1\n      0x0100\n      exp\n      swap1\n      div\n      0xffffffffffffffffffffffffffffffffffffffff\n      and\n        /* \"Reward.sol\":1550:1569  msg.sender == owner */\n      0xffffffffffffffffffffffffffffffffffffffff\n      and\n        /* \"Reward.sol\":1550:1560  msg.sender */\n      caller\n        /* \"Reward.sol\":1550:1569  msg.sender == owner */\n      0xffffffffffffffffffffffffffffffffffffffff\n      and\n      eq\n        /* \"Reward.sol\":1550:1602  msg.sender == owner || approvedTerminals[msg.sender] */\n      dup1\n      tag_106\n      jumpi\n      pop\n        /* \"Reward.sol\":1573:1590  approvedTerminals */\n      0x01\n        /* \"Reward.sol\":1573:1602  approvedTerminals[msg.sender] */\n      0x00\n        /* \"Reward.sol\":1591:1601  msg.sender */\n      caller\n        /* \"Reward.sol\":1573:1602  approvedTerminals[msg.sender] */\n      0xffffffffffffffffffffffffffffffffffffffff\n      and\n      0xffffffffffffffffffffffffffffffffffffffff\n      and\n      dup2\n      mstore\n      0x20\n      add\n      swap1\n      dup2\n      mstore\n      0x20\n      add\n      0x00\n      keccak256\n      0x00\n      swap1\n      sload\n      swap1\n      0x0100\n      exp\n      swap1\n      div\n      0xff\n      and\n        /* \"Reward.sol\":1550:1602  msg.sender == owner || approvedTerminals[msg.sender] */\n    tag_106:\n        /* \"Reward.sol\":1528:1644  require(... */\n      tag_107\n      jumpi\n      mload(0x40)\n      0x08c379a000000000000000000000000000000000000000000000000000000000\n      dup2\n      mstore\n      0x04\n      add\n      tag_108\n      swap1\n      tag_93\n      jump\t// in\n    tag_108:\n      mload(0x40)\n      dup1\n      swap2\n      sub\n      swap1\n      revert\n    tag_107:\n        /* \"Reward.sol\":2498:2504  amount */\n      dup1\n        /* \"Reward.sol\":2481:2489  balances */\n      0x02\n        /* \"Reward.sol\":2481:2494  balances[uid] */\n      0x00\n        /* \"Reward.sol\":2490:2493  uid */\n      dup6\n        /* \"Reward.sol\":2481:2494  balances[uid] */\n      dup2\n      mstore\n      0x20\n      add\n      swap1\n      dup2\n      mstore\n      0x20\n      add\n      0x00\n      keccak256\n      sload\n        /* \"Reward.sol\":2481:2504  balances[uid] >= amount */\n      lt\n      iszero\n        /* \"Reward.sol\":2473:2529  require(balances[uid] >= amount, \"Insufficient balance\") */\n      tag_110\n      jumpi\n      mload(0x40)\n      0x08c379a000000000000000000000000000000000000000000000000000000000\n      dup2\n      mstore\n      0x04\n      add\n      tag_111\n      swap1\n      tag_112\n      jump\t// in\n    tag_111:\n      mload(0x40)\n      dup1\n      swap2\n      sub\n      swap1\n      revert\n    tag_110:\n        /* \"Reward.sol\":2557:2563  amount */\n      dup1\n        /* \"Reward.sol\":2540:2548  balances */\n      0x02\n        /* \"Reward.sol\":2540:2553  balances[uid] */\n      0x00\n        /* \"Reward.sol\":2549:2552  uid */\n      dup6\n        /* \"Reward.sol\":2540:2553  balances[uid] */\n      dup2\n      mstore\n      0x20\n      add\n      swap1\n      dup2\n      mstore\n      0x20\n      add\n      0x00\n      keccak256\n      0x00\n        /* \"Reward.sol\":2540:2563  balances[uid] -= amount */\n      dup3\n      dup3\n      sload\n      tag_113\n      swap2\n      swap1\n      tag_102\n      jump\t// in\n    tag_113:\n      swap3\n      pop\n      pop\n      dup2\n      swap1\n      sstore\n      pop\n        /* \"Reward.sol\":2613:2621  merchant */\n      dup2\n        /* \"Reward.sol\":2613:2630  merchant.transfer */\n      0xffffffffffffffffffffffffffffffffffffffff\n      and\n        /* \"Reward.sol\":2613:2638  merchant.transfer(amount) */\n      0x08fc\n        /* \"Reward.sol\":2631:2637  amount */\n      dup3\n        /* \"Reward.sol\":2613:2638  merchant.transfer(amount) */\n      swap1\n      dup2\n      iszero\n      mul\n      swap1\n      mload(0x40)\n      0x00\n      mload(0x40)\n      dup1\n      dup4\n      sub\n      dup2\n      dup6\n      dup9\n      dup9\n      call\n      swap4\n      pop\n      pop\n      pop\n      pop\n      iszero\n      dup1\n      iszero\n      tag_115\n      jumpi\n      returndatacopy(0x00, 0x00, returndatasize)\n      revert(0x00, returndatasize)\n    tag_115:\n      pop\n        /* \"Reward.sol\":2698:2712  uint256 reward */\n      0x00\n        /* \"Reward.sol\":673:677  1e16 */\n      0x2386f26fc10000\n        /* \"Reward.sol\":2715:2721  amount */\n      dup3\n        /* \"Reward.sol\":2715:2743  amount / REWARD_RATE_DIVISOR */\n      tag_116\n      swap2\n      swap1\n      tag_117\n      jump\t// in\n    tag_116:\n        /* \"Reward.sol\":2698:2743  uint256 reward = amount / REWARD_RATE_DIVISOR */\n      swap1\n      pop\n        /* \"Reward.sol\":2775:2781  reward */\n      dup1\n        /* \"Reward.sol\":2754:2766  rewardPoints */\n      0x03\n        /* \"Reward.sol\":2754:2771  rewardPoints[uid] */\n      0x00\n        /* \"Reward.sol\":2767:2770  uid */\n      dup7\n        /* \"Reward.sol\":2754:2771  rewardPoints[uid] */\n      dup2\n      mstore\n      0x20\n      add\n      swap1\n      dup2\n      mstore\n      0x20\n      add\n      0x00\n      keccak256\n      0x00\n        /* \"Reward.sol\":2754:2781  rewardPoints[uid] += reward */\n      dup3\n      dup3\n      sload\n      tag_118\n      swap2\n      swap1\n      tag_119\n      jump\t// in\n    tag_118:\n      swap3\n      pop\n      pop\n      dup2\n      swap1\n      sstore\n      pop\n        /* \"Reward.sol\":2835:2858  _grantRandomCoupon(uid) */\n      tag_120\n        /* \"Reward.sol\":2854:2857  uid */\n      dup5\n        /* \"Reward.sol\":2835:2853  _grantRandomCoupon */\n      tag_121\n        /* \"Reward.sol\":2835:2858  _grantRandomCoupon(uid) */\n      jump\t// in\n    tag_120:\n        /* \"Reward.sol\":2915:2925  msg.sender */\n      caller\n        /* \"Reward.sol\":2876:2926  Payment(uid, merchant, amount, reward, msg.sender) */\n      0xffffffffffffffffffffffffffffffffffffffff\n      and\n        /* \"Reward.sol\":2889:2897  merchant */\n      dup4\n        /* \"Reward.sol\":2876:2926  Payment(uid, merchant, amount, reward, msg.sender) */\n      0xffffffffffffffffffffffffffffffffffffffff\n      and\n        /* \"Reward.sol\":2884:2887  uid */\n      dup6\n        /* \"Reward.sol\":2876:2926  Payment(uid, merchant, amount, reward, msg.sender) */\n      0xd724520eaf1da0647d0379840a2906a85618bec195a8b9819560c860edaebaf6\n        /* \"Reward.sol\":2899:2905  amount */\n      dup6\n        /* \"Reward.sol\":2907:2913  reward */\n      dup6\n        /* \"Reward.sol\":2876:2926  Payment(uid, merchant, amount, reward, msg.sender) */\n      mload(0x40)\n      tag_122\n      swap3\n      swap2\n      swap1\n      tag_123\n      jump\t// in\n    tag_122:\n      mload(0x40)\n      dup1\n      swap2\n      sub\n      swap1\n      log4\n        /* \"Reward.sol\":2462:2934  {... */\n      pop\n        /* \"Reward.sol\":2331:2934  function pay(... */\n      pop\n      pop\n      pop\n      jump\t// out\n        /* \"Reward.sol\":1781:1986  function setTerminal(address terminal, bool approved)... */\n    tag_57:\n        /* \"Reward.sol\":1439:1444  owner */\n      0x00\n      0x00\n      swap1\n      sload\n      swap1\n      0x0100\n      exp\n      swap1\n      div\n      0xffffffffffffffffffffffffffffffffffffffff\n      and\n        /* \"Reward.sol\":1425:1444  msg.sender == owner */\n      0xffffffffffffffffffffffffffffffffffffffff\n      and\n        /* \"Reward.sol\":1425:1435  msg.sender */\n      caller\n        /* \"Reward.sol\":1425:1444  msg.sender == owner */\n      0xffffffffffffffffffffffffffffffffffffffff\n      and\n      eq\n        /* \"Reward.sol\":1417:1458  require(msg.sender == owner, \"Not owner\") */\n      tag_125\n      jumpi\n      mload(0x40)\n      0x08c379a000000000000000000000000000000000000000000000000000000000\n      dup2\n      mstore\n      0x04\n      add\n      tag_126\n      swap1\n      tag_127\n      jump\t// in\n    tag_126:\n      mload(0x40)\n      dup1\n      swap2\n      sub\n      swap1\n      revert\n    tag_125:\n        /* \"Reward.sol\":1918:1926  approved */\n      dup1\n        /* \"Reward.sol\":1888:1905  approvedTerminals */\n      0x01\n        /* \"Reward.sol\":1888:1915  approvedTerminals[terminal] */\n      0x00\n        /* \"Reward.sol\":1906:1914  terminal */\n      dup5\n        /* \"Reward.sol\":1888:1915  approvedTerminals[terminal] */\n      0xffffffffffffffffffffffffffffffffffffffff\n      and\n      0xffffffffffffffffffffffffffffffffffffffff\n      and\n      dup2\n      mstore\n      0x20\n      add\n      swap1\n      dup2\n      mstore\n      0x20\n      add\n      0x00\n      keccak256\n      0x00\n        /* \"Reward.sol\":1888:1926  approvedTerminals[terminal] = approved */\n      0x0100\n      exp\n      dup2\n      sload\n      dup2\n      0xff\n      mul\n      not\n      and\n      swap1\n      dup4\n      iszero\n      iszero\n      mul\n      or\n      swap1\n      sstore\n      pop\n        /* \"Reward.sol\":1959:1967  terminal */\n      dup2\n        /* \"Reward.sol\":1942:1978  TerminalApproved(terminal, approved) */\n      0xffffffffffffffffffffffffffffffffffffffff\n      and\n      0x5d58890431b5b6f025224938973f8cffe939e87ed7dd18aa2baea83e7d877717\n        /* \"Reward.sol\":1969:1977  approved */\n      dup3\n        /* \"Reward.sol\":1942:1978  TerminalApproved(terminal, approved) */\n      mload(0x40)\n      tag_129\n      swap2\n      swap1\n      tag_64\n      jump\t// in\n    tag_129:\n      mload(0x40)\n      dup1\n      swap2\n      sub\n      swap1\n      log2\n        /* \"Reward.sol\":1781:1986  function setTerminal(address terminal, bool approved)... */\n      pop\n      pop\n      jump\t// out\n        /* \"Reward.sol\":259:308  mapping(address => bool) public approvedTerminals */\n    tag_62:\n      mstore(0x20, 0x01)\n      dup1\n      0x00\n      mstore\n      keccak256(0x00, 0x40)\n      0x00\n      swap2\n      pop\n      sload\n      swap1\n      0x0100\n      exp\n      swap1\n      div\n      0xff\n      and\n      dup2\n      jump\t// out\n        /* \"Reward.sol\":3576:3899  function redeemRewards(... */\n    tag_69:\n        /* \"Reward.sol\":1564:1569  owner */\n      0x00\n      0x00\n      swap1\n      sload\n      swap1\n      0x0100\n      exp\n      swap1\n      div\n      0xffffffffffffffffffffffffffffffffffffffff\n      and\n        /* \"Reward.sol\":1550:1569  msg.sender == owner */\n      0xffffffffffffffffffffffffffffffffffffffff\n      and\n        /* \"Reward.sol\":1550:1560  msg.sender */\n      caller\n        /* \"Reward.sol\":1550:1569  msg.sender == owner */\n      0xffffffffffffffffffffffffffffffffffffffff\n      and\n      eq\n        /* \"Reward.sol\":1550:1602  msg.sender == owner || approvedTerminals[msg.sender] */\n      dup1\n      tag_131\n      jumpi\n      pop\n        /* \"Reward.sol\":1573:1590  approvedTerminals */\n      0x01\n        /* \"Reward.sol\":1573:1602  approvedTerminals[msg.sender] */\n      0x00\n        /* \"Reward.sol\":1591:1601  msg.sender */\n      caller\n        /* \"Reward.sol\":1573:1602  approvedTerminals[msg.sender] */\n      0xffffffffffffffffffffffffffffffffffffffff\n      and\n      0xffffffffffffffffffffffffffffffffffffffff\n      and\n      dup2\n      mstore\n      0x20\n      add\n      swap1\n      dup2\n      mstore\n      0x20\n      add\n      0x00\n      keccak256\n      0x00\n      swap1\n      sload\n      swap1\n      0x0100\n      exp\n      swap1\n      div\n      0xff\n      and\n        /* \"Reward.sol\":1550:1602  msg.sender == owner || approvedTerminals[msg.sender] */\n    tag_131:\n        /* \"Reward.sol\":1528:1644  require(... */\n      tag_132\n      jumpi\n      mload(0x40)\n      0x08c379a000000000000000000000000000000000000000000000000000000000\n      dup2\n      mstore\n      0x04\n      add\n      tag_133\n      swap1\n      tag_93\n      jump\t// in\n    tag_133:\n      mload(0x40)\n      dup1\n      swap2\n      sub\n      swap1\n      revert\n    tag_132:\n        /* \"Reward.sol\":3758:3764  points */\n      dup3\n        /* \"Reward.sol\":3737:3749  rewardPoints */\n      0x03\n        /* \"Reward.sol\":3737:3754  rewardPoints[uid] */\n      0x00\n        /* \"Reward.sol\":3750:3753  uid */\n      dup7\n        /* \"Reward.sol\":3737:3754  rewardPoints[uid] */\n      dup2\n      mstore\n      0x20\n      add\n      swap1\n      dup2\n      mstore\n      0x20\n      add\n      0x00\n      keccak256\n      sload\n        /* \"Reward.sol\":3737:3764  rewardPoints[uid] >= points */\n      lt\n      iszero\n        /* \"Reward.sol\":3729:3786  require(rewardPoints[uid] >= points, \"Not enough points\") */\n      tag_135\n      jumpi\n      mload(0x40)\n      0x08c379a000000000000000000000000000000000000000000000000000000000\n      dup2\n      mstore\n      0x04\n      add\n      tag_136\n      swap1\n      tag_137\n      jump\t// in\n    tag_136:\n      mload(0x40)\n      dup1\n      swap2\n      sub\n      swap1\n      revert\n    tag_135:\n        /* \"Reward.sol\":3818:3824  points */\n      dup3\n        /* \"Reward.sol\":3797:3809  rewardPoints */\n      0x03\n        /* \"Reward.sol\":3797:3814  rewardPoints[uid] */\n      0x00\n        /* \"Reward.sol\":3810:3813  uid */\n      dup7\n        /* \"Reward.sol\":3797:3814  rewardPoints[uid] */\n      dup2\n      mstore\n      0x20\n      add\n      swap1\n      dup2\n      mstore\n      0x20\n      add\n      0x00\n      keccak256\n      0x00\n        /* \"Reward.sol\":3797:3824  rewardPoints[uid] -= points */\n      dup3\n      dup3\n      sload\n      tag_138\n      swap2\n      swap1\n      tag_102\n      jump\t// in\n    tag_138:\n      swap3\n      pop\n      pop\n      dup2\n      swap1\n      sstore\n      pop\n        /* \"Reward.sol\":3880:3890  msg.sender */\n      caller\n        /* \"Reward.sol\":3840:3891  RewardsRedeemed(uid, points, serviceId, msg.sender) */\n      0xffffffffffffffffffffffffffffffffffffffff\n      and\n        /* \"Reward.sol\":3856:3859  uid */\n      dup5\n        /* \"Reward.sol\":3840:3891  RewardsRedeemed(uid, points, serviceId, msg.sender) */\n      0x928cecf66535b70a3ca38b5cb1dc1b95d6d640bc06679ef452c30d850c05217f\n        /* \"Reward.sol\":3861:3867  points */\n      dup6\n        /* \"Reward.sol\":3869:3878  serviceId */\n      dup6\n      dup6\n        /* \"Reward.sol\":3840:3891  RewardsRedeemed(uid, points, serviceId, msg.sender) */\n      mload(0x40)\n      tag_139\n      swap4\n      swap3\n      swap2\n      swap1\n      tag_140\n      jump\t// in\n    tag_139:\n      mload(0x40)\n      dup1\n      swap2\n      sub\n      swap1\n      log3\n        /* \"Reward.sol\":3576:3899  function redeemRewards(... */\n      pop\n      pop\n      pop\n      pop\n      jump\t// out\n        /* \"Reward.sol\":506:573  mapping(bytes32 => mapping(uint8 => uint256)) public couponBalances */\n    tag_74:\n      mstore(0x20, 0x04)\n      dup2\n      0x00\n      mstore\n      mstore(0x20, keccak256(0x00, 0x40))\n      dup1\n      0x00\n      mstore\n      keccak256(0x00, 0x40)\n      0x00\n      swap2\n      pop\n      swap2\n      pop\n      pop\n      sload\n      dup2\n      jump\t// out\n        /* \"Reward.sol\":2059:2248  function topUp(bytes32 uid) external payable {... */\n    tag_78:\n        /* \"Reward.sol\":2135:2136  0 */\n      0x00\n        /* \"Reward.sol\":2123:2132  msg.value */\n      callvalue\n        /* \"Reward.sol\":2123:2136  msg.value > 0 */\n      gt\n        /* \"Reward.sol\":2115:2154  require(msg.value > 0, \"No funds sent\") */\n      tag_142\n      jumpi\n      mload(0x40)\n      0x08c379a000000000000000000000000000000000000000000000000000000000\n      dup2\n      mstore\n      0x04\n      add\n      tag_143\n      swap1\n      tag_144\n      jump\t// in\n    tag_143:\n      mload(0x40)\n      dup1\n      swap2\n      sub\n      swap1\n      revert\n    tag_142:\n        /* \"Reward.sol\":2182:2191  msg.value */\n      callvalue\n        /* \"Reward.sol\":2165:2173  balances */\n      0x02\n        /* \"Reward.sol\":2165:2178  balances[uid] */\n      0x00\n        /* \"Reward.sol\":2174:2177  uid */\n      dup4\n        /* \"Reward.sol\":2165:2178  balances[uid] */\n      dup2\n      mstore\n      0x20\n      add\n      swap1\n      dup2\n      mstore\n      0x20\n      add\n      0x00\n      keccak256\n      0x00\n        /* \"Reward.sol\":2165:2191  balances[uid] += msg.value */\n      dup3\n      dup3\n      sload\n      tag_145\n      swap2\n      swap1\n      tag_119\n      jump\t// in\n    tag_145:\n      swap3\n      pop\n      pop\n      dup2\n      swap1\n      sstore\n      pop\n        /* \"Reward.sol\":2229:2239  msg.sender */\n      caller\n        /* \"Reward.sol\":2207:2240  TopUp(uid, msg.value, msg.sender) */\n      0xffffffffffffffffffffffffffffffffffffffff\n      and\n        /* \"Reward.sol\":2213:2216  uid */\n      dup2\n        /* \"Reward.sol\":2207:2240  TopUp(uid, msg.value, msg.sender) */\n      0xde196b7c62b5e02636a152ed0eb5b7a4a722f7282fe0b7505e255bb45d8e4422\n        /* \"Reward.sol\":2218:2227  msg.value */\n      callvalue\n        /* \"Reward.sol\":2207:2240  TopUp(uid, msg.value, msg.sender) */\n      mload(0x40)\n      tag_146\n      swap2\n      swap1\n      tag_31\n      jump\t// in\n    tag_146:\n      mload(0x40)\n      dup1\n      swap2\n      sub\n      swap1\n      log3\n        /* \"Reward.sol\":2059:2248  function topUp(bytes32 uid) external payable {... */\n      pop\n      jump\t// out\n        /* \"Reward.sol\":4430:4653  function ownerWithdraw(address payable to, uint256 amount)... */\n    tag_83:\n        /* \"Reward.sol\":1439:1444  owner */\n      0x00\n      0x00\n      swap1\n      sload\n      swap1\n      0x0100\n      exp\n      swap1\n      div\n      0xffffffffffffffffffffffffffffffffffffffff\n      and\n        /* \"Reward.sol\":1425:1444  msg.sender == owner */\n      0xffffffffffffffffffffffffffffffffffffffff\n      and\n        /* \"Reward.sol\":1425:1435  msg.sender */\n      caller\n        /* \"Reward.sol\":1425:1444  msg.sender == owner */\n      0xffffffffffffffffffffffffffffffffffffffff\n      and\n      eq\n        /* \"Reward.sol\":1417:1458  require(msg.sender == owner, \"Not owner\") */\n      tag_148\n      jumpi\n      mload(0x40)\n      0x08c379a000000000000000000000000000000000000000000000000000000000\n      dup2\n      mstore\n      0x04\n      add\n      tag_149\n      swap1\n      tag_127\n      jump\t// in\n    tag_149:\n      mload(0x40)\n      dup1\n      swap2\n      sub\n      swap1\n      revert\n    tag_148:\n        /* \"Reward.sol\":4575:4581  amount */\n      dup1\n        /* \"Reward.sol\":4550:4571  address(this).balance */\n      selfbalance\n        /* \"Reward.sol\":4550:4581  address(this).balance >= amount */\n      lt\n      iszero\n        /* \"Reward.sol\":4542:4615  require(address(this).balance >= amount, \"Insufficient contract balance\") */\n      tag_151\n      jumpi\n      mload(0x40)\n      0x08c379a000000000000000000000000000000000000000000000000000000000\n      dup2\n      mstore\n      0x04\n      add\n      tag_152\n      swap1\n      tag_153\n      jump\t// in\n    tag_152:\n      mload(0x40)\n      dup1\n      swap2\n      sub\n      swap1\n      revert\n    tag_151:\n        /* \"Reward.sol\":4626:4628  to */\n      dup2\n        /* \"Reward.sol\":4626:4637  to.transfer */\n      0xffffffffffffffffffffffffffffffffffffffff\n      and\n        /* \"Reward.sol\":4626:4645  to.transfer(amount) */\n      0x08fc\n        /* \"Reward.sol\":4638:4644  amount */\n      dup3\n        /* \"Reward.sol\":4626:4645  to.transfer(amount) */\n      swap1\n      dup2\n      iszero\n      mul\n      swap1\n      mload(0x40)\n      0x00\n      mload(0x40)\n      dup1\n      dup4\n      sub\n      dup2\n      dup6\n      dup9\n      dup9\n      call\n      swap4\n      pop\n      pop\n      pop\n      pop\n      iszero\n      dup1\n      iszero\n      tag_155\n      jumpi\n      returndatacopy(0x00, 0x00, returndatasize)\n      revert(0x00, returndatasize)\n    tag_155:\n      pop\n        /* \"Reward.sol\":4430:4653  function ownerWithdraw(address payable to, uint256 amount)... */\n      pop\n      pop\n      jump\t// out\n        /* \"Reward.sol\":413:460  mapping(bytes32 => uint256) public rewardPoints */\n    tag_87:\n      mstore(0x20, 0x03)\n      dup1\n      0x00\n      mstore\n      keccak256(0x00, 0x40)\n      0x00\n      swap2\n      pop\n      swap1\n      pop\n      sload\n      dup2\n      jump\t// out\n        /* \"Reward.sol\":2996:3498  function _grantRandomCoupon(bytes32 uid) internal {... */\n    tag_121:\n        /* \"Reward.sol\":3138:3154  uint8 couponType */\n      0x00\n        /* \"Reward.sol\":617:618  6 */\n      0x06\n        /* \"Reward.sol\":3177:3351  uint256(... */\n      0xff\n      and\n        /* \"Reward.sol\":3252:3267  block.timestamp */\n      timestamp\n        /* \"Reward.sol\":3269:3279  msg.sender */\n      caller\n        /* \"Reward.sol\":3281:3284  uid */\n      dup5\n        /* \"Reward.sol\":3286:3302  block.prevrandao */\n      prevrandao\n        /* \"Reward.sol\":3235:3303  abi.encodePacked(block.timestamp, msg.sender, uid, block.prevrandao) */\n      add(0x20, mload(0x40))\n      tag_157\n      swap5\n      swap4\n      swap3\n      swap2\n      swap1\n      tag_158\n      jump\t// in\n    tag_157:\n      mload(0x40)\n      0x20\n      dup2\n      dup4\n      sub\n      sub\n      dup2\n      mstore\n      swap1\n      0x40\n      mstore\n        /* \"Reward.sol\":3203:3322  keccak256(... */\n      dup1\n      mload\n      swap1\n      0x20\n      add\n      keccak256\n        /* \"Reward.sol\":3177:3337  uint256(... */\n      0x00\n      shr\n        /* \"Reward.sol\":3177:3351  uint256(... */\n      tag_159\n      swap2\n      swap1\n      tag_160\n      jump\t// in\n    tag_159:\n        /* \"Reward.sol\":3138:3362  uint8 couponType = uint8(... */\n      swap1\n      pop\n        /* \"Reward.sol\":3410:3411  1 */\n      0x01\n        /* \"Reward.sol\":3375:3389  couponBalances */\n      0x04\n        /* \"Reward.sol\":3375:3394  couponBalances[uid] */\n      0x00\n        /* \"Reward.sol\":3390:3393  uid */\n      dup5\n        /* \"Reward.sol\":3375:3394  couponBalances[uid] */\n      dup2\n      mstore\n      0x20\n      add\n      swap1\n      dup2\n      mstore\n      0x20\n      add\n      0x00\n      keccak256\n        /* \"Reward.sol\":3375:3406  couponBalances[uid][couponType] */\n      0x00\n        /* \"Reward.sol\":3395:3405  couponType */\n      dup4\n        /* \"Reward.sol\":3375:3406  couponBalances[uid][couponType] */\n      0xff\n      and\n      0xff\n      and\n      dup2\n      mstore\n      0x20\n      add\n      swap1\n      dup2\n      mstore\n      0x20\n      add\n      0x00\n      keccak256\n      0x00\n        /* \"Reward.sol\":3375:3411  couponBalances[uid][couponType] += 1 */\n      dup3\n      dup3\n      sload\n      tag_161\n      swap2\n      swap1\n      tag_119\n      jump\t// in\n    tag_161:\n      swap3\n      pop\n      pop\n      dup2\n      swap1\n      sstore\n      pop\n        /* \"Reward.sol\":3441:3444  uid */\n      dup2\n        /* \"Reward.sol\":3427:3490  CouponGranted(uid, couponType, couponBalances[uid][couponType]) */\n      0xa44a93b9ba75063a4fb65210e607817435b0f8419db1ea1bd9628483fa4f07a9\n        /* \"Reward.sol\":3446:3456  couponType */\n      dup3\n        /* \"Reward.sol\":3458:3472  couponBalances */\n      0x04\n        /* \"Reward.sol\":3458:3477  couponBalances[uid] */\n      0x00\n        /* \"Reward.sol\":3473:3476  uid */\n      dup7\n        /* \"Reward.sol\":3458:3477  couponBalances[uid] */\n      dup2\n      mstore\n      0x20\n      add\n      swap1\n      dup2\n      mstore\n      0x20\n      add\n      0x00\n      keccak256\n        /* \"Reward.sol\":3458:3489  couponBalances[uid][couponType] */\n      0x00\n        /* \"Reward.sol\":3478:3488  couponType */\n      dup6\n        /* \"Reward.sol\":3458:3489  couponBalances[uid][couponType] */\n      0xff\n      and\n      0xff\n      and\n      dup2\n      mstore\n      0x20\n      add\n      swap1\n      dup2\n      mstore\n      0x20\n      add\n      0x00\n      keccak256\n      sload\n        /* \"Reward.sol\":3427:3490  CouponGranted(uid, couponType, couponBalances[uid][couponType]) */\n      mload(0x40)\n      tag_162\n      swap3\n      swap2\n      swap1\n      tag_163\n      jump\t// in\n    tag_162:\n      mload(0x40)\n      dup1\n      swap2\n      sub\n      swap1\n      log2\n        /* \"Reward.sol\":3046:3498  {... */\n      pop\n        /* \"Reward.sol\":2996:3498  function _grantRandomCoupon(bytes32 uid) internal {... */\n      pop\n      jump\t// out\n        /* \"#utility.yul\":88:205   */\n    tag_165:\n        /* \"#utility.yul\":197:198   */\n      0x00\n        /* \"#utility.yul\":194:195   */\n      0x00\n        /* \"#utility.yul\":187:199   */\n      revert\n        /* \"#utility.yul\":211:328   */\n    tag_166:\n        /* \"#utility.yul\":320:321   */\n      0x00\n        /* \"#utility.yul\":317:318   */\n      0x00\n        /* \"#utility.yul\":310:322   */\n      revert\n        /* \"#utility.yul\":334:411   */\n    tag_167:\n        /* \"#utility.yul\":371:378   */\n      0x00\n        /* \"#utility.yul\":400:405   */\n      dup2\n        /* \"#utility.yul\":389:405   */\n      swap1\n      pop\n        /* \"#utility.yul\":334:411   */\n      swap2\n      swap1\n      pop\n      jump\t// out\n        /* \"#utility.yul\":417:539   */\n    tag_168:\n        /* \"#utility.yul\":490:514   */\n      tag_230\n        /* \"#utility.yul\":508:513   */\n      dup2\n        /* \"#utility.yul\":490:514   */\n      tag_167\n      jump\t// in\n    tag_230:\n        /* \"#utility.yul\":483:488   */\n      dup2\n        /* \"#utility.yul\":480:515   */\n      eq\n        /* \"#utility.yul\":470:533   */\n      tag_231\n      jumpi\n        /* \"#utility.yul\":529:530   */\n      0x00\n        /* \"#utility.yul\":526:527   */\n      0x00\n        /* \"#utility.yul\":519:531   */\n      revert\n        /* \"#utility.yul\":470:533   */\n    tag_231:\n        /* \"#utility.yul\":417:539   */\n      pop\n      jump\t// out\n        /* \"#utility.yul\":545:684   */\n    tag_169:\n        /* \"#utility.yul\":591:596   */\n      0x00\n        /* \"#utility.yul\":629:635   */\n      dup2\n        /* \"#utility.yul\":616:636   */\n      calldataload\n        /* \"#utility.yul\":607:636   */\n      swap1\n      pop\n        /* \"#utility.yul\":645:678   */\n      tag_233\n        /* \"#utility.yul\":672:677   */\n      dup2\n        /* \"#utility.yul\":645:678   */\n      tag_168\n      jump\t// in\n    tag_233:\n        /* \"#utility.yul\":545:684   */\n      swap3\n      swap2\n      pop\n      pop\n      jump\t// out\n        /* \"#utility.yul\":690:776   */\n    tag_170:\n        /* \"#utility.yul\":725:732   */\n      0x00\n        /* \"#utility.yul\":765:769   */\n      0xff\n        /* \"#utility.yul\":758:763   */\n      dup3\n        /* \"#utility.yul\":754:770   */\n      and\n        /* \"#utility.yul\":743:770   */\n      swap1\n      pop\n        /* \"#utility.yul\":690:776   */\n      swap2\n      swap1\n      pop\n      jump\t// out\n        /* \"#utility.yul\":782:900   */\n    tag_171:\n        /* \"#utility.yul\":853:875   */\n      tag_236\n        /* \"#utility.yul\":869:874   */\n      dup2\n        /* \"#utility.yul\":853:875   */\n      tag_170\n      jump\t// in\n    tag_236:\n        /* \"#utility.yul\":846:851   */\n      dup2\n        /* \"#utility.yul\":843:876   */\n      eq\n        /* \"#utility.yul\":833:894   */\n      tag_237\n      jumpi\n        /* \"#utility.yul\":890:891   */\n      0x00\n        /* \"#utility.yul\":887:888   */\n      0x00\n        /* \"#utility.yul\":880:892   */\n      revert\n        /* \"#utility.yul\":833:894   */\n    tag_237:\n        /* \"#utility.yul\":782:900   */\n      pop\n      jump\t// out\n        /* \"#utility.yul\":906:1041   */\n    tag_172:\n        /* \"#utility.yul\":950:955   */\n      0x00\n        /* \"#utility.yul\":988:994   */\n      dup2\n        /* \"#utility.yul\":975:995   */\n      calldataload\n        /* \"#utility.yul\":966:995   */\n      swap1\n      pop\n        /* \"#utility.yul\":1004:1035   */\n      tag_239\n        /* \"#utility.yul\":1029:1034   */\n      dup2\n        /* \"#utility.yul\":1004:1035   */\n      tag_171\n      jump\t// in\n    tag_239:\n        /* \"#utility.yul\":906:1041   */\n      swap3\n      swap2\n      pop\n      pop\n      jump\t// out\n        /* \"#utility.yul\":1047:1164   */\n    tag_173:\n        /* \"#utility.yul\":1156:1157   */\n      0x00\n        /* \"#utility.yul\":1153:1154   */\n      0x00\n        /* \"#utility.yul\":1146:1158   */\n      revert\n        /* \"#utility.yul\":1170:1287   */\n    tag_174:\n        /* \"#utility.yul\":1279:1280   */\n      0x00\n        /* \"#utility.yul\":1276:1277   */\n      0x00\n        /* \"#utility.yul\":1269:1281   */\n      revert\n        /* \"#utility.yul\":1293:1410   */\n    tag_175:\n        /* \"#utility.yul\":1402:1403   */\n      0x00\n        /* \"#utility.yul\":1399:1400   */\n      0x00\n        /* \"#utility.yul\":1392:1404   */\n      revert\n        /* \"#utility.yul\":1430:1983   */\n    tag_176:\n        /* \"#utility.yul\":1488:1496   */\n      0x00\n        /* \"#utility.yul\":1498:1504   */\n      0x00\n        /* \"#utility.yul\":1548:1551   */\n      dup4\n        /* \"#utility.yul\":1541:1545   */\n      0x1f\n        /* \"#utility.yul\":1533:1539   */\n      dup5\n        /* \"#utility.yul\":1529:1546   */\n      add\n        /* \"#utility.yul\":1525:1552   */\n      slt\n        /* \"#utility.yul\":1515:1637   */\n      tag_244\n      jumpi\n        /* \"#utility.yul\":1556:1635   */\n      tag_245\n      tag_173\n      jump\t// in\n    tag_245:\n        /* \"#utility.yul\":1515:1637   */\n    tag_244:\n        /* \"#utility.yul\":1669:1675   */\n      dup3\n        /* \"#utility.yul\":1656:1676   */\n      calldataload\n        /* \"#utility.yul\":1646:1676   */\n      swap1\n      pop\n        /* \"#utility.yul\":1699:1717   */\n      0xffffffffffffffff\n        /* \"#utility.yul\":1691:1697   */\n      dup2\n        /* \"#utility.yul\":1688:1718   */\n      gt\n        /* \"#utility.yul\":1685:1802   */\n      iszero\n      tag_246\n      jumpi\n        /* \"#utility.yul\":1721:1800   */\n      tag_247\n      tag_174\n      jump\t// in\n    tag_247:\n        /* \"#utility.yul\":1685:1802   */\n    tag_246:\n        /* \"#utility.yul\":1835:1839   */\n      0x20\n        /* \"#utility.yul\":1827:1833   */\n      dup4\n        /* \"#utility.yul\":1823:1840   */\n      add\n        /* \"#utility.yul\":1811:1840   */\n      swap2\n      pop\n        /* \"#utility.yul\":1889:1892   */\n      dup4\n        /* \"#utility.yul\":1881:1885   */\n      0x01\n        /* \"#utility.yul\":1873:1879   */\n      dup3\n        /* \"#utility.yul\":1869:1886   */\n      mul\n        /* \"#utility.yul\":1859:1867   */\n      dup4\n        /* \"#utility.yul\":1855:1887   */\n      add\n        /* \"#utility.yul\":1852:1893   */\n      gt\n        /* \"#utility.yul\":1849:1977   */\n      iszero\n      tag_248\n      jumpi\n        /* \"#utility.yul\":1896:1975   */\n      tag_249\n      tag_175\n      jump\t// in\n    tag_249:\n        /* \"#utility.yul\":1849:1977   */\n    tag_248:\n        /* \"#utility.yul\":1430:1983   */\n      swap3\n      pop\n      swap3\n      swap1\n      pop\n      jump\t// out\n        /* \"#utility.yul\":1989:2804   */\n    tag_25:\n        /* \"#utility.yul\":2076:2082   */\n      0x00\n        /* \"#utility.yul\":2084:2090   */\n      0x00\n        /* \"#utility.yul\":2092:2098   */\n      0x00\n        /* \"#utility.yul\":2100:2106   */\n      0x00\n        /* \"#utility.yul\":2149:2151   */\n      0x60\n        /* \"#utility.yul\":2137:2146   */\n      dup6\n        /* \"#utility.yul\":2128:2135   */\n      dup8\n        /* \"#utility.yul\":2124:2147   */\n      sub\n        /* \"#utility.yul\":2120:2152   */\n      slt\n        /* \"#utility.yul\":2117:2236   */\n      iszero\n      tag_251\n      jumpi\n        /* \"#utility.yul\":2155:2234   */\n      tag_252\n      tag_165\n      jump\t// in\n    tag_252:\n        /* \"#utility.yul\":2117:2236   */\n    tag_251:\n        /* \"#utility.yul\":2275:2276   */\n      0x00\n        /* \"#utility.yul\":2300:2353   */\n      tag_253\n        /* \"#utility.yul\":2345:2352   */\n      dup8\n        /* \"#utility.yul\":2336:2342   */\n      dup3\n        /* \"#utility.yul\":2325:2334   */\n      dup9\n        /* \"#utility.yul\":2321:2343   */\n      add\n        /* \"#utility.yul\":2300:2353   */\n      tag_169\n      jump\t// in\n    tag_253:\n        /* \"#utility.yul\":2290:2353   */\n      swap5\n      pop\n        /* \"#utility.yul\":2246:2363   */\n      pop\n        /* \"#utility.yul\":2402:2404   */\n      0x20\n        /* \"#utility.yul\":2428:2479   */\n      tag_254\n        /* \"#utility.yul\":2471:2478   */\n      dup8\n        /* \"#utility.yul\":2462:2468   */\n      dup3\n        /* \"#utility.yul\":2451:2460   */\n      dup9\n        /* \"#utility.yul\":2447:2469   */\n      add\n        /* \"#utility.yul\":2428:2479   */\n      tag_172\n      jump\t// in\n    tag_254:\n        /* \"#utility.yul\":2418:2479   */\n      swap4\n      pop\n        /* \"#utility.yul\":2373:2489   */\n      pop\n        /* \"#utility.yul\":2556:2558   */\n      0x40\n        /* \"#utility.yul\":2545:2554   */\n      dup6\n        /* \"#utility.yul\":2541:2559   */\n      add\n        /* \"#utility.yul\":2528:2560   */\n      calldataload\n        /* \"#utility.yul\":2587:2605   */\n      0xffffffffffffffff\n        /* \"#utility.yul\":2579:2585   */\n      dup2\n        /* \"#utility.yul\":2576:2606   */\n      gt\n        /* \"#utility.yul\":2573:2690   */\n      iszero\n      tag_255\n      jumpi\n        /* \"#utility.yul\":2609:2688   */\n      tag_256\n      tag_166\n      jump\t// in\n    tag_256:\n        /* \"#utility.yul\":2573:2690   */\n    tag_255:\n        /* \"#utility.yul\":2722:2787   */\n      tag_257\n        /* \"#utility.yul\":2779:2786   */\n      dup8\n        /* \"#utility.yul\":2770:2776   */\n      dup3\n        /* \"#utility.yul\":2759:2768   */\n      dup9\n        /* \"#utility.yul\":2755:2777   */\n      add\n        /* \"#utility.yul\":2722:2787   */\n      tag_176\n      jump\t// in\n    tag_257:\n        /* \"#utility.yul\":2704:2787   */\n      swap3\n      pop\n      swap3\n      pop\n        /* \"#utility.yul\":2499:2797   */\n      pop\n        /* \"#utility.yul\":1989:2804   */\n      swap3\n      swap6\n      swap2\n      swap5\n      pop\n      swap3\n      pop\n      jump\t// out\n        /* \"#utility.yul\":2810:2887   */\n    tag_177:\n        /* \"#utility.yul\":2847:2854   */\n      0x00\n        /* \"#utility.yul\":2876:2881   */\n      dup2\n        /* \"#utility.yul\":2865:2881   */\n      swap1\n      pop\n        /* \"#utility.yul\":2810:2887   */\n      swap2\n      swap1\n      pop\n      jump\t// out\n        /* \"#utility.yul\":2893:3011   */\n    tag_178:\n        /* \"#utility.yul\":2980:3004   */\n      tag_260\n        /* \"#utility.yul\":2998:3003   */\n      dup2\n        /* \"#utility.yul\":2980:3004   */\n      tag_177\n      jump\t// in\n    tag_260:\n        /* \"#utility.yul\":2975:2978   */\n      dup3\n        /* \"#utility.yul\":2968:3005   */\n      mstore\n        /* \"#utility.yul\":2893:3011   */\n      pop\n      pop\n      jump\t// out\n        /* \"#utility.yul\":3017:3239   */\n    tag_31:\n        /* \"#utility.yul\":3110:3114   */\n      0x00\n        /* \"#utility.yul\":3148:3150   */\n      0x20\n        /* \"#utility.yul\":3137:3146   */\n      dup3\n        /* \"#utility.yul\":3133:3151   */\n      add\n        /* \"#utility.yul\":3125:3151   */\n      swap1\n      pop\n        /* \"#utility.yul\":3161:3232   */\n      tag_262\n        /* \"#utility.yul\":3229:3230   */\n      0x00\n        /* \"#utility.yul\":3218:3227   */\n      dup4\n        /* \"#utility.yul\":3214:3231   */\n      add\n        /* \"#utility.yul\":3205:3211   */\n      dup5\n        /* \"#utility.yul\":3161:3232   */\n      tag_178\n      jump\t// in\n    tag_262:\n        /* \"#utility.yul\":3017:3239   */\n      swap3\n      swap2\n      pop\n      pop\n      jump\t// out\n        /* \"#utility.yul\":3245:3574   */\n    tag_35:\n        /* \"#utility.yul\":3304:3310   */\n      0x00\n        /* \"#utility.yul\":3353:3355   */\n      0x20\n        /* \"#utility.yul\":3341:3350   */\n      dup3\n        /* \"#utility.yul\":3332:3339   */\n      dup5\n        /* \"#utility.yul\":3328:3351   */\n      sub\n        /* \"#utility.yul\":3324:3356   */\n      slt\n        /* \"#utility.yul\":3321:3440   */\n      iszero\n      tag_264\n      jumpi\n        /* \"#utility.yul\":3359:3438   */\n      tag_265\n      tag_165\n      jump\t// in\n    tag_265:\n        /* \"#utility.yul\":3321:3440   */\n    tag_264:\n        /* \"#utility.yul\":3479:3480   */\n      0x00\n        /* \"#utility.yul\":3504:3557   */\n      tag_266\n        /* \"#utility.yul\":3549:3556   */\n      dup5\n        /* \"#utility.yul\":3540:3546   */\n      dup3\n        /* \"#utility.yul\":3529:3538   */\n      dup6\n        /* \"#utility.yul\":3525:3547   */\n      add\n        /* \"#utility.yul\":3504:3557   */\n      tag_169\n      jump\t// in\n    tag_266:\n        /* \"#utility.yul\":3494:3557   */\n      swap2\n      pop\n        /* \"#utility.yul\":3450:3567   */\n      pop\n        /* \"#utility.yul\":3245:3574   */\n      swap3\n      swap2\n      pop\n      pop\n      jump\t// out\n        /* \"#utility.yul\":3580:3706   */\n    tag_179:\n        /* \"#utility.yul\":3617:3624   */\n      0x00\n        /* \"#utility.yul\":3657:3699   */\n      0xffffffffffffffffffffffffffffffffffffffff\n        /* \"#utility.yul\":3650:3655   */\n      dup3\n        /* \"#utility.yul\":3646:3700   */\n      and\n        /* \"#utility.yul\":3635:3700   */\n      swap1\n      pop\n        /* \"#utility.yul\":3580:3706   */\n      swap2\n      swap1\n      pop\n      jump\t// out\n        /* \"#utility.yul\":3712:3808   */\n    tag_180:\n        /* \"#utility.yul\":3749:3756   */\n      0x00\n        /* \"#utility.yul\":3778:3802   */\n      tag_269\n        /* \"#utility.yul\":3796:3801   */\n      dup3\n        /* \"#utility.yul\":3778:3802   */\n      tag_179\n      jump\t// in\n    tag_269:\n        /* \"#utility.yul\":3767:3802   */\n      swap1\n      pop\n        /* \"#utility.yul\":3712:3808   */\n      swap2\n      swap1\n      pop\n      jump\t// out\n        /* \"#utility.yul\":3814:3932   */\n    tag_181:\n        /* \"#utility.yul\":3901:3925   */\n      tag_271\n        /* \"#utility.yul\":3919:3924   */\n      dup2\n        /* \"#utility.yul\":3901:3925   */\n      tag_180\n      jump\t// in\n    tag_271:\n        /* \"#utility.yul\":3896:3899   */\n      dup3\n        /* \"#utility.yul\":3889:3926   */\n      mstore\n        /* \"#utility.yul\":3814:3932   */\n      pop\n      pop\n      jump\t// out\n        /* \"#utility.yul\":3938:4160   */\n    tag_42:\n        /* \"#utility.yul\":4031:4035   */\n      0x00\n        /* \"#utility.yul\":4069:4071   */\n      0x20\n        /* \"#utility.yul\":4058:4067   */\n      dup3\n        /* \"#utility.yul\":4054:4072   */\n      add\n        /* \"#utility.yul\":4046:4072   */\n      swap1\n      pop\n        /* \"#utility.yul\":4082:4153   */\n      tag_273\n        /* \"#utility.yul\":4150:4151   */\n      0x00\n        /* \"#utility.yul\":4139:4148   */\n      dup4\n        /* \"#utility.yul\":4135:4152   */\n      add\n        /* \"#utility.yul\":4126:4132   */\n      dup5\n        /* \"#utility.yul\":4082:4153   */\n      tag_181\n      jump\t// in\n    tag_273:\n        /* \"#utility.yul\":3938:4160   */\n      swap3\n      swap2\n      pop\n      pop\n      jump\t// out\n        /* \"#utility.yul\":4166:4278   */\n    tag_182:\n        /* \"#utility.yul\":4249:4271   */\n      tag_275\n        /* \"#utility.yul\":4265:4270   */\n      dup2\n        /* \"#utility.yul\":4249:4271   */\n      tag_170\n      jump\t// in\n    tag_275:\n        /* \"#utility.yul\":4244:4247   */\n      dup3\n        /* \"#utility.yul\":4237:4272   */\n      mstore\n        /* \"#utility.yul\":4166:4278   */\n      pop\n      pop\n      jump\t// out\n        /* \"#utility.yul\":4284:4498   */\n    tag_47:\n        /* \"#utility.yul\":4373:4377   */\n      0x00\n        /* \"#utility.yul\":4411:4413   */\n      0x20\n        /* \"#utility.yul\":4400:4409   */\n      dup3\n        /* \"#utility.yul\":4396:4414   */\n      add\n        /* \"#utility.yul\":4388:4414   */\n      swap1\n      pop\n        /* \"#utility.yul\":4424:4491   */\n      tag_277\n        /* \"#utility.yul\":4488:4489   */\n      0x00\n        /* \"#utility.yul\":4477:4486   */\n      dup4\n        /* \"#utility.yul\":4473:4490   */\n      add\n        /* \"#utility.yul\":4464:4470   */\n      dup5\n        /* \"#utility.yul\":4424:4491   */\n      tag_182\n      jump\t// in\n    tag_277:\n        /* \"#utility.yul\":4284:4498   */\n      swap3\n      swap2\n      pop\n      pop\n      jump\t// out\n        /* \"#utility.yul\":4504:4608   */\n    tag_183:\n        /* \"#utility.yul\":4549:4556   */\n      0x00\n        /* \"#utility.yul\":4578:4602   */\n      tag_279\n        /* \"#utility.yul\":4596:4601   */\n      dup3\n        /* \"#utility.yul\":4578:4602   */\n      tag_179\n      jump\t// in\n    tag_279:\n        /* \"#utility.yul\":4567:4602   */\n      swap1\n      pop\n        /* \"#utility.yul\":4504:4608   */\n      swap2\n      swap1\n      pop\n      jump\t// out\n        /* \"#utility.yul\":4614:4752   */\n    tag_184:\n        /* \"#utility.yul\":4695:4727   */\n      tag_281\n        /* \"#utility.yul\":4721:4726   */\n      dup2\n        /* \"#utility.yul\":4695:4727   */\n      tag_183\n      jump\t// in\n    tag_281:\n        /* \"#utility.yul\":4688:4693   */\n      dup2\n        /* \"#utility.yul\":4685:4728   */\n      eq\n        /* \"#utility.yul\":4675:4746   */\n      tag_282\n      jumpi\n        /* \"#utility.yul\":4742:4743   */\n      0x00\n        /* \"#utility.yul\":4739:4740   */\n      0x00\n        /* \"#utility.yul\":4732:4744   */\n      revert\n        /* \"#utility.yul\":4675:4746   */\n    tag_282:\n        /* \"#utility.yul\":4614:4752   */\n      pop\n      jump\t// out\n        /* \"#utility.yul\":4758:4913   */\n    tag_185:\n        /* \"#utility.yul\":4812:4817   */\n      0x00\n        /* \"#utility.yul\":4850:4856   */\n      dup2\n        /* \"#utility.yul\":4837:4857   */\n      calldataload\n        /* \"#utility.yul\":4828:4857   */\n      swap1\n      pop\n        /* \"#utility.yul\":4866:4907   */\n      tag_284\n        /* \"#utility.yul\":4901:4906   */\n      dup2\n        /* \"#utility.yul\":4866:4907   */\n      tag_184\n      jump\t// in\n    tag_284:\n        /* \"#utility.yul\":4758:4913   */\n      swap3\n      swap2\n      pop\n      pop\n      jump\t// out\n        /* \"#utility.yul\":4919:5041   */\n    tag_186:\n        /* \"#utility.yul\":4992:5016   */\n      tag_286\n        /* \"#utility.yul\":5010:5015   */\n      dup2\n        /* \"#utility.yul\":4992:5016   */\n      tag_177\n      jump\t// in\n    tag_286:\n        /* \"#utility.yul\":4985:4990   */\n      dup2\n        /* \"#utility.yul\":4982:5017   */\n      eq\n        /* \"#utility.yul\":4972:5035   */\n      tag_287\n      jumpi\n        /* \"#utility.yul\":5031:5032   */\n      0x00\n        /* \"#utility.yul\":5028:5029   */\n      0x00\n        /* \"#utility.yul\":5021:5033   */\n      revert\n        /* \"#utility.yul\":4972:5035   */\n    tag_287:\n        /* \"#utility.yul\":4919:5041   */\n      pop\n      jump\t// out\n        /* \"#utility.yul\":5047:5186   */\n    tag_187:\n        /* \"#utility.yul\":5093:5098   */\n      0x00\n        /* \"#utility.yul\":5131:5137   */\n      dup2\n        /* \"#utility.yul\":5118:5138   */\n      calldataload\n        /* \"#utility.yul\":5109:5138   */\n      swap1\n      pop\n        /* \"#utility.yul\":5147:5180   */\n      tag_289\n        /* \"#utility.yul\":5174:5179   */\n      dup2\n        /* \"#utility.yul\":5147:5180   */\n      tag_186\n      jump\t// in\n    tag_289:\n        /* \"#utility.yul\":5047:5186   */\n      swap3\n      swap2\n      pop\n      pop\n      jump\t// out\n        /* \"#utility.yul\":5192:5827   */\n    tag_51:\n        /* \"#utility.yul\":5277:5283   */\n      0x00\n        /* \"#utility.yul\":5285:5291   */\n      0x00\n        /* \"#utility.yul\":5293:5299   */\n      0x00\n        /* \"#utility.yul\":5342:5344   */\n      0x60\n        /* \"#utility.yul\":5330:5339   */\n      dup5\n        /* \"#utility.yul\":5321:5328   */\n      dup7\n        /* \"#utility.yul\":5317:5340   */\n      sub\n        /* \"#utility.yul\":5313:5345   */\n      slt\n        /* \"#utility.yul\":5310:5429   */\n      iszero\n      tag_291\n      jumpi\n        /* \"#utility.yul\":5348:5427   */\n      tag_292\n      tag_165\n      jump\t// in\n    tag_292:\n        /* \"#utility.yul\":5310:5429   */\n    tag_291:\n        /* \"#utility.yul\":5468:5469   */\n      0x00\n        /* \"#utility.yul\":5493:5546   */\n      tag_293\n        /* \"#utility.yul\":5538:5545   */\n      dup7\n        /* \"#utility.yul\":5529:5535   */\n      dup3\n        /* \"#utility.yul\":5518:5527   */\n      dup8\n        /* \"#utility.yul\":5514:5536   */\n      add\n        /* \"#utility.yul\":5493:5546   */\n      tag_169\n      jump\t// in\n    tag_293:\n        /* \"#utility.yul\":5483:5546   */\n      swap4\n      pop\n        /* \"#utility.yul\":5439:5556   */\n      pop\n        /* \"#utility.yul\":5595:5597   */\n      0x20\n        /* \"#utility.yul\":5621:5682   */\n      tag_294\n        /* \"#utility.yul\":5674:5681   */\n      dup7\n        /* \"#utility.yul\":5665:5671   */\n      dup3\n        /* \"#utility.yul\":5654:5663   */\n      dup8\n        /* \"#utility.yul\":5650:5672   */\n      add\n        /* \"#utility.yul\":5621:5682   */\n      tag_185\n      jump\t// in\n    tag_294:\n        /* \"#utility.yul\":5611:5682   */\n      swap3\n      pop\n        /* \"#utility.yul\":5566:5692   */\n      pop\n        /* \"#utility.yul\":5731:5733   */\n      0x40\n        /* \"#utility.yul\":5757:5810   */\n      tag_295\n        /* \"#utility.yul\":5802:5809   */\n      dup7\n        /* \"#utility.yul\":5793:5799   */\n      dup3\n        /* \"#utility.yul\":5782:5791   */\n      dup8\n        /* \"#utility.yul\":5778:5800   */\n      add\n        /* \"#utility.yul\":5757:5810   */\n      tag_187\n      jump\t// in\n    tag_295:\n        /* \"#utility.yul\":5747:5810   */\n      swap2\n      pop\n        /* \"#utility.yul\":5702:5820   */\n      pop\n        /* \"#utility.yul\":5192:5827   */\n      swap3\n      pop\n      swap3\n      pop\n      swap3\n      jump\t// out\n        /* \"#utility.yul\":5833:5955   */\n    tag_188:\n        /* \"#utility.yul\":5906:5930   */\n      tag_297\n        /* \"#utility.yul\":5924:5929   */\n      dup2\n        /* \"#utility.yul\":5906:5930   */\n      tag_180\n      jump\t// in\n    tag_297:\n        /* \"#utility.yul\":5899:5904   */\n      dup2\n        /* \"#utility.yul\":5896:5931   */\n      eq\n        /* \"#utility.yul\":5886:5949   */\n      tag_298\n      jumpi\n        /* \"#utility.yul\":5945:5946   */\n      0x00\n        /* \"#utility.yul\":5942:5943   */\n      0x00\n        /* \"#utility.yul\":5935:5947   */\n      revert\n        /* \"#utility.yul\":5886:5949   */\n    tag_298:\n        /* \"#utility.yul\":5833:5955   */\n      pop\n      jump\t// out\n        /* \"#utility.yul\":5961:6100   */\n    tag_189:\n        /* \"#utility.yul\":6007:6012   */\n      0x00\n        /* \"#utility.yul\":6045:6051   */\n      dup2\n        /* \"#utility.yul\":6032:6052   */\n      calldataload\n        /* \"#utility.yul\":6023:6052   */\n      swap1\n      pop\n        /* \"#utility.yul\":6061:6094   */\n      tag_300\n        /* \"#utility.yul\":6088:6093   */\n      dup2\n        /* \"#utility.yul\":6061:6094   */\n      tag_188\n      jump\t// in\n    tag_300:\n        /* \"#utility.yul\":5961:6100   */\n      swap3\n      swap2\n      pop\n      pop\n      jump\t// out\n        /* \"#utility.yul\":6106:6196   */\n    tag_190:\n        /* \"#utility.yul\":6140:6147   */\n      0x00\n        /* \"#utility.yul\":6183:6188   */\n      dup2\n        /* \"#utility.yul\":6176:6189   */\n      iszero\n        /* \"#utility.yul\":6169:6190   */\n      iszero\n        /* \"#utility.yul\":6158:6190   */\n      swap1\n      pop\n        /* \"#utility.yul\":6106:6196   */\n      swap2\n      swap1\n      pop\n      jump\t// out\n        /* \"#utility.yul\":6202:6318   */\n    tag_191:\n        /* \"#utility.yul\":6272:6293   */\n      tag_303\n        /* \"#utility.yul\":6287:6292   */\n      dup2\n        /* \"#utility.yul\":6272:6293   */\n      tag_190\n      jump\t// in\n    tag_303:\n        /* \"#utility.yul\":6265:6270   */\n      dup2\n        /* \"#utility.yul\":6262:6294   */\n      eq\n        /* \"#utility.yul\":6252:6312   */\n      tag_304\n      jumpi\n        /* \"#utility.yul\":6308:6309   */\n      0x00\n        /* \"#utility.yul\":6305:6306   */\n      0x00\n        /* \"#utility.yul\":6298:6310   */\n      revert\n        /* \"#utility.yul\":6252:6312   */\n    tag_304:\n        /* \"#utility.yul\":6202:6318   */\n      pop\n      jump\t// out\n        /* \"#utility.yul\":6324:6457   */\n    tag_192:\n        /* \"#utility.yul\":6367:6372   */\n      0x00\n        /* \"#utility.yul\":6405:6411   */\n      dup2\n        /* \"#utility.yul\":6392:6412   */\n      calldataload\n        /* \"#utility.yul\":6383:6412   */\n      swap1\n      pop\n        /* \"#utility.yul\":6421:6451   */\n      tag_306\n        /* \"#utility.yul\":6445:6450   */\n      dup2\n        /* \"#utility.yul\":6421:6451   */\n      tag_191\n      jump\t// in\n    tag_306:\n        /* \"#utility.yul\":6324:6457   */\n      swap3\n      swap2\n      pop\n      pop\n      jump\t// out\n        /* \"#utility.yul\":6463:6931   */\n    tag_56:\n        /* \"#utility.yul\":6528:6534   */\n      0x00\n        /* \"#utility.yul\":6536:6542   */\n      0x00\n        /* \"#utility.yul\":6585:6587   */\n      0x40\n        /* \"#utility.yul\":6573:6582   */\n      dup4\n        /* \"#utility.yul\":6564:6571   */\n      dup6\n        /* \"#utility.yul\":6560:6583   */\n      sub\n        /* \"#utility.yul\":6556:6588   */\n      slt\n        /* \"#utility.yul\":6553:6672   */\n      iszero\n      tag_308\n      jumpi\n        /* \"#utility.yul\":6591:6670   */\n      tag_309\n      tag_165\n      jump\t// in\n    tag_309:\n        /* \"#utility.yul\":6553:6672   */\n    tag_308:\n        /* \"#utility.yul\":6711:6712   */\n      0x00\n        /* \"#utility.yul\":6736:6789   */\n      tag_310\n        /* \"#utility.yul\":6781:6788   */\n      dup6\n        /* \"#utility.yul\":6772:6778   */\n      dup3\n        /* \"#utility.yul\":6761:6770   */\n      dup7\n        /* \"#utility.yul\":6757:6779   */\n      add\n        /* \"#utility.yul\":6736:6789   */\n      tag_189\n      jump\t// in\n    tag_310:\n        /* \"#utility.yul\":6726:6789   */\n      swap3\n      pop\n        /* \"#utility.yul\":6682:6799   */\n      pop\n        /* \"#utility.yul\":6838:6840   */\n      0x20\n        /* \"#utility.yul\":6864:6914   */\n      tag_311\n        /* \"#utility.yul\":6906:6913   */\n      dup6\n        /* \"#utility.yul\":6897:6903   */\n      dup3\n        /* \"#utility.yul\":6886:6895   */\n      dup7\n        /* \"#utility.yul\":6882:6904   */\n      add\n        /* \"#utility.yul\":6864:6914   */\n      tag_192\n      jump\t// in\n    tag_311:\n        /* \"#utility.yul\":6854:6914   */\n      swap2\n      pop\n        /* \"#utility.yul\":6809:6924   */\n      pop\n        /* \"#utility.yul\":6463:6931   */\n      swap3\n      pop\n      swap3\n      swap1\n      pop\n      jump\t// out\n        /* \"#utility.yul\":6937:7266   */\n    tag_61:\n        /* \"#utility.yul\":6996:7002   */\n      0x00\n        /* \"#utility.yul\":7045:7047   */\n      0x20\n        /* \"#utility.yul\":7033:7042   */\n      dup3\n        /* \"#utility.yul\":7024:7031   */\n      dup5\n        /* \"#utility.yul\":7020:7043   */\n      sub\n        /* \"#utility.yul\":7016:7048   */\n      slt\n        /* \"#utility.yul\":7013:7132   */\n      iszero\n      tag_313\n      jumpi\n        /* \"#utility.yul\":7051:7130   */\n      tag_314\n      tag_165\n      jump\t// in\n    tag_314:\n        /* \"#utility.yul\":7013:7132   */\n    tag_313:\n        /* \"#utility.yul\":7171:7172   */\n      0x00\n        /* \"#utility.yul\":7196:7249   */\n      tag_315\n        /* \"#utility.yul\":7241:7248   */\n      dup5\n        /* \"#utility.yul\":7232:7238   */\n      dup3\n        /* \"#utility.yul\":7221:7230   */\n      dup6\n        /* \"#utility.yul\":7217:7239   */\n      add\n        /* \"#utility.yul\":7196:7249   */\n      tag_189\n      jump\t// in\n    tag_315:\n        /* \"#utility.yul\":7186:7249   */\n      swap2\n      pop\n        /* \"#utility.yul\":7142:7259   */\n      pop\n        /* \"#utility.yul\":6937:7266   */\n      swap3\n      swap2\n      pop\n      pop\n      jump\t// out\n        /* \"#utility.yul\":7272:7381   */\n    tag_193:\n        /* \"#utility.yul\":7353:7374   */\n      tag_317\n        /* \"#utility.yul\":7368:7373   */\n      dup2\n        /* \"#utility.yul\":7353:7374   */\n      tag_190\n      jump\t// in\n    tag_317:\n        /* \"#utility.yul\":7348:7351   */\n      dup3\n        /* \"#utility.yul\":7341:7375   */\n      mstore\n        /* \"#utility.yul\":7272:7381   */\n      pop\n      pop\n      jump\t// out\n        /* \"#utility.yul\":7387:7597   */\n    tag_64:\n        /* \"#utility.yul\":7474:7478   */\n      0x00\n        /* \"#utility.yul\":7512:7514   */\n      0x20\n        /* \"#utility.yul\":7501:7510   */\n      dup3\n        /* \"#utility.yul\":7497:7515   */\n      add\n        /* \"#utility.yul\":7489:7515   */\n      swap1\n      pop\n        /* \"#utility.yul\":7525:7590   */\n      tag_319\n        /* \"#utility.yul\":7587:7588   */\n      0x00\n        /* \"#utility.yul\":7576:7585   */\n      dup4\n        /* \"#utility.yul\":7572:7589   */\n      add\n        /* \"#utility.yul\":7563:7569   */\n      dup5\n        /* \"#utility.yul\":7525:7590   */\n      tag_193\n      jump\t// in\n    tag_319:\n        /* \"#utility.yul\":7387:7597   */\n      swap3\n      swap2\n      pop\n      pop\n      jump\t// out\n        /* \"#utility.yul\":7603:8422   */\n    tag_68:\n        /* \"#utility.yul\":7692:7698   */\n      0x00\n        /* \"#utility.yul\":7700:7706   */\n      0x00\n        /* \"#utility.yul\":7708:7714   */\n      0x00\n        /* \"#utility.yul\":7716:7722   */\n      0x00\n        /* \"#utility.yul\":7765:7767   */\n      0x60\n        /* \"#utility.yul\":7753:7762   */\n      dup6\n        /* \"#utility.yul\":7744:7751   */\n      dup8\n        /* \"#utility.yul\":7740:7763   */\n      sub\n        /* \"#utility.yul\":7736:7768   */\n      slt\n        /* \"#utility.yul\":7733:7852   */\n      iszero\n      tag_321\n      jumpi\n        /* \"#utility.yul\":7771:7850   */\n      tag_322\n      tag_165\n      jump\t// in\n    tag_322:\n        /* \"#utility.yul\":7733:7852   */\n    tag_321:\n        /* \"#utility.yul\":7891:7892   */\n      0x00\n        /* \"#utility.yul\":7916:7969   */\n      tag_323\n        /* \"#utility.yul\":7961:7968   */\n      dup8\n        /* \"#utility.yul\":7952:7958   */\n      dup3\n        /* \"#utility.yul\":7941:7950   */\n      dup9\n        /* \"#utility.yul\":7937:7959   */\n      add\n        /* \"#utility.yul\":7916:7969   */\n      tag_169\n      jump\t// in\n    tag_323:\n        /* \"#utility.yul\":7906:7969   */\n      swap5\n      pop\n        /* \"#utility.yul\":7862:7979   */\n      pop\n        /* \"#utility.yul\":8018:8020   */\n      0x20\n        /* \"#utility.yul\":8044:8097   */\n      tag_324\n        /* \"#utility.yul\":8089:8096   */\n      dup8\n        /* \"#utility.yul\":8080:8086   */\n      dup3\n        /* \"#utility.yul\":8069:8078   */\n      dup9\n        /* \"#utility.yul\":8065:8087   */\n      add\n        /* \"#utility.yul\":8044:8097   */\n      tag_187\n      jump\t// in\n    tag_324:\n        /* \"#utility.yul\":8034:8097   */\n      swap4\n      pop\n        /* \"#utility.yul\":7989:8107   */\n      pop\n        /* \"#utility.yul\":8174:8176   */\n      0x40\n        /* \"#utility.yul\":8163:8172   */\n      dup6\n        /* \"#utility.yul\":8159:8177   */\n      add\n        /* \"#utility.yul\":8146:8178   */\n      calldataload\n        /* \"#utility.yul\":8205:8223   */\n      0xffffffffffffffff\n        /* \"#utility.yul\":8197:8203   */\n      dup2\n        /* \"#utility.yul\":8194:8224   */\n      gt\n        /* \"#utility.yul\":8191:8308   */\n      iszero\n      tag_325\n      jumpi\n        /* \"#utility.yul\":8227:8306   */\n      tag_326\n      tag_166\n      jump\t// in\n    tag_326:\n        /* \"#utility.yul\":8191:8308   */\n    tag_325:\n        /* \"#utility.yul\":8340:8405   */\n      tag_327\n        /* \"#utility.yul\":8397:8404   */\n      dup8\n        /* \"#utility.yul\":8388:8394   */\n      dup3\n        /* \"#utility.yul\":8377:8386   */\n      dup9\n        /* \"#utility.yul\":8373:8395   */\n      add\n        /* \"#utility.yul\":8340:8405   */\n      tag_176\n      jump\t// in\n    tag_327:\n        /* \"#utility.yul\":8322:8405   */\n      swap3\n      pop\n      swap3\n      pop\n        /* \"#utility.yul\":8117:8415   */\n      pop\n        /* \"#utility.yul\":7603:8422   */\n      swap3\n      swap6\n      swap2\n      swap5\n      pop\n      swap3\n      pop\n      jump\t// out\n        /* \"#utility.yul\":8428:8898   */\n    tag_73:\n        /* \"#utility.yul\":8494:8500   */\n      0x00\n        /* \"#utility.yul\":8502:8508   */\n      0x00\n        /* \"#utility.yul\":8551:8553   */\n      0x40\n        /* \"#utility.yul\":8539:8548   */\n      dup4\n        /* \"#utility.yul\":8530:8537   */\n      dup6\n        /* \"#utility.yul\":8526:8549   */\n      sub\n        /* \"#utility.yul\":8522:8554   */\n      slt\n        /* \"#utility.yul\":8519:8638   */\n      iszero\n      tag_329\n      jumpi\n        /* \"#utility.yul\":8557:8636   */\n      tag_330\n      tag_165\n      jump\t// in\n    tag_330:\n        /* \"#utility.yul\":8519:8638   */\n    tag_329:\n        /* \"#utility.yul\":8677:8678   */\n      0x00\n        /* \"#utility.yul\":8702:8755   */\n      tag_331\n        /* \"#utility.yul\":8747:8754   */\n      dup6\n        /* \"#utility.yul\":8738:8744   */\n      dup3\n        /* \"#utility.yul\":8727:8736   */\n      dup7\n        /* \"#utility.yul\":8723:8745   */\n      add\n        /* \"#utility.yul\":8702:8755   */\n      tag_169\n      jump\t// in\n    tag_331:\n        /* \"#utility.yul\":8692:8755   */\n      swap3\n      pop\n        /* \"#utility.yul\":8648:8765   */\n      pop\n        /* \"#utility.yul\":8804:8806   */\n      0x20\n        /* \"#utility.yul\":8830:8881   */\n      tag_332\n        /* \"#utility.yul\":8873:8880   */\n      dup6\n        /* \"#utility.yul\":8864:8870   */\n      dup3\n        /* \"#utility.yul\":8853:8862   */\n      dup7\n        /* \"#utility.yul\":8849:8871   */\n      add\n        /* \"#utility.yul\":8830:8881   */\n      tag_172\n      jump\t// in\n    tag_332:\n        /* \"#utility.yul\":8820:8881   */\n      swap2\n      pop\n        /* \"#utility.yul\":8775:8891   */\n      pop\n        /* \"#utility.yul\":8428:8898   */\n      swap3\n      pop\n      swap3\n      swap1\n      pop\n      jump\t// out\n        /* \"#utility.yul\":8904:9394   */\n    tag_82:\n        /* \"#utility.yul\":8980:8986   */\n      0x00\n        /* \"#utility.yul\":8988:8994   */\n      0x00\n        /* \"#utility.yul\":9037:9039   */\n      0x40\n        /* \"#utility.yul\":9025:9034   */\n      dup4\n        /* \"#utility.yul\":9016:9023   */\n      dup6\n        /* \"#utility.yul\":9012:9035   */\n      sub\n        /* \"#utility.yul\":9008:9040   */\n      slt\n        /* \"#utility.yul\":9005:9124   */\n      iszero\n      tag_334\n      jumpi\n        /* \"#utility.yul\":9043:9122   */\n      tag_335\n      tag_165\n      jump\t// in\n    tag_335:\n        /* \"#utility.yul\":9005:9124   */\n    tag_334:\n        /* \"#utility.yul\":9163:9164   */\n      0x00\n        /* \"#utility.yul\":9188:9249   */\n      tag_336\n        /* \"#utility.yul\":9241:9248   */\n      dup6\n        /* \"#utility.yul\":9232:9238   */\n      dup3\n        /* \"#utility.yul\":9221:9230   */\n      dup7\n        /* \"#utility.yul\":9217:9239   */\n      add\n        /* \"#utility.yul\":9188:9249   */\n      tag_185\n      jump\t// in\n    tag_336:\n        /* \"#utility.yul\":9178:9249   */\n      swap3\n      pop\n        /* \"#utility.yul\":9134:9259   */\n      pop\n        /* \"#utility.yul\":9298:9300   */\n      0x20\n        /* \"#utility.yul\":9324:9377   */\n      tag_337\n        /* \"#utility.yul\":9369:9376   */\n      dup6\n        /* \"#utility.yul\":9360:9366   */\n      dup3\n        /* \"#utility.yul\":9349:9358   */\n      dup7\n        /* \"#utility.yul\":9345:9367   */\n      add\n        /* \"#utility.yul\":9324:9377   */\n      tag_187\n      jump\t// in\n    tag_337:\n        /* \"#utility.yul\":9314:9377   */\n      swap2\n      pop\n        /* \"#utility.yul\":9269:9387   */\n      pop\n        /* \"#utility.yul\":8904:9394   */\n      swap3\n      pop\n      swap3\n      swap1\n      pop\n      jump\t// out\n        /* \"#utility.yul\":9400:9569   */\n    tag_194:\n        /* \"#utility.yul\":9484:9495   */\n      0x00\n        /* \"#utility.yul\":9518:9524   */\n      dup3\n        /* \"#utility.yul\":9513:9516   */\n      dup3\n        /* \"#utility.yul\":9506:9525   */\n      mstore\n        /* \"#utility.yul\":9558:9562   */\n      0x20\n        /* \"#utility.yul\":9553:9556   */\n      dup3\n        /* \"#utility.yul\":9549:9563   */\n      add\n        /* \"#utility.yul\":9534:9563   */\n      swap1\n      pop\n        /* \"#utility.yul\":9400:9569   */\n      swap3\n      swap2\n      pop\n      pop\n      jump\t// out\n        /* \"#utility.yul\":9575:9739   */\n    tag_195:\n        /* \"#utility.yul\":9715:9731   */\n      0x4e6f7420617574686f72697a6564000000000000000000000000000000000000\n        /* \"#utility.yul\":9711:9712   */\n      0x00\n        /* \"#utility.yul\":9703:9709   */\n      dup3\n        /* \"#utility.yul\":9699:9713   */\n      add\n        /* \"#utility.yul\":9692:9732   */\n      mstore\n        /* \"#utility.yul\":9575:9739   */\n      pop\n      jump\t// out\n        /* \"#utility.yul\":9745:10111   */\n    tag_196:\n        /* \"#utility.yul\":9887:9890   */\n      0x00\n        /* \"#utility.yul\":9908:9975   */\n      tag_341\n        /* \"#utility.yul\":9972:9974   */\n      0x0e\n        /* \"#utility.yul\":9967:9970   */\n      dup4\n        /* \"#utility.yul\":9908:9975   */\n      tag_194\n      jump\t// in\n    tag_341:\n        /* \"#utility.yul\":9901:9975   */\n      swap2\n      pop\n        /* \"#utility.yul\":9984:10077   */\n      tag_342\n        /* \"#utility.yul\":10073:10076   */\n      dup3\n        /* \"#utility.yul\":9984:10077   */\n      tag_195\n      jump\t// in\n    tag_342:\n        /* \"#utility.yul\":10102:10104   */\n      0x20\n        /* \"#utility.yul\":10097:10100   */\n      dup3\n        /* \"#utility.yul\":10093:10105   */\n      add\n        /* \"#utility.yul\":10086:10105   */\n      swap1\n      pop\n        /* \"#utility.yul\":9745:10111   */\n      swap2\n      swap1\n      pop\n      jump\t// out\n        /* \"#utility.yul\":10117:10536   */\n    tag_93:\n        /* \"#utility.yul\":10283:10287   */\n      0x00\n        /* \"#utility.yul\":10321:10323   */\n      0x20\n        /* \"#utility.yul\":10310:10319   */\n      dup3\n        /* \"#utility.yul\":10306:10324   */\n      add\n        /* \"#utility.yul\":10298:10324   */\n      swap1\n      pop\n        /* \"#utility.yul\":10370:10379   */\n      dup2\n        /* \"#utility.yul\":10364:10368   */\n      dup2\n        /* \"#utility.yul\":10360:10380   */\n      sub\n        /* \"#utility.yul\":10356:10357   */\n      0x00\n        /* \"#utility.yul\":10345:10354   */\n      dup4\n        /* \"#utility.yul\":10341:10358   */\n      add\n        /* \"#utility.yul\":10334:10381   */\n      mstore\n        /* \"#utility.yul\":10398:10529   */\n      tag_344\n        /* \"#utility.yul\":10524:10528   */\n      dup2\n        /* \"#utility.yul\":10398:10529   */\n      tag_196\n      jump\t// in\n    tag_344:\n        /* \"#utility.yul\":10390:10529   */\n      swap1\n      pop\n        /* \"#utility.yul\":10117:10536   */\n      swap2\n      swap1\n      pop\n      jump\t// out\n        /* \"#utility.yul\":10542:10706   */\n    tag_197:\n        /* \"#utility.yul\":10682:10698   */\n      0x496e76616c696420636f75706f6e000000000000000000000000000000000000\n        /* \"#utility.yul\":10678:10679   */\n      0x00\n        /* \"#utility.yul\":10670:10676   */\n      dup3\n        /* \"#utility.yul\":10666:10680   */\n      add\n        /* \"#utility.yul\":10659:10699   */\n      mstore\n        /* \"#utility.yul\":10542:10706   */\n      pop\n      jump\t// out\n        /* \"#utility.yul\":10712:11078   */\n    tag_198:\n        /* \"#utility.yul\":10854:10857   */\n      0x00\n        /* \"#utility.yul\":10875:10942   */\n      tag_347\n        /* \"#utility.yul\":10939:10941   */\n      0x0e\n        /* \"#utility.yul\":10934:10937   */\n      dup4\n        /* \"#utility.yul\":10875:10942   */\n      tag_194\n      jump\t// in\n    tag_347:\n        /* \"#utility.yul\":10868:10942   */\n      swap2\n      pop\n        /* \"#utility.yul\":10951:11044   */\n      tag_348\n        /* \"#utility.yul\":11040:11043   */\n      dup3\n        /* \"#utility.yul\":10951:11044   */\n      tag_197\n      jump\t// in\n    tag_348:\n        /* \"#utility.yul\":11069:11071   */\n      0x20\n        /* \"#utility.yul\":11064:11067   */\n      dup3\n        /* \"#utility.yul\":11060:11072   */\n      add\n        /* \"#utility.yul\":11053:11072   */\n      swap1\n      pop\n        /* \"#utility.yul\":10712:11078   */\n      swap2\n      swap1\n      pop\n      jump\t// out\n        /* \"#utility.yul\":11084:11503   */\n    tag_97:\n        /* \"#utility.yul\":11250:11254   */\n      0x00\n        /* \"#utility.yul\":11288:11290   */\n      0x20\n        /* \"#utility.yul\":11277:11286   */\n      dup3\n        /* \"#utility.yul\":11273:11291   */\n      add\n        /* \"#utility.yul\":11265:11291   */\n      swap1\n      pop\n        /* \"#utility.yul\":11337:11346   */\n      dup2\n        /* \"#utility.yul\":11331:11335   */\n      dup2\n        /* \"#utility.yul\":11327:11347   */\n      sub\n        /* \"#utility.yul\":11323:11324   */\n      0x00\n        /* \"#utility.yul\":11312:11321   */\n      dup4\n        /* \"#utility.yul\":11308:11325   */\n      add\n        /* \"#utility.yul\":11301:11348   */\n      mstore\n        /* \"#utility.yul\":11365:11496   */\n      tag_350\n        /* \"#utility.yul\":11491:11495   */\n      dup2\n        /* \"#utility.yul\":11365:11496   */\n      tag_198\n      jump\t// in\n    tag_350:\n        /* \"#utility.yul\":11357:11496   */\n      swap1\n      pop\n        /* \"#utility.yul\":11084:11503   */\n      swap2\n      swap1\n      pop\n      jump\t// out\n        /* \"#utility.yul\":11509:11678   */\n    tag_199:\n        /* \"#utility.yul\":11649:11670   */\n      0x4e6f20636f75706f6e20617661696c61626c6500000000000000000000000000\n        /* \"#utility.yul\":11645:11646   */\n      0x00\n        /* \"#utility.yul\":11637:11643   */\n      dup3\n        /* \"#utility.yul\":11633:11647   */\n      add\n        /* \"#utility.yul\":11626:11671   */\n      mstore\n        /* \"#utility.yul\":11509:11678   */\n      pop\n      jump\t// out\n        /* \"#utility.yul\":11684:12050   */\n    tag_200:\n        /* \"#utility.yul\":11826:11829   */\n      0x00\n        /* \"#utility.yul\":11847:11914   */\n      tag_353\n        /* \"#utility.yul\":11911:11913   */\n      0x13\n        /* \"#utility.yul\":11906:11909   */\n      dup4\n        /* \"#utility.yul\":11847:11914   */\n      tag_194\n      jump\t// in\n    tag_353:\n        /* \"#utility.yul\":11840:11914   */\n      swap2\n      pop\n        /* \"#utility.yul\":11923:12016   */\n      tag_354\n        /* \"#utility.yul\":12012:12015   */\n      dup3\n        /* \"#utility.yul\":11923:12016   */\n      tag_199\n      jump\t// in\n    tag_354:\n        /* \"#utility.yul\":12041:12043   */\n      0x20\n        /* \"#utility.yul\":12036:12039   */\n      dup3\n        /* \"#utility.yul\":12032:12044   */\n      add\n        /* \"#utility.yul\":12025:12044   */\n      swap1\n      pop\n        /* \"#utility.yul\":11684:12050   */\n      swap2\n      swap1\n      pop\n      jump\t// out\n        /* \"#utility.yul\":12056:12475   */\n    tag_100:\n        /* \"#utility.yul\":12222:12226   */\n      0x00\n        /* \"#utility.yul\":12260:12262   */\n      0x20\n        /* \"#utility.yul\":12249:12258   */\n      dup3\n        /* \"#utility.yul\":12245:12263   */\n      add\n        /* \"#utility.yul\":12237:12263   */\n      swap1\n      pop\n        /* \"#utility.yul\":12309:12318   */\n      dup2\n        /* \"#utility.yul\":12303:12307   */\n      dup2\n        /* \"#utility.yul\":12299:12319   */\n      sub\n        /* \"#utility.yul\":12295:12296   */\n      0x00\n        /* \"#utility.yul\":12284:12293   */\n      dup4\n        /* \"#utility.yul\":12280:12297   */\n      add\n        /* \"#utility.yul\":12273:12320   */\n      mstore\n        /* \"#utility.yul\":12337:12468   */\n      tag_356\n        /* \"#utility.yul\":12463:12467   */\n      dup2\n        /* \"#utility.yul\":12337:12468   */\n      tag_200\n      jump\t// in\n    tag_356:\n        /* \"#utility.yul\":12329:12468   */\n      swap1\n      pop\n        /* \"#utility.yul\":12056:12475   */\n      swap2\n      swap1\n      pop\n      jump\t// out\n        /* \"#utility.yul\":12481:12661   */\n    tag_201:\n        /* \"#utility.yul\":12529:12606   */\n      0x4e487b7100000000000000000000000000000000000000000000000000000000\n        /* \"#utility.yul\":12526:12527   */\n      0x00\n        /* \"#utility.yul\":12519:12607   */\n      mstore\n        /* \"#utility.yul\":12626:12630   */\n      0x11\n        /* \"#utility.yul\":12623:12624   */\n      0x04\n        /* \"#utility.yul\":12616:12631   */\n      mstore\n        /* \"#utility.yul\":12650:12654   */\n      0x24\n        /* \"#utility.yul\":12647:12648   */\n      0x00\n        /* \"#utility.yul\":12640:12655   */\n      revert\n        /* \"#utility.yul\":12667:12861   */\n    tag_102:\n        /* \"#utility.yul\":12707:12711   */\n      0x00\n        /* \"#utility.yul\":12727:12747   */\n      tag_359\n        /* \"#utility.yul\":12745:12746   */\n      dup3\n        /* \"#utility.yul\":12727:12747   */\n      tag_177\n      jump\t// in\n    tag_359:\n        /* \"#utility.yul\":12722:12747   */\n      swap2\n      pop\n        /* \"#utility.yul\":12761:12781   */\n      tag_360\n        /* \"#utility.yul\":12779:12780   */\n      dup4\n        /* \"#utility.yul\":12761:12781   */\n      tag_177\n      jump\t// in\n    tag_360:\n        /* \"#utility.yul\":12756:12781   */\n      swap3\n      pop\n        /* \"#utility.yul\":12805:12806   */\n      dup3\n        /* \"#utility.yul\":12802:12803   */\n      dup3\n        /* \"#utility.yul\":12798:12807   */\n      sub\n        /* \"#utility.yul\":12790:12807   */\n      swap1\n      pop\n        /* \"#utility.yul\":12829:12830   */\n      dup2\n        /* \"#utility.yul\":12823:12827   */\n      dup2\n        /* \"#utility.yul\":12820:12831   */\n      gt\n        /* \"#utility.yul\":12817:12854   */\n      iszero\n      tag_361\n      jumpi\n        /* \"#utility.yul\":12834:12852   */\n      tag_362\n      tag_201\n      jump\t// in\n    tag_362:\n        /* \"#utility.yul\":12817:12854   */\n    tag_361:\n        /* \"#utility.yul\":12667:12861   */\n      swap3\n      swap2\n      pop\n      pop\n      jump\t// out\n        /* \"#utility.yul\":12867:13015   */\n    tag_202:\n        /* \"#utility.yul\":12965:12971   */\n      dup3\n        /* \"#utility.yul\":12960:12963   */\n      dup2\n        /* \"#utility.yul\":12955:12958   */\n      dup4\n        /* \"#utility.yul\":12942:12972   */\n      calldatacopy\n        /* \"#utility.yul\":13006:13007   */\n      0x00\n        /* \"#utility.yul\":12997:13003   */\n      dup4\n        /* \"#utility.yul\":12992:12995   */\n      dup4\n        /* \"#utility.yul\":12988:13004   */\n      add\n        /* \"#utility.yul\":12981:13008   */\n      mstore\n        /* \"#utility.yul\":12867:13015   */\n      pop\n      pop\n      pop\n      jump\t// out\n        /* \"#utility.yul\":13021:13123   */\n    tag_203:\n        /* \"#utility.yul\":13062:13068   */\n      0x00\n        /* \"#utility.yul\":13113:13115   */\n      0x1f\n        /* \"#utility.yul\":13109:13116   */\n      not\n        /* \"#utility.yul\":13104:13106   */\n      0x1f\n        /* \"#utility.yul\":13097:13102   */\n      dup4\n        /* \"#utility.yul\":13093:13107   */\n      add\n        /* \"#utility.yul\":13089:13117   */\n      and\n        /* \"#utility.yul\":13079:13117   */\n      swap1\n      pop\n        /* \"#utility.yul\":13021:13123   */\n      swap2\n      swap1\n      pop\n      jump\t// out\n        /* \"#utility.yul\":13153:13470   */\n    tag_204:\n        /* \"#utility.yul\":13251:13254   */\n      0x00\n        /* \"#utility.yul\":13272:13343   */\n      tag_366\n        /* \"#utility.yul\":13336:13342   */\n      dup4\n        /* \"#utility.yul\":13331:13334   */\n      dup6\n        /* \"#utility.yul\":13272:13343   */\n      tag_194\n      jump\t// in\n    tag_366:\n        /* \"#utility.yul\":13265:13343   */\n      swap4\n      pop\n        /* \"#utility.yul\":13353:13409   */\n      tag_367\n        /* \"#utility.yul\":13402:13408   */\n      dup4\n        /* \"#utility.yul\":13397:13400   */\n      dup6\n        /* \"#utility.yul\":13390:13395   */\n      dup5\n        /* \"#utility.yul\":13353:13409   */\n      tag_202\n      jump\t// in\n    tag_367:\n        /* \"#utility.yul\":13434:13463   */\n      tag_368\n        /* \"#utility.yul\":13456:13462   */\n      dup4\n        /* \"#utility.yul\":13434:13463   */\n      tag_203\n      jump\t// in\n    tag_368:\n        /* \"#utility.yul\":13429:13432   */\n      dup5\n        /* \"#utility.yul\":13425:13464   */\n      add\n        /* \"#utility.yul\":13418:13464   */\n      swap1\n      pop\n        /* \"#utility.yul\":13153:13470   */\n      swap4\n      swap3\n      pop\n      pop\n      pop\n      jump\t// out\n        /* \"#utility.yul\":13476:13911   */\n    tag_104:\n        /* \"#utility.yul\":13623:13627   */\n      0x00\n        /* \"#utility.yul\":13661:13663   */\n      0x40\n        /* \"#utility.yul\":13650:13659   */\n      dup3\n        /* \"#utility.yul\":13646:13664   */\n      add\n        /* \"#utility.yul\":13638:13664   */\n      swap1\n      pop\n        /* \"#utility.yul\":13674:13741   */\n      tag_370\n        /* \"#utility.yul\":13738:13739   */\n      0x00\n        /* \"#utility.yul\":13727:13736   */\n      dup4\n        /* \"#utility.yul\":13723:13740   */\n      add\n        /* \"#utility.yul\":13714:13720   */\n      dup7\n        /* \"#utility.yul\":13674:13741   */\n      tag_182\n      jump\t// in\n    tag_370:\n        /* \"#utility.yul\":13788:13797   */\n      dup2\n        /* \"#utility.yul\":13782:13786   */\n      dup2\n        /* \"#utility.yul\":13778:13798   */\n      sub\n        /* \"#utility.yul\":13773:13775   */\n      0x20\n        /* \"#utility.yul\":13762:13771   */\n      dup4\n        /* \"#utility.yul\":13758:13776   */\n      add\n        /* \"#utility.yul\":13751:13799   */\n      mstore\n        /* \"#utility.yul\":13816:13904   */\n      tag_371\n        /* \"#utility.yul\":13899:13903   */\n      dup2\n        /* \"#utility.yul\":13890:13896   */\n      dup5\n        /* \"#utility.yul\":13882:13888   */\n      dup7\n        /* \"#utility.yul\":13816:13904   */\n      tag_204\n      jump\t// in\n    tag_371:\n        /* \"#utility.yul\":13808:13904   */\n      swap1\n      pop\n        /* \"#utility.yul\":13476:13911   */\n      swap5\n      swap4\n      pop\n      pop\n      pop\n      pop\n      jump\t// out\n        /* \"#utility.yul\":13917:14087   */\n    tag_205:\n        /* \"#utility.yul\":14057:14079   */\n      0x496e73756666696369656e742062616c616e6365000000000000000000000000\n        /* \"#utility.yul\":14053:14054   */\n      0x00\n        /* \"#utility.yul\":14045:14051   */\n      dup3\n        /* \"#utility.yul\":14041:14055   */\n      add\n        /* \"#utility.yul\":14034:14080   */\n      mstore\n        /* \"#utility.yul\":13917:14087   */\n      pop\n      jump\t// out\n        /* \"#utility.yul\":14093:14459   */\n    tag_206:\n        /* \"#utility.yul\":14235:14238   */\n      0x00\n        /* \"#utility.yul\":14256:14323   */\n      tag_374\n        /* \"#utility.yul\":14320:14322   */\n      0x14\n        /* \"#utility.yul\":14315:14318   */\n      dup4\n        /* \"#utility.yul\":14256:14323   */\n      tag_194\n      jump\t// in\n    tag_374:\n        /* \"#utility.yul\":14249:14323   */\n      swap2\n      pop\n        /* \"#utility.yul\":14332:14425   */\n      tag_375\n        /* \"#utility.yul\":14421:14424   */\n      dup3\n        /* \"#utility.yul\":14332:14425   */\n      tag_205\n      jump\t// in\n    tag_375:\n        /* \"#utility.yul\":14450:14452   */\n      0x20\n        /* \"#utility.yul\":14445:14448   */\n      dup3\n        /* \"#utility.yul\":14441:14453   */\n      add\n        /* \"#utility.yul\":14434:14453   */\n      swap1\n      pop\n        /* \"#utility.yul\":14093:14459   */\n      swap2\n      swap1\n      pop\n      jump\t// out\n        /* \"#utility.yul\":14465:14884   */\n    tag_112:\n        /* \"#utility.yul\":14631:14635   */\n      0x00\n        /* \"#utility.yul\":14669:14671   */\n      0x20\n        /* \"#utility.yul\":14658:14667   */\n      dup3\n        /* \"#utility.yul\":14654:14672   */\n      add\n        /* \"#utility.yul\":14646:14672   */\n      swap1\n      pop\n        /* \"#utility.yul\":14718:14727   */\n      dup2\n        /* \"#utility.yul\":14712:14716   */\n      dup2\n        /* \"#utility.yul\":14708:14728   */\n      sub\n        /* \"#utility.yul\":14704:14705   */\n      0x00\n        /* \"#utility.yul\":14693:14702   */\n      dup4\n        /* \"#utility.yul\":14689:14706   */\n      add\n        /* \"#utility.yul\":14682:14729   */\n      mstore\n        /* \"#utility.yul\":14746:14877   */\n      tag_377\n        /* \"#utility.yul\":14872:14876   */\n      dup2\n        /* \"#utility.yul\":14746:14877   */\n      tag_206\n      jump\t// in\n    tag_377:\n        /* \"#utility.yul\":14738:14877   */\n      swap1\n      pop\n        /* \"#utility.yul\":14465:14884   */\n      swap2\n      swap1\n      pop\n      jump\t// out\n        /* \"#utility.yul\":14890:15070   */\n    tag_207:\n        /* \"#utility.yul\":14938:15015   */\n      0x4e487b7100000000000000000000000000000000000000000000000000000000\n        /* \"#utility.yul\":14935:14936   */\n      0x00\n        /* \"#utility.yul\":14928:15016   */\n      mstore\n        /* \"#utility.yul\":15035:15039   */\n      0x12\n        /* \"#utility.yul\":15032:15033   */\n      0x04\n        /* \"#utility.yul\":15025:15040   */\n      mstore\n        /* \"#utility.yul\":15059:15063   */\n      0x24\n        /* \"#utility.yul\":15056:15057   */\n      0x00\n        /* \"#utility.yul\":15049:15064   */\n      revert\n        /* \"#utility.yul\":15076:15261   */\n    tag_117:\n        /* \"#utility.yul\":15116:15117   */\n      0x00\n        /* \"#utility.yul\":15133:15153   */\n      tag_380\n        /* \"#utility.yul\":15151:15152   */\n      dup3\n        /* \"#utility.yul\":15133:15153   */\n      tag_177\n      jump\t// in\n    tag_380:\n        /* \"#utility.yul\":15128:15153   */\n      swap2\n      pop\n        /* \"#utility.yul\":15167:15187   */\n      tag_381\n        /* \"#utility.yul\":15185:15186   */\n      dup4\n        /* \"#utility.yul\":15167:15187   */\n      tag_177\n      jump\t// in\n    tag_381:\n        /* \"#utility.yul\":15162:15187   */\n      swap3\n      pop\n        /* \"#utility.yul\":15206:15207   */\n      dup3\n        /* \"#utility.yul\":15196:15231   */\n      tag_382\n      jumpi\n        /* \"#utility.yul\":15211:15229   */\n      tag_383\n      tag_207\n      jump\t// in\n    tag_383:\n        /* \"#utility.yul\":15196:15231   */\n    tag_382:\n        /* \"#utility.yul\":15253:15254   */\n      dup3\n        /* \"#utility.yul\":15250:15251   */\n      dup3\n        /* \"#utility.yul\":15246:15255   */\n      div\n        /* \"#utility.yul\":15241:15255   */\n      swap1\n      pop\n        /* \"#utility.yul\":15076:15261   */\n      swap3\n      swap2\n      pop\n      pop\n      jump\t// out\n        /* \"#utility.yul\":15267:15458   */\n    tag_119:\n        /* \"#utility.yul\":15307:15310   */\n      0x00\n        /* \"#utility.yul\":15326:15346   */\n      tag_385\n        /* \"#utility.yul\":15344:15345   */\n      dup3\n        /* \"#utility.yul\":15326:15346   */\n      tag_177\n      jump\t// in\n    tag_385:\n        /* \"#utility.yul\":15321:15346   */\n      swap2\n      pop\n        /* \"#utility.yul\":15360:15380   */\n      tag_386\n        /* \"#utility.yul\":15378:15379   */\n      dup4\n        /* \"#utility.yul\":15360:15380   */\n      tag_177\n      jump\t// in\n    tag_386:\n        /* \"#utility.yul\":15355:15380   */\n      swap3\n      pop\n        /* \"#utility.yul\":15403:15404   */\n      dup3\n        /* \"#utility.yul\":15400:15401   */\n      dup3\n        /* \"#utility.yul\":15396:15405   */\n      add\n        /* \"#utility.yul\":15389:15405   */\n      swap1\n      pop\n        /* \"#utility.yul\":15424:15427   */\n      dup1\n        /* \"#utility.yul\":15421:15422   */\n      dup3\n        /* \"#utility.yul\":15418:15428   */\n      gt\n        /* \"#utility.yul\":15415:15451   */\n      iszero\n      tag_387\n      jumpi\n        /* \"#utility.yul\":15431:15449   */\n      tag_388\n      tag_201\n      jump\t// in\n    tag_388:\n        /* \"#utility.yul\":15415:15451   */\n    tag_387:\n        /* \"#utility.yul\":15267:15458   */\n      swap3\n      swap2\n      pop\n      pop\n      jump\t// out\n        /* \"#utility.yul\":15464:15796   */\n    tag_123:\n        /* \"#utility.yul\":15585:15589   */\n      0x00\n        /* \"#utility.yul\":15623:15625   */\n      0x40\n        /* \"#utility.yul\":15612:15621   */\n      dup3\n        /* \"#utility.yul\":15608:15626   */\n      add\n        /* \"#utility.yul\":15600:15626   */\n      swap1\n      pop\n        /* \"#utility.yul\":15636:15707   */\n      tag_390\n        /* \"#utility.yul\":15704:15705   */\n      0x00\n        /* \"#utility.yul\":15693:15702   */\n      dup4\n        /* \"#utility.yul\":15689:15706   */\n      add\n        /* \"#utility.yul\":15680:15686   */\n      dup6\n        /* \"#utility.yul\":15636:15707   */\n      tag_178\n      jump\t// in\n    tag_390:\n        /* \"#utility.yul\":15717:15789   */\n      tag_391\n        /* \"#utility.yul\":15785:15787   */\n      0x20\n        /* \"#utility.yul\":15774:15783   */\n      dup4\n        /* \"#utility.yul\":15770:15788   */\n      add\n        /* \"#utility.yul\":15761:15767   */\n      dup5\n        /* \"#utility.yul\":15717:15789   */\n      tag_178\n      jump\t// in\n    tag_391:\n        /* \"#utility.yul\":15464:15796   */\n      swap4\n      swap3\n      pop\n      pop\n      pop\n      jump\t// out\n        /* \"#utility.yul\":15802:15961   */\n    tag_208:\n        /* \"#utility.yul\":15942:15953   */\n      0x4e6f74206f776e65720000000000000000000000000000000000000000000000\n        /* \"#utility.yul\":15938:15939   */\n      0x00\n        /* \"#utility.yul\":15930:15936   */\n      dup3\n        /* \"#utility.yul\":15926:15940   */\n      add\n        /* \"#utility.yul\":15919:15954   */\n      mstore\n        /* \"#utility.yul\":15802:15961   */\n      pop\n      jump\t// out\n        /* \"#utility.yul\":15967:16332   */\n    tag_209:\n        /* \"#utility.yul\":16109:16112   */\n      0x00\n        /* \"#utility.yul\":16130:16196   */\n      tag_394\n        /* \"#utility.yul\":16194:16195   */\n      0x09\n        /* \"#utility.yul\":16189:16192   */\n      dup4\n        /* \"#utility.yul\":16130:16196   */\n      tag_194\n      jump\t// in\n    tag_394:\n        /* \"#utility.yul\":16123:16196   */\n      swap2\n      pop\n        /* \"#utility.yul\":16205:16298   */\n      tag_395\n        /* \"#utility.yul\":16294:16297   */\n      dup3\n        /* \"#utility.yul\":16205:16298   */\n      tag_208\n      jump\t// in\n    tag_395:\n        /* \"#utility.yul\":16323:16325   */\n      0x20\n        /* \"#utility.yul\":16318:16321   */\n      dup3\n        /* \"#utility.yul\":16314:16326   */\n      add\n        /* \"#utility.yul\":16307:16326   */\n      swap1\n      pop\n        /* \"#utility.yul\":15967:16332   */\n      swap2\n      swap1\n      pop\n      jump\t// out\n        /* \"#utility.yul\":16338:16757   */\n    tag_127:\n        /* \"#utility.yul\":16504:16508   */\n      0x00\n        /* \"#utility.yul\":16542:16544   */\n      0x20\n        /* \"#utility.yul\":16531:16540   */\n      dup3\n        /* \"#utility.yul\":16527:16545   */\n      add\n        /* \"#utility.yul\":16519:16545   */\n      swap1\n      pop\n        /* \"#utility.yul\":16591:16600   */\n      dup2\n        /* \"#utility.yul\":16585:16589   */\n      dup2\n        /* \"#utility.yul\":16581:16601   */\n      sub\n        /* \"#utility.yul\":16577:16578   */\n      0x00\n        /* \"#utility.yul\":16566:16575   */\n      dup4\n        /* \"#utility.yul\":16562:16579   */\n      add\n        /* \"#utility.yul\":16555:16602   */\n      mstore\n        /* \"#utility.yul\":16619:16750   */\n      tag_397\n        /* \"#utility.yul\":16745:16749   */\n      dup2\n        /* \"#utility.yul\":16619:16750   */\n      tag_209\n      jump\t// in\n    tag_397:\n        /* \"#utility.yul\":16611:16750   */\n      swap1\n      pop\n        /* \"#utility.yul\":16338:16757   */\n      swap2\n      swap1\n      pop\n      jump\t// out\n        /* \"#utility.yul\":16763:16930   */\n    tag_210:\n        /* \"#utility.yul\":16903:16922   */\n      0x4e6f7420656e6f75676820706f696e7473000000000000000000000000000000\n        /* \"#utility.yul\":16899:16900   */\n      0x00\n        /* \"#utility.yul\":16891:16897   */\n      dup3\n        /* \"#utility.yul\":16887:16901   */\n      add\n        /* \"#utility.yul\":16880:16923   */\n      mstore\n        /* \"#utility.yul\":16763:16930   */\n      pop\n      jump\t// out\n        /* \"#utility.yul\":16936:17302   */\n    tag_211:\n        /* \"#utility.yul\":17078:17081   */\n      0x00\n        /* \"#utility.yul\":17099:17166   */\n      tag_400\n        /* \"#utility.yul\":17163:17165   */\n      0x11\n        /* \"#utility.yul\":17158:17161   */\n      dup4\n        /* \"#utility.yul\":17099:17166   */\n      tag_194\n      jump\t// in\n    tag_400:\n        /* \"#utility.yul\":17092:17166   */\n      swap2\n      pop\n        /* \"#utility.yul\":17175:17268   */\n      tag_401\n        /* \"#utility.yul\":17264:17267   */\n      dup3\n        /* \"#utility.yul\":17175:17268   */\n      tag_210\n      jump\t// in\n    tag_401:\n        /* \"#utility.yul\":17293:17295   */\n      0x20\n        /* \"#utility.yul\":17288:17291   */\n      dup3\n        /* \"#utility.yul\":17284:17296   */\n      add\n        /* \"#utility.yul\":17277:17296   */\n      swap1\n      pop\n        /* \"#utility.yul\":16936:17302   */\n      swap2\n      swap1\n      pop\n      jump\t// out\n        /* \"#utility.yul\":17308:17727   */\n    tag_137:\n        /* \"#utility.yul\":17474:17478   */\n      0x00\n        /* \"#utility.yul\":17512:17514   */\n      0x20\n        /* \"#utility.yul\":17501:17510   */\n      dup3\n        /* \"#utility.yul\":17497:17515   */\n      add\n        /* \"#utility.yul\":17489:17515   */\n      swap1\n      pop\n        /* \"#utility.yul\":17561:17570   */\n      dup2\n        /* \"#utility.yul\":17555:17559   */\n      dup2\n        /* \"#utility.yul\":17551:17571   */\n      sub\n        /* \"#utility.yul\":17547:17548   */\n      0x00\n        /* \"#utility.yul\":17536:17545   */\n      dup4\n        /* \"#utility.yul\":17532:17549   */\n      add\n        /* \"#utility.yul\":17525:17572   */\n      mstore\n        /* \"#utility.yul\":17589:17720   */\n      tag_403\n        /* \"#utility.yul\":17715:17719   */\n      dup2\n        /* \"#utility.yul\":17589:17720   */\n      tag_211\n      jump\t// in\n    tag_403:\n        /* \"#utility.yul\":17581:17720   */\n      swap1\n      pop\n        /* \"#utility.yul\":17308:17727   */\n      swap2\n      swap1\n      pop\n      jump\t// out\n        /* \"#utility.yul\":17733:18176   */\n    tag_140:\n        /* \"#utility.yul\":17884:17888   */\n      0x00\n        /* \"#utility.yul\":17922:17924   */\n      0x40\n        /* \"#utility.yul\":17911:17920   */\n      dup3\n        /* \"#utility.yul\":17907:17925   */\n      add\n        /* \"#utility.yul\":17899:17925   */\n      swap1\n      pop\n        /* \"#utility.yul\":17935:18006   */\n      tag_405\n        /* \"#utility.yul\":18003:18004   */\n      0x00\n        /* \"#utility.yul\":17992:18001   */\n      dup4\n        /* \"#utility.yul\":17988:18005   */\n      add\n        /* \"#utility.yul\":17979:17985   */\n      dup7\n        /* \"#utility.yul\":17935:18006   */\n      tag_178\n      jump\t// in\n    tag_405:\n        /* \"#utility.yul\":18053:18062   */\n      dup2\n        /* \"#utility.yul\":18047:18051   */\n      dup2\n        /* \"#utility.yul\":18043:18063   */\n      sub\n        /* \"#utility.yul\":18038:18040   */\n      0x20\n        /* \"#utility.yul\":18027:18036   */\n      dup4\n        /* \"#utility.yul\":18023:18041   */\n      add\n        /* \"#utility.yul\":18016:18064   */\n      mstore\n        /* \"#utility.yul\":18081:18169   */\n      tag_406\n        /* \"#utility.yul\":18164:18168   */\n      dup2\n        /* \"#utility.yul\":18155:18161   */\n      dup5\n        /* \"#utility.yul\":18147:18153   */\n      dup7\n        /* \"#utility.yul\":18081:18169   */\n      tag_204\n      jump\t// in\n    tag_406:\n        /* \"#utility.yul\":18073:18169   */\n      swap1\n      pop\n        /* \"#utility.yul\":17733:18176   */\n      swap5\n      swap4\n      pop\n      pop\n      pop\n      pop\n      jump\t// out\n        /* \"#utility.yul\":18182:18345   */\n    tag_212:\n        /* \"#utility.yul\":18322:18337   */\n      0x4e6f2066756e64732073656e7400000000000000000000000000000000000000\n        /* \"#utility.yul\":18318:18319   */\n      0x00\n        /* \"#utility.yul\":18310:18316   */\n      dup3\n        /* \"#utility.yul\":18306:18320   */\n      add\n        /* \"#utility.yul\":18299:18338   */\n      mstore\n        /* \"#utility.yul\":18182:18345   */\n      pop\n      jump\t// out\n        /* \"#utility.yul\":18351:18717   */\n    tag_213:\n        /* \"#utility.yul\":18493:18496   */\n      0x00\n        /* \"#utility.yul\":18514:18581   */\n      tag_409\n        /* \"#utility.yul\":18578:18580   */\n      0x0d\n        /* \"#utility.yul\":18573:18576   */\n      dup4\n        /* \"#utility.yul\":18514:18581   */\n      tag_194\n      jump\t// in\n    tag_409:\n        /* \"#utility.yul\":18507:18581   */\n      swap2\n      pop\n        /* \"#utility.yul\":18590:18683   */\n      tag_410\n        /* \"#utility.yul\":18679:18682   */\n      dup3\n        /* \"#utility.yul\":18590:18683   */\n      tag_212\n      jump\t// in\n    tag_410:\n        /* \"#utility.yul\":18708:18710   */\n      0x20\n        /* \"#utility.yul\":18703:18706   */\n      dup3\n        /* \"#utility.yul\":18699:18711   */\n      add\n        /* \"#utility.yul\":18692:18711   */\n      swap1\n      pop\n        /* \"#utility.yul\":18351:18717   */\n      swap2\n      swap1\n      pop\n      jump\t// out\n        /* \"#utility.yul\":18723:19142   */\n    tag_144:\n        /* \"#utility.yul\":18889:18893   */\n      0x00\n        /* \"#utility.yul\":18927:18929   */\n      0x20\n        /* \"#utility.yul\":18916:18925   */\n      dup3\n        /* \"#utility.yul\":18912:18930   */\n      add\n        /* \"#utility.yul\":18904:18930   */\n      swap1\n      pop\n        /* \"#utility.yul\":18976:18985   */\n      dup2\n        /* \"#utility.yul\":18970:18974   */\n      dup2\n        /* \"#utility.yul\":18966:18986   */\n      sub\n        /* \"#utility.yul\":18962:18963   */\n      0x00\n        /* \"#utility.yul\":18951:18960   */\n      dup4\n        /* \"#utility.yul\":18947:18964   */\n      add\n        /* \"#utility.yul\":18940:18987   */\n      mstore\n        /* \"#utility.yul\":19004:19135   */\n      tag_412\n        /* \"#utility.yul\":19130:19134   */\n      dup2\n        /* \"#utility.yul\":19004:19135   */\n      tag_213\n      jump\t// in\n    tag_412:\n        /* \"#utility.yul\":18996:19135   */\n      swap1\n      pop\n        /* \"#utility.yul\":18723:19142   */\n      swap2\n      swap1\n      pop\n      jump\t// out\n        /* \"#utility.yul\":19148:19327   */\n    tag_214:\n        /* \"#utility.yul\":19288:19319   */\n      0x496e73756666696369656e7420636f6e74726163742062616c616e6365000000\n        /* \"#utility.yul\":19284:19285   */\n      0x00\n        /* \"#utility.yul\":19276:19282   */\n      dup3\n        /* \"#utility.yul\":19272:19286   */\n      add\n        /* \"#utility.yul\":19265:19320   */\n      mstore\n        /* \"#utility.yul\":19148:19327   */\n      pop\n      jump\t// out\n        /* \"#utility.yul\":19333:19699   */\n    tag_215:\n        /* \"#utility.yul\":19475:19478   */\n      0x00\n        /* \"#utility.yul\":19496:19563   */\n      tag_415\n        /* \"#utility.yul\":19560:19562   */\n      0x1d\n        /* \"#utility.yul\":19555:19558   */\n      dup4\n        /* \"#utility.yul\":19496:19563   */\n      tag_194\n      jump\t// in\n    tag_415:\n        /* \"#utility.yul\":19489:19563   */\n      swap2\n      pop\n        /* \"#utility.yul\":19572:19665   */\n      tag_416\n        /* \"#utility.yul\":19661:19664   */\n      dup3\n        /* \"#utility.yul\":19572:19665   */\n      tag_214\n      jump\t// in\n    tag_416:\n        /* \"#utility.yul\":19690:19692   */\n      0x20\n        /* \"#utility.yul\":19685:19688   */\n      dup3\n        /* \"#utility.yul\":19681:19693   */\n      add\n        /* \"#utility.yul\":19674:19693   */\n      swap1\n      pop\n        /* \"#utility.yul\":19333:19699   */\n      swap2\n      swap1\n      pop\n      jump\t// out\n        /* \"#utility.yul\":19705:20124   */\n    tag_153:\n        /* \"#utility.yul\":19871:19875   */\n      0x00\n        /* \"#utility.yul\":19909:19911   */\n      0x20\n        /* \"#utility.yul\":19898:19907   */\n      dup3\n        /* \"#utility.yul\":19894:19912   */\n      add\n        /* \"#utility.yul\":19886:19912   */\n      swap1\n      pop\n        /* \"#utility.yul\":19958:19967   */\n      dup2\n        /* \"#utility.yul\":19952:19956   */\n      dup2\n        /* \"#utility.yul\":19948:19968   */\n      sub\n        /* \"#utility.yul\":19944:19945   */\n      0x00\n        /* \"#utility.yul\":19933:19942   */\n      dup4\n        /* \"#utility.yul\":19929:19946   */\n      add\n        /* \"#utility.yul\":19922:19969   */\n      mstore\n        /* \"#utility.yul\":19986:20117   */\n      tag_418\n        /* \"#utility.yul\":20112:20116   */\n      dup2\n        /* \"#utility.yul\":19986:20117   */\n      tag_215\n      jump\t// in\n    tag_418:\n        /* \"#utility.yul\":19978:20117   */\n      swap1\n      pop\n        /* \"#utility.yul\":19705:20124   */\n      swap2\n      swap1\n      pop\n      jump\t// out\n        /* \"#utility.yul\":20130:20209   */\n    tag_216:\n        /* \"#utility.yul\":20169:20176   */\n      0x00\n        /* \"#utility.yul\":20198:20203   */\n      dup2\n        /* \"#utility.yul\":20187:20203   */\n      swap1\n      pop\n        /* \"#utility.yul\":20130:20209   */\n      swap2\n      swap1\n      pop\n      jump\t// out\n        /* \"#utility.yul\":20215:20372   */\n    tag_217:\n        /* \"#utility.yul\":20320:20365   */\n      tag_421\n        /* \"#utility.yul\":20340:20364   */\n      tag_422\n        /* \"#utility.yul\":20358:20363   */\n      dup3\n        /* \"#utility.yul\":20340:20364   */\n      tag_177\n      jump\t// in\n    tag_422:\n        /* \"#utility.yul\":20320:20365   */\n      tag_216\n      jump\t// in\n    tag_421:\n        /* \"#utility.yul\":20315:20318   */\n      dup3\n        /* \"#utility.yul\":20308:20366   */\n      mstore\n        /* \"#utility.yul\":20215:20372   */\n      pop\n      pop\n      jump\t// out\n        /* \"#utility.yul\":20378:20472   */\n    tag_218:\n        /* \"#utility.yul\":20411:20419   */\n      0x00\n        /* \"#utility.yul\":20459:20464   */\n      dup2\n        /* \"#utility.yul\":20455:20457   */\n      0x60\n        /* \"#utility.yul\":20451:20465   */\n      shl\n        /* \"#utility.yul\":20430:20465   */\n      swap1\n      pop\n        /* \"#utility.yul\":20378:20472   */\n      swap2\n      swap1\n      pop\n      jump\t// out\n        /* \"#utility.yul\":20478:20572   */\n    tag_219:\n        /* \"#utility.yul\":20517:20524   */\n      0x00\n        /* \"#utility.yul\":20546:20566   */\n      tag_425\n        /* \"#utility.yul\":20560:20565   */\n      dup3\n        /* \"#utility.yul\":20546:20566   */\n      tag_218\n      jump\t// in\n    tag_425:\n        /* \"#utility.yul\":20535:20566   */\n      swap1\n      pop\n        /* \"#utility.yul\":20478:20572   */\n      swap2\n      swap1\n      pop\n      jump\t// out\n        /* \"#utility.yul\":20578:20678   */\n    tag_220:\n        /* \"#utility.yul\":20617:20624   */\n      0x00\n        /* \"#utility.yul\":20646:20672   */\n      tag_427\n        /* \"#utility.yul\":20666:20671   */\n      dup3\n        /* \"#utility.yul\":20646:20672   */\n      tag_219\n      jump\t// in\n    tag_427:\n        /* \"#utility.yul\":20635:20672   */\n      swap1\n      pop\n        /* \"#utility.yul\":20578:20678   */\n      swap2\n      swap1\n      pop\n      jump\t// out\n        /* \"#utility.yul\":20684:20841   */\n    tag_221:\n        /* \"#utility.yul\":20789:20834   */\n      tag_429\n        /* \"#utility.yul\":20809:20833   */\n      tag_430\n        /* \"#utility.yul\":20827:20832   */\n      dup3\n        /* \"#utility.yul\":20809:20833   */\n      tag_180\n      jump\t// in\n    tag_430:\n        /* \"#utility.yul\":20789:20834   */\n      tag_220\n      jump\t// in\n    tag_429:\n        /* \"#utility.yul\":20784:20787   */\n      dup3\n        /* \"#utility.yul\":20777:20835   */\n      mstore\n        /* \"#utility.yul\":20684:20841   */\n      pop\n      pop\n      jump\t// out\n        /* \"#utility.yul\":20847:20926   */\n    tag_222:\n        /* \"#utility.yul\":20886:20893   */\n      0x00\n        /* \"#utility.yul\":20915:20920   */\n      dup2\n        /* \"#utility.yul\":20904:20920   */\n      swap1\n      pop\n        /* \"#utility.yul\":20847:20926   */\n      swap2\n      swap1\n      pop\n      jump\t// out\n        /* \"#utility.yul\":20932:21089   */\n    tag_223:\n        /* \"#utility.yul\":21037:21082   */\n      tag_433\n        /* \"#utility.yul\":21057:21081   */\n      tag_434\n        /* \"#utility.yul\":21075:21080   */\n      dup3\n        /* \"#utility.yul\":21057:21081   */\n      tag_167\n      jump\t// in\n    tag_434:\n        /* \"#utility.yul\":21037:21082   */\n      tag_222\n      jump\t// in\n    tag_433:\n        /* \"#utility.yul\":21032:21035   */\n      dup3\n        /* \"#utility.yul\":21025:21083   */\n      mstore\n        /* \"#utility.yul\":20932:21089   */\n      pop\n      pop\n      jump\t// out\n        /* \"#utility.yul\":21095:21774   */\n    tag_158:\n        /* \"#utility.yul\":21291:21294   */\n      0x00\n        /* \"#utility.yul\":21306:21381   */\n      tag_436\n        /* \"#utility.yul\":21377:21380   */\n      dup3\n        /* \"#utility.yul\":21368:21374   */\n      dup8\n        /* \"#utility.yul\":21306:21381   */\n      tag_217\n      jump\t// in\n    tag_436:\n        /* \"#utility.yul\":21406:21408   */\n      0x20\n        /* \"#utility.yul\":21401:21404   */\n      dup3\n        /* \"#utility.yul\":21397:21409   */\n      add\n        /* \"#utility.yul\":21390:21409   */\n      swap2\n      pop\n        /* \"#utility.yul\":21419:21494   */\n      tag_437\n        /* \"#utility.yul\":21490:21493   */\n      dup3\n        /* \"#utility.yul\":21481:21487   */\n      dup7\n        /* \"#utility.yul\":21419:21494   */\n      tag_221\n      jump\t// in\n    tag_437:\n        /* \"#utility.yul\":21519:21521   */\n      0x14\n        /* \"#utility.yul\":21514:21517   */\n      dup3\n        /* \"#utility.yul\":21510:21522   */\n      add\n        /* \"#utility.yul\":21503:21522   */\n      swap2\n      pop\n        /* \"#utility.yul\":21532:21607   */\n      tag_438\n        /* \"#utility.yul\":21603:21606   */\n      dup3\n        /* \"#utility.yul\":21594:21600   */\n      dup6\n        /* \"#utility.yul\":21532:21607   */\n      tag_223\n      jump\t// in\n    tag_438:\n        /* \"#utility.yul\":21632:21634   */\n      0x20\n        /* \"#utility.yul\":21627:21630   */\n      dup3\n        /* \"#utility.yul\":21623:21635   */\n      add\n        /* \"#utility.yul\":21616:21635   */\n      swap2\n      pop\n        /* \"#utility.yul\":21645:21720   */\n      tag_439\n        /* \"#utility.yul\":21716:21719   */\n      dup3\n        /* \"#utility.yul\":21707:21713   */\n      dup5\n        /* \"#utility.yul\":21645:21720   */\n      tag_217\n      jump\t// in\n    tag_439:\n        /* \"#utility.yul\":21745:21747   */\n      0x20\n        /* \"#utility.yul\":21740:21743   */\n      dup3\n        /* \"#utility.yul\":21736:21748   */\n      add\n        /* \"#utility.yul\":21729:21748   */\n      swap2\n      pop\n        /* \"#utility.yul\":21765:21768   */\n      dup2\n        /* \"#utility.yul\":21758:21768   */\n      swap1\n      pop\n        /* \"#utility.yul\":21095:21774   */\n      swap6\n      swap5\n      pop\n      pop\n      pop\n      pop\n      pop\n      jump\t// out\n        /* \"#utility.yul\":21780:21956   */\n    tag_160:\n        /* \"#utility.yul\":21812:21813   */\n      0x00\n        /* \"#utility.yul\":21829:21849   */\n      tag_441\n        /* \"#utility.yul\":21847:21848   */\n      dup3\n        /* \"#utility.yul\":21829:21849   */\n      tag_177\n      jump\t// in\n    tag_441:\n        /* \"#utility.yul\":21824:21849   */\n      swap2\n      pop\n        /* \"#utility.yul\":21863:21883   */\n      tag_442\n        /* \"#utility.yul\":21881:21882   */\n      dup4\n        /* \"#utility.yul\":21863:21883   */\n      tag_177\n      jump\t// in\n    tag_442:\n        /* \"#utility.yul\":21858:21883   */\n      swap3\n      pop\n        /* \"#utility.yul\":21902:21903   */\n      dup3\n        /* \"#utility.yul\":21892:21927   */\n      tag_443\n      jumpi\n        /* \"#utility.yul\":21907:21925   */\n      tag_444\n      tag_207\n      jump\t// in\n    tag_444:\n        /* \"#utility.yul\":21892:21927   */\n    tag_443:\n        /* \"#utility.yul\":21948:21949   */\n      dup3\n        /* \"#utility.yul\":21945:21946   */\n      dup3\n        /* \"#utility.yul\":21941:21950   */\n      mod\n        /* \"#utility.yul\":21936:21950   */\n      swap1\n      pop\n        /* \"#utility.yul\":21780:21956   */\n      swap3\n      swap2\n      pop\n      pop\n      jump\t// out\n        /* \"#utility.yul\":21962:22286   */\n    tag_163:\n        /* \"#utility.yul\":22079:22083   */\n      0x00\n        /* \"#utility.yul\":22117:22119   */\n      0x40\n        /* \"#utility.yul\":22106:22115   */\n      dup3\n        /* \"#utility.yul\":22102:22120   */\n      add\n        /* \"#utility.yul\":22094:22120   */\n      swap1\n      pop\n        /* \"#utility.yul\":22130:22197   */\n      tag_446\n        /* \"#utility.yul\":22194:22195   */\n      0x00\n        /* \"#utility.yul\":22183:22192   */\n      dup4\n        /* \"#utility.yul\":22179:22196   */\n      add\n        /* \"#utility.yul\":22170:22176   */\n      dup6\n        /* \"#utility.yul\":22130:22197   */\n      tag_182\n      jump\t// in\n    tag_446:\n        /* \"#utility.yul\":22207:22279   */\n      tag_447\n        /* \"#utility.yul\":22275:22277   */\n      0x20\n        /* \"#utility.yul\":22264:22273   */\n      dup4\n        /* \"#utility.yul\":22260:22278   */\n      add\n        /* \"#utility.yul\":22251:22257   */\n      dup5\n        /* \"#utility.yul\":22207:22279   */\n      tag_178\n      jump\t// in\n    tag_447:\n        /* \"#utility.yul\":21962:22286   */\n      swap4\n      swap3\n      pop\n      pop\n      pop\n      jump\t// out\n\n    auxdata: 0xa264697066735822122005f784f8b58c50ab77f66275fa7e411de75158d346e3da707858ab9d7e6bb5a564736f6c634300081e0033\n}\n",
				"bytecode": {
					"linkReferences": {},
					"object": "6080604052348015600e575f5ffd5b50335f5f6101000a81548173ffffffffffffffffffffffffffffffffffffffff021916908373ffffffffffffffffffffffffffffffffffffffff1602179055506118d48061005b5f395ff3fe6080604052600436106100c5575f3560e01c80639d42ee831161007e578063cdc39f7b11610058578063cdc39f7b1461025e578063cfa54f391461029a578063d9c88e14146102b6578063ffa35e7a146102de576100c6565b80639d42ee83146101d2578063ae9dc4f1146101fa578063c7b4f09a14610236576100c6565b806326ab5568146100c857806348221613146100f05780638909aa3f1461011a5780638da5cb5b1461015657806391b6f3b61461018057806397d4df67146101aa576100c6565b5b005b3480156100d3575f5ffd5b506100ee60048036038101906100e99190610e85565b61031a565b005b3480156100fb575f5ffd5b50610104610529565b6040516101119190610f0e565b60405180910390f35b348015610125575f5ffd5b50610140600480360381019061013b9190610f27565b610534565b60405161014d9190610f0e565b60405180910390f35b348015610161575f5ffd5b5061016a610549565b6040516101779190610f91565b60405180910390f35b34801561018b575f5ffd5b5061019461056d565b6040516101a19190610fb9565b60405180910390f35b3480156101b5575f5ffd5b506101d060048036038101906101cb9190611037565b610572565b005b3480156101dd575f5ffd5b506101f860048036038101906101f391906110e6565b6107c4565b005b348015610205575f5ffd5b50610220600480360381019061021b9190611124565b6108f8565b60405161022d919061115e565b60405180910390f35b348015610241575f5ffd5b5061025c60048036038101906102579190611177565b610915565b005b348015610269575f5ffd5b50610284600480360381019061027f91906111e8565b610ac8565b6040516102919190610f0e565b60405180910390f35b6102b460048036038101906102af9190610f27565b610ae8565b005b3480156102c1575f5ffd5b506102dc60048036038101906102d79190611226565b610ba3565b005b3480156102e9575f5ffd5b5061030460048036038101906102ff9190610f27565b610cbc565b6040516103119190610f0e565b60405180910390f35b5f5f9054906101000a900473ffffffffffffffffffffffffffffffffffffffff1673ffffffffffffffffffffffffffffffffffffffff163373ffffffffffffffffffffffffffffffffffffffff1614806103ba575060015f3373ffffffffffffffffffffffffffffffffffffffff1673ffffffffffffffffffffffffffffffffffffffff1681526020019081526020015f205f9054906101000a900460ff165b6103f9576040517f08c379a00000000000000000000000000000000000000000000000000000000081526004016103f0906112be565b60405180910390fd5b600660ff168360ff1610610442576040517f08c379a000000000000000000000000000000000000000000000000000000000815260040161043990611326565b60405180910390fd5b5f60045f8681526020019081526020015f205f8560ff1660ff1681526020019081526020015f2054116104aa576040517f08c379a00000000000000000000000000000000000000000000000000000000081526004016104a19061138e565b60405180910390fd5b600160045f8681526020019081526020015f205f8560ff1660ff1681526020019081526020015f205f8282546104e091906113d9565b92505081905550837f9f192884dcf38a54909ab68532ade405c820d94514784be00c0ffb916f7ce9e484848460405161051b93929190611456565b60405180910390a250505050565b662386f26fc1000081565b6002602052805f5260405f205f915090505481565b5f5f9054906101000a900473ffffffffffffffffffffffffffffffffffffffff1681565b600681565b5f5f9054906101000a900473ffffffffffffffffffffffffffffffffffffffff1673ffffffffffffffffffffffffffffffffffffffff163373ffffffffffffffffffffffffffffffffffffffff161480610612575060015f3373ffffffffffffffffffffffffffffffffffffffff1673ffffffffffffffffffffffffffffffffffffffff1681526020019081526020015f205f9054906101000a900460ff165b610651576040517f08c379a0000000000000000000000000000000000000000000000000000000008152600401610648906112be565b60405180910390fd5b8060025f8581526020019081526020015f205410156106a5576040517f08c379a000000000000000000000000000000000000000000000000000000000815260040161069c906114d0565b60405180910390fd5b8060025f8581526020019081526020015f205f8282546106c591906113d9565b925050819055508173ffffffffffffffffffffffffffffffffffffffff166108fc8290811502906040515f60405180830381858888f1935050505015801561070f573d5f5f3e3d5ffd5b505f662386f26fc1000082610724919061151b565b90508060035f8681526020019081526020015f205f828254610746919061154b565b9250508190555061075684610cd1565b3373ffffffffffffffffffffffffffffffffffffffff168373ffffffffffffffffffffffffffffffffffffffff16857fd724520eaf1da0647d0379840a2906a85618bec195a8b9819560c860edaebaf685856040516107b692919061157e565b60405180910390a450505050565b5f5f9054906101000a900473ffffffffffffffffffffffffffffffffffffffff1673ffffffffffffffffffffffffffffffffffffffff163373ffffffffffffffffffffffffffffffffffffffff1614610852576040517f08c379a0000000000000000000000000000000000000000000000000000000008152600401610849906115ef565b60405180910390fd5b8060015f8473ffffffffffffffffffffffffffffffffffffffff1673ffffffffffffffffffffffffffffffffffffffff1681526020019081526020015f205f6101000a81548160ff0219169083151502179055508173ffffffffffffffffffffffffffffffffffffffff167f5d58890431b5b6f025224938973f8cffe939e87ed7dd18aa2baea83e7d877717826040516108ec919061115e565b60405180910390a25050565b6001602052805f5260405f205f915054906101000a900460ff1681565b5f5f9054906101000a900473ffffffffffffffffffffffffffffffffffffffff1673ffffffffffffffffffffffffffffffffffffffff163373ffffffffffffffffffffffffffffffffffffffff1614806109b5575060015f3373ffffffffffffffffffffffffffffffffffffffff1673ffffffffffffffffffffffffffffffffffffffff1681526020019081526020015f205f9054906101000a900460ff165b6109f4576040517f08c379a00000000000000000000000000000000000000000000000000000000081526004016109eb906112be565b60405180910390fd5b8260035f8681526020019081526020015f20541015610a48576040517f08c379a0000000000000000000000000000000000000000000000000000000008152600401610a3f90611657565b60405180910390fd5b8260035f8681526020019081526020015f205f828254610a6891906113d9565b925050819055503373ffffffffffffffffffffffffffffffffffffffff16847f928cecf66535b70a3ca38b5cb1dc1b95d6d640bc06679ef452c30d850c05217f858585604051610aba93929190611675565b60405180910390a350505050565b6004602052815f5260405f20602052805f5260405f205f91509150505481565b5f3411610b2a576040517f08c379a0000000000000000000000000000000000000000000000000000000008152600401610b21906116ef565b60405180910390fd5b3460025f8381526020019081526020015f205f828254610b4a919061154b565b925050819055503373ffffffffffffffffffffffffffffffffffffffff16817fde196b7c62b5e02636a152ed0eb5b7a4a722f7282fe0b7505e255bb45d8e442234604051610b989190610f0e565b60405180910390a350565b5f5f9054906101000a900473ffffffffffffffffffffffffffffffffffffffff1673ffffffffffffffffffffffffffffffffffffffff163373ffffffffffffffffffffffffffffffffffffffff1614610c31576040517f08c379a0000000000000000000000000000000000000000000000000000000008152600401610c28906115ef565b60405180910390fd5b80471015610c74576040517f08c379a0000000000000000000000000000000000000000000000000000000008152600401610c6b90611757565b60405180910390fd5b8173ffffffffffffffffffffffffffffffffffffffff166108fc8290811502906040515f60405180830381858888f19350505050158015610cb7573d5f5f3e3d5ffd5b505050565b6003602052805f5260405f205f915090505481565b5f600660ff1642338444604051602001610cee94939291906117fa565b604051602081830303815290604052805190602001205f1c610d109190611847565b9050600160045f8481526020019081526020015f205f8360ff1660ff1681526020019081526020015f205f828254610d48919061154b565b92505081905550817fa44a93b9ba75063a4fb65210e607817435b0f8419db1ea1bd9628483fa4f07a98260045f8681526020019081526020015f205f8560ff1660ff1681526020019081526020015f2054604051610da7929190611877565b60405180910390a25050565b5f5ffd5b5f5ffd5b5f819050919050565b610dcd81610dbb565b8114610dd7575f5ffd5b50565b5f81359050610de881610dc4565b92915050565b5f60ff82169050919050565b610e0381610dee565b8114610e0d575f5ffd5b50565b5f81359050610e1e81610dfa565b92915050565b5f5ffd5b5f5ffd5b5f5ffd5b5f5f83601f840112610e4557610e44610e24565b5b8235905067ffffffffffffffff811115610e6257610e61610e28565b5b602083019150836001820283011115610e7e57610e7d610e2c565b5b9250929050565b5f5f5f5f60608587031215610e9d57610e9c610db3565b5b5f610eaa87828801610dda565b9450506020610ebb87828801610e10565b935050604085013567ffffffffffffffff811115610edc57610edb610db7565b5b610ee887828801610e30565b925092505092959194509250565b5f819050919050565b610f0881610ef6565b82525050565b5f602082019050610f215f830184610eff565b92915050565b5f60208284031215610f3c57610f3b610db3565b5b5f610f4984828501610dda565b91505092915050565b5f73ffffffffffffffffffffffffffffffffffffffff82169050919050565b5f610f7b82610f52565b9050919050565b610f8b81610f71565b82525050565b5f602082019050610fa45f830184610f82565b92915050565b610fb381610dee565b82525050565b5f602082019050610fcc5f830184610faa565b92915050565b5f610fdc82610f52565b9050919050565b610fec81610fd2565b8114610ff6575f5ffd5b50565b5f8135905061100781610fe3565b92915050565b61101681610ef6565b8114611020575f5ffd5b50565b5f813590506110318161100d565b92915050565b5f5f5f6060848603121561104e5761104d610db3565b5b5f61105b86828701610dda565b935050602061106c86828701610ff9565b925050604061107d86828701611023565b9150509250925092565b61109081610f71565b811461109a575f5ffd5b50565b5f813590506110ab81611087565b92915050565b5f8115159050919050565b6110c5816110b1565b81146110cf575f5ffd5b50565b5f813590506110e0816110bc565b92915050565b5f5f604083850312156110fc576110fb610db3565b5b5f6111098582860161109d565b925050602061111a858286016110d2565b9150509250929050565b5f6020828403121561113957611138610db3565b5b5f6111468482850161109d565b91505092915050565b611158816110b1565b82525050565b5f6020820190506111715f83018461114f565b92915050565b5f5f5f5f6060858703121561118f5761118e610db3565b5b5f61119c87828801610dda565b94505060206111ad87828801611023565b935050604085013567ffffffffffffffff8111156111ce576111cd610db7565b5b6111da87828801610e30565b925092505092959194509250565b5f5f604083850312156111fe576111fd610db3565b5b5f61120b85828601610dda565b925050602061121c85828601610e10565b9150509250929050565b5f5f6040838503121561123c5761123b610db3565b5b5f61124985828601610ff9565b925050602061125a85828601611023565b9150509250929050565b5f82825260208201905092915050565b7f4e6f7420617574686f72697a65640000000000000000000000000000000000005f82015250565b5f6112a8600e83611264565b91506112b382611274565b602082019050919050565b5f6020820190508181035f8301526112d58161129c565b9050919050565b7f496e76616c696420636f75706f6e0000000000000000000000000000000000005f82015250565b5f611310600e83611264565b915061131b826112dc565b602082019050919050565b5f6020820190508181035f83015261133d81611304565b9050919050565b7f4e6f20636f75706f6e20617661696c61626c65000000000000000000000000005f82015250565b5f611378601383611264565b915061138382611344565b602082019050919050565b5f6020820190508181035f8301526113a58161136c565b9050919050565b7f4e487b71000000000000000000000000000000000000000000000000000000005f52601160045260245ffd5b5f6113e382610ef6565b91506113ee83610ef6565b9250828203905081811115611406576114056113ac565b5b92915050565b828183375f83830152505050565b5f601f19601f8301169050919050565b5f6114358385611264565b935061144283858461140c565b61144b8361141a565b840190509392505050565b5f6040820190506114695f830186610faa565b818103602083015261147c81848661142a565b9050949350505050565b7f496e73756666696369656e742062616c616e63650000000000000000000000005f82015250565b5f6114ba601483611264565b91506114c582611486565b602082019050919050565b5f6020820190508181035f8301526114e7816114ae565b9050919050565b7f4e487b71000000000000000000000000000000000000000000000000000000005f52601260045260245ffd5b5f61152582610ef6565b915061153083610ef6565b9250826115405761153f6114ee565b5b828204905092915050565b5f61155582610ef6565b915061156083610ef6565b9250828201905080821115611578576115776113ac565b5b92915050565b5f6040820190506115915f830185610eff565b61159e6020830184610eff565b9392505050565b7f4e6f74206f776e657200000000000000000000000000000000000000000000005f82015250565b5f6115d9600983611264565b91506115e4826115a5565b602082019050919050565b5f6020820190508181035f830152611606816115cd565b9050919050565b7f4e6f7420656e6f75676820706f696e74730000000000000000000000000000005f82015250565b5f611641601183611264565b915061164c8261160d565b602082019050919050565b5f6020820190508181035f83015261166e81611635565b9050919050565b5f6040820190506116885f830186610eff565b818103602083015261169b81848661142a565b9050949350505050565b7f4e6f2066756e64732073656e74000000000000000000000000000000000000005f82015250565b5f6116d9600d83611264565b91506116e4826116a5565b602082019050919050565b5f6020820190508181035f830152611706816116cd565b9050919050565b7f496e73756666696369656e7420636f6e74726163742062616c616e63650000005f82015250565b5f611741601d83611264565b915061174c8261170d565b602082019050919050565b5f6020820190508181035f83015261176e81611735565b9050919050565b5f819050919050565b61178f61178a82610ef6565b611775565b82525050565b5f8160601b9050919050565b5f6117ab82611795565b9050919050565b5f6117bc826117a1565b9050919050565b6117d46117cf82610f71565b6117b2565b82525050565b5f819050919050565b6117f46117ef82610dbb565b6117da565b82525050565b5f611805828761177e565b60208201915061181582866117c3565b60148201915061182582856117e3565b602082019150611835828461177e565b60208201915081905095945050505050565b5f61185182610ef6565b915061185c83610ef6565b92508261186c5761186b6114ee565b5b828206905092915050565b5f60408201905061188a5f830185610faa565b6118976020830184610eff565b939250505056fea264697066735822122005f784f8b58c50ab77f66275fa7e411de75158d346e3da707858ab9d7e6bb5a564736f6c634300081e0033",
					"opcodes": "PUSH1 0x80 PUSH1 0x40 MSTORE CALLVALUE DUP1 ISZERO PUSH1 0xE JUMPI PUSH0 PUSH0 REVERT JUMPDEST POP CALLER PUSH0 PUSH0 PUSH2 0x100 EXP DUP2 SLOAD DUP2 PUSH20 0xFFFFFFFFFFFFFFFFFFFFFFFFFFFFFFFFFFFFFFFF MUL NOT AND SWAP1 DUP4 PUSH20 0xFFFFFFFFFFFFFFFFFFFFFFFFFFFFFFFFFFFFFFFF AND MUL OR SWAP1 SSTORE POP PUSH2 0x18D4 DUP1 PUSH2 0x5B PUSH0 CODECOPY PUSH0 RETURN INVALID PUSH1 0x80 PUSH1 0x40 MSTORE PUSH1 0x4 CALLDATASIZE LT PUSH2 0xC5 JUMPI PUSH0 CALLDATALOAD PUSH1 0xE0 SHR DUP1 PUSH4 0x9D42EE83 GT PUSH2 0x7E JUMPI DUP1 PUSH4 0xCDC39F7B GT PUSH2 0x58 JUMPI DUP1 PUSH4 0xCDC39F7B EQ PUSH2 0x25E JUMPI DUP1 PUSH4 0xCFA54F39 EQ PUSH2 0x29A JUMPI DUP1 PUSH4 0xD9C88E14 EQ PUSH2 0x2B6 JUMPI DUP1 PUSH4 0xFFA35E7A EQ PUSH2 0x2DE JUMPI PUSH2 0xC6 JUMP JUMPDEST DUP1 PUSH4 0x9D42EE83 EQ PUSH2 0x1D2 JUMPI DUP1 PUSH4 0xAE9DC4F1 EQ PUSH2 0x1FA JUMPI DUP1 PUSH4 0xC7B4F09A EQ PUSH2 0x236 JUMPI PUSH2 0xC6 JUMP JUMPDEST DUP1 PUSH4 0x26AB5568 EQ PUSH2 0xC8 JUMPI DUP1 PUSH4 0x48221613 EQ PUSH2 0xF0 JUMPI DUP1 PUSH4 0x8909AA3F EQ PUSH2 0x11A JUMPI DUP1 PUSH4 0x8DA5CB5B EQ PUSH2 0x156 JUMPI DUP1 PUSH4 0x91B6F3B6 EQ PUSH2 0x180 JUMPI DUP1 PUSH4 0x97D4DF67 EQ PUSH2 0x1AA JUMPI PUSH2 0xC6 JUMP JUMPDEST JUMPDEST STOP JUMPDEST CALLVALUE DUP1 ISZERO PUSH2 0xD3 JUMPI PUSH0 PUSH0 REVERT JUMPDEST POP PUSH2 0xEE PUSH1 0x4 DUP1 CALLDATASIZE SUB DUP2 ADD SWAP1 PUSH2 0xE9 SWAP2 SWAP1 PUSH2 0xE85 JUMP JUMPDEST PUSH2 0x31A JUMP JUMPDEST STOP JUMPDEST CALLVALUE DUP1 ISZERO PUSH2 0xFB JUMPI PUSH0 PUSH0 REVERT JUMPDEST POP PUSH2 0x104 PUSH2 0x529 JUMP JUMPDEST PUSH1 0x40 MLOAD PUSH2 0x111 SWAP2 SWAP1 PUSH2 0xF0E JUMP JUMPDEST PUSH1 0x40 MLOAD DUP1 SWAP2 SUB SWAP1 RETURN JUMPDEST CALLVALUE DUP1 ISZERO PUSH2 0x125 JUMPI PUSH0 PUSH0 REVERT JUMPDEST POP PUSH2 0x140 PUSH1 0x4 DUP1 CALLDATASIZE SUB DUP2 ADD SWAP1 PUSH2 0x13B SWAP2 SWAP1 PUSH2 0xF27 JUMP JUMPDEST PUSH2 0x534 JUMP JUMPDEST PUSH1 0x40 MLOAD PUSH2 0x14D SWAP2 SWAP1 PUSH2 0xF0E JUMP JUMPDEST PUSH1 0x40 MLOAD DUP1 SWAP2 SUB SWAP1 RETURN JUMPDEST CALLVALUE DUP1 ISZERO PUSH2 0x161 JUMPI PUSH0 PUSH0 REVERT JUMPDEST POP PUSH2 0x16A PUSH2 0x549 JUMP JUMPDEST PUSH1 0x40 MLOAD PUSH2 0x177 SWAP2 SWAP1 PUSH2 0xF91 JUMP JUMPDEST PUSH1 0x40 MLOAD DUP1 SWAP2 SUB SWAP1 RETURN JUMPDEST CALLVALUE DUP1 ISZERO PUSH2 0x18B JUMPI PUSH0 PUSH0 REVERT JUMPDEST POP PUSH2 0x194 PUSH2 0x56D JUMP JUMPDEST PUSH1 0x40 MLOAD PUSH2 0x1A1 SWAP2 SWAP1 PUSH2 0xFB9 JUMP JUMPDEST PUSH1 0x40 MLOAD DUP1 SWAP2 SUB SWAP1 RETURN JUMPDEST CALLVALUE DUP1 ISZERO PUSH2 0x1B5 JUMPI PUSH0 PUSH0 REVERT JUMPDEST POP PUSH2 0x1D0 PUSH1 0x4 DUP1 CALLDATASIZE SUB DUP2 ADD SWAP1 PUSH2 0x1CB SWAP2 SWAP1 PUSH2 0x1037 JUMP JUMPDEST PUSH2 0x572 JUMP JUMPDEST STOP JUMPDEST CALLVALUE DUP1 ISZERO PUSH2 0x1DD JUMPI PUSH0 PUSH0 REVERT JUMPDEST POP PUSH2 0x1F8 PUSH1 0x4 DUP1 CALLDATASIZE SUB DUP2 ADD SWAP1 PUSH2 0x1F3 SWAP2 SWAP1 PUSH2 0x10E6 JUMP JUMPDEST PUSH2 0x7C4 JUMP JUMPDEST STOP JUMPDEST CALLVALUE DUP1 ISZERO PUSH2 0x205 JUMPI PUSH0 PUSH0 REVERT JUMPDEST POP PUSH2 0x220 PUSH1 0x4 DUP1 CALLDATASIZE SUB DUP2 ADD SWAP1 PUSH2 0x21B SWAP2 SWAP1 PUSH2 0x1124 JUMP JUMPDEST PUSH2 0x8F8 JUMP JUMPDEST PUSH1 0x40 MLOAD PUSH2 0x22D SWAP2 SWAP1 PUSH2 0x115E JUMP JUMPDEST PUSH1 0x40 MLOAD DUP1 SWAP2 SUB SWAP1 RETURN JUMPDEST CALLVALUE DUP1 ISZERO PUSH2 0x241 JUMPI PUSH0 PUSH0 REVERT JUMPDEST POP PUSH2 0x25C PUSH1 0x4 DUP1 CALLDATASIZE SUB DUP2 ADD SWAP1 PUSH2 0x257 SWAP2 SWAP1 PUSH2 0x1177 JUMP JUMPDEST PUSH2 0x915 JUMP JUMPDEST STOP JUMPDEST CALLVALUE DUP1 ISZERO PUSH2 0x269 JUMPI PUSH0 PUSH0 REVERT JUMPDEST POP PUSH2 0x284 PUSH1 0x4 DUP1 CALLDATASIZE SUB DUP2 ADD SWAP1 PUSH2 0x27F SWAP2 SWAP1 PUSH2 0x11E8 JUMP JUMPDEST PUSH2 0xAC8 JUMP JUMPDEST PUSH1 0x40 MLOAD PUSH2 0x291 SWAP2 SWAP1 PUSH2 0xF0E JUMP JUMPDEST PUSH1 0x40 MLOAD DUP1 SWAP2 SUB SWAP1 RETURN JUMPDEST PUSH2 0x2B4 PUSH1 0x4 DUP1 CALLDATASIZE SUB DUP2 ADD SWAP1 PUSH2 0x2AF SWAP2 SWAP1 PUSH2 0xF27 JUMP JUMPDEST PUSH2 0xAE8 JUMP JUMPDEST STOP JUMPDEST CALLVALUE DUP1 ISZERO PUSH2 0x2C1 JUMPI PUSH0 PUSH0 REVERT JUMPDEST POP PUSH2 0x2DC PUSH1 0x4 DUP1 CALLDATASIZE SUB DUP2 ADD SWAP1 PUSH2 0x2D7 SWAP2 SWAP1 PUSH2 0x1226 JUMP JUMPDEST PUSH2 0xBA3 JUMP JUMPDEST STOP JUMPDEST CALLVALUE DUP1 ISZERO PUSH2 0x2E9 JUMPI PUSH0 PUSH0 REVERT JUMPDEST POP PUSH2 0x304 PUSH1 0x4 DUP1 CALLDATASIZE SUB DUP2 ADD SWAP1 PUSH2 0x2FF SWAP2 SWAP1 PUSH2 0xF27 JUMP JUMPDEST PUSH2 0xCBC JUMP JUMPDEST PUSH1 0x40 MLOAD PUSH2 0x311 SWAP2 SWAP1 PUSH2 0xF0E JUMP JUMPDEST PUSH1 0x40 MLOAD DUP1 SWAP2 SUB SWAP1 RETURN JUMPDEST PUSH0 PUSH0 SWAP1 SLOAD SWAP1 PUSH2 0x100 EXP SWAP1 DIV PUSH20 0xFFFFFFFFFFFFFFFFFFFFFFFFFFFFFFFFFFFFFFFF AND PUSH20 0xFFFFFFFFFFFFFFFFFFFFFFFFFFFFFFFFFFFFFFFF AND CALLER PUSH20 0xFFFFFFFFFFFFFFFFFFFFFFFFFFFFFFFFFFFFFFFF AND EQ DUP1 PUSH2 0x3BA JUMPI POP PUSH1 0x1 PUSH0 CALLER PUSH20 0xFFFFFFFFFFFFFFFFFFFFFFFFFFFFFFFFFFFFFFFF AND PUSH20 0xFFFFFFFFFFFFFFFFFFFFFFFFFFFFFFFFFFFFFFFF AND DUP2 MSTORE PUSH1 0x20 ADD SWAP1 DUP2 MSTORE PUSH1 0x20 ADD PUSH0 KECCAK256 PUSH0 SWAP1 SLOAD SWAP1 PUSH2 0x100 EXP SWAP1 DIV PUSH1 0xFF AND JUMPDEST PUSH2 0x3F9 JUMPI PUSH1 0x40 MLOAD PUSH32 0x8C379A000000000000000000000000000000000000000000000000000000000 DUP2 MSTORE PUSH1 0x4 ADD PUSH2 0x3F0 SWAP1 PUSH2 0x12BE JUMP JUMPDEST PUSH1 0x40 MLOAD DUP1 SWAP2 SUB SWAP1 REVERT JUMPDEST PUSH1 0x6 PUSH1 0xFF AND DUP4 PUSH1 0xFF AND LT PUSH2 0x442 JUMPI PUSH1 0x40 MLOAD PUSH32 0x8C379A000000000000000000000000000000000000000000000000000000000 DUP2 MSTORE PUSH1 0x4 ADD PUSH2 0x439 SWAP1 PUSH2 0x1326 JUMP JUMPDEST PUSH1 0x40 MLOAD DUP1 SWAP2 SUB SWAP1 REVERT JUMPDEST PUSH0 PUSH1 0x4 PUSH0 DUP7 DUP2 MSTORE PUSH1 0x20 ADD SWAP1 DUP2 MSTORE PUSH1 0x20 ADD PUSH0 KECCAK256 PUSH0 DUP6 PUSH1 0xFF AND PUSH1 0xFF AND DUP2 MSTORE PUSH1 0x20 ADD SWAP1 DUP2 MSTORE PUSH1 0x20 ADD PUSH0 KECCAK256 SLOAD GT PUSH2 0x4AA JUMPI PUSH1 0x40 MLOAD PUSH32 0x8C379A000000000000000000000000000000000000000000000000000000000 DUP2 MSTORE PUSH1 0x4 ADD PUSH2 0x4A1 SWAP1 PUSH2 0x138E JUMP JUMPDEST PUSH1 0x40 MLOAD DUP1 SWAP2 SUB SWAP1 REVERT JUMPDEST PUSH1 0x1 PUSH1 0x4 PUSH0 DUP7 DUP2 MSTORE PUSH1 0x20 ADD SWAP1 DUP2 MSTORE PUSH1 0x20 ADD PUSH0 KECCAK256 PUSH0 DUP6 PUSH1 0xFF AND PUSH1 0xFF AND DUP2 MSTORE PUSH1 0x20 ADD SWAP1 DUP2 MSTORE PUSH1 0x20 ADD PUSH0 KECCAK256 PUSH0 DUP3 DUP3 SLOAD PUSH2 0x4E0 SWAP2 SWAP1 PUSH2 0x13D9 JUMP JUMPDEST SWAP3 POP POP DUP2 SWAP1 SSTORE POP DUP4 PUSH32 0x9F192884DCF38A54909AB68532ADE405C820D94514784BE00C0FFB916F7CE9E4 DUP5 DUP5 DUP5 PUSH1 0x40 MLOAD PUSH2 0x51B SWAP4 SWAP3 SWAP2 SWAP1 PUSH2 0x1456 JUMP JUMPDEST PUSH1 0x40 MLOAD DUP1 SWAP2 SUB SWAP1 LOG2 POP POP POP POP JUMP JUMPDEST PUSH7 0x2386F26FC10000 DUP2 JUMP JUMPDEST PUSH1 0x2 PUSH1 0x20 MSTORE DUP1 PUSH0 MSTORE PUSH1 0x40 PUSH0 KECCAK256 PUSH0 SWAP2 POP SWAP1 POP SLOAD DUP2 JUMP JUMPDEST PUSH0 PUSH0 SWAP1 SLOAD SWAP1 PUSH2 0x100 EXP SWAP1 DIV PUSH20 0xFFFFFFFFFFFFFFFFFFFFFFFFFFFFFFFFFFFFFFFF AND DUP2 JUMP JUMPDEST PUSH1 0x6 DUP2 JUMP JUMPDEST PUSH0 PUSH0 SWAP1 SLOAD SWAP1 PUSH2 0x100 EXP SWAP1 DIV PUSH20 0xFFFFFFFFFFFFFFFFFFFFFFFFFFFFFFFFFFFFFFFF AND PUSH20 0xFFFFFFFFFFFFFFFFFFFFFFFFFFFFFFFFFFFFFFFF AND CALLER PUSH20 0xFFFFFFFFFFFFFFFFFFFFFFFFFFFFFFFFFFFFFFFF AND EQ DUP1 PUSH2 0x612 JUMPI POP PUSH1 0x1 PUSH0 CALLER PUSH20 0xFFFFFFFFFFFFFFFFFFFFFFFFFFFFFFFFFFFFFFFF AND PUSH20 0xFFFFFFFFFFFFFFFFFFFFFFFFFFFFFFFFFFFFFFFF AND DUP2 MSTORE PUSH1 0x20 ADD SWAP1 DUP2 MSTORE PUSH1 0x20 ADD PUSH0 KECCAK256 PUSH0 SWAP1 SLOAD SWAP1 PUSH2 0x100 EXP SWAP1 DIV PUSH1 0xFF AND JUMPDEST PUSH2 0x651 JUMPI PUSH1 0x40 MLOAD PUSH32 0x8C379A000000000000000000000000000000000000000000000000000000000 DUP2 MSTORE PUSH1 0x4 ADD PUSH2 0x648 SWAP1 PUSH2 0x12BE JUMP JUMPDEST PUSH1 0x40 MLOAD DUP1 SWAP2 SUB SWAP1 REVERT JUMPDEST DUP1 PUSH1 0x2 PUSH0 DUP6 DUP2 MSTORE PUSH1 0x20 ADD SWAP1 DUP2 MSTORE PUSH1 0x20 ADD PUSH0 KECCAK256 SLOAD LT ISZERO PUSH2 0x6A5 JUMPI PUSH1 0x40 MLOAD PUSH32 0x8C379A000000000000000000000000000000000000000000000000000000000 DUP2 MSTORE PUSH1 0x4 ADD PUSH2 0x69C SWAP1 PUSH2 0x14D0 JUMP JUMPDEST PUSH1 0x40 MLOAD DUP1 SWAP2 SUB SWAP1 REVERT JUMPDEST DUP1 PUSH1 0x2 PUSH0 DUP6 DUP2 MSTORE PUSH1 0x20 ADD SWAP1 DUP2 MSTORE PUSH1 0x20 ADD PUSH0 KECCAK256 PUSH0 DUP3 DUP3 SLOAD PUSH2 0x6C5 SWAP2 SWAP1 PUSH2 0x13D9 JUMP JUMPDEST SWAP3 POP POP DUP2 SWAP1 SSTORE POP DUP2 PUSH20 0xFFFFFFFFFFFFFFFFFFFFFFFFFFFFFFFFFFFFFFFF AND PUSH2 0x8FC DUP3 SWAP1 DUP2 ISZERO MUL SWAP1 PUSH1 0x40 MLOAD PUSH0 PUSH1 0x40 MLOAD DUP1 DUP4 SUB DUP2 DUP6 DUP9 DUP9 CALL SWAP4 POP POP POP POP ISZERO DUP1 ISZERO PUSH2 0x70F JUMPI RETURNDATASIZE PUSH0 PUSH0 RETURNDATACOPY RETURNDATASIZE PUSH0 REVERT JUMPDEST POP PUSH0 PUSH7 0x2386F26FC10000 DUP3 PUSH2 0x724 SWAP2 SWAP1 PUSH2 0x151B JUMP JUMPDEST SWAP1 POP DUP1 PUSH1 0x3 PUSH0 DUP7 DUP2 MSTORE PUSH1 0x20 ADD SWAP1 DUP2 MSTORE PUSH1 0x20 ADD PUSH0 KECCAK256 PUSH0 DUP3 DUP3 SLOAD PUSH2 0x746 SWAP2 SWAP1 PUSH2 0x154B JUMP JUMPDEST SWAP3 POP POP DUP2 SWAP1 SSTORE POP PUSH2 0x756 DUP5 PUSH2 0xCD1 JUMP JUMPDEST CALLER PUSH20 0xFFFFFFFFFFFFFFFFFFFFFFFFFFFFFFFFFFFFFFFF AND DUP4 PUSH20 0xFFFFFFFFFFFFFFFFFFFFFFFFFFFFFFFFFFFFFFFF AND DUP6 PUSH32 0xD724520EAF1DA0647D0379840A2906A85618BEC195A8B9819560C860EDAEBAF6 DUP6 DUP6 PUSH1 0x40 MLOAD PUSH2 0x7B6 SWAP3 SWAP2 SWAP1 PUSH2 0x157E JUMP JUMPDEST PUSH1 0x40 MLOAD DUP1 SWAP2 SUB SWAP1 LOG4 POP POP POP POP JUMP JUMPDEST PUSH0 PUSH0 SWAP1 SLOAD SWAP1 PUSH2 0x100 EXP SWAP1 DIV PUSH20 0xFFFFFFFFFFFFFFFFFFFFFFFFFFFFFFFFFFFFFFFF AND PUSH20 0xFFFFFFFFFFFFFFFFFFFFFFFFFFFFFFFFFFFFFFFF AND CALLER PUSH20 0xFFFFFFFFFFFFFFFFFFFFFFFFFFFFFFFFFFFFFFFF AND EQ PUSH2 0x852 JUMPI PUSH1 0x40 MLOAD PUSH32 0x8C379A000000000000000000000000000000000000000000000000000000000 DUP2 MSTORE PUSH1 0x4 ADD PUSH2 0x849 SWAP1 PUSH2 0x15EF JUMP JUMPDEST PUSH1 0x40 MLOAD DUP1 SWAP2 SUB SWAP1 REVERT JUMPDEST DUP1 PUSH1 0x1 PUSH0 DUP5 PUSH20 0xFFFFFFFFFFFFFFFFFFFFFFFFFFFFFFFFFFFFFFFF AND PUSH20 0xFFFFFFFFFFFFFFFFFFFFFFFFFFFFFFFFFFFFFFFF AND DUP2 MSTORE PUSH1 0x20 ADD SWAP1 DUP2 MSTORE PUSH1 0x20 ADD PUSH0 KECCAK256 PUSH0 PUSH2 0x100 EXP DUP2 SLOAD DUP2 PUSH1 0xFF MUL NOT AND SWAP1 DUP4 ISZERO ISZERO MUL OR SWAP1 SSTORE POP DUP2 PUSH20 0xFFFFFFFFFFFFFFFFFFFFFFFFFFFFFFFFFFFFFFFF AND PUSH32 0x5D58890431B5B6F025224938973F8CFFE939E87ED7DD18AA2BAEA83E7D877717 DUP3 PUSH1 0x40 MLOAD PUSH2 0x8EC SWAP2 SWAP1 PUSH2 0x115E JUMP JUMPDEST PUSH1 0x40 MLOAD DUP1 SWAP2 SUB SWAP1 LOG2 POP POP JUMP JUMPDEST PUSH1 0x1 PUSH1 0x20 MSTORE DUP1 PUSH0 MSTORE PUSH1 0x40 PUSH0 KECCAK256 PUSH0 SWAP2 POP SLOAD SWAP1 PUSH2 0x100 EXP SWAP1 DIV PUSH1 0xFF AND DUP2 JUMP JUMPDEST PUSH0 PUSH0 SWAP1 SLOAD SWAP1 PUSH2 0x100 EXP SWAP1 DIV PUSH20 0xFFFFFFFFFFFFFFFFFFFFFFFFFFFFFFFFFFFFFFFF AND PUSH20 0xFFFFFFFFFFFFFFFFFFFFFFFFFFFFFFFFFFFFFFFF AND CALLER PUSH20 0xFFFFFFFFFFFFFFFFFFFFFFFFFFFFFFFFFFFFFFFF AND EQ DUP1 PUSH2 0x9B5 JUMPI POP PUSH1 0x1 PUSH0 CALLER PUSH20 0xFFFFFFFFFFFFFFFFFFFFFFFFFFFFFFFFFFFFFFFF AND PUSH20 0xFFFFFFFFFFFFFFFFFFFFFFFFFFFFFFFFFFFFFFFF AND DUP2 MSTORE PUSH1 0x20 ADD SWAP1 DUP2 MSTORE PUSH1 0x20 ADD PUSH0 KECCAK256 PUSH0 SWAP1 SLOAD SWAP1 PUSH2 0x100 EXP SWAP1 DIV PUSH1 0xFF AND JUMPDEST PUSH2 0x9F4 JUMPI PUSH1 0x40 MLOAD PUSH32 0x8C379A000000000000000000000000000000000000000000000000000000000 DUP2 MSTORE PUSH1 0x4 ADD PUSH2 0x9EB SWAP1 PUSH2 0x12BE JUMP JUMPDEST PUSH1 0x40 MLOAD DUP1 SWAP2 SUB SWAP1 REVERT JUMPDEST DUP3 PUSH1 0x3 PUSH0 DUP7 DUP2 MSTORE PUSH1 0x20 ADD SWAP1 DUP2 MSTORE PUSH1 0x20 ADD PUSH0 KECCAK256 SLOAD LT ISZERO PUSH2 0xA48 JUMPI PUSH1 0x40 MLOAD PUSH32 0x8C379A000000000000000000000000000000000000000000000000000000000 DUP2 MSTORE PUSH1 0x4 ADD PUSH2 0xA3F SWAP1 PUSH2 0x1657 JUMP JUMPDEST PUSH1 0x40 MLOAD DUP1 SWAP2 SUB SWAP1 REVERT JUMPDEST DUP3 PUSH1 0x3 PUSH0 DUP7 DUP2 MSTORE PUSH1 0x20 ADD SWAP1 DUP2 MSTORE PUSH1 0x20 ADD PUSH0 KECCAK256 PUSH0 DUP3 DUP3 SLOAD PUSH2 0xA68 SWAP2 SWAP1 PUSH2 0x13D9 JUMP JUMPDEST SWAP3 POP POP DUP2 SWAP1 SSTORE POP CALLER PUSH20 0xFFFFFFFFFFFFFFFFFFFFFFFFFFFFFFFFFFFFFFFF AND DUP5 PUSH32 0x928CECF66535B70A3CA38B5CB1DC1B95D6D640BC06679EF452C30D850C05217F DUP6 DUP6 DUP6 PUSH1 0x40 MLOAD PUSH2 0xABA SWAP4 SWAP3 SWAP2 SWAP1 PUSH2 0x1675 JUMP JUMPDEST PUSH1 0x40 MLOAD DUP1 SWAP2 SUB SWAP1 LOG3 POP POP POP POP JUMP JUMPDEST PUSH1 0x4 PUSH1 0x20 MSTORE DUP2 PUSH0 MSTORE PUSH1 0x40 PUSH0 KECCAK256 PUSH1 0x20 MSTORE DUP1 PUSH0 MSTORE PUSH1 0x40 PUSH0 KECCAK256 PUSH0 SWAP2 POP SWAP2 POP POP SLOAD DUP2 JUMP JUMPDEST PUSH0 CALLVALUE GT PUSH2 0xB2A JUMPI PUSH1 0x40 MLOAD PUSH32 0x8C379A000000000000000000000000000000000000000000000000000000000 DUP2 MSTORE PUSH1 0x4 ADD PUSH2 0xB21 SWAP1 PUSH2 0x16EF JUMP JUMPDEST PUSH1 0x40 MLOAD DUP1 SWAP2 SUB SWAP1 REVERT JUMPDEST CALLVALUE PUSH1 0x2 PUSH0 DUP4 DUP2 MSTORE PUSH1 0x20 ADD SWAP1 DUP2 MSTORE PUSH1 0x20 ADD PUSH0 KECCAK256 PUSH0 DUP3 DUP3 SLOAD PUSH2 0xB4A SWAP2 SWAP1 PUSH2 0x154B JUMP JUMPDEST SWAP3 POP POP DUP2 SWAP1 SSTORE POP CALLER PUSH20 0xFFFFFFFFFFFFFFFFFFFFFFFFFFFFFFFFFFFFFFFF AND DUP2 PUSH32 0xDE196B7C62B5E02636A152ED0EB5B7A4A722F7282FE0B7505E255BB45D8E4422 CALLVALUE PUSH1 0x40 MLOAD PUSH2 0xB98 SWAP2 SWAP1 PUSH2 0xF0E JUMP JUMPDEST PUSH1 0x40 MLOAD DUP1 SWAP2 SUB SWAP1 LOG3 POP JUMP JUMPDEST PUSH0 PUSH0 SWAP1 SLOAD SWAP1 PUSH2 0x100 EXP SWAP1 DIV PUSH20 0xFFFFFFFFFFFFFFFFFFFFFFFFFFFFFFFFFFFFFFFF AND PUSH20 0xFFFFFFFFFFFFFFFFFFFFFFFFFFFFFFFFFFFFFFFF AND CALLER PUSH20 0xFFFFFFFFFFFFFFFFFFFFFFFFFFFFFFFFFFFFFFFF AND EQ PUSH2 0xC31 JUMPI PUSH1 0x40 MLOAD PUSH32 0x8C379A000000000000000000000000000000000000000000000000000000000 DUP2 MSTORE PUSH1 0x4 ADD PUSH2 0xC28 SWAP1 PUSH2 0x15EF JUMP JUMPDEST PUSH1 0x40 MLOAD DUP1 SWAP2 SUB SWAP1 REVERT JUMPDEST DUP1 SELFBALANCE LT ISZERO PUSH2 0xC74 JUMPI PUSH1 0x40 MLOAD PUSH32 0x8C379A000000000000000000000000000000000000000000000000000000000 DUP2 MSTORE PUSH1 0x4 ADD PUSH2 0xC6B SWAP1 PUSH2 0x1757 JUMP JUMPDEST PUSH1 0x40 MLOAD DUP1 SWAP2 SUB SWAP1 REVERT JUMPDEST DUP2 PUSH20 0xFFFFFFFFFFFFFFFFFFFFFFFFFFFFFFFFFFFFFFFF AND PUSH2 0x8FC DUP3 SWAP1 DUP2 ISZERO MUL SWAP1 PUSH1 0x40 MLOAD PUSH0 PUSH1 0x40 MLOAD DUP1 DUP4 SUB DUP2 DUP6 DUP9 DUP9 CALL SWAP4 POP POP POP POP ISZERO DUP1 ISZERO PUSH2 0xCB7 JUMPI RETURNDATASIZE PUSH0 PUSH0 RETURNDATACOPY RETURNDATASIZE PUSH0 REVERT JUMPDEST POP POP POP JUMP JUMPDEST PUSH1 0x3 PUSH1 0x20 MSTORE DUP1 PUSH0 MSTORE PUSH1 0x40 PUSH0 KECCAK256 PUSH0 SWAP2 POP SWAP1 POP SLOAD DUP2 JUMP JUMPDEST PUSH0 PUSH1 0x6 PUSH1 0xFF AND TIMESTAMP CALLER DUP5 PREVRANDAO PUSH1 0x40 MLOAD PUSH1 0x20 ADD PUSH2 0xCEE SWAP5 SWAP4 SWAP3 SWAP2 SWAP1 PUSH2 0x17FA JUMP JUMPDEST PUSH1 0x40 MLOAD PUSH1 0x20 DUP2 DUP4 SUB SUB DUP2 MSTORE SWAP1 PUSH1 0x40 MSTORE DUP1 MLOAD SWAP1 PUSH1 0x20 ADD KECCAK256 PUSH0 SHR PUSH2 0xD10 SWAP2 SWAP1 PUSH2 0x1847 JUMP JUMPDEST SWAP1 POP PUSH1 0x1 PUSH1 0x4 PUSH0 DUP5 DUP2 MSTORE PUSH1 0x20 ADD SWAP1 DUP2 MSTORE PUSH1 0x20 ADD PUSH0 KECCAK256 PUSH0 DUP4 PUSH1 0xFF AND PUSH1 0xFF AND DUP2 MSTORE PUSH1 0x20 ADD SWAP1 DUP2 MSTORE PUSH1 0x20 ADD PUSH0 KECCAK256 PUSH0 DUP3 DUP3 SLOAD PUSH2 0xD48 SWAP2 SWAP1 PUSH2 0x154B JUMP JUMPDEST SWAP3 POP POP DUP2 SWAP1 SSTORE POP DUP2 PUSH32 0xA44A93B9BA75063A4FB65210E607817435B0F8419DB1EA1BD9628483FA4F07A9 DUP3 PUSH1 0x4 PUSH0 DUP7 DUP2 MSTORE PUSH1 0x20 ADD SWAP1 DUP2 MSTORE PUSH1 0x20 ADD PUSH0 KECCAK256 PUSH0 DUP6 PUSH1 0xFF AND PUSH1 0xFF AND DUP2 MSTORE PUSH1 0x20 ADD SWAP1 DUP2 MSTORE PUSH1 0x20 ADD PUSH0 KECCAK256 SLOAD PUSH1 0x40 MLOAD PUSH2 0xDA7 SWAP3 SWAP2 SWAP1 PUSH2 0x1877 JUMP JUMPDEST PUSH1 0x40 MLOAD DUP1 SWAP2 SUB SWAP1 LOG2 POP POP JUMP JUMPDEST PUSH0 PUSH0 REVERT JUMPDEST PUSH0 PUSH0 REVERT JUMPDEST PUSH0 DUP2 SWAP1 POP SWAP2 SWAP1 POP JUMP JUMPDEST PUSH2 0xDCD DUP2 PUSH2 0xDBB JUMP JUMPDEST DUP2 EQ PUSH2 0xDD7 JUMPI PUSH0 PUSH0 REVERT JUMPDEST POP JUMP JUMPDEST PUSH0 DUP2 CALLDATALOAD SWAP1 POP PUSH2 0xDE8 DUP2 PUSH2 0xDC4 JUMP JUMPDEST SWAP3 SWAP2 POP POP JUMP JUMPDEST PUSH0 PUSH1 0xFF DUP3 AND SWAP1 POP SWAP2 SWAP1 POP JUMP JUMPDEST PUSH2 0xE03 DUP2 PUSH2 0xDEE JUMP JUMPDEST DUP2 EQ PUSH2 0xE0D JUMPI PUSH0 PUSH0 REVERT JUMPDEST POP JUMP JUMPDEST PUSH0 DUP2 CALLDATALOAD SWAP1 POP PUSH2 0xE1E DUP2 PUSH2 0xDFA JUMP JUMPDEST SWAP3 SWAP2 POP POP JUMP JUMPDEST PUSH0 PUSH0 REVERT JUMPDEST PUSH0 PUSH0 REVERT JUMPDEST PUSH0 PUSH0 REVERT JUMPDEST PUSH0 PUSH0 DUP4 PUSH1 0x1F DUP5 ADD SLT PUSH2 0xE45 JUMPI PUSH2 0xE44 PUSH2 0xE24 JUMP JUMPDEST JUMPDEST DUP3 CALLDATALOAD SWAP1 POP PUSH8 0xFFFFFFFFFFFFFFFF DUP2 GT ISZERO PUSH2 0xE62 JUMPI PUSH2 0xE61 PUSH2 0xE28 JUMP JUMPDEST JUMPDEST PUSH1 0x20 DUP4 ADD SWAP2 POP DUP4 PUSH1 0x1 DUP3 MUL DUP4 ADD GT ISZERO PUSH2 0xE7E JUMPI PUSH2 0xE7D PUSH2 0xE2C JUMP JUMPDEST JUMPDEST SWAP3 POP SWAP3 SWAP1 POP JUMP JUMPDEST PUSH0 PUSH0 PUSH0 PUSH0 PUSH1 0x60 DUP6 DUP8 SUB SLT ISZERO PUSH2 0xE9D JUMPI PUSH2 0xE9C PUSH2 0xDB3 JUMP JUMPDEST JUMPDEST PUSH0 PUSH2 0xEAA DUP8 DUP3 DUP9 ADD PUSH2 0xDDA JUMP JUMPDEST SWAP5 POP POP PUSH1 0x20 PUSH2 0xEBB DUP8 DUP3 DUP9 ADD PUSH2 0xE10 JUMP JUMPDEST SWAP4 POP POP PUSH1 0x40 DUP6 ADD CALLDATALOAD PUSH8 0xFFFFFFFFFFFFFFFF DUP2 GT ISZERO PUSH2 0xEDC JUMPI PUSH2 0xEDB PUSH2 0xDB7 JUMP JUMPDEST JUMPDEST PUSH2 0xEE8 DUP8 DUP3 DUP9 ADD PUSH2 0xE30 JUMP JUMPDEST SWAP3 POP SWAP3 POP POP SWAP3 SWAP6 SWAP2 SWAP5 POP SWAP3 POP JUMP JUMPDEST PUSH0 DUP2 SWAP1 POP SWAP2 SWAP1 POP JUMP JUMPDEST PUSH2 0xF08 DUP2 PUSH2 0xEF6 JUMP JUMPDEST DUP3 MSTORE POP POP JUMP JUMPDEST PUSH0 PUSH1 0x20 DUP3 ADD SWAP1 POP PUSH2 0xF21 PUSH0 DUP4 ADD DUP5 PUSH2 0xEFF JUMP JUMPDEST SWAP3 SWAP2 POP POP JUMP JUMPDEST PUSH0 PUSH1 0x20 DUP3 DUP5 SUB SLT ISZERO PUSH2 0xF3C JUMPI PUSH2 0xF3B PUSH2 0xDB3 JUMP JUMPDEST JUMPDEST PUSH0 PUSH2 0xF49 DUP5 DUP3 DUP6 ADD PUSH2 0xDDA JUMP JUMPDEST SWAP2 POP POP SWAP3 SWAP2 POP POP JUMP JUMPDEST PUSH0 PUSH20 0xFFFFFFFFFFFFFFFFFFFFFFFFFFFFFFFFFFFFFFFF DUP3 AND SWAP1 POP SWAP2 SWAP1 POP JUMP JUMPDEST PUSH0 PUSH2 0xF7B DUP3 PUSH2 0xF52 JUMP JUMPDEST SWAP1 POP SWAP2 SWAP1 POP JUMP JUMPDEST PUSH2 0xF8B DUP2 PUSH2 0xF71 JUMP JUMPDEST DUP3 MSTORE POP POP JUMP JUMPDEST PUSH0 PUSH1 0x20 DUP3 ADD SWAP1 POP PUSH2 0xFA4 PUSH0 DUP4 ADD DUP5 PUSH2 0xF82 JUMP JUMPDEST SWAP3 SWAP2 POP POP JUMP JUMPDEST PUSH2 0xFB3 DUP2 PUSH2 0xDEE JUMP JUMPDEST DUP3 MSTORE POP POP JUMP JUMPDEST PUSH0 PUSH1 0x20 DUP3 ADD SWAP1 POP PUSH2 0xFCC PUSH0 DUP4 ADD DUP5 PUSH2 0xFAA JUMP JUMPDEST SWAP3 SWAP2 POP POP JUMP JUMPDEST PUSH0 PUSH2 0xFDC DUP3 PUSH2 0xF52 JUMP JUMPDEST SWAP1 POP SWAP2 SWAP1 POP JUMP JUMPDEST PUSH2 0xFEC DUP2 PUSH2 0xFD2 JUMP JUMPDEST DUP2 EQ PUSH2 0xFF6 JUMPI PUSH0 PUSH0 REVERT JUMPDEST POP JUMP JUMPDEST PUSH0 DUP2 CALLDATALOAD SWAP1 POP PUSH2 0x1007 DUP2 PUSH2 0xFE3 JUMP JUMPDEST SWAP3 SWAP2 POP POP JUMP JUMPDEST PUSH2 0x1016 DUP2 PUSH2 0xEF6 JUMP JUMPDEST DUP2 EQ PUSH2 0x1020 JUMPI PUSH0 PUSH0 REVERT JUMPDEST POP JUMP JUMPDEST PUSH0 DUP2 CALLDATALOAD SWAP1 POP PUSH2 0x1031 DUP2 PUSH2 0x100D JUMP JUMPDEST SWAP3 SWAP2 POP POP JUMP JUMPDEST PUSH0 PUSH0 PUSH0 PUSH1 0x60 DUP5 DUP7 SUB SLT ISZERO PUSH2 0x104E JUMPI PUSH2 0x104D PUSH2 0xDB3 JUMP JUMPDEST JUMPDEST PUSH0 PUSH2 0x105B DUP7 DUP3 DUP8 ADD PUSH2 0xDDA JUMP JUMPDEST SWAP4 POP POP PUSH1 0x20 PUSH2 0x106C DUP7 DUP3 DUP8 ADD PUSH2 0xFF9 JUMP JUMPDEST SWAP3 POP POP PUSH1 0x40 PUSH2 0x107D DUP7 DUP3 DUP8 ADD PUSH2 0x1023 JUMP JUMPDEST SWAP2 POP POP SWAP3 POP SWAP3 POP SWAP3 JUMP JUMPDEST PUSH2 0x1090 DUP2 PUSH2 0xF71 JUMP JUMPDEST DUP2 EQ PUSH2 0x109A JUMPI PUSH0 PUSH0 REVERT JUMPDEST POP JUMP JUMPDEST PUSH0 DUP2 CALLDATALOAD SWAP1 POP PUSH2 0x10AB DUP2 PUSH2 0x1087 JUMP JUMPDEST SWAP3 SWAP2 POP POP JUMP JUMPDEST PUSH0 DUP2 ISZERO ISZERO SWAP1 POP SWAP2 SWAP1 POP JUMP JUMPDEST PUSH2 0x10C5 DUP2 PUSH2 0x10B1 JUMP JUMPDEST DUP2 EQ PUSH2 0x10CF JUMPI PUSH0 PUSH0 REVERT JUMPDEST POP JUMP JUMPDEST PUSH0 DUP2 CALLDATALOAD SWAP1 POP PUSH2 0x10E0 DUP2 PUSH2 0x10BC JUMP JUMPDEST SWAP3 SWAP2 POP POP JUMP JUMPDEST PUSH0 PUSH0 PUSH1 0x40 DUP4 DUP6 SUB SLT ISZERO PUSH2 0x10FC JUMPI PUSH2 0x10FB PUSH2 0xDB3 JUMP JUMPDEST JUMPDEST PUSH0 PUSH2 0x1109 DUP6 DUP3 DUP7 ADD PUSH2 0x109D JUMP JUMPDEST SWAP3 POP POP PUSH1 0x20 PUSH2 0x111A DUP6 DUP3 DUP7 ADD PUSH2 0x10D2 JUMP JUMPDEST SWAP2 POP POP SWAP3 POP SWAP3 SWAP1 POP JUMP JUMPDEST PUSH0 PUSH1 0x20 DUP3 DUP5 SUB SLT ISZERO PUSH2 0x1139 JUMPI PUSH2 0x1138 PUSH2 0xDB3 JUMP JUMPDEST JUMPDEST PUSH0 PUSH2 0x1146 DUP5 DUP3 DUP6 ADD PUSH2 0x109D JUMP JUMPDEST SWAP2 POP POP SWAP3 SWAP2 POP POP JUMP JUMPDEST PUSH2 0x1158 DUP2 PUSH2 0x10B1 JUMP JUMPDEST DUP3 MSTORE POP POP JUMP JUMPDEST PUSH0 PUSH1 0x20 DUP3 ADD SWAP1 POP PUSH2 0x1171 PUSH0 DUP4 ADD DUP5 PUSH2 0x114F JUMP JUMPDEST SWAP3 SWAP2 POP POP JUMP JUMPDEST PUSH0 PUSH0 PUSH0 PUSH0 PUSH1 0x60 DUP6 DUP8 SUB SLT ISZERO PUSH2 0x118F JUMPI PUSH2 0x118E PUSH2 0xDB3 JUMP JUMPDEST JUMPDEST PUSH0 PUSH2 0x119C DUP8 DUP3 DUP9 ADD PUSH2 0xDDA JUMP JUMPDEST SWAP5 POP POP PUSH1 0x20 PUSH2 0x11AD DUP8 DUP3 DUP9 ADD PUSH2 0x1023 JUMP JUMPDEST SWAP4 POP POP PUSH1 0x40 DUP6 ADD CALLDATALOAD PUSH8 0xFFFFFFFFFFFFFFFF DUP2 GT ISZERO PUSH2 0x11CE JUMPI PUSH2 0x11CD PUSH2 0xDB7 JUMP JUMPDEST JUMPDEST PUSH2 0x11DA DUP8 DUP3 DUP9 ADD PUSH2 0xE30 JUMP JUMPDEST SWAP3 POP SWAP3 POP POP SWAP3 SWAP6 SWAP2 SWAP5 POP SWAP3 POP JUMP JUMPDEST PUSH0 PUSH0 PUSH1 0x40 DUP4 DUP6 SUB SLT ISZERO PUSH2 0x11FE JUMPI PUSH2 0x11FD PUSH2 0xDB3 JUMP JUMPDEST JUMPDEST PUSH0 PUSH2 0x120B DUP6 DUP3 DUP7 ADD PUSH2 0xDDA JUMP JUMPDEST SWAP3 POP POP PUSH1 0x20 PUSH2 0x121C DUP6 DUP3 DUP7 ADD PUSH2 0xE10 JUMP JUMPDEST SWAP2 POP POP SWAP3 POP SWAP3 SWAP1 POP JUMP JUMPDEST PUSH0 PUSH0 PUSH1 0x40 DUP4 DUP6 SUB SLT ISZERO PUSH2 0x123C JUMPI PUSH2 0x123B PUSH2 0xDB3 JUMP JUMPDEST JUMPDEST PUSH0 PUSH2 0x1249 DUP6 DUP3 DUP7 ADD PUSH2 0xFF9 JUMP JUMPDEST SWAP3 POP POP PUSH1 0x20 PUSH2 0x125A DUP6 DUP3 DUP7 ADD PUSH2 0x1023 JUMP JUMPDEST SWAP2 POP POP SWAP3 POP SWAP3 SWAP1 POP JUMP JUMPDEST PUSH0 DUP3 DUP3 MSTORE PUSH1 0x20 DUP3 ADD SWAP1 POP SWAP3 SWAP2 POP POP JUMP JUMPDEST PUSH32 0x4E6F7420617574686F72697A6564000000000000000000000000000000000000 PUSH0 DUP3 ADD MSTORE POP JUMP JUMPDEST PUSH0 PUSH2 0x12A8 PUSH1 0xE DUP4 PUSH2 0x1264 JUMP JUMPDEST SWAP2 POP PUSH2 0x12B3 DUP3 PUSH2 0x1274 JUMP JUMPDEST PUSH1 0x20 DUP3 ADD SWAP1 POP SWAP2 SWAP1 POP JUMP JUMPDEST PUSH0 PUSH1 0x20 DUP3 ADD SWAP1 POP DUP2 DUP2 SUB PUSH0 DUP4 ADD MSTORE PUSH2 0x12D5 DUP2 PUSH2 0x129C JUMP JUMPDEST SWAP1 POP SWAP2 SWAP1 POP JUMP JUMPDEST PUSH32 0x496E76616C696420636F75706F6E000000000000000000000000000000000000 PUSH0 DUP3 ADD MSTORE POP JUMP JUMPDEST PUSH0 PUSH2 0x1310 PUSH1 0xE DUP4 PUSH2 0x1264 JUMP JUMPDEST SWAP2 POP PUSH2 0x131B DUP3 PUSH2 0x12DC JUMP JUMPDEST PUSH1 0x20 DUP3 ADD SWAP1 POP SWAP2 SWAP1 POP JUMP JUMPDEST PUSH0 PUSH1 0x20 DUP3 ADD SWAP1 POP DUP2 DUP2 SUB PUSH0 DUP4 ADD MSTORE PUSH2 0x133D DUP2 PUSH2 0x1304 JUMP JUMPDEST SWAP1 POP SWAP2 SWAP1 POP JUMP JUMPDEST PUSH32 0x4E6F20636F75706F6E20617661696C61626C6500000000000000000000000000 PUSH0 DUP3 ADD MSTORE POP JUMP JUMPDEST PUSH0 PUSH2 0x1378 PUSH1 0x13 DUP4 PUSH2 0x1264 JUMP JUMPDEST SWAP2 POP PUSH2 0x1383 DUP3 PUSH2 0x1344 JUMP JUMPDEST PUSH1 0x20 DUP3 ADD SWAP1 POP SWAP2 SWAP1 POP JUMP JUMPDEST PUSH0 PUSH1 0x20 DUP3 ADD SWAP1 POP DUP2 DUP2 SUB PUSH0 DUP4 ADD MSTORE PUSH2 0x13A5 DUP2 PUSH2 0x136C JUMP JUMPDEST SWAP1 POP SWAP2 SWAP1 POP JUMP JUMPDEST PUSH32 0x4E487B7100000000000000000000000000000000000000000000000000000000 PUSH0 MSTORE PUSH1 0x11 PUSH1 0x4 MSTORE PUSH1 0x24 PUSH0 REVERT JUMPDEST PUSH0 PUSH2 0x13E3 DUP3 PUSH2 0xEF6 JUMP JUMPDEST SWAP2 POP PUSH2 0x13EE DUP4 PUSH2 0xEF6 JUMP JUMPDEST SWAP3 POP DUP3 DUP3 SUB SWAP1 POP DUP2 DUP2 GT ISZERO PUSH2 0x1406 JUMPI PUSH2 0x1405 PUSH2 0x13AC JUMP JUMPDEST JUMPDEST SWAP3 SWAP2 POP POP JUMP JUMPDEST DUP3 DUP2 DUP4 CALLDATACOPY PUSH0 DUP4 DUP4 ADD MSTORE POP POP POP JUMP JUMPDEST PUSH0 PUSH1 0x1F NOT PUSH1 0x1F DUP4 ADD AND SWAP1 POP SWAP2 SWAP1 POP JUMP JUMPDEST PUSH0 PUSH2 0x1435 DUP4 DUP6 PUSH2 0x1264 JUMP JUMPDEST SWAP4 POP PUSH2 0x1442 DUP4 DUP6 DUP5 PUSH2 0x140C JUMP JUMPDEST PUSH2 0x144B DUP4 PUSH2 0x141A JUMP JUMPDEST DUP5 ADD SWAP1 POP SWAP4 SWAP3 POP POP POP JUMP JUMPDEST PUSH0 PUSH1 0x40 DUP3 ADD SWAP1 POP PUSH2 0x1469 PUSH0 DUP4 ADD DUP7 PUSH2 0xFAA JUMP JUMPDEST DUP2 DUP2 SUB PUSH1 0x20 DUP4 ADD MSTORE PUSH2 0x147C DUP2 DUP5 DUP7 PUSH2 0x142A JUMP JUMPDEST SWAP1 POP SWAP5 SWAP4 POP POP POP POP JUMP JUMPDEST PUSH32 0x496E73756666696369656E742062616C616E6365000000000000000000000000 PUSH0 DUP3 ADD MSTORE POP JUMP JUMPDEST PUSH0 PUSH2 0x14BA PUSH1 0x14 DUP4 PUSH2 0x1264 JUMP JUMPDEST SWAP2 POP PUSH2 0x14C5 DUP3 PUSH2 0x1486 JUMP JUMPDEST PUSH1 0x20 DUP3 ADD SWAP1 POP SWAP2 SWAP1 POP JUMP JUMPDEST PUSH0 PUSH1 0x20 DUP3 ADD SWAP1 POP DUP2 DUP2 SUB PUSH0 DUP4 ADD MSTORE PUSH2 0x14E7 DUP2 PUSH2 0x14AE JUMP JUMPDEST SWAP1 POP SWAP2 SWAP1 POP JUMP JUMPDEST PUSH32 0x4E487B7100000000000000000000000000000000000000000000000000000000 PUSH0 MSTORE PUSH1 0x12 PUSH1 0x4 MSTORE PUSH1 0x24 PUSH0 REVERT JUMPDEST PUSH0 PUSH2 0x1525 DUP3 PUSH2 0xEF6 JUMP JUMPDEST SWAP2 POP PUSH2 0x1530 DUP4 PUSH2 0xEF6 JUMP JUMPDEST SWAP3 POP DUP3 PUSH2 0x1540 JUMPI PUSH2 0x153F PUSH2 0x14EE JUMP JUMPDEST JUMPDEST DUP3 DUP3 DIV SWAP1 POP SWAP3 SWAP2 POP POP JUMP JUMPDEST PUSH0 PUSH2 0x1555 DUP3 PUSH2 0xEF6 JUMP JUMPDEST SWAP2 POP PUSH2 0x1560 DUP4 PUSH2 0xEF6 JUMP JUMPDEST SWAP3 POP DUP3 DUP3 ADD SWAP1 POP DUP1 DUP3 GT ISZERO PUSH2 0x1578 JUMPI PUSH2 0x1577 PUSH2 0x13AC JUMP JUMPDEST JUMPDEST SWAP3 SWAP2 POP POP JUMP JUMPDEST PUSH0 PUSH1 0x40 DUP3 ADD SWAP1 POP PUSH2 0x1591 PUSH0 DUP4 ADD DUP6 PUSH2 0xEFF JUMP JUMPDEST PUSH2 0x159E PUSH1 0x20 DUP4 ADD DUP5 PUSH2 0xEFF JUMP JUMPDEST SWAP4 SWAP3 POP POP POP JUMP JUMPDEST PUSH32 0x4E6F74206F776E65720000000000000000000000000000000000000000000000 PUSH0 DUP3 ADD MSTORE POP JUMP JUMPDEST PUSH0 PUSH2 0x15D9 PUSH1 0x9 DUP4 PUSH2 0x1264 JUMP JUMPDEST SWAP2 POP PUSH2 0x15E4 DUP3 PUSH2 0x15A5 JUMP JUMPDEST PUSH1 0x20 DUP3 ADD SWAP1 POP SWAP2 SWAP1 POP JUMP JUMPDEST PUSH0 PUSH1 0x20 DUP3 ADD SWAP1 POP DUP2 DUP2 SUB PUSH0 DUP4 ADD MSTORE PUSH2 0x1606 DUP2 PUSH2 0x15CD JUMP JUMPDEST SWAP1 POP SWAP2 SWAP1 POP JUMP JUMPDEST PUSH32 0x4E6F7420656E6F75676820706F696E7473000000000000000000000000000000 PUSH0 DUP3 ADD MSTORE POP JUMP JUMPDEST PUSH0 PUSH2 0x1641 PUSH1 0x11 DUP4 PUSH2 0x1264 JUMP JUMPDEST SWAP2 POP PUSH2 0x164C DUP3 PUSH2 0x160D JUMP JUMPDEST PUSH1 0x20 DUP3 ADD SWAP1 POP SWAP2 SWAP1 POP JUMP JUMPDEST PUSH0 PUSH1 0x20 DUP3 ADD SWAP1 POP DUP2 DUP2 SUB PUSH0 DUP4 ADD MSTORE PUSH2 0x166E DUP2 PUSH2 0x1635 JUMP JUMPDEST SWAP1 POP SWAP2 SWAP1 POP JUMP JUMPDEST PUSH0 PUSH1 0x40 DUP3 ADD SWAP1 POP PUSH2 0x1688 PUSH0 DUP4 ADD DUP7 PUSH2 0xEFF JUMP JUMPDEST DUP2 DUP2 SUB PUSH1 0x20 DUP4 ADD MSTORE PUSH2 0x169B DUP2 DUP5 DUP7 PUSH2 0x142A JUMP JUMPDEST SWAP1 POP SWAP5 SWAP4 POP POP POP POP JUMP JUMPDEST PUSH32 0x4E6F2066756E64732073656E7400000000000000000000000000000000000000 PUSH0 DUP3 ADD MSTORE POP JUMP JUMPDEST PUSH0 PUSH2 0x16D9 PUSH1 0xD DUP4 PUSH2 0x1264 JUMP JUMPDEST SWAP2 POP PUSH2 0x16E4 DUP3 PUSH2 0x16A5 JUMP JUMPDEST PUSH1 0x20 DUP3 ADD SWAP1 POP SWAP2 SWAP1 POP JUMP JUMPDEST PUSH0 PUSH1 0x20 DUP3 ADD SWAP1 POP DUP2 DUP2 SUB PUSH0 DUP4 ADD MSTORE PUSH2 0x1706 DUP2 PUSH2 0x16CD JUMP JUMPDEST SWAP1 POP SWAP2 SWAP1 POP JUMP JUMPDEST PUSH32 0x496E73756666696369656E7420636F6E74726163742062616C616E6365000000 PUSH0 DUP3 ADD MSTORE POP JUMP JUMPDEST PUSH0 PUSH2 0x1741 PUSH1 0x1D DUP4 PUSH2 0x1264 JUMP JUMPDEST SWAP2 POP PUSH2 0x174C DUP3 PUSH2 0x170D JUMP JUMPDEST PUSH1 0x20 DUP3 ADD SWAP1 POP SWAP2 SWAP1 POP JUMP JUMPDEST PUSH0 PUSH1 0x20 DUP3 ADD SWAP1 POP DUP2 DUP2 SUB PUSH0 DUP4 ADD MSTORE PUSH2 0x176E DUP2 PUSH2 0x1735 JUMP JUMPDEST SWAP1 POP SWAP2 SWAP1 POP JUMP JUMPDEST PUSH0 DUP2 SWAP1 POP SWAP2 SWAP1 POP JUMP JUMPDEST PUSH2 0x178F PUSH2 0x178A DUP3 PUSH2 0xEF6 JUMP JUMPDEST PUSH2 0x1775 JUMP JUMPDEST DUP3 MSTORE POP POP JUMP JUMPDEST PUSH0 DUP2 PUSH1 0x60 SHL SWAP1 POP SWAP2 SWAP1 POP JUMP JUMPDEST PUSH0 PUSH2 0x17AB DUP3 PUSH2 0x1795 JUMP JUMPDEST SWAP1 POP SWAP2 SWAP1 POP JUMP JUMPDEST PUSH0 PUSH2 0x17BC DUP3 PUSH2 0x17A1 JUMP JUMPDEST SWAP1 POP SWAP2 SWAP1 POP JUMP JUMPDEST PUSH2 0x17D4 PUSH2 0x17CF DUP3 PUSH2 0xF71 JUMP JUMPDEST PUSH2 0x17B2 JUMP JUMPDEST DUP3 MSTORE POP POP JUMP JUMPDEST PUSH0 DUP2 SWAP1 POP SWAP2 SWAP1 POP JUMP JUMPDEST PUSH2 0x17F4 PUSH2 0x17EF DUP3 PUSH2 0xDBB JUMP JUMPDEST PUSH2 0x17DA JUMP JUMPDEST DUP3 MSTORE POP POP JUMP JUMPDEST PUSH0 PUSH2 0x1805 DUP3 DUP8 PUSH2 0x177E JUMP JUMPDEST PUSH1 0x20 DUP3 ADD SWAP2 POP PUSH2 0x1815 DUP3 DUP7 PUSH2 0x17C3 JUMP JUMPDEST PUSH1 0x14 DUP3 ADD SWAP2 POP PUSH2 0x1825 DUP3 DUP6 PUSH2 0x17E3 JUMP JUMPDEST PUSH1 0x20 DUP3 ADD SWAP2 POP PUSH2 0x1835 DUP3 DUP5 PUSH2 0x177E JUMP JUMPDEST PUSH1 0x20 DUP3 ADD SWAP2 POP DUP2 SWAP1 POP SWAP6 SWAP5 POP POP POP POP POP JUMP JUMPDEST PUSH0 PUSH2 0x1851 DUP3 PUSH2 0xEF6 JUMP JUMPDEST SWAP2 POP PUSH2 0x185C DUP4 PUSH2 0xEF6 JUMP JUMPDEST SWAP3 POP DUP3 PUSH2 0x186C JUMPI PUSH2 0x186B PUSH2 0x14EE JUMP JUMPDEST JUMPDEST DUP3 DUP3 MOD SWAP1 POP SWAP3 SWAP2 POP POP JUMP JUMPDEST PUSH0 PUSH1 0x40 DUP3 ADD SWAP1 POP PUSH2 0x188A PUSH0 DUP4 ADD DUP6 PUSH2 0xFAA JUMP JUMPDEST PUSH2 0x1897 PUSH1 0x20 DUP4 ADD DUP5 PUSH2 0xEFF JUMP JUMPDEST SWAP4 SWAP3 POP POP POP JUMP INVALID LOG2 PUSH5 0x6970667358 0x22 SLT KECCAK256 SDIV 0xF7 DUP5 EXTCALL 0xB5 DUP13 POP 0xAB PUSH24 0xF66275FA7E411DE75158D346E3DA707858AB9D7E6BB5A564 PUSH20 0x6F6C634300081E00330000000000000000000000 "
				},
				"gasEstimates": {
					"creation": {
						"codeDepositCost": "1271200",
						"executionCost": "25584",
						"totalCost": "1296784"
					},
					"external": {
						"": "217",
						"NUM_COUPONS()": "420",
						"REWARD_RATE_DIVISOR()": "348",
						"approvedTerminals(address)": "2878",
						"balances(bytes32)": "2799",
						"couponBalances(bytes32,uint8)": "3013",
						"owner()": "2574",
						"ownerWithdraw(address,uint256)": "infinite",
						"pay(bytes32,address,uint256)": "infinite",
						"redeemCoupon(bytes32,uint8,string)": "infinite",
						"redeemRewards(bytes32,uint256,string)": "infinite",
						"rewardPoints(bytes32)": "2842",
						"setTerminal(address,bool)": "infinite",
						"topUp(bytes32)": "infinite"
					},
					"internal": {
						"_grantRandomCoupon(bytes32)": "infinite"
					}
				},
				"methodIdentifiers": {
					"NUM_COUPONS()": "91b6f3b6",
					"REWARD_RATE_DIVISOR()": "48221613",
					"approvedTerminals(address)": "ae9dc4f1",
					"balances(bytes32)": "8909aa3f",
					"couponBalances(bytes32,uint8)": "cdc39f7b",
					"owner()": "8da5cb5b",
					"ownerWithdraw(address,uint256)": "d9c88e14",
					"pay(bytes32,address,uint256)": "97d4df67",
					"redeemCoupon(bytes32,uint8,string)": "26ab5568",
					"redeemRewards(bytes32,uint256,string)": "c7b4f09a",
					"rewardPoints(bytes32)": "ffa35e7a",
					"setTerminal(address,bool)": "9d42ee83",
					"topUp(bytes32)": "cfa54f39"
				}
			},
			"storageLayout": {
				"storage": [
					{
						"astId": 4,
						"contract": "Reward.sol:CryptoPOSWithCoupons",
						"label": "owner",
						"offset": 0,
						"slot": "0",
						"type": "t_address"
					},
					{
						"astId": 8,
						"contract": "Reward.sol:CryptoPOSWithCoupons",
						"label": "approvedTerminals",
						"offset": 0,
						"slot": "1",
						"type": "t_mapping(t_address,t_bool)"
					},
					{
						"astId": 12,
						"contract": "Reward.sol:CryptoPOSWithCoupons",
						"label": "balances",
						"offset": 0,
						"slot": "2",
						"type": "t_mapping(t_bytes32,t_uint256)"
					},
					{
						"astId": 16,
						"contract": "Reward.sol:CryptoPOSWithCoupons",
						"label": "rewardPoints",
						"offset": 0,
						"slot": "3",
						"type": "t_mapping(t_bytes32,t_uint256)"
					},
					{
						"astId": 22,
						"contract": "Reward.sol:CryptoPOSWithCoupons",
						"label": "couponBalances",
						"offset": 0,
						"slot": "4",
						"type": "t_mapping(t_bytes32,t_mapping(t_uint8,t_uint256))"
					}
				],
				"types": {
					"t_address": {
						"encoding": "inplace",
						"label": "address",
						"numberOfBytes": "20"
					},
					"t_bool": {
						"encoding": "inplace",
						"label": "bool",
						"numberOfBytes": "1"
					},
					"t_bytes32": {
						"encoding": "inplace",
						"label": "bytes32",
						"numberOfBytes": "32"
					},
					"t_mapping(t_address,t_bool)": {
						"encoding": "mapping",
						"key": "t_address",
						"label": "mapping(address => bool)",
						"numberOfBytes": "32",
						"value": "t_bool"
					},
					"t_mapping(t_bytes32,t_mapping(t_uint8,t_uint256))": {
						"encoding": "mapping",
						"key": "t_bytes32",
						"label": "mapping(bytes32 => mapping(uint8 => uint256))",
						"numberOfBytes": "32",
						"value": "t_mapping(t_uint8,t_uint256)"
					},
					"t_mapping(t_bytes32,t_uint256)": {
						"encoding": "mapping",
						"key": "t_bytes32",
						"label": "mapping(bytes32 => uint256)",
						"numberOfBytes": "32",
						"value": "t_uint256"
					},
					"t_mapping(t_uint8,t_uint256)": {
						"encoding": "mapping",
						"key": "t_uint8",
						"label": "mapping(uint8 => uint256)",
						"numberOfBytes": "32",
						"value": "t_uint256"
					},
					"t_uint256": {
						"encoding": "inplace",
						"label": "uint256",
						"numberOfBytes": "32"
					},
					"t_uint8": {
						"encoding": "inplace",
						"label": "uint8",
						"numberOfBytes": "1"
					}
				}
			},
			"userdoc": {
				"kind": "user",
				"methods": {
					"ownerWithdraw(address,uint256)": {
						"notice": "Withdraw POL from the contract (owner only)"
					},
					"pay(bytes32,address,uint256)": {
						"notice": "Process a payment, generate reward points & random coupon"
					},
					"redeemCoupon(bytes32,uint8,string)": {
						"notice": "Redeem a coupon of a specific brand (0..5)"
					},
					"redeemRewards(bytes32,uint256,string)": {
						"notice": "Redeem earned reward points for an off-chain service"
					},
					"setTerminal(address,bool)": {
						"notice": "Set or remove approved terminals"
					},
					"topUp(bytes32)": {
						"notice": "Add prepaid balance for a specific UID (in POL)"
					}
				},
				"notice": "Handles NFC-based payments, reward points, and coupon generation",
				"version": 1
			}
		}
	}
}