{
	"RewardEntropy.sol": {
		"RewardEntropy": {
			"abi": [
				{
					"inputs": [
						{
							"internalType": "address",
							"name": "entropyAddress",
							"type": "address"
						},
						{
							"internalType": "address",
							"name": "relayerAddress",
							"type": "address"
						}
					],
					"stateMutability": "nonpayable",
					"type": "constructor"
				},
				{
					"anonymous": false,
					"inputs": [
						{
							"indexed": true,
							"internalType": "uint64",
							"name": "sequence",
							"type": "uint64"
						},
						{
							"indexed": true,
							"internalType": "address",
							"name": "user",
							"type": "address"
						},
						{
							"indexed": false,
							"internalType": "uint256",
							"name": "reward",
							"type": "uint256"
						}
					],
					"name": "RewardAssigned",
					"type": "event"
				},
				{
					"anonymous": false,
					"inputs": [
						{
							"indexed": true,
							"internalType": "uint64",
							"name": "sequence",
							"type": "uint64"
						},
						{
							"indexed": true,
							"internalType": "address",
							"name": "user",
							"type": "address"
						}
					],
					"name": "RewardRequested",
					"type": "event"
				},
				{
					"inputs": [],
					"name": "entropy",
					"outputs": [
						{
							"internalType": "contract IEntropyV2",
							"name": "",
							"type": "address"
						}
					],
					"stateMutability": "view",
					"type": "function"
				},
				{
					"inputs": [
						{
							"internalType": "uint64",
							"name": "sequenceNumber",
							"type": "uint64"
						},
						{
							"internalType": "address",
							"name": "provider",
							"type": "address"
						},
						{
							"internalType": "bytes",
							"name": "randomNumber",
							"type": "bytes"
						}
					],
					"name": "entropyCallback",
					"outputs": [],
					"stateMutability": "nonpayable",
					"type": "function"
				},
				{
					"inputs": [],
					"name": "relayer",
					"outputs": [
						{
							"internalType": "address",
							"name": "",
							"type": "address"
						}
					],
					"stateMutability": "view",
					"type": "function"
				},
				{
					"inputs": [
						{
							"internalType": "address",
							"name": "user",
							"type": "address"
						}
					],
					"name": "requestReward",
					"outputs": [
						{
							"internalType": "uint64",
							"name": "",
							"type": "uint64"
						}
					],
					"stateMutability": "payable",
					"type": "function"
				},
				{
					"inputs": [
						{
							"internalType": "uint64",
							"name": "",
							"type": "uint64"
						}
					],
					"name": "userBySequence",
					"outputs": [
						{
							"internalType": "address",
							"name": "",
							"type": "address"
						}
					],
					"stateMutability": "view",
					"type": "function"
				},
				{
					"stateMutability": "payable",
					"type": "receive"
				}
			],
			"devdoc": {
				"kind": "dev",
				"methods": {},
				"version": 1
			},
			"evm": {
				"assembly": "    /* \"RewardEntropy.sol\":4180:6160  contract RewardEntropy is IEntropyConsumer {... */\n  mstore(0x40, 0x80)\n    /* \"RewardEntropy.sol\":4517:4789  constructor(address entropyAddress, address relayerAddress) {... */\n  callvalue\n  dup1\n  iszero\n  tag_1\n  jumpi\n  revert(0x00, 0x00)\ntag_1:\n  pop\n  mload(0x40)\n  sub(codesize, bytecodeSize)\n  dup1\n  bytecodeSize\n  dup4\n  codecopy\n  dup2\n  dup2\n  add\n  0x40\n  mstore\n  dup2\n  add\n  swap1\n  tag_2\n  swap2\n  swap1\n  tag_3\n  jump\t// in\ntag_2:\n    /* \"RewardEntropy.sol\":4622:4623  0 */\n  0x00\n    /* \"RewardEntropy.sol\":4596:4624  entropyAddress != address(0) */\n  0xffffffffffffffffffffffffffffffffffffffff\n  and\n    /* \"RewardEntropy.sol\":4596:4610  entropyAddress */\n  dup3\n    /* \"RewardEntropy.sol\":4596:4624  entropyAddress != address(0) */\n  0xffffffffffffffffffffffffffffffffffffffff\n  and\n  sub\n    /* \"RewardEntropy.sol\":4588:4638  require(entropyAddress != address(0), \"entropy=0\") */\n  tag_6\n  jumpi\n  mload(0x40)\n  0x08c379a000000000000000000000000000000000000000000000000000000000\n  dup2\n  mstore\n  0x04\n  add\n  tag_7\n  swap1\n  tag_8\n  jump\t// in\ntag_7:\n  mload(0x40)\n  dup1\n  swap2\n  sub\n  swap1\n  revert\ntag_6:\n    /* \"RewardEntropy.sol\":4683:4684  0 */\n  0x00\n    /* \"RewardEntropy.sol\":4657:4685  relayerAddress != address(0) */\n  0xffffffffffffffffffffffffffffffffffffffff\n  and\n    /* \"RewardEntropy.sol\":4657:4671  relayerAddress */\n  dup2\n    /* \"RewardEntropy.sol\":4657:4685  relayerAddress != address(0) */\n  0xffffffffffffffffffffffffffffffffffffffff\n  and\n  sub\n    /* \"RewardEntropy.sol\":4649:4699  require(relayerAddress != address(0), \"relayer=0\") */\n  tag_9\n  jumpi\n  mload(0x40)\n  0x08c379a000000000000000000000000000000000000000000000000000000000\n  dup2\n  mstore\n  0x04\n  add\n  tag_10\n  swap1\n  tag_11\n  jump\t// in\ntag_10:\n  mload(0x40)\n  dup1\n  swap2\n  sub\n  swap1\n  revert\ntag_9:\n    /* \"RewardEntropy.sol\":4731:4745  entropyAddress */\n  dup2\n    /* \"RewardEntropy.sol\":4710:4717  entropy */\n  0x00\n  0x00\n    /* \"RewardEntropy.sol\":4710:4746  entropy = IEntropyV2(entropyAddress) */\n  0x0100\n  exp\n  dup2\n  sload\n  dup2\n  0xffffffffffffffffffffffffffffffffffffffff\n  mul\n  not\n  and\n  swap1\n  dup4\n  0xffffffffffffffffffffffffffffffffffffffff\n  and\n  mul\n  or\n  swap1\n  sstore\n  pop\n    /* \"RewardEntropy.sol\":4767:4781  relayerAddress */\n  dup1\n    /* \"RewardEntropy.sol\":4757:4764  relayer */\n  0x01\n  0x00\n    /* \"RewardEntropy.sol\":4757:4781  relayer = relayerAddress */\n  0x0100\n  exp\n  dup2\n  sload\n  dup2\n  0xffffffffffffffffffffffffffffffffffffffff\n  mul\n  not\n  and\n  swap1\n  dup4\n  0xffffffffffffffffffffffffffffffffffffffff\n  and\n  mul\n  or\n  swap1\n  sstore\n  pop\n    /* \"RewardEntropy.sol\":4517:4789  constructor(address entropyAddress, address relayerAddress) {... */\n  pop\n  pop\n    /* \"RewardEntropy.sol\":4180:6160  contract RewardEntropy is IEntropyConsumer {... */\n  jump(tag_12)\n    /* \"#utility.yul\":88:205   */\ntag_14:\n    /* \"#utility.yul\":197:198   */\n  0x00\n    /* \"#utility.yul\":194:195   */\n  0x00\n    /* \"#utility.yul\":187:199   */\n  revert\n    /* \"#utility.yul\":334:460   */\ntag_16:\n    /* \"#utility.yul\":371:378   */\n  0x00\n    /* \"#utility.yul\":411:453   */\n  0xffffffffffffffffffffffffffffffffffffffff\n    /* \"#utility.yul\":404:409   */\n  dup3\n    /* \"#utility.yul\":400:454   */\n  and\n    /* \"#utility.yul\":389:454   */\n  swap1\n  pop\n    /* \"#utility.yul\":334:460   */\n  swap2\n  swap1\n  pop\n  jump\t// out\n    /* \"#utility.yul\":466:562   */\ntag_17:\n    /* \"#utility.yul\":503:510   */\n  0x00\n    /* \"#utility.yul\":532:556   */\n  tag_31\n    /* \"#utility.yul\":550:555   */\n  dup3\n    /* \"#utility.yul\":532:556   */\n  tag_16\n  jump\t// in\ntag_31:\n    /* \"#utility.yul\":521:556   */\n  swap1\n  pop\n    /* \"#utility.yul\":466:562   */\n  swap2\n  swap1\n  pop\n  jump\t// out\n    /* \"#utility.yul\":568:690   */\ntag_18:\n    /* \"#utility.yul\":641:665   */\n  tag_33\n    /* \"#utility.yul\":659:664   */\n  dup2\n    /* \"#utility.yul\":641:665   */\n  tag_17\n  jump\t// in\ntag_33:\n    /* \"#utility.yul\":634:639   */\n  dup2\n    /* \"#utility.yul\":631:666   */\n  eq\n    /* \"#utility.yul\":621:684   */\n  tag_34\n  jumpi\n    /* \"#utility.yul\":680:681   */\n  0x00\n    /* \"#utility.yul\":677:678   */\n  0x00\n    /* \"#utility.yul\":670:682   */\n  revert\n    /* \"#utility.yul\":621:684   */\ntag_34:\n    /* \"#utility.yul\":568:690   */\n  pop\n  jump\t// out\n    /* \"#utility.yul\":696:839   */\ntag_19:\n    /* \"#utility.yul\":753:758   */\n  0x00\n    /* \"#utility.yul\":784:790   */\n  dup2\n    /* \"#utility.yul\":778:791   */\n  mload\n    /* \"#utility.yul\":769:791   */\n  swap1\n  pop\n    /* \"#utility.yul\":800:833   */\n  tag_36\n    /* \"#utility.yul\":827:832   */\n  dup2\n    /* \"#utility.yul\":800:833   */\n  tag_18\n  jump\t// in\ntag_36:\n    /* \"#utility.yul\":696:839   */\n  swap3\n  swap2\n  pop\n  pop\n  jump\t// out\n    /* \"#utility.yul\":845:1352   */\ntag_3:\n    /* \"#utility.yul\":924:930   */\n  0x00\n    /* \"#utility.yul\":932:938   */\n  0x00\n    /* \"#utility.yul\":981:983   */\n  0x40\n    /* \"#utility.yul\":969:978   */\n  dup4\n    /* \"#utility.yul\":960:967   */\n  dup6\n    /* \"#utility.yul\":956:979   */\n  sub\n    /* \"#utility.yul\":952:984   */\n  slt\n    /* \"#utility.yul\":949:1068   */\n  iszero\n  tag_38\n  jumpi\n    /* \"#utility.yul\":987:1066   */\n  tag_39\n  tag_14\n  jump\t// in\ntag_39:\n    /* \"#utility.yul\":949:1068   */\ntag_38:\n    /* \"#utility.yul\":1107:1108   */\n  0x00\n    /* \"#utility.yul\":1132:1196   */\n  tag_40\n    /* \"#utility.yul\":1188:1195   */\n  dup6\n    /* \"#utility.yul\":1179:1185   */\n  dup3\n    /* \"#utility.yul\":1168:1177   */\n  dup7\n    /* \"#utility.yul\":1164:1186   */\n  add\n    /* \"#utility.yul\":1132:1196   */\n  tag_19\n  jump\t// in\ntag_40:\n    /* \"#utility.yul\":1122:1196   */\n  swap3\n  pop\n    /* \"#utility.yul\":1078:1206   */\n  pop\n    /* \"#utility.yul\":1245:1247   */\n  0x20\n    /* \"#utility.yul\":1271:1335   */\n  tag_41\n    /* \"#utility.yul\":1327:1334   */\n  dup6\n    /* \"#utility.yul\":1318:1324   */\n  dup3\n    /* \"#utility.yul\":1307:1316   */\n  dup7\n    /* \"#utility.yul\":1303:1325   */\n  add\n    /* \"#utility.yul\":1271:1335   */\n  tag_19\n  jump\t// in\ntag_41:\n    /* \"#utility.yul\":1261:1335   */\n  swap2\n  pop\n    /* \"#utility.yul\":1216:1345   */\n  pop\n    /* \"#utility.yul\":845:1352   */\n  swap3\n  pop\n  swap3\n  swap1\n  pop\n  jump\t// out\n    /* \"#utility.yul\":1358:1527   */\ntag_20:\n    /* \"#utility.yul\":1442:1453   */\n  0x00\n    /* \"#utility.yul\":1476:1482   */\n  dup3\n    /* \"#utility.yul\":1471:1474   */\n  dup3\n    /* \"#utility.yul\":1464:1483   */\n  mstore\n    /* \"#utility.yul\":1516:1520   */\n  0x20\n    /* \"#utility.yul\":1511:1514   */\n  dup3\n    /* \"#utility.yul\":1507:1521   */\n  add\n    /* \"#utility.yul\":1492:1521   */\n  swap1\n  pop\n    /* \"#utility.yul\":1358:1527   */\n  swap3\n  swap2\n  pop\n  pop\n  jump\t// out\n    /* \"#utility.yul\":1533:1692   */\ntag_21:\n    /* \"#utility.yul\":1673:1684   */\n  0x656e74726f70793d300000000000000000000000000000000000000000000000\n    /* \"#utility.yul\":1669:1670   */\n  0x00\n    /* \"#utility.yul\":1661:1667   */\n  dup3\n    /* \"#utility.yul\":1657:1671   */\n  add\n    /* \"#utility.yul\":1650:1685   */\n  mstore\n    /* \"#utility.yul\":1533:1692   */\n  pop\n  jump\t// out\n    /* \"#utility.yul\":1698:2063   */\ntag_22:\n    /* \"#utility.yul\":1840:1843   */\n  0x00\n    /* \"#utility.yul\":1861:1927   */\n  tag_45\n    /* \"#utility.yul\":1925:1926   */\n  0x09\n    /* \"#utility.yul\":1920:1923   */\n  dup4\n    /* \"#utility.yul\":1861:1927   */\n  tag_20\n  jump\t// in\ntag_45:\n    /* \"#utility.yul\":1854:1927   */\n  swap2\n  pop\n    /* \"#utility.yul\":1936:2029   */\n  tag_46\n    /* \"#utility.yul\":2025:2028   */\n  dup3\n    /* \"#utility.yul\":1936:2029   */\n  tag_21\n  jump\t// in\ntag_46:\n    /* \"#utility.yul\":2054:2056   */\n  0x20\n    /* \"#utility.yul\":2049:2052   */\n  dup3\n    /* \"#utility.yul\":2045:2057   */\n  add\n    /* \"#utility.yul\":2038:2057   */\n  swap1\n  pop\n    /* \"#utility.yul\":1698:2063   */\n  swap2\n  swap1\n  pop\n  jump\t// out\n    /* \"#utility.yul\":2069:2488   */\ntag_8:\n    /* \"#utility.yul\":2235:2239   */\n  0x00\n    /* \"#utility.yul\":2273:2275   */\n  0x20\n    /* \"#utility.yul\":2262:2271   */\n  dup3\n    /* \"#utility.yul\":2258:2276   */\n  add\n    /* \"#utility.yul\":2250:2276   */\n  swap1\n  pop\n    /* \"#utility.yul\":2322:2331   */\n  dup2\n    /* \"#utility.yul\":2316:2320   */\n  dup2\n    /* \"#utility.yul\":2312:2332   */\n  sub\n    /* \"#utility.yul\":2308:2309   */\n  0x00\n    /* \"#utility.yul\":2297:2306   */\n  dup4\n    /* \"#utility.yul\":2293:2310   */\n  add\n    /* \"#utility.yul\":2286:2333   */\n  mstore\n    /* \"#utility.yul\":2350:2481   */\n  tag_48\n    /* \"#utility.yul\":2476:2480   */\n  dup2\n    /* \"#utility.yul\":2350:2481   */\n  tag_22\n  jump\t// in\ntag_48:\n    /* \"#utility.yul\":2342:2481   */\n  swap1\n  pop\n    /* \"#utility.yul\":2069:2488   */\n  swap2\n  swap1\n  pop\n  jump\t// out\n    /* \"#utility.yul\":2494:2653   */\ntag_23:\n    /* \"#utility.yul\":2634:2645   */\n  0x72656c617965723d300000000000000000000000000000000000000000000000\n    /* \"#utility.yul\":2630:2631   */\n  0x00\n    /* \"#utility.yul\":2622:2628   */\n  dup3\n    /* \"#utility.yul\":2618:2632   */\n  add\n    /* \"#utility.yul\":2611:2646   */\n  mstore\n    /* \"#utility.yul\":2494:2653   */\n  pop\n  jump\t// out\n    /* \"#utility.yul\":2659:3024   */\ntag_24:\n    /* \"#utility.yul\":2801:2804   */\n  0x00\n    /* \"#utility.yul\":2822:2888   */\n  tag_51\n    /* \"#utility.yul\":2886:2887   */\n  0x09\n    /* \"#utility.yul\":2881:2884   */\n  dup4\n    /* \"#utility.yul\":2822:2888   */\n  tag_20\n  jump\t// in\ntag_51:\n    /* \"#utility.yul\":2815:2888   */\n  swap2\n  pop\n    /* \"#utility.yul\":2897:2990   */\n  tag_52\n    /* \"#utility.yul\":2986:2989   */\n  dup3\n    /* \"#utility.yul\":2897:2990   */\n  tag_23\n  jump\t// in\ntag_52:\n    /* \"#utility.yul\":3015:3017   */\n  0x20\n    /* \"#utility.yul\":3010:3013   */\n  dup3\n    /* \"#utility.yul\":3006:3018   */\n  add\n    /* \"#utility.yul\":2999:3018   */\n  swap1\n  pop\n    /* \"#utility.yul\":2659:3024   */\n  swap2\n  swap1\n  pop\n  jump\t// out\n    /* \"#utility.yul\":3030:3449   */\ntag_11:\n    /* \"#utility.yul\":3196:3200   */\n  0x00\n    /* \"#utility.yul\":3234:3236   */\n  0x20\n    /* \"#utility.yul\":3223:3232   */\n  dup3\n    /* \"#utility.yul\":3219:3237   */\n  add\n    /* \"#utility.yul\":3211:3237   */\n  swap1\n  pop\n    /* \"#utility.yul\":3283:3292   */\n  dup2\n    /* \"#utility.yul\":3277:3281   */\n  dup2\n    /* \"#utility.yul\":3273:3293   */\n  sub\n    /* \"#utility.yul\":3269:3270   */\n  0x00\n    /* \"#utility.yul\":3258:3267   */\n  dup4\n    /* \"#utility.yul\":3254:3271   */\n  add\n    /* \"#utility.yul\":3247:3294   */\n  mstore\n    /* \"#utility.yul\":3311:3442   */\n  tag_54\n    /* \"#utility.yul\":3437:3441   */\n  dup2\n    /* \"#utility.yul\":3311:3442   */\n  tag_24\n  jump\t// in\ntag_54:\n    /* \"#utility.yul\":3303:3442   */\n  swap1\n  pop\n    /* \"#utility.yul\":3030:3449   */\n  swap2\n  swap1\n  pop\n  jump\t// out\n    /* \"RewardEntropy.sol\":4180:6160  contract RewardEntropy is IEntropyConsumer {... */\ntag_12:\n  dataSize(sub_0)\n  dup1\n  dataOffset(sub_0)\n  0x00\n  codecopy\n  0x00\n  return\nstop\n\nsub_0: assembly {\n        /* \"RewardEntropy.sol\":4180:6160  contract RewardEntropy is IEntropyConsumer {... */\n      mstore(0x40, 0x80)\n      jumpi(tag_1, lt(calldatasize, 0x04))\n      shr(0xe0, calldataload(0x00))\n      dup1\n      0x47ce07cc\n      eq\n      tag_3\n      jumpi\n      dup1\n      0x68114967\n      eq\n      tag_4\n      jumpi\n      dup1\n      0x8406c079\n      eq\n      tag_5\n      jumpi\n      dup1\n      0x866c7d2c\n      eq\n      tag_6\n      jumpi\n      dup1\n      0xb6ba5de9\n      eq\n      tag_7\n      jumpi\n      jump(tag_2)\n    tag_1:\n      jumpi(tag_2, calldatasize)\n      stop\n    tag_2:\n      revert(0x00, 0x00)\n        /* \"RewardEntropy.sol\":4230:4255  IEntropyV2 public entropy */\n    tag_3:\n      callvalue\n      dup1\n      iszero\n      tag_10\n      jumpi\n      revert(0x00, 0x00)\n    tag_10:\n      pop\n      tag_11\n      tag_12\n      jump\t// in\n    tag_11:\n      mload(0x40)\n      tag_13\n      swap2\n      swap1\n      tag_14\n      jump\t// in\n    tag_13:\n      mload(0x40)\n      dup1\n      swap2\n      sub\n      swap1\n      return\n        /* \"RewardEntropy.sol\":3628:4090  function entropyCallback(... */\n    tag_4:\n      callvalue\n      dup1\n      iszero\n      tag_15\n      jumpi\n      revert(0x00, 0x00)\n    tag_15:\n      pop\n      tag_16\n      0x04\n      dup1\n      calldatasize\n      sub\n      dup2\n      add\n      swap1\n      tag_17\n      swap2\n      swap1\n      tag_18\n      jump\t// in\n    tag_17:\n      tag_19\n      jump\t// in\n    tag_16:\n      stop\n        /* \"RewardEntropy.sol\":4262:4284  address public relayer */\n    tag_5:\n      callvalue\n      dup1\n      iszero\n      tag_20\n      jumpi\n      revert(0x00, 0x00)\n    tag_20:\n      pop\n      tag_21\n      tag_22\n      jump\t// in\n    tag_21:\n      mload(0x40)\n      tag_23\n      swap2\n      swap1\n      tag_24\n      jump\t// in\n    tag_23:\n      mload(0x40)\n      dup1\n      swap2\n      sub\n      swap1\n      return\n        /* \"RewardEntropy.sol\":4999:5440  function requestReward(address user) external payable returns (uint64) {... */\n    tag_6:\n      tag_25\n      0x04\n      dup1\n      calldatasize\n      sub\n      dup2\n      add\n      swap1\n      tag_26\n      swap2\n      swap1\n      tag_27\n      jump\t// in\n    tag_26:\n      tag_28\n      jump\t// in\n    tag_25:\n      mload(0x40)\n      tag_29\n      swap2\n      swap1\n      tag_30\n      jump\t// in\n    tag_29:\n      mload(0x40)\n      dup1\n      swap2\n      sub\n      swap1\n      return\n        /* \"RewardEntropy.sol\":4293:4341  mapping(uint64 => address) public userBySequence */\n    tag_7:\n      callvalue\n      dup1\n      iszero\n      tag_31\n      jumpi\n      revert(0x00, 0x00)\n    tag_31:\n      pop\n      tag_32\n      0x04\n      dup1\n      calldatasize\n      sub\n      dup2\n      add\n      swap1\n      tag_33\n      swap2\n      swap1\n      tag_34\n      jump\t// in\n    tag_33:\n      tag_35\n      jump\t// in\n    tag_32:\n      mload(0x40)\n      tag_36\n      swap2\n      swap1\n      tag_24\n      jump\t// in\n    tag_36:\n      mload(0x40)\n      dup1\n      swap2\n      sub\n      swap1\n      return\n        /* \"RewardEntropy.sol\":4230:4255  IEntropyV2 public entropy */\n    tag_12:\n      0x00\n      0x00\n      swap1\n      sload\n      swap1\n      0x0100\n      exp\n      swap1\n      div\n      0xffffffffffffffffffffffffffffffffffffffff\n      and\n      dup2\n      jump\t// out\n        /* \"RewardEntropy.sol\":3628:4090  function entropyCallback(... */\n    tag_19:\n        /* \"RewardEntropy.sol\":3799:3811  getEntropy() */\n      tag_38\n        /* \"RewardEntropy.sol\":3799:3809  getEntropy */\n      tag_39\n        /* \"RewardEntropy.sol\":3799:3811  getEntropy() */\n      jump\t// in\n    tag_38:\n        /* \"RewardEntropy.sol\":3785:3811  msg.sender == getEntropy() */\n      0xffffffffffffffffffffffffffffffffffffffff\n      and\n        /* \"RewardEntropy.sol\":3785:3795  msg.sender */\n      caller\n        /* \"RewardEntropy.sol\":3785:3811  msg.sender == getEntropy() */\n      0xffffffffffffffffffffffffffffffffffffffff\n      and\n      eq\n        /* \"RewardEntropy.sol\":3777:3845  require(msg.sender == getEntropy(), \"Only entropy contract allowed\") */\n      tag_40\n      jumpi\n      mload(0x40)\n      0x08c379a000000000000000000000000000000000000000000000000000000000\n      dup2\n      mstore\n      0x04\n      add\n      tag_41\n      swap1\n      tag_42\n      jump\t// in\n    tag_41:\n      mload(0x40)\n      dup1\n      swap2\n      sub\n      swap1\n      revert\n    tag_40:\n        /* \"RewardEntropy.sol\":3856:3866  bytes32 rn */\n      0x00\n        /* \"RewardEntropy.sol\":4013:4014  0 */\n      0x00\n        /* \"RewardEntropy.sol\":3992:4011  randomNumber.offset */\n      dup4\n        /* \"RewardEntropy.sol\":3988:4015  add(randomNumber.offset, 0) */\n      add\n        /* \"RewardEntropy.sol\":3975:4016  calldataload(add(randomNumber.offset, 0)) */\n      calldataload\n        /* \"RewardEntropy.sol\":3969:4016  rn := calldataload(add(randomNumber.offset, 0)) */\n      swap1\n      pop\n        /* \"RewardEntropy.sol\":4037:4082  entropyCallback(sequenceNumber, provider, rn) */\n      tag_43\n        /* \"RewardEntropy.sol\":4053:4067  sequenceNumber */\n      dup6\n        /* \"RewardEntropy.sol\":4069:4077  provider */\n      dup6\n        /* \"RewardEntropy.sol\":4079:4081  rn */\n      dup4\n        /* \"RewardEntropy.sol\":4037:4052  entropyCallback */\n      tag_44\n        /* \"RewardEntropy.sol\":4037:4082  entropyCallback(sequenceNumber, provider, rn) */\n      jump\t// in\n    tag_43:\n        /* \"RewardEntropy.sol\":3766:4090  {... */\n      pop\n        /* \"RewardEntropy.sol\":3628:4090  function entropyCallback(... */\n      pop\n      pop\n      pop\n      pop\n      jump\t// out\n        /* \"RewardEntropy.sol\":4262:4284  address public relayer */\n    tag_22:\n      0x01\n      0x00\n      swap1\n      sload\n      swap1\n      0x0100\n      exp\n      swap1\n      div\n      0xffffffffffffffffffffffffffffffffffffffff\n      and\n      dup2\n      jump\t// out\n        /* \"RewardEntropy.sol\":4999:5440  function requestReward(address user) external payable returns (uint64) {... */\n    tag_28:\n        /* \"RewardEntropy.sol\":5062:5068  uint64 */\n      0x00\n        /* \"RewardEntropy.sol\":5103:5110  relayer */\n      0x01\n      0x00\n      swap1\n      sload\n      swap1\n      0x0100\n      exp\n      swap1\n      div\n      0xffffffffffffffffffffffffffffffffffffffff\n      and\n        /* \"RewardEntropy.sol\":5089:5110  msg.sender == relayer */\n      0xffffffffffffffffffffffffffffffffffffffff\n      and\n        /* \"RewardEntropy.sol\":5089:5099  msg.sender */\n      caller\n        /* \"RewardEntropy.sol\":5089:5110  msg.sender == relayer */\n      0xffffffffffffffffffffffffffffffffffffffff\n      and\n      eq\n        /* \"RewardEntropy.sol\":5081:5127  require(msg.sender == relayer, \"ONLY RELAYER\") */\n      tag_46\n      jumpi\n      mload(0x40)\n      0x08c379a000000000000000000000000000000000000000000000000000000000\n      dup2\n      mstore\n      0x04\n      add\n      tag_47\n      swap1\n      tag_48\n      jump\t// in\n    tag_47:\n      mload(0x40)\n      dup1\n      swap2\n      sub\n      swap1\n      revert\n    tag_46:\n        /* \"RewardEntropy.sol\":5162:5163  0 */\n      0x00\n        /* \"RewardEntropy.sol\":5146:5164  user != address(0) */\n      0xffffffffffffffffffffffffffffffffffffffff\n      and\n        /* \"RewardEntropy.sol\":5146:5150  user */\n      dup3\n        /* \"RewardEntropy.sol\":5146:5164  user != address(0) */\n      0xffffffffffffffffffffffffffffffffffffffff\n      and\n      sub\n        /* \"RewardEntropy.sol\":5138:5175  require(user != address(0), \"user=0\") */\n      tag_49\n      jumpi\n      mload(0x40)\n      0x08c379a000000000000000000000000000000000000000000000000000000000\n      dup2\n      mstore\n      0x04\n      add\n      tag_50\n      swap1\n      tag_51\n      jump\t// in\n    tag_50:\n      mload(0x40)\n      dup1\n      swap2\n      sub\n      swap1\n      revert\n    tag_49:\n        /* \"RewardEntropy.sol\":5188:5199  uint128 fee */\n      0x00\n        /* \"RewardEntropy.sol\":5202:5209  entropy */\n      0x00\n      0x00\n      swap1\n      sload\n      swap1\n      0x0100\n      exp\n      swap1\n      div\n      0xffffffffffffffffffffffffffffffffffffffff\n      and\n        /* \"RewardEntropy.sol\":5202:5218  entropy.getFeeV2 */\n      0xffffffffffffffffffffffffffffffffffffffff\n      and\n      0x8204b67a\n        /* \"RewardEntropy.sol\":5202:5220  entropy.getFeeV2() */\n      mload(0x40)\n      dup2\n      0xffffffff\n      and\n      0xe0\n      shl\n      dup2\n      mstore\n      0x04\n      add\n      0x20\n      mload(0x40)\n      dup1\n      dup4\n      sub\n      dup2\n      dup7\n      gas\n      staticcall\n      iszero\n      dup1\n      iszero\n      tag_53\n      jumpi\n      returndatacopy(0x00, 0x00, returndatasize)\n      revert(0x00, returndatasize)\n    tag_53:\n      pop\n      pop\n      pop\n      pop\n      mload(0x40)\n      returndatasize\n      not(0x1f)\n      0x1f\n      dup3\n      add\n      and\n      dup3\n      add\n      dup1\n      0x40\n      mstore\n      pop\n      dup2\n      add\n      swap1\n      tag_54\n      swap2\n      swap1\n      tag_55\n      jump\t// in\n    tag_54:\n        /* \"RewardEntropy.sol\":5188:5220  uint128 fee = entropy.getFeeV2() */\n      swap1\n      pop\n        /* \"RewardEntropy.sol\":5252:5255  fee */\n      dup1\n        /* \"RewardEntropy.sol\":5239:5255  msg.value >= fee */\n      0xffffffffffffffffffffffffffffffff\n      and\n        /* \"RewardEntropy.sol\":5239:5248  msg.value */\n      callvalue\n        /* \"RewardEntropy.sol\":5239:5255  msg.value >= fee */\n      lt\n      iszero\n        /* \"RewardEntropy.sol\":5231:5271  require(msg.value >= fee, \"FEE TOO LOW\") */\n      tag_56\n      jumpi\n      mload(0x40)\n      0x08c379a000000000000000000000000000000000000000000000000000000000\n      dup2\n      mstore\n      0x04\n      add\n      tag_57\n      swap1\n      tag_58\n      jump\t// in\n    tag_57:\n      mload(0x40)\n      dup1\n      swap2\n      sub\n      swap1\n      revert\n    tag_56:\n        /* \"RewardEntropy.sol\":5284:5294  uint64 seq */\n      0x00\n        /* \"RewardEntropy.sol\":5297:5304  entropy */\n      0x00\n      0x00\n      swap1\n      sload\n      swap1\n      0x0100\n      exp\n      swap1\n      div\n      0xffffffffffffffffffffffffffffffffffffffff\n      and\n        /* \"RewardEntropy.sol\":5297:5314  entropy.requestV2 */\n      0xffffffffffffffffffffffffffffffffffffffff\n      and\n      0x7b43155d\n        /* \"RewardEntropy.sol\":5323:5326  fee */\n      dup4\n        /* \"RewardEntropy.sol\":5297:5330  entropy.requestV2{ value: fee }() */\n      0xffffffffffffffffffffffffffffffff\n      and\n      mload(0x40)\n      dup3\n      0xffffffff\n      and\n      0xe0\n      shl\n      dup2\n      mstore\n      0x04\n      add\n      0x20\n      mload(0x40)\n      dup1\n      dup4\n      sub\n      dup2\n      dup6\n      dup9\n      gas\n      call\n      iszero\n      dup1\n      iszero\n      tag_60\n      jumpi\n      returndatacopy(0x00, 0x00, returndatasize)\n      revert(0x00, returndatasize)\n    tag_60:\n      pop\n      pop\n      pop\n      pop\n      pop\n      mload(0x40)\n      returndatasize\n      not(0x1f)\n      0x1f\n      dup3\n      add\n      and\n      dup3\n      add\n      dup1\n      0x40\n      mstore\n      pop\n      dup2\n      add\n      swap1\n      tag_61\n      swap2\n      swap1\n      tag_62\n      jump\t// in\n    tag_61:\n        /* \"RewardEntropy.sol\":5284:5330  uint64 seq = entropy.requestV2{ value: fee }() */\n      swap1\n      pop\n        /* \"RewardEntropy.sol\":5363:5367  user */\n      dup4\n        /* \"RewardEntropy.sol\":5341:5355  userBySequence */\n      0x02\n        /* \"RewardEntropy.sol\":5341:5360  userBySequence[seq] */\n      0x00\n        /* \"RewardEntropy.sol\":5356:5359  seq */\n      dup4\n        /* \"RewardEntropy.sol\":5341:5360  userBySequence[seq] */\n      0xffffffffffffffff\n      and\n      0xffffffffffffffff\n      and\n      dup2\n      mstore\n      0x20\n      add\n      swap1\n      dup2\n      mstore\n      0x20\n      add\n      0x00\n      keccak256\n      0x00\n        /* \"RewardEntropy.sol\":5341:5367  userBySequence[seq] = user */\n      0x0100\n      exp\n      dup2\n      sload\n      dup2\n      0xffffffffffffffffffffffffffffffffffffffff\n      mul\n      not\n      and\n      swap1\n      dup4\n      0xffffffffffffffffffffffffffffffffffffffff\n      and\n      mul\n      or\n      swap1\n      sstore\n      pop\n        /* \"RewardEntropy.sol\":5406:5410  user */\n      dup4\n        /* \"RewardEntropy.sol\":5385:5411  RewardRequested(seq, user) */\n      0xffffffffffffffffffffffffffffffffffffffff\n      and\n        /* \"RewardEntropy.sol\":5401:5404  seq */\n      dup2\n        /* \"RewardEntropy.sol\":5385:5411  RewardRequested(seq, user) */\n      0xffffffffffffffff\n      and\n      0x6fd8a278b6cd4714af4d0ebe96c52e27014bd314c0c6cd91955ea7edecf0e0dd\n      mload(0x40)\n      mload(0x40)\n      dup1\n      swap2\n      sub\n      swap1\n      log3\n        /* \"RewardEntropy.sol\":5429:5432  seq */\n      dup1\n        /* \"RewardEntropy.sol\":5422:5432  return seq */\n      swap3\n      pop\n      pop\n      pop\n        /* \"RewardEntropy.sol\":4999:5440  function requestReward(address user) external payable returns (uint64) {... */\n      swap2\n      swap1\n      pop\n      jump\t// out\n        /* \"RewardEntropy.sol\":4293:4341  mapping(uint64 => address) public userBySequence */\n    tag_35:\n      mstore(0x20, 0x02)\n      dup1\n      0x00\n      mstore\n      keccak256(0x00, 0x40)\n      0x00\n      swap2\n      pop\n      sload\n      swap1\n      0x0100\n      exp\n      swap1\n      div\n      0xffffffffffffffffffffffffffffffffffffffff\n      and\n      dup2\n      jump\t// out\n        /* \"RewardEntropy.sol\":4823:4928  function getEntropy() internal view override returns (address) {... */\n    tag_39:\n        /* \"RewardEntropy.sol\":4877:4884  address */\n      0x00\n        /* \"RewardEntropy.sol\":4912:4919  entropy */\n      0x00\n      0x00\n      swap1\n      sload\n      swap1\n      0x0100\n      exp\n      swap1\n      div\n      0xffffffffffffffffffffffffffffffffffffffff\n      and\n        /* \"RewardEntropy.sol\":4897:4920  return address(entropy) */\n      swap1\n      pop\n        /* \"RewardEntropy.sol\":4823:4928  function getEntropy() internal view override returns (address) {... */\n      swap1\n      jump\t// out\n        /* \"RewardEntropy.sol\":5507:6069  function entropyCallback(... */\n    tag_44:\n        /* \"RewardEntropy.sol\":5649:5661  address user */\n      0x00\n        /* \"RewardEntropy.sol\":5664:5678  userBySequence */\n      0x02\n        /* \"RewardEntropy.sol\":5664:5694  userBySequence[sequenceNumber] */\n      0x00\n        /* \"RewardEntropy.sol\":5679:5693  sequenceNumber */\n      dup6\n        /* \"RewardEntropy.sol\":5664:5694  userBySequence[sequenceNumber] */\n      0xffffffffffffffff\n      and\n      0xffffffffffffffff\n      and\n      dup2\n      mstore\n      0x20\n      add\n      swap1\n      dup2\n      mstore\n      0x20\n      add\n      0x00\n      keccak256\n      0x00\n      swap1\n      sload\n      swap1\n      0x0100\n      exp\n      swap1\n      div\n      0xffffffffffffffffffffffffffffffffffffffff\n      and\n        /* \"RewardEntropy.sol\":5649:5694  address user = userBySequence[sequenceNumber] */\n      swap1\n      pop\n        /* \"RewardEntropy.sol\":5727:5728  0 */\n      0x00\n        /* \"RewardEntropy.sol\":5711:5729  user == address(0) */\n      0xffffffffffffffffffffffffffffffffffffffff\n      and\n        /* \"RewardEntropy.sol\":5711:5715  user */\n      dup2\n        /* \"RewardEntropy.sol\":5711:5729  user == address(0) */\n      0xffffffffffffffffffffffffffffffffffffffff\n      and\n      sub\n        /* \"RewardEntropy.sol\":5707:5889  if (user == address(0)) {... */\n      tag_65\n      jumpi\n        /* \"RewardEntropy.sol\":5826:5840  userBySequence */\n      0x02\n        /* \"RewardEntropy.sol\":5826:5856  userBySequence[sequenceNumber] */\n      0x00\n        /* \"RewardEntropy.sol\":5841:5855  sequenceNumber */\n      dup6\n        /* \"RewardEntropy.sol\":5826:5856  userBySequence[sequenceNumber] */\n      0xffffffffffffffff\n      and\n      0xffffffffffffffff\n      and\n      dup2\n      mstore\n      0x20\n      add\n      swap1\n      dup2\n      mstore\n      0x20\n      add\n      0x00\n      keccak256\n      0x00\n        /* \"RewardEntropy.sol\":5819:5856  delete userBySequence[sequenceNumber] */\n      0x0100\n      exp\n      dup2\n      sload\n      swap1\n      0xffffffffffffffffffffffffffffffffffffffff\n      mul\n      not\n      and\n      swap1\n      sstore\n        /* \"RewardEntropy.sol\":5871:5878  return; */\n      pop\n      jump(tag_64)\n        /* \"RewardEntropy.sol\":5707:5889  if (user == address(0)) {... */\n    tag_65:\n        /* \"RewardEntropy.sol\":5901:5915  uint256 reward */\n      0x00\n        /* \"RewardEntropy.sol\":5950:5951  1 */\n      0x01\n        /* \"RewardEntropy.sol\":5943:5946  100 */\n      0x64\n        /* \"RewardEntropy.sol\":5927:5939  randomNumber */\n      dup5\n        /* \"RewardEntropy.sol\":5919:5940  uint256(randomNumber) */\n      0x00\n      shr\n        /* \"RewardEntropy.sol\":5919:5946  uint256(randomNumber) % 100 */\n      tag_66\n      swap2\n      swap1\n      tag_67\n      jump\t// in\n    tag_66:\n        /* \"RewardEntropy.sol\":5918:5951  (uint256(randomNumber) % 100) + 1 */\n      tag_68\n      swap2\n      swap1\n      tag_69\n      jump\t// in\n    tag_68:\n        /* \"RewardEntropy.sol\":5901:5951  uint256 reward = (uint256(randomNumber) % 100) + 1 */\n      swap1\n      pop\n        /* \"RewardEntropy.sol\":5998:6002  user */\n      dup2\n        /* \"RewardEntropy.sol\":5967:6011  RewardAssigned(sequenceNumber, user, reward) */\n      0xffffffffffffffffffffffffffffffffffffffff\n      and\n        /* \"RewardEntropy.sol\":5982:5996  sequenceNumber */\n      dup6\n        /* \"RewardEntropy.sol\":5967:6011  RewardAssigned(sequenceNumber, user, reward) */\n      0xffffffffffffffff\n      and\n      0x371ec698ffa4358eda6a0431ebbbbb3de28ea88e7ea8162df7eee0b3207d486a\n        /* \"RewardEntropy.sol\":6004:6010  reward */\n      dup4\n        /* \"RewardEntropy.sol\":5967:6011  RewardAssigned(sequenceNumber, user, reward) */\n      mload(0x40)\n      tag_70\n      swap2\n      swap1\n      tag_71\n      jump\t// in\n    tag_70:\n      mload(0x40)\n      dup1\n      swap2\n      sub\n      swap1\n      log3\n        /* \"RewardEntropy.sol\":6031:6045  userBySequence */\n      0x02\n        /* \"RewardEntropy.sol\":6031:6061  userBySequence[sequenceNumber] */\n      0x00\n        /* \"RewardEntropy.sol\":6046:6060  sequenceNumber */\n      dup7\n        /* \"RewardEntropy.sol\":6031:6061  userBySequence[sequenceNumber] */\n      0xffffffffffffffff\n      and\n      0xffffffffffffffff\n      and\n      dup2\n      mstore\n      0x20\n      add\n      swap1\n      dup2\n      mstore\n      0x20\n      add\n      0x00\n      keccak256\n      0x00\n        /* \"RewardEntropy.sol\":6024:6061  delete userBySequence[sequenceNumber] */\n      0x0100\n      exp\n      dup2\n      sload\n      swap1\n      0xffffffffffffffffffffffffffffffffffffffff\n      mul\n      not\n      and\n      swap1\n      sstore\n        /* \"RewardEntropy.sol\":5638:6069  {... */\n      pop\n      pop\n        /* \"RewardEntropy.sol\":5507:6069  function entropyCallback(... */\n    tag_64:\n      pop\n      pop\n      pop\n      jump\t// out\n        /* \"#utility.yul\":7:133   */\n    tag_72:\n        /* \"#utility.yul\":44:51   */\n      0x00\n        /* \"#utility.yul\":84:126   */\n      0xffffffffffffffffffffffffffffffffffffffff\n        /* \"#utility.yul\":77:82   */\n      dup3\n        /* \"#utility.yul\":73:127   */\n      and\n        /* \"#utility.yul\":62:127   */\n      swap1\n      pop\n        /* \"#utility.yul\":7:133   */\n      swap2\n      swap1\n      pop\n      jump\t// out\n        /* \"#utility.yul\":139:199   */\n    tag_73:\n        /* \"#utility.yul\":167:170   */\n      0x00\n        /* \"#utility.yul\":188:193   */\n      dup2\n        /* \"#utility.yul\":181:193   */\n      swap1\n      pop\n        /* \"#utility.yul\":139:199   */\n      swap2\n      swap1\n      pop\n      jump\t// out\n        /* \"#utility.yul\":205:347   */\n    tag_74:\n        /* \"#utility.yul\":255:264   */\n      0x00\n        /* \"#utility.yul\":288:341   */\n      tag_114\n        /* \"#utility.yul\":306:340   */\n      tag_115\n        /* \"#utility.yul\":315:339   */\n      tag_116\n        /* \"#utility.yul\":333:338   */\n      dup5\n        /* \"#utility.yul\":315:339   */\n      tag_72\n      jump\t// in\n    tag_116:\n        /* \"#utility.yul\":306:340   */\n      tag_73\n      jump\t// in\n    tag_115:\n        /* \"#utility.yul\":288:341   */\n      tag_72\n      jump\t// in\n    tag_114:\n        /* \"#utility.yul\":275:341   */\n      swap1\n      pop\n        /* \"#utility.yul\":205:347   */\n      swap2\n      swap1\n      pop\n      jump\t// out\n        /* \"#utility.yul\":353:479   */\n    tag_75:\n        /* \"#utility.yul\":403:412   */\n      0x00\n        /* \"#utility.yul\":436:473   */\n      tag_118\n        /* \"#utility.yul\":467:472   */\n      dup3\n        /* \"#utility.yul\":436:473   */\n      tag_74\n      jump\t// in\n    tag_118:\n        /* \"#utility.yul\":423:473   */\n      swap1\n      pop\n        /* \"#utility.yul\":353:479   */\n      swap2\n      swap1\n      pop\n      jump\t// out\n        /* \"#utility.yul\":485:628   */\n    tag_76:\n        /* \"#utility.yul\":552:561   */\n      0x00\n        /* \"#utility.yul\":585:622   */\n      tag_120\n        /* \"#utility.yul\":616:621   */\n      dup3\n        /* \"#utility.yul\":585:622   */\n      tag_75\n      jump\t// in\n    tag_120:\n        /* \"#utility.yul\":572:622   */\n      swap1\n      pop\n        /* \"#utility.yul\":485:628   */\n      swap2\n      swap1\n      pop\n      jump\t// out\n        /* \"#utility.yul\":634:799   */\n    tag_77:\n        /* \"#utility.yul\":738:792   */\n      tag_122\n        /* \"#utility.yul\":786:791   */\n      dup2\n        /* \"#utility.yul\":738:792   */\n      tag_76\n      jump\t// in\n    tag_122:\n        /* \"#utility.yul\":733:736   */\n      dup3\n        /* \"#utility.yul\":726:793   */\n      mstore\n        /* \"#utility.yul\":634:799   */\n      pop\n      pop\n      jump\t// out\n        /* \"#utility.yul\":805:1061   */\n    tag_14:\n        /* \"#utility.yul\":915:919   */\n      0x00\n        /* \"#utility.yul\":953:955   */\n      0x20\n        /* \"#utility.yul\":942:951   */\n      dup3\n        /* \"#utility.yul\":938:956   */\n      add\n        /* \"#utility.yul\":930:956   */\n      swap1\n      pop\n        /* \"#utility.yul\":966:1054   */\n      tag_124\n        /* \"#utility.yul\":1051:1052   */\n      0x00\n        /* \"#utility.yul\":1040:1049   */\n      dup4\n        /* \"#utility.yul\":1036:1053   */\n      add\n        /* \"#utility.yul\":1027:1033   */\n      dup5\n        /* \"#utility.yul\":966:1054   */\n      tag_77\n      jump\t// in\n    tag_124:\n        /* \"#utility.yul\":805:1061   */\n      swap3\n      swap2\n      pop\n      pop\n      jump\t// out\n        /* \"#utility.yul\":1148:1265   */\n    tag_79:\n        /* \"#utility.yul\":1257:1258   */\n      0x00\n        /* \"#utility.yul\":1254:1255   */\n      0x00\n        /* \"#utility.yul\":1247:1259   */\n      revert\n        /* \"#utility.yul\":1271:1388   */\n    tag_80:\n        /* \"#utility.yul\":1380:1381   */\n      0x00\n        /* \"#utility.yul\":1377:1378   */\n      0x00\n        /* \"#utility.yul\":1370:1382   */\n      revert\n        /* \"#utility.yul\":1394:1495   */\n    tag_81:\n        /* \"#utility.yul\":1430:1437   */\n      0x00\n        /* \"#utility.yul\":1470:1488   */\n      0xffffffffffffffff\n        /* \"#utility.yul\":1463:1468   */\n      dup3\n        /* \"#utility.yul\":1459:1489   */\n      and\n        /* \"#utility.yul\":1448:1489   */\n      swap1\n      pop\n        /* \"#utility.yul\":1394:1495   */\n      swap2\n      swap1\n      pop\n      jump\t// out\n        /* \"#utility.yul\":1501:1621   */\n    tag_82:\n        /* \"#utility.yul\":1573:1596   */\n      tag_130\n        /* \"#utility.yul\":1590:1595   */\n      dup2\n        /* \"#utility.yul\":1573:1596   */\n      tag_81\n      jump\t// in\n    tag_130:\n        /* \"#utility.yul\":1566:1571   */\n      dup2\n        /* \"#utility.yul\":1563:1597   */\n      eq\n        /* \"#utility.yul\":1553:1615   */\n      tag_131\n      jumpi\n        /* \"#utility.yul\":1611:1612   */\n      0x00\n        /* \"#utility.yul\":1608:1609   */\n      0x00\n        /* \"#utility.yul\":1601:1613   */\n      revert\n        /* \"#utility.yul\":1553:1615   */\n    tag_131:\n        /* \"#utility.yul\":1501:1621   */\n      pop\n      jump\t// out\n        /* \"#utility.yul\":1627:1764   */\n    tag_83:\n        /* \"#utility.yul\":1672:1677   */\n      0x00\n        /* \"#utility.yul\":1710:1716   */\n      dup2\n        /* \"#utility.yul\":1697:1717   */\n      calldataload\n        /* \"#utility.yul\":1688:1717   */\n      swap1\n      pop\n        /* \"#utility.yul\":1726:1758   */\n      tag_133\n        /* \"#utility.yul\":1752:1757   */\n      dup2\n        /* \"#utility.yul\":1726:1758   */\n      tag_82\n      jump\t// in\n    tag_133:\n        /* \"#utility.yul\":1627:1764   */\n      swap3\n      swap2\n      pop\n      pop\n      jump\t// out\n        /* \"#utility.yul\":1770:1866   */\n    tag_84:\n        /* \"#utility.yul\":1807:1814   */\n      0x00\n        /* \"#utility.yul\":1836:1860   */\n      tag_135\n        /* \"#utility.yul\":1854:1859   */\n      dup3\n        /* \"#utility.yul\":1836:1860   */\n      tag_72\n      jump\t// in\n    tag_135:\n        /* \"#utility.yul\":1825:1860   */\n      swap1\n      pop\n        /* \"#utility.yul\":1770:1866   */\n      swap2\n      swap1\n      pop\n      jump\t// out\n        /* \"#utility.yul\":1872:1994   */\n    tag_85:\n        /* \"#utility.yul\":1945:1969   */\n      tag_137\n        /* \"#utility.yul\":1963:1968   */\n      dup2\n        /* \"#utility.yul\":1945:1969   */\n      tag_84\n      jump\t// in\n    tag_137:\n        /* \"#utility.yul\":1938:1943   */\n      dup2\n        /* \"#utility.yul\":1935:1970   */\n      eq\n        /* \"#utility.yul\":1925:1988   */\n      tag_138\n      jumpi\n        /* \"#utility.yul\":1984:1985   */\n      0x00\n        /* \"#utility.yul\":1981:1982   */\n      0x00\n        /* \"#utility.yul\":1974:1986   */\n      revert\n        /* \"#utility.yul\":1925:1988   */\n    tag_138:\n        /* \"#utility.yul\":1872:1994   */\n      pop\n      jump\t// out\n        /* \"#utility.yul\":2000:2139   */\n    tag_86:\n        /* \"#utility.yul\":2046:2051   */\n      0x00\n        /* \"#utility.yul\":2084:2090   */\n      dup2\n        /* \"#utility.yul\":2071:2091   */\n      calldataload\n        /* \"#utility.yul\":2062:2091   */\n      swap1\n      pop\n        /* \"#utility.yul\":2100:2133   */\n      tag_140\n        /* \"#utility.yul\":2127:2132   */\n      dup2\n        /* \"#utility.yul\":2100:2133   */\n      tag_85\n      jump\t// in\n    tag_140:\n        /* \"#utility.yul\":2000:2139   */\n      swap3\n      swap2\n      pop\n      pop\n      jump\t// out\n        /* \"#utility.yul\":2145:2262   */\n    tag_87:\n        /* \"#utility.yul\":2254:2255   */\n      0x00\n        /* \"#utility.yul\":2251:2252   */\n      0x00\n        /* \"#utility.yul\":2244:2256   */\n      revert\n        /* \"#utility.yul\":2268:2385   */\n    tag_88:\n        /* \"#utility.yul\":2377:2378   */\n      0x00\n        /* \"#utility.yul\":2374:2375   */\n      0x00\n        /* \"#utility.yul\":2367:2379   */\n      revert\n        /* \"#utility.yul\":2391:2508   */\n    tag_89:\n        /* \"#utility.yul\":2500:2501   */\n      0x00\n        /* \"#utility.yul\":2497:2498   */\n      0x00\n        /* \"#utility.yul\":2490:2502   */\n      revert\n        /* \"#utility.yul\":2527:3079   */\n    tag_90:\n        /* \"#utility.yul\":2584:2592   */\n      0x00\n        /* \"#utility.yul\":2594:2600   */\n      0x00\n        /* \"#utility.yul\":2644:2647   */\n      dup4\n        /* \"#utility.yul\":2637:2641   */\n      0x1f\n        /* \"#utility.yul\":2629:2635   */\n      dup5\n        /* \"#utility.yul\":2625:2642   */\n      add\n        /* \"#utility.yul\":2621:2648   */\n      slt\n        /* \"#utility.yul\":2611:2733   */\n      tag_145\n      jumpi\n        /* \"#utility.yul\":2652:2731   */\n      tag_146\n      tag_87\n      jump\t// in\n    tag_146:\n        /* \"#utility.yul\":2611:2733   */\n    tag_145:\n        /* \"#utility.yul\":2765:2771   */\n      dup3\n        /* \"#utility.yul\":2752:2772   */\n      calldataload\n        /* \"#utility.yul\":2742:2772   */\n      swap1\n      pop\n        /* \"#utility.yul\":2795:2813   */\n      0xffffffffffffffff\n        /* \"#utility.yul\":2787:2793   */\n      dup2\n        /* \"#utility.yul\":2784:2814   */\n      gt\n        /* \"#utility.yul\":2781:2898   */\n      iszero\n      tag_147\n      jumpi\n        /* \"#utility.yul\":2817:2896   */\n      tag_148\n      tag_88\n      jump\t// in\n    tag_148:\n        /* \"#utility.yul\":2781:2898   */\n    tag_147:\n        /* \"#utility.yul\":2931:2935   */\n      0x20\n        /* \"#utility.yul\":2923:2929   */\n      dup4\n        /* \"#utility.yul\":2919:2936   */\n      add\n        /* \"#utility.yul\":2907:2936   */\n      swap2\n      pop\n        /* \"#utility.yul\":2985:2988   */\n      dup4\n        /* \"#utility.yul\":2977:2981   */\n      0x01\n        /* \"#utility.yul\":2969:2975   */\n      dup3\n        /* \"#utility.yul\":2965:2982   */\n      mul\n        /* \"#utility.yul\":2955:2963   */\n      dup4\n        /* \"#utility.yul\":2951:2983   */\n      add\n        /* \"#utility.yul\":2948:2989   */\n      gt\n        /* \"#utility.yul\":2945:3073   */\n      iszero\n      tag_149\n      jumpi\n        /* \"#utility.yul\":2992:3071   */\n      tag_150\n      tag_89\n      jump\t// in\n    tag_150:\n        /* \"#utility.yul\":2945:3073   */\n    tag_149:\n        /* \"#utility.yul\":2527:3079   */\n      swap3\n      pop\n      swap3\n      swap1\n      pop\n      jump\t// out\n        /* \"#utility.yul\":3085:3900   */\n    tag_18:\n        /* \"#utility.yul\":3172:3178   */\n      0x00\n        /* \"#utility.yul\":3180:3186   */\n      0x00\n        /* \"#utility.yul\":3188:3194   */\n      0x00\n        /* \"#utility.yul\":3196:3202   */\n      0x00\n        /* \"#utility.yul\":3245:3247   */\n      0x60\n        /* \"#utility.yul\":3233:3242   */\n      dup6\n        /* \"#utility.yul\":3224:3231   */\n      dup8\n        /* \"#utility.yul\":3220:3243   */\n      sub\n        /* \"#utility.yul\":3216:3248   */\n      slt\n        /* \"#utility.yul\":3213:3332   */\n      iszero\n      tag_152\n      jumpi\n        /* \"#utility.yul\":3251:3330   */\n      tag_153\n      tag_79\n      jump\t// in\n    tag_153:\n        /* \"#utility.yul\":3213:3332   */\n    tag_152:\n        /* \"#utility.yul\":3371:3372   */\n      0x00\n        /* \"#utility.yul\":3396:3448   */\n      tag_154\n        /* \"#utility.yul\":3440:3447   */\n      dup8\n        /* \"#utility.yul\":3431:3437   */\n      dup3\n        /* \"#utility.yul\":3420:3429   */\n      dup9\n        /* \"#utility.yul\":3416:3438   */\n      add\n        /* \"#utility.yul\":3396:3448   */\n      tag_83\n      jump\t// in\n    tag_154:\n        /* \"#utility.yul\":3386:3448   */\n      swap5\n      pop\n        /* \"#utility.yul\":3342:3458   */\n      pop\n        /* \"#utility.yul\":3497:3499   */\n      0x20\n        /* \"#utility.yul\":3523:3576   */\n      tag_155\n        /* \"#utility.yul\":3568:3575   */\n      dup8\n        /* \"#utility.yul\":3559:3565   */\n      dup3\n        /* \"#utility.yul\":3548:3557   */\n      dup9\n        /* \"#utility.yul\":3544:3566   */\n      add\n        /* \"#utility.yul\":3523:3576   */\n      tag_86\n      jump\t// in\n    tag_155:\n        /* \"#utility.yul\":3513:3576   */\n      swap4\n      pop\n        /* \"#utility.yul\":3468:3586   */\n      pop\n        /* \"#utility.yul\":3653:3655   */\n      0x40\n        /* \"#utility.yul\":3642:3651   */\n      dup6\n        /* \"#utility.yul\":3638:3656   */\n      add\n        /* \"#utility.yul\":3625:3657   */\n      calldataload\n        /* \"#utility.yul\":3684:3702   */\n      0xffffffffffffffff\n        /* \"#utility.yul\":3676:3682   */\n      dup2\n        /* \"#utility.yul\":3673:3703   */\n      gt\n        /* \"#utility.yul\":3670:3787   */\n      iszero\n      tag_156\n      jumpi\n        /* \"#utility.yul\":3706:3785   */\n      tag_157\n      tag_80\n      jump\t// in\n    tag_157:\n        /* \"#utility.yul\":3670:3787   */\n    tag_156:\n        /* \"#utility.yul\":3819:3883   */\n      tag_158\n        /* \"#utility.yul\":3875:3882   */\n      dup8\n        /* \"#utility.yul\":3866:3872   */\n      dup3\n        /* \"#utility.yul\":3855:3864   */\n      dup9\n        /* \"#utility.yul\":3851:3873   */\n      add\n        /* \"#utility.yul\":3819:3883   */\n      tag_90\n      jump\t// in\n    tag_158:\n        /* \"#utility.yul\":3801:3883   */\n      swap3\n      pop\n      swap3\n      pop\n        /* \"#utility.yul\":3596:3893   */\n      pop\n        /* \"#utility.yul\":3085:3900   */\n      swap3\n      swap6\n      swap2\n      swap5\n      pop\n      swap3\n      pop\n      jump\t// out\n        /* \"#utility.yul\":3906:4024   */\n    tag_91:\n        /* \"#utility.yul\":3993:4017   */\n      tag_160\n        /* \"#utility.yul\":4011:4016   */\n      dup2\n        /* \"#utility.yul\":3993:4017   */\n      tag_84\n      jump\t// in\n    tag_160:\n        /* \"#utility.yul\":3988:3991   */\n      dup3\n        /* \"#utility.yul\":3981:4018   */\n      mstore\n        /* \"#utility.yul\":3906:4024   */\n      pop\n      pop\n      jump\t// out\n        /* \"#utility.yul\":4030:4252   */\n    tag_24:\n        /* \"#utility.yul\":4123:4127   */\n      0x00\n        /* \"#utility.yul\":4161:4163   */\n      0x20\n        /* \"#utility.yul\":4150:4159   */\n      dup3\n        /* \"#utility.yul\":4146:4164   */\n      add\n        /* \"#utility.yul\":4138:4164   */\n      swap1\n      pop\n        /* \"#utility.yul\":4174:4245   */\n      tag_162\n        /* \"#utility.yul\":4242:4243   */\n      0x00\n        /* \"#utility.yul\":4231:4240   */\n      dup4\n        /* \"#utility.yul\":4227:4244   */\n      add\n        /* \"#utility.yul\":4218:4224   */\n      dup5\n        /* \"#utility.yul\":4174:4245   */\n      tag_91\n      jump\t// in\n    tag_162:\n        /* \"#utility.yul\":4030:4252   */\n      swap3\n      swap2\n      pop\n      pop\n      jump\t// out\n        /* \"#utility.yul\":4258:4587   */\n    tag_27:\n        /* \"#utility.yul\":4317:4323   */\n      0x00\n        /* \"#utility.yul\":4366:4368   */\n      0x20\n        /* \"#utility.yul\":4354:4363   */\n      dup3\n        /* \"#utility.yul\":4345:4352   */\n      dup5\n        /* \"#utility.yul\":4341:4364   */\n      sub\n        /* \"#utility.yul\":4337:4369   */\n      slt\n        /* \"#utility.yul\":4334:4453   */\n      iszero\n      tag_164\n      jumpi\n        /* \"#utility.yul\":4372:4451   */\n      tag_165\n      tag_79\n      jump\t// in\n    tag_165:\n        /* \"#utility.yul\":4334:4453   */\n    tag_164:\n        /* \"#utility.yul\":4492:4493   */\n      0x00\n        /* \"#utility.yul\":4517:4570   */\n      tag_166\n        /* \"#utility.yul\":4562:4569   */\n      dup5\n        /* \"#utility.yul\":4553:4559   */\n      dup3\n        /* \"#utility.yul\":4542:4551   */\n      dup6\n        /* \"#utility.yul\":4538:4560   */\n      add\n        /* \"#utility.yul\":4517:4570   */\n      tag_86\n      jump\t// in\n    tag_166:\n        /* \"#utility.yul\":4507:4570   */\n      swap2\n      pop\n        /* \"#utility.yul\":4463:4580   */\n      pop\n        /* \"#utility.yul\":4258:4587   */\n      swap3\n      swap2\n      pop\n      pop\n      jump\t// out\n        /* \"#utility.yul\":4593:4708   */\n    tag_92:\n        /* \"#utility.yul\":4678:4701   */\n      tag_168\n        /* \"#utility.yul\":4695:4700   */\n      dup2\n        /* \"#utility.yul\":4678:4701   */\n      tag_81\n      jump\t// in\n    tag_168:\n        /* \"#utility.yul\":4673:4676   */\n      dup3\n        /* \"#utility.yul\":4666:4702   */\n      mstore\n        /* \"#utility.yul\":4593:4708   */\n      pop\n      pop\n      jump\t// out\n        /* \"#utility.yul\":4714:4932   */\n    tag_30:\n        /* \"#utility.yul\":4805:4809   */\n      0x00\n        /* \"#utility.yul\":4843:4845   */\n      0x20\n        /* \"#utility.yul\":4832:4841   */\n      dup3\n        /* \"#utility.yul\":4828:4846   */\n      add\n        /* \"#utility.yul\":4820:4846   */\n      swap1\n      pop\n        /* \"#utility.yul\":4856:4925   */\n      tag_170\n        /* \"#utility.yul\":4922:4923   */\n      0x00\n        /* \"#utility.yul\":4911:4920   */\n      dup4\n        /* \"#utility.yul\":4907:4924   */\n      add\n        /* \"#utility.yul\":4898:4904   */\n      dup5\n        /* \"#utility.yul\":4856:4925   */\n      tag_92\n      jump\t// in\n    tag_170:\n        /* \"#utility.yul\":4714:4932   */\n      swap3\n      swap2\n      pop\n      pop\n      jump\t// out\n        /* \"#utility.yul\":4938:5265   */\n    tag_34:\n        /* \"#utility.yul\":4996:5002   */\n      0x00\n        /* \"#utility.yul\":5045:5047   */\n      0x20\n        /* \"#utility.yul\":5033:5042   */\n      dup3\n        /* \"#utility.yul\":5024:5031   */\n      dup5\n        /* \"#utility.yul\":5020:5043   */\n      sub\n        /* \"#utility.yul\":5016:5048   */\n      slt\n        /* \"#utility.yul\":5013:5132   */\n      iszero\n      tag_172\n      jumpi\n        /* \"#utility.yul\":5051:5130   */\n      tag_173\n      tag_79\n      jump\t// in\n    tag_173:\n        /* \"#utility.yul\":5013:5132   */\n    tag_172:\n        /* \"#utility.yul\":5171:5172   */\n      0x00\n        /* \"#utility.yul\":5196:5248   */\n      tag_174\n        /* \"#utility.yul\":5240:5247   */\n      dup5\n        /* \"#utility.yul\":5231:5237   */\n      dup3\n        /* \"#utility.yul\":5220:5229   */\n      dup6\n        /* \"#utility.yul\":5216:5238   */\n      add\n        /* \"#utility.yul\":5196:5248   */\n      tag_83\n      jump\t// in\n    tag_174:\n        /* \"#utility.yul\":5186:5248   */\n      swap2\n      pop\n        /* \"#utility.yul\":5142:5258   */\n      pop\n        /* \"#utility.yul\":4938:5265   */\n      swap3\n      swap2\n      pop\n      pop\n      jump\t// out\n        /* \"#utility.yul\":5271:5440   */\n    tag_93:\n        /* \"#utility.yul\":5355:5366   */\n      0x00\n        /* \"#utility.yul\":5389:5395   */\n      dup3\n        /* \"#utility.yul\":5384:5387   */\n      dup3\n        /* \"#utility.yul\":5377:5396   */\n      mstore\n        /* \"#utility.yul\":5429:5433   */\n      0x20\n        /* \"#utility.yul\":5424:5427   */\n      dup3\n        /* \"#utility.yul\":5420:5434   */\n      add\n        /* \"#utility.yul\":5405:5434   */\n      swap1\n      pop\n        /* \"#utility.yul\":5271:5440   */\n      swap3\n      swap2\n      pop\n      pop\n      jump\t// out\n        /* \"#utility.yul\":5446:5625   */\n    tag_94:\n        /* \"#utility.yul\":5586:5617   */\n      0x4f6e6c7920656e74726f707920636f6e747261637420616c6c6f776564000000\n        /* \"#utility.yul\":5582:5583   */\n      0x00\n        /* \"#utility.yul\":5574:5580   */\n      dup3\n        /* \"#utility.yul\":5570:5584   */\n      add\n        /* \"#utility.yul\":5563:5618   */\n      mstore\n        /* \"#utility.yul\":5446:5625   */\n      pop\n      jump\t// out\n        /* \"#utility.yul\":5631:5997   */\n    tag_95:\n        /* \"#utility.yul\":5773:5776   */\n      0x00\n        /* \"#utility.yul\":5794:5861   */\n      tag_178\n        /* \"#utility.yul\":5858:5860   */\n      0x1d\n        /* \"#utility.yul\":5853:5856   */\n      dup4\n        /* \"#utility.yul\":5794:5861   */\n      tag_93\n      jump\t// in\n    tag_178:\n        /* \"#utility.yul\":5787:5861   */\n      swap2\n      pop\n        /* \"#utility.yul\":5870:5963   */\n      tag_179\n        /* \"#utility.yul\":5959:5962   */\n      dup3\n        /* \"#utility.yul\":5870:5963   */\n      tag_94\n      jump\t// in\n    tag_179:\n        /* \"#utility.yul\":5988:5990   */\n      0x20\n        /* \"#utility.yul\":5983:5986   */\n      dup3\n        /* \"#utility.yul\":5979:5991   */\n      add\n        /* \"#utility.yul\":5972:5991   */\n      swap1\n      pop\n        /* \"#utility.yul\":5631:5997   */\n      swap2\n      swap1\n      pop\n      jump\t// out\n        /* \"#utility.yul\":6003:6422   */\n    tag_42:\n        /* \"#utility.yul\":6169:6173   */\n      0x00\n        /* \"#utility.yul\":6207:6209   */\n      0x20\n        /* \"#utility.yul\":6196:6205   */\n      dup3\n        /* \"#utility.yul\":6192:6210   */\n      add\n        /* \"#utility.yul\":6184:6210   */\n      swap1\n      pop\n        /* \"#utility.yul\":6256:6265   */\n      dup2\n        /* \"#utility.yul\":6250:6254   */\n      dup2\n        /* \"#utility.yul\":6246:6266   */\n      sub\n        /* \"#utility.yul\":6242:6243   */\n      0x00\n        /* \"#utility.yul\":6231:6240   */\n      dup4\n        /* \"#utility.yul\":6227:6244   */\n      add\n        /* \"#utility.yul\":6220:6267   */\n      mstore\n        /* \"#utility.yul\":6284:6415   */\n      tag_181\n        /* \"#utility.yul\":6410:6414   */\n      dup2\n        /* \"#utility.yul\":6284:6415   */\n      tag_95\n      jump\t// in\n    tag_181:\n        /* \"#utility.yul\":6276:6415   */\n      swap1\n      pop\n        /* \"#utility.yul\":6003:6422   */\n      swap2\n      swap1\n      pop\n      jump\t// out\n        /* \"#utility.yul\":6428:6590   */\n    tag_96:\n        /* \"#utility.yul\":6568:6582   */\n      0x4f4e4c592052454c415945520000000000000000000000000000000000000000\n        /* \"#utility.yul\":6564:6565   */\n      0x00\n        /* \"#utility.yul\":6556:6562   */\n      dup3\n        /* \"#utility.yul\":6552:6566   */\n      add\n        /* \"#utility.yul\":6545:6583   */\n      mstore\n        /* \"#utility.yul\":6428:6590   */\n      pop\n      jump\t// out\n        /* \"#utility.yul\":6596:6962   */\n    tag_97:\n        /* \"#utility.yul\":6738:6741   */\n      0x00\n        /* \"#utility.yul\":6759:6826   */\n      tag_184\n        /* \"#utility.yul\":6823:6825   */\n      0x0c\n        /* \"#utility.yul\":6818:6821   */\n      dup4\n        /* \"#utility.yul\":6759:6826   */\n      tag_93\n      jump\t// in\n    tag_184:\n        /* \"#utility.yul\":6752:6826   */\n      swap2\n      pop\n        /* \"#utility.yul\":6835:6928   */\n      tag_185\n        /* \"#utility.yul\":6924:6927   */\n      dup3\n        /* \"#utility.yul\":6835:6928   */\n      tag_96\n      jump\t// in\n    tag_185:\n        /* \"#utility.yul\":6953:6955   */\n      0x20\n        /* \"#utility.yul\":6948:6951   */\n      dup3\n        /* \"#utility.yul\":6944:6956   */\n      add\n        /* \"#utility.yul\":6937:6956   */\n      swap1\n      pop\n        /* \"#utility.yul\":6596:6962   */\n      swap2\n      swap1\n      pop\n      jump\t// out\n        /* \"#utility.yul\":6968:7387   */\n    tag_48:\n        /* \"#utility.yul\":7134:7138   */\n      0x00\n        /* \"#utility.yul\":7172:7174   */\n      0x20\n        /* \"#utility.yul\":7161:7170   */\n      dup3\n        /* \"#utility.yul\":7157:7175   */\n      add\n        /* \"#utility.yul\":7149:7175   */\n      swap1\n      pop\n        /* \"#utility.yul\":7221:7230   */\n      dup2\n        /* \"#utility.yul\":7215:7219   */\n      dup2\n        /* \"#utility.yul\":7211:7231   */\n      sub\n        /* \"#utility.yul\":7207:7208   */\n      0x00\n        /* \"#utility.yul\":7196:7205   */\n      dup4\n        /* \"#utility.yul\":7192:7209   */\n      add\n        /* \"#utility.yul\":7185:7232   */\n      mstore\n        /* \"#utility.yul\":7249:7380   */\n      tag_187\n        /* \"#utility.yul\":7375:7379   */\n      dup2\n        /* \"#utility.yul\":7249:7380   */\n      tag_97\n      jump\t// in\n    tag_187:\n        /* \"#utility.yul\":7241:7380   */\n      swap1\n      pop\n        /* \"#utility.yul\":6968:7387   */\n      swap2\n      swap1\n      pop\n      jump\t// out\n        /* \"#utility.yul\":7393:7549   */\n    tag_98:\n        /* \"#utility.yul\":7533:7541   */\n      0x757365723d300000000000000000000000000000000000000000000000000000\n        /* \"#utility.yul\":7529:7530   */\n      0x00\n        /* \"#utility.yul\":7521:7527   */\n      dup3\n        /* \"#utility.yul\":7517:7531   */\n      add\n        /* \"#utility.yul\":7510:7542   */\n      mstore\n        /* \"#utility.yul\":7393:7549   */\n      pop\n      jump\t// out\n        /* \"#utility.yul\":7555:7920   */\n    tag_99:\n        /* \"#utility.yul\":7697:7700   */\n      0x00\n        /* \"#utility.yul\":7718:7784   */\n      tag_190\n        /* \"#utility.yul\":7782:7783   */\n      0x06\n        /* \"#utility.yul\":7777:7780   */\n      dup4\n        /* \"#utility.yul\":7718:7784   */\n      tag_93\n      jump\t// in\n    tag_190:\n        /* \"#utility.yul\":7711:7784   */\n      swap2\n      pop\n        /* \"#utility.yul\":7793:7886   */\n      tag_191\n        /* \"#utility.yul\":7882:7885   */\n      dup3\n        /* \"#utility.yul\":7793:7886   */\n      tag_98\n      jump\t// in\n    tag_191:\n        /* \"#utility.yul\":7911:7913   */\n      0x20\n        /* \"#utility.yul\":7906:7909   */\n      dup3\n        /* \"#utility.yul\":7902:7914   */\n      add\n        /* \"#utility.yul\":7895:7914   */\n      swap1\n      pop\n        /* \"#utility.yul\":7555:7920   */\n      swap2\n      swap1\n      pop\n      jump\t// out\n        /* \"#utility.yul\":7926:8345   */\n    tag_51:\n        /* \"#utility.yul\":8092:8096   */\n      0x00\n        /* \"#utility.yul\":8130:8132   */\n      0x20\n        /* \"#utility.yul\":8119:8128   */\n      dup3\n        /* \"#utility.yul\":8115:8133   */\n      add\n        /* \"#utility.yul\":8107:8133   */\n      swap1\n      pop\n        /* \"#utility.yul\":8179:8188   */\n      dup2\n        /* \"#utility.yul\":8173:8177   */\n      dup2\n        /* \"#utility.yul\":8169:8189   */\n      sub\n        /* \"#utility.yul\":8165:8166   */\n      0x00\n        /* \"#utility.yul\":8154:8163   */\n      dup4\n        /* \"#utility.yul\":8150:8167   */\n      add\n        /* \"#utility.yul\":8143:8190   */\n      mstore\n        /* \"#utility.yul\":8207:8338   */\n      tag_193\n        /* \"#utility.yul\":8333:8337   */\n      dup2\n        /* \"#utility.yul\":8207:8338   */\n      tag_99\n      jump\t// in\n    tag_193:\n        /* \"#utility.yul\":8199:8338   */\n      swap1\n      pop\n        /* \"#utility.yul\":7926:8345   */\n      swap2\n      swap1\n      pop\n      jump\t// out\n        /* \"#utility.yul\":8351:8469   */\n    tag_100:\n        /* \"#utility.yul\":8388:8395   */\n      0x00\n        /* \"#utility.yul\":8428:8462   */\n      0xffffffffffffffffffffffffffffffff\n        /* \"#utility.yul\":8421:8426   */\n      dup3\n        /* \"#utility.yul\":8417:8463   */\n      and\n        /* \"#utility.yul\":8406:8463   */\n      swap1\n      pop\n        /* \"#utility.yul\":8351:8469   */\n      swap2\n      swap1\n      pop\n      jump\t// out\n        /* \"#utility.yul\":8475:8597   */\n    tag_101:\n        /* \"#utility.yul\":8548:8572   */\n      tag_196\n        /* \"#utility.yul\":8566:8571   */\n      dup2\n        /* \"#utility.yul\":8548:8572   */\n      tag_100\n      jump\t// in\n    tag_196:\n        /* \"#utility.yul\":8541:8546   */\n      dup2\n        /* \"#utility.yul\":8538:8573   */\n      eq\n        /* \"#utility.yul\":8528:8591   */\n      tag_197\n      jumpi\n        /* \"#utility.yul\":8587:8588   */\n      0x00\n        /* \"#utility.yul\":8584:8585   */\n      0x00\n        /* \"#utility.yul\":8577:8589   */\n      revert\n        /* \"#utility.yul\":8528:8591   */\n    tag_197:\n        /* \"#utility.yul\":8475:8597   */\n      pop\n      jump\t// out\n        /* \"#utility.yul\":8603:8746   */\n    tag_102:\n        /* \"#utility.yul\":8660:8665   */\n      0x00\n        /* \"#utility.yul\":8691:8697   */\n      dup2\n        /* \"#utility.yul\":8685:8698   */\n      mload\n        /* \"#utility.yul\":8676:8698   */\n      swap1\n      pop\n        /* \"#utility.yul\":8707:8740   */\n      tag_199\n        /* \"#utility.yul\":8734:8739   */\n      dup2\n        /* \"#utility.yul\":8707:8740   */\n      tag_101\n      jump\t// in\n    tag_199:\n        /* \"#utility.yul\":8603:8746   */\n      swap3\n      swap2\n      pop\n      pop\n      jump\t// out\n        /* \"#utility.yul\":8752:9103   */\n    tag_55:\n        /* \"#utility.yul\":8822:8828   */\n      0x00\n        /* \"#utility.yul\":8871:8873   */\n      0x20\n        /* \"#utility.yul\":8859:8868   */\n      dup3\n        /* \"#utility.yul\":8850:8857   */\n      dup5\n        /* \"#utility.yul\":8846:8869   */\n      sub\n        /* \"#utility.yul\":8842:8874   */\n      slt\n        /* \"#utility.yul\":8839:8958   */\n      iszero\n      tag_201\n      jumpi\n        /* \"#utility.yul\":8877:8956   */\n      tag_202\n      tag_79\n      jump\t// in\n    tag_202:\n        /* \"#utility.yul\":8839:8958   */\n    tag_201:\n        /* \"#utility.yul\":8997:8998   */\n      0x00\n        /* \"#utility.yul\":9022:9086   */\n      tag_203\n        /* \"#utility.yul\":9078:9085   */\n      dup5\n        /* \"#utility.yul\":9069:9075   */\n      dup3\n        /* \"#utility.yul\":9058:9067   */\n      dup6\n        /* \"#utility.yul\":9054:9076   */\n      add\n        /* \"#utility.yul\":9022:9086   */\n      tag_102\n      jump\t// in\n    tag_203:\n        /* \"#utility.yul\":9012:9086   */\n      swap2\n      pop\n        /* \"#utility.yul\":8968:9096   */\n      pop\n        /* \"#utility.yul\":8752:9103   */\n      swap3\n      swap2\n      pop\n      pop\n      jump\t// out\n        /* \"#utility.yul\":9109:9270   */\n    tag_103:\n        /* \"#utility.yul\":9249:9262   */\n      0x46454520544f4f204c4f57000000000000000000000000000000000000000000\n        /* \"#utility.yul\":9245:9246   */\n      0x00\n        /* \"#utility.yul\":9237:9243   */\n      dup3\n        /* \"#utility.yul\":9233:9247   */\n      add\n        /* \"#utility.yul\":9226:9263   */\n      mstore\n        /* \"#utility.yul\":9109:9270   */\n      pop\n      jump\t// out\n        /* \"#utility.yul\":9276:9642   */\n    tag_104:\n        /* \"#utility.yul\":9418:9421   */\n      0x00\n        /* \"#utility.yul\":9439:9506   */\n      tag_206\n        /* \"#utility.yul\":9503:9505   */\n      0x0b\n        /* \"#utility.yul\":9498:9501   */\n      dup4\n        /* \"#utility.yul\":9439:9506   */\n      tag_93\n      jump\t// in\n    tag_206:\n        /* \"#utility.yul\":9432:9506   */\n      swap2\n      pop\n        /* \"#utility.yul\":9515:9608   */\n      tag_207\n        /* \"#utility.yul\":9604:9607   */\n      dup3\n        /* \"#utility.yul\":9515:9608   */\n      tag_103\n      jump\t// in\n    tag_207:\n        /* \"#utility.yul\":9633:9635   */\n      0x20\n        /* \"#utility.yul\":9628:9631   */\n      dup3\n        /* \"#utility.yul\":9624:9636   */\n      add\n        /* \"#utility.yul\":9617:9636   */\n      swap1\n      pop\n        /* \"#utility.yul\":9276:9642   */\n      swap2\n      swap1\n      pop\n      jump\t// out\n        /* \"#utility.yul\":9648:10067   */\n    tag_58:\n        /* \"#utility.yul\":9814:9818   */\n      0x00\n        /* \"#utility.yul\":9852:9854   */\n      0x20\n        /* \"#utility.yul\":9841:9850   */\n      dup3\n        /* \"#utility.yul\":9837:9855   */\n      add\n        /* \"#utility.yul\":9829:9855   */\n      swap1\n      pop\n        /* \"#utility.yul\":9901:9910   */\n      dup2\n        /* \"#utility.yul\":9895:9899   */\n      dup2\n        /* \"#utility.yul\":9891:9911   */\n      sub\n        /* \"#utility.yul\":9887:9888   */\n      0x00\n        /* \"#utility.yul\":9876:9885   */\n      dup4\n        /* \"#utility.yul\":9872:9889   */\n      add\n        /* \"#utility.yul\":9865:9912   */\n      mstore\n        /* \"#utility.yul\":9929:10060   */\n      tag_209\n        /* \"#utility.yul\":10055:10059   */\n      dup2\n        /* \"#utility.yul\":9929:10060   */\n      tag_104\n      jump\t// in\n    tag_209:\n        /* \"#utility.yul\":9921:10060   */\n      swap1\n      pop\n        /* \"#utility.yul\":9648:10067   */\n      swap2\n      swap1\n      pop\n      jump\t// out\n        /* \"#utility.yul\":10073:10214   */\n    tag_105:\n        /* \"#utility.yul\":10129:10134   */\n      0x00\n        /* \"#utility.yul\":10160:10166   */\n      dup2\n        /* \"#utility.yul\":10154:10167   */\n      mload\n        /* \"#utility.yul\":10145:10167   */\n      swap1\n      pop\n        /* \"#utility.yul\":10176:10208   */\n      tag_211\n        /* \"#utility.yul\":10202:10207   */\n      dup2\n        /* \"#utility.yul\":10176:10208   */\n      tag_82\n      jump\t// in\n    tag_211:\n        /* \"#utility.yul\":10073:10214   */\n      swap3\n      swap2\n      pop\n      pop\n      jump\t// out\n        /* \"#utility.yul\":10220:10569   */\n    tag_62:\n        /* \"#utility.yul\":10289:10295   */\n      0x00\n        /* \"#utility.yul\":10338:10340   */\n      0x20\n        /* \"#utility.yul\":10326:10335   */\n      dup3\n        /* \"#utility.yul\":10317:10324   */\n      dup5\n        /* \"#utility.yul\":10313:10336   */\n      sub\n        /* \"#utility.yul\":10309:10341   */\n      slt\n        /* \"#utility.yul\":10306:10425   */\n      iszero\n      tag_213\n      jumpi\n        /* \"#utility.yul\":10344:10423   */\n      tag_214\n      tag_79\n      jump\t// in\n    tag_214:\n        /* \"#utility.yul\":10306:10425   */\n    tag_213:\n        /* \"#utility.yul\":10464:10465   */\n      0x00\n        /* \"#utility.yul\":10489:10552   */\n      tag_215\n        /* \"#utility.yul\":10544:10551   */\n      dup5\n        /* \"#utility.yul\":10535:10541   */\n      dup3\n        /* \"#utility.yul\":10524:10533   */\n      dup6\n        /* \"#utility.yul\":10520:10542   */\n      add\n        /* \"#utility.yul\":10489:10552   */\n      tag_105\n      jump\t// in\n    tag_215:\n        /* \"#utility.yul\":10479:10552   */\n      swap2\n      pop\n        /* \"#utility.yul\":10435:10562   */\n      pop\n        /* \"#utility.yul\":10220:10569   */\n      swap3\n      swap2\n      pop\n      pop\n      jump\t// out\n        /* \"#utility.yul\":10575:10652   */\n    tag_106:\n        /* \"#utility.yul\":10612:10619   */\n      0x00\n        /* \"#utility.yul\":10641:10646   */\n      dup2\n        /* \"#utility.yul\":10630:10646   */\n      swap1\n      pop\n        /* \"#utility.yul\":10575:10652   */\n      swap2\n      swap1\n      pop\n      jump\t// out\n        /* \"#utility.yul\":10658:10838   */\n    tag_107:\n        /* \"#utility.yul\":10706:10783   */\n      0x4e487b7100000000000000000000000000000000000000000000000000000000\n        /* \"#utility.yul\":10703:10704   */\n      0x00\n        /* \"#utility.yul\":10696:10784   */\n      mstore\n        /* \"#utility.yul\":10803:10807   */\n      0x12\n        /* \"#utility.yul\":10800:10801   */\n      0x04\n        /* \"#utility.yul\":10793:10808   */\n      mstore\n        /* \"#utility.yul\":10827:10831   */\n      0x24\n        /* \"#utility.yul\":10824:10825   */\n      0x00\n        /* \"#utility.yul\":10817:10832   */\n      revert\n        /* \"#utility.yul\":10844:11020   */\n    tag_67:\n        /* \"#utility.yul\":10876:10877   */\n      0x00\n        /* \"#utility.yul\":10893:10913   */\n      tag_219\n        /* \"#utility.yul\":10911:10912   */\n      dup3\n        /* \"#utility.yul\":10893:10913   */\n      tag_106\n      jump\t// in\n    tag_219:\n        /* \"#utility.yul\":10888:10913   */\n      swap2\n      pop\n        /* \"#utility.yul\":10927:10947   */\n      tag_220\n        /* \"#utility.yul\":10945:10946   */\n      dup4\n        /* \"#utility.yul\":10927:10947   */\n      tag_106\n      jump\t// in\n    tag_220:\n        /* \"#utility.yul\":10922:10947   */\n      swap3\n      pop\n        /* \"#utility.yul\":10966:10967   */\n      dup3\n        /* \"#utility.yul\":10956:10991   */\n      tag_221\n      jumpi\n        /* \"#utility.yul\":10971:10989   */\n      tag_222\n      tag_107\n      jump\t// in\n    tag_222:\n        /* \"#utility.yul\":10956:10991   */\n    tag_221:\n        /* \"#utility.yul\":11012:11013   */\n      dup3\n        /* \"#utility.yul\":11009:11010   */\n      dup3\n        /* \"#utility.yul\":11005:11014   */\n      mod\n        /* \"#utility.yul\":11000:11014   */\n      swap1\n      pop\n        /* \"#utility.yul\":10844:11020   */\n      swap3\n      swap2\n      pop\n      pop\n      jump\t// out\n        /* \"#utility.yul\":11026:11206   */\n    tag_108:\n        /* \"#utility.yul\":11074:11151   */\n      0x4e487b7100000000000000000000000000000000000000000000000000000000\n        /* \"#utility.yul\":11071:11072   */\n      0x00\n        /* \"#utility.yul\":11064:11152   */\n      mstore\n        /* \"#utility.yul\":11171:11175   */\n      0x11\n        /* \"#utility.yul\":11168:11169   */\n      0x04\n        /* \"#utility.yul\":11161:11176   */\n      mstore\n        /* \"#utility.yul\":11195:11199   */\n      0x24\n        /* \"#utility.yul\":11192:11193   */\n      0x00\n        /* \"#utility.yul\":11185:11200   */\n      revert\n        /* \"#utility.yul\":11212:11403   */\n    tag_69:\n        /* \"#utility.yul\":11252:11255   */\n      0x00\n        /* \"#utility.yul\":11271:11291   */\n      tag_225\n        /* \"#utility.yul\":11289:11290   */\n      dup3\n        /* \"#utility.yul\":11271:11291   */\n      tag_106\n      jump\t// in\n    tag_225:\n        /* \"#utility.yul\":11266:11291   */\n      swap2\n      pop\n        /* \"#utility.yul\":11305:11325   */\n      tag_226\n        /* \"#utility.yul\":11323:11324   */\n      dup4\n        /* \"#utility.yul\":11305:11325   */\n      tag_106\n      jump\t// in\n    tag_226:\n        /* \"#utility.yul\":11300:11325   */\n      swap3\n      pop\n        /* \"#utility.yul\":11348:11349   */\n      dup3\n        /* \"#utility.yul\":11345:11346   */\n      dup3\n        /* \"#utility.yul\":11341:11350   */\n      add\n        /* \"#utility.yul\":11334:11350   */\n      swap1\n      pop\n        /* \"#utility.yul\":11369:11372   */\n      dup1\n        /* \"#utility.yul\":11366:11367   */\n      dup3\n        /* \"#utility.yul\":11363:11373   */\n      gt\n        /* \"#utility.yul\":11360:11396   */\n      iszero\n      tag_227\n      jumpi\n        /* \"#utility.yul\":11376:11394   */\n      tag_228\n      tag_108\n      jump\t// in\n    tag_228:\n        /* \"#utility.yul\":11360:11396   */\n    tag_227:\n        /* \"#utility.yul\":11212:11403   */\n      swap3\n      swap2\n      pop\n      pop\n      jump\t// out\n        /* \"#utility.yul\":11409:11527   */\n    tag_109:\n        /* \"#utility.yul\":11496:11520   */\n      tag_230\n        /* \"#utility.yul\":11514:11519   */\n      dup2\n        /* \"#utility.yul\":11496:11520   */\n      tag_106\n      jump\t// in\n    tag_230:\n        /* \"#utility.yul\":11491:11494   */\n      dup3\n        /* \"#utility.yul\":11484:11521   */\n      mstore\n        /* \"#utility.yul\":11409:11527   */\n      pop\n      pop\n      jump\t// out\n        /* \"#utility.yul\":11533:11755   */\n    tag_71:\n        /* \"#utility.yul\":11626:11630   */\n      0x00\n        /* \"#utility.yul\":11664:11666   */\n      0x20\n        /* \"#utility.yul\":11653:11662   */\n      dup3\n        /* \"#utility.yul\":11649:11667   */\n      add\n        /* \"#utility.yul\":11641:11667   */\n      swap1\n      pop\n        /* \"#utility.yul\":11677:11748   */\n      tag_232\n        /* \"#utility.yul\":11745:11746   */\n      0x00\n        /* \"#utility.yul\":11734:11743   */\n      dup4\n        /* \"#utility.yul\":11730:11747   */\n      add\n        /* \"#utility.yul\":11721:11727   */\n      dup5\n        /* \"#utility.yul\":11677:11748   */\n      tag_109\n      jump\t// in\n    tag_232:\n        /* \"#utility.yul\":11533:11755   */\n      swap3\n      swap2\n      pop\n      pop\n      jump\t// out\n\n    auxdata: 0xa2646970667358221220cbf80ccb069f2aa0d849b83aeb215a230907b67526590346b7a5d34419bb22a564736f6c634300081e0033\n}\n",
				"bytecode": {
					"linkReferences": {},
					"object": "608060405234801561000f575f5ffd5b50604051611069380380611069833981810160405281019061003191906101f1565b5f73ffffffffffffffffffffffffffffffffffffffff168273ffffffffffffffffffffffffffffffffffffffff160361009f576040517f08c379a000000000000000000000000000000000000000000000000000000000815260040161009690610289565b60405180910390fd5b5f73ffffffffffffffffffffffffffffffffffffffff168173ffffffffffffffffffffffffffffffffffffffff160361010d576040517f08c379a0000000000000000000000000000000000000000000000000000000008152600401610104906102f1565b60405180910390fd5b815f5f6101000a81548173ffffffffffffffffffffffffffffffffffffffff021916908373ffffffffffffffffffffffffffffffffffffffff1602179055508060015f6101000a81548173ffffffffffffffffffffffffffffffffffffffff021916908373ffffffffffffffffffffffffffffffffffffffff160217905550505061030f565b5f5ffd5b5f73ffffffffffffffffffffffffffffffffffffffff82169050919050565b5f6101c082610197565b9050919050565b6101d0816101b6565b81146101da575f5ffd5b50565b5f815190506101eb816101c7565b92915050565b5f5f6040838503121561020757610206610193565b5b5f610214858286016101dd565b9250506020610225858286016101dd565b9150509250929050565b5f82825260208201905092915050565b7f656e74726f70793d3000000000000000000000000000000000000000000000005f82015250565b5f61027360098361022f565b915061027e8261023f565b602082019050919050565b5f6020820190508181035f8301526102a081610267565b9050919050565b7f72656c617965723d3000000000000000000000000000000000000000000000005f82015250565b5f6102db60098361022f565b91506102e6826102a7565b602082019050919050565b5f6020820190508181035f830152610308816102cf565b9050919050565b610d4d8061031c5f395ff3fe60806040526004361061004d575f3560e01c806347ce07cc1461005857806368114967146100825780638406c079146100aa578063866c7d2c146100d4578063b6ba5de91461010457610054565b3661005457005b5f5ffd5b348015610063575f5ffd5b5061006c610140565b60405161007991906107b9565b60405180910390f35b34801561008d575f5ffd5b506100a860048036038101906100a391906108b3565b610164565b005b3480156100b5575f5ffd5b506100be6101f2565b6040516100cb9190610933565b60405180910390f35b6100ee60048036038101906100e9919061094c565b610217565b6040516100fb9190610986565b60405180910390f35b34801561010f575f5ffd5b5061012a6004803603810190610125919061099f565b61055a565b6040516101379190610933565b60405180910390f35b5f5f9054906101000a900473ffffffffffffffffffffffffffffffffffffffff1681565b61016c61058a565b73ffffffffffffffffffffffffffffffffffffffff163373ffffffffffffffffffffffffffffffffffffffff16146101d9576040517f08c379a00000000000000000000000000000000000000000000000000000000081526004016101d090610a24565b60405180910390fd5b5f5f83013590506101eb8585836105b1565b5050505050565b60015f9054906101000a900473ffffffffffffffffffffffffffffffffffffffff1681565b5f60015f9054906101000a900473ffffffffffffffffffffffffffffffffffffffff1673ffffffffffffffffffffffffffffffffffffffff163373ffffffffffffffffffffffffffffffffffffffff16146102a7576040517f08c379a000000000000000000000000000000000000000000000000000000000815260040161029e90610a8c565b60405180910390fd5b5f73ffffffffffffffffffffffffffffffffffffffff168273ffffffffffffffffffffffffffffffffffffffff1603610315576040517f08c379a000000000000000000000000000000000000000000000000000000000815260040161030c90610af4565b60405180910390fd5b5f5f5f9054906101000a900473ffffffffffffffffffffffffffffffffffffffff1673ffffffffffffffffffffffffffffffffffffffff16638204b67a6040518163ffffffff1660e01b8152600401602060405180830381865afa15801561037f573d5f5f3e3d5ffd5b505050506040513d601f19601f820116820180604052508101906103a39190610b57565b9050806fffffffffffffffffffffffffffffffff163410156103fa576040517f08c379a00000000000000000000000000000000000000000000000000000000081526004016103f190610bcc565b60405180910390fd5b5f5f5f9054906101000a900473ffffffffffffffffffffffffffffffffffffffff1673ffffffffffffffffffffffffffffffffffffffff16637b43155d836fffffffffffffffffffffffffffffffff166040518263ffffffff1660e01b815260040160206040518083038185885af1158015610478573d5f5f3e3d5ffd5b50505050506040513d601f19601f8201168201806040525081019061049d9190610bfe565b90508360025f8367ffffffffffffffff1667ffffffffffffffff1681526020019081526020015f205f6101000a81548173ffffffffffffffffffffffffffffffffffffffff021916908373ffffffffffffffffffffffffffffffffffffffff1602179055508373ffffffffffffffffffffffffffffffffffffffff168167ffffffffffffffff167f6fd8a278b6cd4714af4d0ebe96c52e27014bd314c0c6cd91955ea7edecf0e0dd60405160405180910390a38092505050919050565b6002602052805f5260405f205f915054906101000a900473ffffffffffffffffffffffffffffffffffffffff1681565b5f5f5f9054906101000a900473ffffffffffffffffffffffffffffffffffffffff16905090565b5f60025f8567ffffffffffffffff1667ffffffffffffffff1681526020019081526020015f205f9054906101000a900473ffffffffffffffffffffffffffffffffffffffff1690505f73ffffffffffffffffffffffffffffffffffffffff168173ffffffffffffffffffffffffffffffffffffffff16036106795760025f8567ffffffffffffffff1667ffffffffffffffff1681526020019081526020015f205f6101000a81549073ffffffffffffffffffffffffffffffffffffffff02191690555061073a565b5f60016064845f1c61068b9190610c5f565b6106959190610cbc565b90508173ffffffffffffffffffffffffffffffffffffffff168567ffffffffffffffff167f371ec698ffa4358eda6a0431ebbbbb3de28ea88e7ea8162df7eee0b3207d486a836040516106e89190610cfe565b60405180910390a360025f8667ffffffffffffffff1667ffffffffffffffff1681526020019081526020015f205f6101000a81549073ffffffffffffffffffffffffffffffffffffffff021916905550505b505050565b5f73ffffffffffffffffffffffffffffffffffffffff82169050919050565b5f819050919050565b5f61078161077c6107778461073f565b61075e565b61073f565b9050919050565b5f61079282610767565b9050919050565b5f6107a382610788565b9050919050565b6107b381610799565b82525050565b5f6020820190506107cc5f8301846107aa565b92915050565b5f5ffd5b5f5ffd5b5f67ffffffffffffffff82169050919050565b6107f6816107da565b8114610800575f5ffd5b50565b5f81359050610811816107ed565b92915050565b5f6108218261073f565b9050919050565b61083181610817565b811461083b575f5ffd5b50565b5f8135905061084c81610828565b92915050565b5f5ffd5b5f5ffd5b5f5ffd5b5f5f83601f84011261087357610872610852565b5b8235905067ffffffffffffffff8111156108905761088f610856565b5b6020830191508360018202830111156108ac576108ab61085a565b5b9250929050565b5f5f5f5f606085870312156108cb576108ca6107d2565b5b5f6108d887828801610803565b94505060206108e98782880161083e565b935050604085013567ffffffffffffffff81111561090a576109096107d6565b5b6109168782880161085e565b925092505092959194509250565b61092d81610817565b82525050565b5f6020820190506109465f830184610924565b92915050565b5f60208284031215610961576109606107d2565b5b5f61096e8482850161083e565b91505092915050565b610980816107da565b82525050565b5f6020820190506109995f830184610977565b92915050565b5f602082840312156109b4576109b36107d2565b5b5f6109c184828501610803565b91505092915050565b5f82825260208201905092915050565b7f4f6e6c7920656e74726f707920636f6e747261637420616c6c6f7765640000005f82015250565b5f610a0e601d836109ca565b9150610a19826109da565b602082019050919050565b5f6020820190508181035f830152610a3b81610a02565b9050919050565b7f4f4e4c592052454c4159455200000000000000000000000000000000000000005f82015250565b5f610a76600c836109ca565b9150610a8182610a42565b602082019050919050565b5f6020820190508181035f830152610aa381610a6a565b9050919050565b7f757365723d3000000000000000000000000000000000000000000000000000005f82015250565b5f610ade6006836109ca565b9150610ae982610aaa565b602082019050919050565b5f6020820190508181035f830152610b0b81610ad2565b9050919050565b5f6fffffffffffffffffffffffffffffffff82169050919050565b610b3681610b12565b8114610b40575f5ffd5b50565b5f81519050610b5181610b2d565b92915050565b5f60208284031215610b6c57610b6b6107d2565b5b5f610b7984828501610b43565b91505092915050565b7f46454520544f4f204c4f570000000000000000000000000000000000000000005f82015250565b5f610bb6600b836109ca565b9150610bc182610b82565b602082019050919050565b5f6020820190508181035f830152610be381610baa565b9050919050565b5f81519050610bf8816107ed565b92915050565b5f60208284031215610c1357610c126107d2565b5b5f610c2084828501610bea565b91505092915050565b5f819050919050565b7f4e487b71000000000000000000000000000000000000000000000000000000005f52601260045260245ffd5b5f610c6982610c29565b9150610c7483610c29565b925082610c8457610c83610c32565b5b828206905092915050565b7f4e487b71000000000000000000000000000000000000000000000000000000005f52601160045260245ffd5b5f610cc682610c29565b9150610cd183610c29565b9250828201905080821115610ce957610ce8610c8f565b5b92915050565b610cf881610c29565b82525050565b5f602082019050610d115f830184610cef565b9291505056fea2646970667358221220cbf80ccb069f2aa0d849b83aeb215a230907b67526590346b7a5d34419bb22a564736f6c634300081e0033",
					"opcodes": "PUSH1 0x80 PUSH1 0x40 MSTORE CALLVALUE DUP1 ISZERO PUSH2 0xF JUMPI PUSH0 PUSH0 REVERT JUMPDEST POP PUSH1 0x40 MLOAD PUSH2 0x1069 CODESIZE SUB DUP1 PUSH2 0x1069 DUP4 CODECOPY DUP2 DUP2 ADD PUSH1 0x40 MSTORE DUP2 ADD SWAP1 PUSH2 0x31 SWAP2 SWAP1 PUSH2 0x1F1 JUMP JUMPDEST PUSH0 PUSH20 0xFFFFFFFFFFFFFFFFFFFFFFFFFFFFFFFFFFFFFFFF AND DUP3 PUSH20 0xFFFFFFFFFFFFFFFFFFFFFFFFFFFFFFFFFFFFFFFF AND SUB PUSH2 0x9F JUMPI PUSH1 0x40 MLOAD PUSH32 0x8C379A000000000000000000000000000000000000000000000000000000000 DUP2 MSTORE PUSH1 0x4 ADD PUSH2 0x96 SWAP1 PUSH2 0x289 JUMP JUMPDEST PUSH1 0x40 MLOAD DUP1 SWAP2 SUB SWAP1 REVERT JUMPDEST PUSH0 PUSH20 0xFFFFFFFFFFFFFFFFFFFFFFFFFFFFFFFFFFFFFFFF AND DUP2 PUSH20 0xFFFFFFFFFFFFFFFFFFFFFFFFFFFFFFFFFFFFFFFF AND SUB PUSH2 0x10D JUMPI PUSH1 0x40 MLOAD PUSH32 0x8C379A000000000000000000000000000000000000000000000000000000000 DUP2 MSTORE PUSH1 0x4 ADD PUSH2 0x104 SWAP1 PUSH2 0x2F1 JUMP JUMPDEST PUSH1 0x40 MLOAD DUP1 SWAP2 SUB SWAP1 REVERT JUMPDEST DUP2 PUSH0 PUSH0 PUSH2 0x100 EXP DUP2 SLOAD DUP2 PUSH20 0xFFFFFFFFFFFFFFFFFFFFFFFFFFFFFFFFFFFFFFFF MUL NOT AND SWAP1 DUP4 PUSH20 0xFFFFFFFFFFFFFFFFFFFFFFFFFFFFFFFFFFFFFFFF AND MUL OR SWAP1 SSTORE POP DUP1 PUSH1 0x1 PUSH0 PUSH2 0x100 EXP DUP2 SLOAD DUP2 PUSH20 0xFFFFFFFFFFFFFFFFFFFFFFFFFFFFFFFFFFFFFFFF MUL NOT AND SWAP1 DUP4 PUSH20 0xFFFFFFFFFFFFFFFFFFFFFFFFFFFFFFFFFFFFFFFF AND MUL OR SWAP1 SSTORE POP POP POP PUSH2 0x30F JUMP JUMPDEST PUSH0 PUSH0 REVERT JUMPDEST PUSH0 PUSH20 0xFFFFFFFFFFFFFFFFFFFFFFFFFFFFFFFFFFFFFFFF DUP3 AND SWAP1 POP SWAP2 SWAP1 POP JUMP JUMPDEST PUSH0 PUSH2 0x1C0 DUP3 PUSH2 0x197 JUMP JUMPDEST SWAP1 POP SWAP2 SWAP1 POP JUMP JUMPDEST PUSH2 0x1D0 DUP2 PUSH2 0x1B6 JUMP JUMPDEST DUP2 EQ PUSH2 0x1DA JUMPI PUSH0 PUSH0 REVERT JUMPDEST POP JUMP JUMPDEST PUSH0 DUP2 MLOAD SWAP1 POP PUSH2 0x1EB DUP2 PUSH2 0x1C7 JUMP JUMPDEST SWAP3 SWAP2 POP POP JUMP JUMPDEST PUSH0 PUSH0 PUSH1 0x40 DUP4 DUP6 SUB SLT ISZERO PUSH2 0x207 JUMPI PUSH2 0x206 PUSH2 0x193 JUMP JUMPDEST JUMPDEST PUSH0 PUSH2 0x214 DUP6 DUP3 DUP7 ADD PUSH2 0x1DD JUMP JUMPDEST SWAP3 POP POP PUSH1 0x20 PUSH2 0x225 DUP6 DUP3 DUP7 ADD PUSH2 0x1DD JUMP JUMPDEST SWAP2 POP POP SWAP3 POP SWAP3 SWAP1 POP JUMP JUMPDEST PUSH0 DUP3 DUP3 MSTORE PUSH1 0x20 DUP3 ADD SWAP1 POP SWAP3 SWAP2 POP POP JUMP JUMPDEST PUSH32 0x656E74726F70793D300000000000000000000000000000000000000000000000 PUSH0 DUP3 ADD MSTORE POP JUMP JUMPDEST PUSH0 PUSH2 0x273 PUSH1 0x9 DUP4 PUSH2 0x22F JUMP JUMPDEST SWAP2 POP PUSH2 0x27E DUP3 PUSH2 0x23F JUMP JUMPDEST PUSH1 0x20 DUP3 ADD SWAP1 POP SWAP2 SWAP1 POP JUMP JUMPDEST PUSH0 PUSH1 0x20 DUP3 ADD SWAP1 POP DUP2 DUP2 SUB PUSH0 DUP4 ADD MSTORE PUSH2 0x2A0 DUP2 PUSH2 0x267 JUMP JUMPDEST SWAP1 POP SWAP2 SWAP1 POP JUMP JUMPDEST PUSH32 0x72656C617965723D300000000000000000000000000000000000000000000000 PUSH0 DUP3 ADD MSTORE POP JUMP JUMPDEST PUSH0 PUSH2 0x2DB PUSH1 0x9 DUP4 PUSH2 0x22F JUMP JUMPDEST SWAP2 POP PUSH2 0x2E6 DUP3 PUSH2 0x2A7 JUMP JUMPDEST PUSH1 0x20 DUP3 ADD SWAP1 POP SWAP2 SWAP1 POP JUMP JUMPDEST PUSH0 PUSH1 0x20 DUP3 ADD SWAP1 POP DUP2 DUP2 SUB PUSH0 DUP4 ADD MSTORE PUSH2 0x308 DUP2 PUSH2 0x2CF JUMP JUMPDEST SWAP1 POP SWAP2 SWAP1 POP JUMP JUMPDEST PUSH2 0xD4D DUP1 PUSH2 0x31C PUSH0 CODECOPY PUSH0 RETURN INVALID PUSH1 0x80 PUSH1 0x40 MSTORE PUSH1 0x4 CALLDATASIZE LT PUSH2 0x4D JUMPI PUSH0 CALLDATALOAD PUSH1 0xE0 SHR DUP1 PUSH4 0x47CE07CC EQ PUSH2 0x58 JUMPI DUP1 PUSH4 0x68114967 EQ PUSH2 0x82 JUMPI DUP1 PUSH4 0x8406C079 EQ PUSH2 0xAA JUMPI DUP1 PUSH4 0x866C7D2C EQ PUSH2 0xD4 JUMPI DUP1 PUSH4 0xB6BA5DE9 EQ PUSH2 0x104 JUMPI PUSH2 0x54 JUMP JUMPDEST CALLDATASIZE PUSH2 0x54 JUMPI STOP JUMPDEST PUSH0 PUSH0 REVERT JUMPDEST CALLVALUE DUP1 ISZERO PUSH2 0x63 JUMPI PUSH0 PUSH0 REVERT JUMPDEST POP PUSH2 0x6C PUSH2 0x140 JUMP JUMPDEST PUSH1 0x40 MLOAD PUSH2 0x79 SWAP2 SWAP1 PUSH2 0x7B9 JUMP JUMPDEST PUSH1 0x40 MLOAD DUP1 SWAP2 SUB SWAP1 RETURN JUMPDEST CALLVALUE DUP1 ISZERO PUSH2 0x8D JUMPI PUSH0 PUSH0 REVERT JUMPDEST POP PUSH2 0xA8 PUSH1 0x4 DUP1 CALLDATASIZE SUB DUP2 ADD SWAP1 PUSH2 0xA3 SWAP2 SWAP1 PUSH2 0x8B3 JUMP JUMPDEST PUSH2 0x164 JUMP JUMPDEST STOP JUMPDEST CALLVALUE DUP1 ISZERO PUSH2 0xB5 JUMPI PUSH0 PUSH0 REVERT JUMPDEST POP PUSH2 0xBE PUSH2 0x1F2 JUMP JUMPDEST PUSH1 0x40 MLOAD PUSH2 0xCB SWAP2 SWAP1 PUSH2 0x933 JUMP JUMPDEST PUSH1 0x40 MLOAD DUP1 SWAP2 SUB SWAP1 RETURN JUMPDEST PUSH2 0xEE PUSH1 0x4 DUP1 CALLDATASIZE SUB DUP2 ADD SWAP1 PUSH2 0xE9 SWAP2 SWAP1 PUSH2 0x94C JUMP JUMPDEST PUSH2 0x217 JUMP JUMPDEST PUSH1 0x40 MLOAD PUSH2 0xFB SWAP2 SWAP1 PUSH2 0x986 JUMP JUMPDEST PUSH1 0x40 MLOAD DUP1 SWAP2 SUB SWAP1 RETURN JUMPDEST CALLVALUE DUP1 ISZERO PUSH2 0x10F JUMPI PUSH0 PUSH0 REVERT JUMPDEST POP PUSH2 0x12A PUSH1 0x4 DUP1 CALLDATASIZE SUB DUP2 ADD SWAP1 PUSH2 0x125 SWAP2 SWAP1 PUSH2 0x99F JUMP JUMPDEST PUSH2 0x55A JUMP JUMPDEST PUSH1 0x40 MLOAD PUSH2 0x137 SWAP2 SWAP1 PUSH2 0x933 JUMP JUMPDEST PUSH1 0x40 MLOAD DUP1 SWAP2 SUB SWAP1 RETURN JUMPDEST PUSH0 PUSH0 SWAP1 SLOAD SWAP1 PUSH2 0x100 EXP SWAP1 DIV PUSH20 0xFFFFFFFFFFFFFFFFFFFFFFFFFFFFFFFFFFFFFFFF AND DUP2 JUMP JUMPDEST PUSH2 0x16C PUSH2 0x58A JUMP JUMPDEST PUSH20 0xFFFFFFFFFFFFFFFFFFFFFFFFFFFFFFFFFFFFFFFF AND CALLER PUSH20 0xFFFFFFFFFFFFFFFFFFFFFFFFFFFFFFFFFFFFFFFF AND EQ PUSH2 0x1D9 JUMPI PUSH1 0x40 MLOAD PUSH32 0x8C379A000000000000000000000000000000000000000000000000000000000 DUP2 MSTORE PUSH1 0x4 ADD PUSH2 0x1D0 SWAP1 PUSH2 0xA24 JUMP JUMPDEST PUSH1 0x40 MLOAD DUP1 SWAP2 SUB SWAP1 REVERT JUMPDEST PUSH0 PUSH0 DUP4 ADD CALLDATALOAD SWAP1 POP PUSH2 0x1EB DUP6 DUP6 DUP4 PUSH2 0x5B1 JUMP JUMPDEST POP POP POP POP POP JUMP JUMPDEST PUSH1 0x1 PUSH0 SWAP1 SLOAD SWAP1 PUSH2 0x100 EXP SWAP1 DIV PUSH20 0xFFFFFFFFFFFFFFFFFFFFFFFFFFFFFFFFFFFFFFFF AND DUP2 JUMP JUMPDEST PUSH0 PUSH1 0x1 PUSH0 SWAP1 SLOAD SWAP1 PUSH2 0x100 EXP SWAP1 DIV PUSH20 0xFFFFFFFFFFFFFFFFFFFFFFFFFFFFFFFFFFFFFFFF AND PUSH20 0xFFFFFFFFFFFFFFFFFFFFFFFFFFFFFFFFFFFFFFFF AND CALLER PUSH20 0xFFFFFFFFFFFFFFFFFFFFFFFFFFFFFFFFFFFFFFFF AND EQ PUSH2 0x2A7 JUMPI PUSH1 0x40 MLOAD PUSH32 0x8C379A000000000000000000000000000000000000000000000000000000000 DUP2 MSTORE PUSH1 0x4 ADD PUSH2 0x29E SWAP1 PUSH2 0xA8C JUMP JUMPDEST PUSH1 0x40 MLOAD DUP1 SWAP2 SUB SWAP1 REVERT JUMPDEST PUSH0 PUSH20 0xFFFFFFFFFFFFFFFFFFFFFFFFFFFFFFFFFFFFFFFF AND DUP3 PUSH20 0xFFFFFFFFFFFFFFFFFFFFFFFFFFFFFFFFFFFFFFFF AND SUB PUSH2 0x315 JUMPI PUSH1 0x40 MLOAD PUSH32 0x8C379A000000000000000000000000000000000000000000000000000000000 DUP2 MSTORE PUSH1 0x4 ADD PUSH2 0x30C SWAP1 PUSH2 0xAF4 JUMP JUMPDEST PUSH1 0x40 MLOAD DUP1 SWAP2 SUB SWAP1 REVERT JUMPDEST PUSH0 PUSH0 PUSH0 SWAP1 SLOAD SWAP1 PUSH2 0x100 EXP SWAP1 DIV PUSH20 0xFFFFFFFFFFFFFFFFFFFFFFFFFFFFFFFFFFFFFFFF AND PUSH20 0xFFFFFFFFFFFFFFFFFFFFFFFFFFFFFFFFFFFFFFFF AND PUSH4 0x8204B67A PUSH1 0x40 MLOAD DUP2 PUSH4 0xFFFFFFFF AND PUSH1 0xE0 SHL DUP2 MSTORE PUSH1 0x4 ADD PUSH1 0x20 PUSH1 0x40 MLOAD DUP1 DUP4 SUB DUP2 DUP7 GAS STATICCALL ISZERO DUP1 ISZERO PUSH2 0x37F JUMPI RETURNDATASIZE PUSH0 PUSH0 RETURNDATACOPY RETURNDATASIZE PUSH0 REVERT JUMPDEST POP POP POP POP PUSH1 0x40 MLOAD RETURNDATASIZE PUSH1 0x1F NOT PUSH1 0x1F DUP3 ADD AND DUP3 ADD DUP1 PUSH1 0x40 MSTORE POP DUP2 ADD SWAP1 PUSH2 0x3A3 SWAP2 SWAP1 PUSH2 0xB57 JUMP JUMPDEST SWAP1 POP DUP1 PUSH16 0xFFFFFFFFFFFFFFFFFFFFFFFFFFFFFFFF AND CALLVALUE LT ISZERO PUSH2 0x3FA JUMPI PUSH1 0x40 MLOAD PUSH32 0x8C379A000000000000000000000000000000000000000000000000000000000 DUP2 MSTORE PUSH1 0x4 ADD PUSH2 0x3F1 SWAP1 PUSH2 0xBCC JUMP JUMPDEST PUSH1 0x40 MLOAD DUP1 SWAP2 SUB SWAP1 REVERT JUMPDEST PUSH0 PUSH0 PUSH0 SWAP1 SLOAD SWAP1 PUSH2 0x100 EXP SWAP1 DIV PUSH20 0xFFFFFFFFFFFFFFFFFFFFFFFFFFFFFFFFFFFFFFFF AND PUSH20 0xFFFFFFFFFFFFFFFFFFFFFFFFFFFFFFFFFFFFFFFF AND PUSH4 0x7B43155D DUP4 PUSH16 0xFFFFFFFFFFFFFFFFFFFFFFFFFFFFFFFF AND PUSH1 0x40 MLOAD DUP3 PUSH4 0xFFFFFFFF AND PUSH1 0xE0 SHL DUP2 MSTORE PUSH1 0x4 ADD PUSH1 0x20 PUSH1 0x40 MLOAD DUP1 DUP4 SUB DUP2 DUP6 DUP9 GAS CALL ISZERO DUP1 ISZERO PUSH2 0x478 JUMPI RETURNDATASIZE PUSH0 PUSH0 RETURNDATACOPY RETURNDATASIZE PUSH0 REVERT JUMPDEST POP POP POP POP POP PUSH1 0x40 MLOAD RETURNDATASIZE PUSH1 0x1F NOT PUSH1 0x1F DUP3 ADD AND DUP3 ADD DUP1 PUSH1 0x40 MSTORE POP DUP2 ADD SWAP1 PUSH2 0x49D SWAP2 SWAP1 PUSH2 0xBFE JUMP JUMPDEST SWAP1 POP DUP4 PUSH1 0x2 PUSH0 DUP4 PUSH8 0xFFFFFFFFFFFFFFFF AND PUSH8 0xFFFFFFFFFFFFFFFF AND DUP2 MSTORE PUSH1 0x20 ADD SWAP1 DUP2 MSTORE PUSH1 0x20 ADD PUSH0 KECCAK256 PUSH0 PUSH2 0x100 EXP DUP2 SLOAD DUP2 PUSH20 0xFFFFFFFFFFFFFFFFFFFFFFFFFFFFFFFFFFFFFFFF MUL NOT AND SWAP1 DUP4 PUSH20 0xFFFFFFFFFFFFFFFFFFFFFFFFFFFFFFFFFFFFFFFF AND MUL OR SWAP1 SSTORE POP DUP4 PUSH20 0xFFFFFFFFFFFFFFFFFFFFFFFFFFFFFFFFFFFFFFFF AND DUP2 PUSH8 0xFFFFFFFFFFFFFFFF AND PUSH32 0x6FD8A278B6CD4714AF4D0EBE96C52E27014BD314C0C6CD91955EA7EDECF0E0DD PUSH1 0x40 MLOAD PUSH1 0x40 MLOAD DUP1 SWAP2 SUB SWAP1 LOG3 DUP1 SWAP3 POP POP POP SWAP2 SWAP1 POP JUMP JUMPDEST PUSH1 0x2 PUSH1 0x20 MSTORE DUP1 PUSH0 MSTORE PUSH1 0x40 PUSH0 KECCAK256 PUSH0 SWAP2 POP SLOAD SWAP1 PUSH2 0x100 EXP SWAP1 DIV PUSH20 0xFFFFFFFFFFFFFFFFFFFFFFFFFFFFFFFFFFFFFFFF AND DUP2 JUMP JUMPDEST PUSH0 PUSH0 PUSH0 SWAP1 SLOAD SWAP1 PUSH2 0x100 EXP SWAP1 DIV PUSH20 0xFFFFFFFFFFFFFFFFFFFFFFFFFFFFFFFFFFFFFFFF AND SWAP1 POP SWAP1 JUMP JUMPDEST PUSH0 PUSH1 0x2 PUSH0 DUP6 PUSH8 0xFFFFFFFFFFFFFFFF AND PUSH8 0xFFFFFFFFFFFFFFFF AND DUP2 MSTORE PUSH1 0x20 ADD SWAP1 DUP2 MSTORE PUSH1 0x20 ADD PUSH0 KECCAK256 PUSH0 SWAP1 SLOAD SWAP1 PUSH2 0x100 EXP SWAP1 DIV PUSH20 0xFFFFFFFFFFFFFFFFFFFFFFFFFFFFFFFFFFFFFFFF AND SWAP1 POP PUSH0 PUSH20 0xFFFFFFFFFFFFFFFFFFFFFFFFFFFFFFFFFFFFFFFF AND DUP2 PUSH20 0xFFFFFFFFFFFFFFFFFFFFFFFFFFFFFFFFFFFFFFFF AND SUB PUSH2 0x679 JUMPI PUSH1 0x2 PUSH0 DUP6 PUSH8 0xFFFFFFFFFFFFFFFF AND PUSH8 0xFFFFFFFFFFFFFFFF AND DUP2 MSTORE PUSH1 0x20 ADD SWAP1 DUP2 MSTORE PUSH1 0x20 ADD PUSH0 KECCAK256 PUSH0 PUSH2 0x100 EXP DUP2 SLOAD SWAP1 PUSH20 0xFFFFFFFFFFFFFFFFFFFFFFFFFFFFFFFFFFFFFFFF MUL NOT AND SWAP1 SSTORE POP PUSH2 0x73A JUMP JUMPDEST PUSH0 PUSH1 0x1 PUSH1 0x64 DUP5 PUSH0 SHR PUSH2 0x68B SWAP2 SWAP1 PUSH2 0xC5F JUMP JUMPDEST PUSH2 0x695 SWAP2 SWAP1 PUSH2 0xCBC JUMP JUMPDEST SWAP1 POP DUP2 PUSH20 0xFFFFFFFFFFFFFFFFFFFFFFFFFFFFFFFFFFFFFFFF AND DUP6 PUSH8 0xFFFFFFFFFFFFFFFF AND PUSH32 0x371EC698FFA4358EDA6A0431EBBBBB3DE28EA88E7EA8162DF7EEE0B3207D486A DUP4 PUSH1 0x40 MLOAD PUSH2 0x6E8 SWAP2 SWAP1 PUSH2 0xCFE JUMP JUMPDEST PUSH1 0x40 MLOAD DUP1 SWAP2 SUB SWAP1 LOG3 PUSH1 0x2 PUSH0 DUP7 PUSH8 0xFFFFFFFFFFFFFFFF AND PUSH8 0xFFFFFFFFFFFFFFFF AND DUP2 MSTORE PUSH1 0x20 ADD SWAP1 DUP2 MSTORE PUSH1 0x20 ADD PUSH0 KECCAK256 PUSH0 PUSH2 0x100 EXP DUP2 SLOAD SWAP1 PUSH20 0xFFFFFFFFFFFFFFFFFFFFFFFFFFFFFFFFFFFFFFFF MUL NOT AND SWAP1 SSTORE POP POP JUMPDEST POP POP POP JUMP JUMPDEST PUSH0 PUSH20 0xFFFFFFFFFFFFFFFFFFFFFFFFFFFFFFFFFFFFFFFF DUP3 AND SWAP1 POP SWAP2 SWAP1 POP JUMP JUMPDEST PUSH0 DUP2 SWAP1 POP SWAP2 SWAP1 POP JUMP JUMPDEST PUSH0 PUSH2 0x781 PUSH2 0x77C PUSH2 0x777 DUP5 PUSH2 0x73F JUMP JUMPDEST PUSH2 0x75E JUMP JUMPDEST PUSH2 0x73F JUMP JUMPDEST SWAP1 POP SWAP2 SWAP1 POP JUMP JUMPDEST PUSH0 PUSH2 0x792 DUP3 PUSH2 0x767 JUMP JUMPDEST SWAP1 POP SWAP2 SWAP1 POP JUMP JUMPDEST PUSH0 PUSH2 0x7A3 DUP3 PUSH2 0x788 JUMP JUMPDEST SWAP1 POP SWAP2 SWAP1 POP JUMP JUMPDEST PUSH2 0x7B3 DUP2 PUSH2 0x799 JUMP JUMPDEST DUP3 MSTORE POP POP JUMP JUMPDEST PUSH0 PUSH1 0x20 DUP3 ADD SWAP1 POP PUSH2 0x7CC PUSH0 DUP4 ADD DUP5 PUSH2 0x7AA JUMP JUMPDEST SWAP3 SWAP2 POP POP JUMP JUMPDEST PUSH0 PUSH0 REVERT JUMPDEST PUSH0 PUSH0 REVERT JUMPDEST PUSH0 PUSH8 0xFFFFFFFFFFFFFFFF DUP3 AND SWAP1 POP SWAP2 SWAP1 POP JUMP JUMPDEST PUSH2 0x7F6 DUP2 PUSH2 0x7DA JUMP JUMPDEST DUP2 EQ PUSH2 0x800 JUMPI PUSH0 PUSH0 REVERT JUMPDEST POP JUMP JUMPDEST PUSH0 DUP2 CALLDATALOAD SWAP1 POP PUSH2 0x811 DUP2 PUSH2 0x7ED JUMP JUMPDEST SWAP3 SWAP2 POP POP JUMP JUMPDEST PUSH0 PUSH2 0x821 DUP3 PUSH2 0x73F JUMP JUMPDEST SWAP1 POP SWAP2 SWAP1 POP JUMP JUMPDEST PUSH2 0x831 DUP2 PUSH2 0x817 JUMP JUMPDEST DUP2 EQ PUSH2 0x83B JUMPI PUSH0 PUSH0 REVERT JUMPDEST POP JUMP JUMPDEST PUSH0 DUP2 CALLDATALOAD SWAP1 POP PUSH2 0x84C DUP2 PUSH2 0x828 JUMP JUMPDEST SWAP3 SWAP2 POP POP JUMP JUMPDEST PUSH0 PUSH0 REVERT JUMPDEST PUSH0 PUSH0 REVERT JUMPDEST PUSH0 PUSH0 REVERT JUMPDEST PUSH0 PUSH0 DUP4 PUSH1 0x1F DUP5 ADD SLT PUSH2 0x873 JUMPI PUSH2 0x872 PUSH2 0x852 JUMP JUMPDEST JUMPDEST DUP3 CALLDATALOAD SWAP1 POP PUSH8 0xFFFFFFFFFFFFFFFF DUP2 GT ISZERO PUSH2 0x890 JUMPI PUSH2 0x88F PUSH2 0x856 JUMP JUMPDEST JUMPDEST PUSH1 0x20 DUP4 ADD SWAP2 POP DUP4 PUSH1 0x1 DUP3 MUL DUP4 ADD GT ISZERO PUSH2 0x8AC JUMPI PUSH2 0x8AB PUSH2 0x85A JUMP JUMPDEST JUMPDEST SWAP3 POP SWAP3 SWAP1 POP JUMP JUMPDEST PUSH0 PUSH0 PUSH0 PUSH0 PUSH1 0x60 DUP6 DUP8 SUB SLT ISZERO PUSH2 0x8CB JUMPI PUSH2 0x8CA PUSH2 0x7D2 JUMP JUMPDEST JUMPDEST PUSH0 PUSH2 0x8D8 DUP8 DUP3 DUP9 ADD PUSH2 0x803 JUMP JUMPDEST SWAP5 POP POP PUSH1 0x20 PUSH2 0x8E9 DUP8 DUP3 DUP9 ADD PUSH2 0x83E JUMP JUMPDEST SWAP4 POP POP PUSH1 0x40 DUP6 ADD CALLDATALOAD PUSH8 0xFFFFFFFFFFFFFFFF DUP2 GT ISZERO PUSH2 0x90A JUMPI PUSH2 0x909 PUSH2 0x7D6 JUMP JUMPDEST JUMPDEST PUSH2 0x916 DUP8 DUP3 DUP9 ADD PUSH2 0x85E JUMP JUMPDEST SWAP3 POP SWAP3 POP POP SWAP3 SWAP6 SWAP2 SWAP5 POP SWAP3 POP JUMP JUMPDEST PUSH2 0x92D DUP2 PUSH2 0x817 JUMP JUMPDEST DUP3 MSTORE POP POP JUMP JUMPDEST PUSH0 PUSH1 0x20 DUP3 ADD SWAP1 POP PUSH2 0x946 PUSH0 DUP4 ADD DUP5 PUSH2 0x924 JUMP JUMPDEST SWAP3 SWAP2 POP POP JUMP JUMPDEST PUSH0 PUSH1 0x20 DUP3 DUP5 SUB SLT ISZERO PUSH2 0x961 JUMPI PUSH2 0x960 PUSH2 0x7D2 JUMP JUMPDEST JUMPDEST PUSH0 PUSH2 0x96E DUP5 DUP3 DUP6 ADD PUSH2 0x83E JUMP JUMPDEST SWAP2 POP POP SWAP3 SWAP2 POP POP JUMP JUMPDEST PUSH2 0x980 DUP2 PUSH2 0x7DA JUMP JUMPDEST DUP3 MSTORE POP POP JUMP JUMPDEST PUSH0 PUSH1 0x20 DUP3 ADD SWAP1 POP PUSH2 0x999 PUSH0 DUP4 ADD DUP5 PUSH2 0x977 JUMP JUMPDEST SWAP3 SWAP2 POP POP JUMP JUMPDEST PUSH0 PUSH1 0x20 DUP3 DUP5 SUB SLT ISZERO PUSH2 0x9B4 JUMPI PUSH2 0x9B3 PUSH2 0x7D2 JUMP JUMPDEST JUMPDEST PUSH0 PUSH2 0x9C1 DUP5 DUP3 DUP6 ADD PUSH2 0x803 JUMP JUMPDEST SWAP2 POP POP SWAP3 SWAP2 POP POP JUMP JUMPDEST PUSH0 DUP3 DUP3 MSTORE PUSH1 0x20 DUP3 ADD SWAP1 POP SWAP3 SWAP2 POP POP JUMP JUMPDEST PUSH32 0x4F6E6C7920656E74726F707920636F6E747261637420616C6C6F776564000000 PUSH0 DUP3 ADD MSTORE POP JUMP JUMPDEST PUSH0 PUSH2 0xA0E PUSH1 0x1D DUP4 PUSH2 0x9CA JUMP JUMPDEST SWAP2 POP PUSH2 0xA19 DUP3 PUSH2 0x9DA JUMP JUMPDEST PUSH1 0x20 DUP3 ADD SWAP1 POP SWAP2 SWAP1 POP JUMP JUMPDEST PUSH0 PUSH1 0x20 DUP3 ADD SWAP1 POP DUP2 DUP2 SUB PUSH0 DUP4 ADD MSTORE PUSH2 0xA3B DUP2 PUSH2 0xA02 JUMP JUMPDEST SWAP1 POP SWAP2 SWAP1 POP JUMP JUMPDEST PUSH32 0x4F4E4C592052454C415945520000000000000000000000000000000000000000 PUSH0 DUP3 ADD MSTORE POP JUMP JUMPDEST PUSH0 PUSH2 0xA76 PUSH1 0xC DUP4 PUSH2 0x9CA JUMP JUMPDEST SWAP2 POP PUSH2 0xA81 DUP3 PUSH2 0xA42 JUMP JUMPDEST PUSH1 0x20 DUP3 ADD SWAP1 POP SWAP2 SWAP1 POP JUMP JUMPDEST PUSH0 PUSH1 0x20 DUP3 ADD SWAP1 POP DUP2 DUP2 SUB PUSH0 DUP4 ADD MSTORE PUSH2 0xAA3 DUP2 PUSH2 0xA6A JUMP JUMPDEST SWAP1 POP SWAP2 SWAP1 POP JUMP JUMPDEST PUSH32 0x757365723D300000000000000000000000000000000000000000000000000000 PUSH0 DUP3 ADD MSTORE POP JUMP JUMPDEST PUSH0 PUSH2 0xADE PUSH1 0x6 DUP4 PUSH2 0x9CA JUMP JUMPDEST SWAP2 POP PUSH2 0xAE9 DUP3 PUSH2 0xAAA JUMP JUMPDEST PUSH1 0x20 DUP3 ADD SWAP1 POP SWAP2 SWAP1 POP JUMP JUMPDEST PUSH0 PUSH1 0x20 DUP3 ADD SWAP1 POP DUP2 DUP2 SUB PUSH0 DUP4 ADD MSTORE PUSH2 0xB0B DUP2 PUSH2 0xAD2 JUMP JUMPDEST SWAP1 POP SWAP2 SWAP1 POP JUMP JUMPDEST PUSH0 PUSH16 0xFFFFFFFFFFFFFFFFFFFFFFFFFFFFFFFF DUP3 AND SWAP1 POP SWAP2 SWAP1 POP JUMP JUMPDEST PUSH2 0xB36 DUP2 PUSH2 0xB12 JUMP JUMPDEST DUP2 EQ PUSH2 0xB40 JUMPI PUSH0 PUSH0 REVERT JUMPDEST POP JUMP JUMPDEST PUSH0 DUP2 MLOAD SWAP1 POP PUSH2 0xB51 DUP2 PUSH2 0xB2D JUMP JUMPDEST SWAP3 SWAP2 POP POP JUMP JUMPDEST PUSH0 PUSH1 0x20 DUP3 DUP5 SUB SLT ISZERO PUSH2 0xB6C JUMPI PUSH2 0xB6B PUSH2 0x7D2 JUMP JUMPDEST JUMPDEST PUSH0 PUSH2 0xB79 DUP5 DUP3 DUP6 ADD PUSH2 0xB43 JUMP JUMPDEST SWAP2 POP POP SWAP3 SWAP2 POP POP JUMP JUMPDEST PUSH32 0x46454520544F4F204C4F57000000000000000000000000000000000000000000 PUSH0 DUP3 ADD MSTORE POP JUMP JUMPDEST PUSH0 PUSH2 0xBB6 PUSH1 0xB DUP4 PUSH2 0x9CA JUMP JUMPDEST SWAP2 POP PUSH2 0xBC1 DUP3 PUSH2 0xB82 JUMP JUMPDEST PUSH1 0x20 DUP3 ADD SWAP1 POP SWAP2 SWAP1 POP JUMP JUMPDEST PUSH0 PUSH1 0x20 DUP3 ADD SWAP1 POP DUP2 DUP2 SUB PUSH0 DUP4 ADD MSTORE PUSH2 0xBE3 DUP2 PUSH2 0xBAA JUMP JUMPDEST SWAP1 POP SWAP2 SWAP1 POP JUMP JUMPDEST PUSH0 DUP2 MLOAD SWAP1 POP PUSH2 0xBF8 DUP2 PUSH2 0x7ED JUMP JUMPDEST SWAP3 SWAP2 POP POP JUMP JUMPDEST PUSH0 PUSH1 0x20 DUP3 DUP5 SUB SLT ISZERO PUSH2 0xC13 JUMPI PUSH2 0xC12 PUSH2 0x7D2 JUMP JUMPDEST JUMPDEST PUSH0 PUSH2 0xC20 DUP5 DUP3 DUP6 ADD PUSH2 0xBEA JUMP JUMPDEST SWAP2 POP POP SWAP3 SWAP2 POP POP JUMP JUMPDEST PUSH0 DUP2 SWAP1 POP SWAP2 SWAP1 POP JUMP JUMPDEST PUSH32 0x4E487B7100000000000000000000000000000000000000000000000000000000 PUSH0 MSTORE PUSH1 0x12 PUSH1 0x4 MSTORE PUSH1 0x24 PUSH0 REVERT JUMPDEST PUSH0 PUSH2 0xC69 DUP3 PUSH2 0xC29 JUMP JUMPDEST SWAP2 POP PUSH2 0xC74 DUP4 PUSH2 0xC29 JUMP JUMPDEST SWAP3 POP DUP3 PUSH2 0xC84 JUMPI PUSH2 0xC83 PUSH2 0xC32 JUMP JUMPDEST JUMPDEST DUP3 DUP3 MOD SWAP1 POP SWAP3 SWAP2 POP POP JUMP JUMPDEST PUSH32 0x4E487B7100000000000000000000000000000000000000000000000000000000 PUSH0 MSTORE PUSH1 0x11 PUSH1 0x4 MSTORE PUSH1 0x24 PUSH0 REVERT JUMPDEST PUSH0 PUSH2 0xCC6 DUP3 PUSH2 0xC29 JUMP JUMPDEST SWAP2 POP PUSH2 0xCD1 DUP4 PUSH2 0xC29 JUMP JUMPDEST SWAP3 POP DUP3 DUP3 ADD SWAP1 POP DUP1 DUP3 GT ISZERO PUSH2 0xCE9 JUMPI PUSH2 0xCE8 PUSH2 0xC8F JUMP JUMPDEST JUMPDEST SWAP3 SWAP2 POP POP JUMP JUMPDEST PUSH2 0xCF8 DUP2 PUSH2 0xC29 JUMP JUMPDEST DUP3 MSTORE POP POP JUMP JUMPDEST PUSH0 PUSH1 0x20 DUP3 ADD SWAP1 POP PUSH2 0xD11 PUSH0 DUP4 ADD DUP5 PUSH2 0xCEF JUMP JUMPDEST SWAP3 SWAP2 POP POP JUMP INVALID LOG2 PUSH5 0x6970667358 0x22 SLT KECCAK256 0xCB EXTCALL 0xC 0xCB MOD SWAP16 0x2A LOG0 0xD8 BLOBHASH 0xB8 GASPRICE 0xEB 0x21 GAS 0x23 MULMOD SMOD 0xB6 PUSH22 0x26590346B7A5D34419BB22A564736F6C634300081E00 CALLER "
				},
				"gasEstimates": {
					"creation": {
						"codeDepositCost": "681000",
						"executionCost": "infinite",
						"totalCost": "infinite"
					},
					"external": {
						"entropy()": "infinite",
						"entropyCallback(uint64,address,bytes)": "infinite",
						"relayer()": "2530",
						"requestReward(address)": "infinite",
						"userBySequence(uint64)": "2899"
					},
					"internal": {
						"entropyCallback(uint64,address,bytes32)": "infinite",
						"getEntropy()": "2156"
					}
				},
				"methodIdentifiers": {
					"entropy()": "47ce07cc",
					"entropyCallback(uint64,address,bytes)": "68114967",
					"relayer()": "8406c079",
					"requestReward(address)": "866c7d2c",
					"userBySequence(uint64)": "b6ba5de9"
				}
			},
			"storageLayout": {
				"storage": [
					{
						"astId": 61,
						"contract": "RewardEntropy.sol:RewardEntropy",
						"label": "entropy",
						"offset": 0,
						"slot": "0",
						"type": "t_contract(IEntropyV2)12"
					},
					{
						"astId": 63,
						"contract": "RewardEntropy.sol:RewardEntropy",
						"label": "relayer",
						"offset": 0,
						"slot": "1",
						"type": "t_address"
					},
					{
						"astId": 67,
						"contract": "RewardEntropy.sol:RewardEntropy",
						"label": "userBySequence",
						"offset": 0,
						"slot": "2",
						"type": "t_mapping(t_uint64,t_address)"
					}
				],
				"types": {
					"t_address": {
						"encoding": "inplace",
						"label": "address",
						"numberOfBytes": "20"
					},
					"t_contract(IEntropyV2)12": {
						"encoding": "inplace",
						"label": "contract IEntropyV2",
						"numberOfBytes": "20"
					},
					"t_mapping(t_uint64,t_address)": {
						"encoding": "mapping",
						"key": "t_uint64",
						"label": "mapping(uint64 => address)",
						"numberOfBytes": "32",
						"value": "t_address"
					},
					"t_uint64": {
						"encoding": "inplace",
						"label": "uint64",
						"numberOfBytes": "8"
					}
				}
			},
			"userdoc": {
				"kind": "user",
				"methods": {},
				"version": 1
			}
		}
	}
}