{
	"TinyRewardFromOwner.sol": {
		"TinyRewardFromOwner": {
			"abi": [
				{
					"inputs": [
						{
							"internalType": "address",
							"name": "_designatedOwner",
							"type": "address"
						}
					],
					"stateMutability": "nonpayable",
					"type": "constructor"
				},
				{
					"inputs": [
						{
							"internalType": "address",
							"name": "owner",
							"type": "address"
						}
					],
					"name": "OwnableInvalidOwner",
					"type": "error"
				},
				{
					"inputs": [
						{
							"internalType": "address",
							"name": "account",
							"type": "address"
						}
					],
					"name": "OwnableUnauthorizedAccount",
					"type": "error"
				},
				{
					"anonymous": false,
					"inputs": [
						{
							"indexed": true,
							"internalType": "address",
							"name": "from",
							"type": "address"
						},
						{
							"indexed": false,
							"internalType": "uint256",
							"name": "amount",
							"type": "uint256"
						}
					],
					"name": "Deposited",
					"type": "event"
				},
				{
					"anonymous": false,
					"inputs": [
						{
							"indexed": true,
							"internalType": "address",
							"name": "oldOwner",
							"type": "address"
						},
						{
							"indexed": true,
							"internalType": "address",
							"name": "newOwner",
							"type": "address"
						}
					],
					"name": "OwnerChanged",
					"type": "event"
				},
				{
					"anonymous": false,
					"inputs": [
						{
							"indexed": true,
							"internalType": "address",
							"name": "previousOwner",
							"type": "address"
						},
						{
							"indexed": true,
							"internalType": "address",
							"name": "newOwner",
							"type": "address"
						}
					],
					"name": "OwnershipTransferred",
					"type": "event"
				},
				{
					"anonymous": false,
					"inputs": [
						{
							"indexed": true,
							"internalType": "address",
							"name": "to",
							"type": "address"
						},
						{
							"indexed": false,
							"internalType": "uint256",
							"name": "amount",
							"type": "uint256"
						},
						{
							"indexed": false,
							"internalType": "uint256",
							"name": "nonceUsed",
							"type": "uint256"
						}
					],
					"name": "RewardPaid",
					"type": "event"
				},
				{
					"anonymous": false,
					"inputs": [
						{
							"indexed": true,
							"internalType": "address",
							"name": "to",
							"type": "address"
						},
						{
							"indexed": false,
							"internalType": "uint256",
							"name": "amount",
							"type": "uint256"
						}
					],
					"name": "Withdrawn",
					"type": "event"
				},
				{
					"stateMutability": "payable",
					"type": "fallback"
				},
				{
					"inputs": [],
					"name": "MAX_REWARD",
					"outputs": [
						{
							"internalType": "uint256",
							"name": "",
							"type": "uint256"
						}
					],
					"stateMutability": "view",
					"type": "function"
				},
				{
					"inputs": [],
					"name": "MIN_REWARD",
					"outputs": [
						{
							"internalType": "uint256",
							"name": "",
							"type": "uint256"
						}
					],
					"stateMutability": "view",
					"type": "function"
				},
				{
					"inputs": [],
					"name": "claimReward",
					"outputs": [
						{
							"internalType": "uint256",
							"name": "",
							"type": "uint256"
						}
					],
					"stateMutability": "nonpayable",
					"type": "function"
				},
				{
					"inputs": [],
					"name": "designatedOwner",
					"outputs": [
						{
							"internalType": "address",
							"name": "",
							"type": "address"
						}
					],
					"stateMutability": "view",
					"type": "function"
				},
				{
					"inputs": [],
					"name": "owner",
					"outputs": [
						{
							"internalType": "address",
							"name": "",
							"type": "address"
						}
					],
					"stateMutability": "view",
					"type": "function"
				},
				{
					"inputs": [],
					"name": "poolBalance",
					"outputs": [
						{
							"internalType": "uint256",
							"name": "",
							"type": "uint256"
						}
					],
					"stateMutability": "view",
					"type": "function"
				},
				{
					"inputs": [],
					"name": "renounceOwnership",
					"outputs": [],
					"stateMutability": "nonpayable",
					"type": "function"
				},
				{
					"inputs": [
						{
							"internalType": "address",
							"name": "_newOwner",
							"type": "address"
						}
					],
					"name": "setDesignatedOwner",
					"outputs": [],
					"stateMutability": "nonpayable",
					"type": "function"
				},
				{
					"inputs": [
						{
							"internalType": "address",
							"name": "newOwner",
							"type": "address"
						}
					],
					"name": "transferOwnership",
					"outputs": [],
					"stateMutability": "nonpayable",
					"type": "function"
				},
				{
					"inputs": [
						{
							"internalType": "uint256",
							"name": "amount",
							"type": "uint256"
						},
						{
							"internalType": "address payable",
							"name": "to",
							"type": "address"
						}
					],
					"name": "withdraw",
					"outputs": [],
					"stateMutability": "nonpayable",
					"type": "function"
				},
				{
					"stateMutability": "payable",
					"type": "receive"
				}
			],
			"devdoc": {
				"details": "Uses pseudo-randomness. Not secure for high-value scenarios.",
				"errors": {
					"OwnableInvalidOwner(address)": [
						{
							"details": "The owner is not a valid owner account. (eg. `address(0)`)"
						}
					],
					"OwnableUnauthorizedAccount(address)": [
						{
							"details": "The caller account is not authorized to perform an operation."
						}
					]
				},
				"kind": "dev",
				"methods": {
					"owner()": {
						"details": "Returns the address of the current owner."
					},
					"renounceOwnership()": {
						"details": "Leaves the contract without owner. It will not be possible to call `onlyOwner` functions. Can only be called by the current owner. NOTE: Renouncing ownership will leave the contract without an owner, thereby disabling any functionality that is only available to the owner."
					},
					"transferOwnership(address)": {
						"details": "Transfers ownership of the contract to a new account (`newOwner`). Can only be called by the current owner."
					}
				},
				"title": "TinyRewardFromOwner",
				"version": 1
			},
			"evm": {
				"assembly": "    /* \"TinyRewardFromOwner.sol\":369:3104  contract TinyRewardFromOwner is ReentrancyGuard, Ownable {... */\n  mstore(0x40, 0x80)\n    /* \"TinyRewardFromOwner.sol\":957:1211  constructor(address _designatedOwner) Ownable(msg.sender) {... */\n  callvalue\n  dup1\n  iszero\n  tag_1\n  jumpi\n  revert(0x00, 0x00)\ntag_1:\n  pop\n  mload(0x40)\n  sub(codesize, bytecodeSize)\n  dup1\n  bytecodeSize\n  dup4\n  codecopy\n  dup2\n  dup2\n  add\n  0x40\n  mstore\n  dup2\n  add\n  swap1\n  tag_2\n  swap2\n  swap1\n  tag_3\n  jump\t// in\ntag_2:\n    /* \"TinyRewardFromOwner.sol\":1003:1013  msg.sender */\n  caller\n    /* \"@openzeppelin/contracts/security/ReentrancyGuard.sol\":1716:1717  1 */\n  0x01\n    /* \"@openzeppelin/contracts/security/ReentrancyGuard.sol\":1821:1828  _status */\n  0x00\n    /* \"@openzeppelin/contracts/security/ReentrancyGuard.sol\":1821:1843  _status = _NOT_ENTERED */\n  dup2\n  swap1\n  sstore\n  pop\n    /* \"@openzeppelin/contracts/access/Ownable.sol\":1297:1298  0 */\n  0x00\n    /* \"@openzeppelin/contracts/access/Ownable.sol\":1273:1299  initialOwner == address(0) */\n  0xffffffffffffffffffffffffffffffffffffffff\n  and\n    /* \"@openzeppelin/contracts/access/Ownable.sol\":1273:1285  initialOwner */\n  dup2\n    /* \"@openzeppelin/contracts/access/Ownable.sol\":1273:1299  initialOwner == address(0) */\n  0xffffffffffffffffffffffffffffffffffffffff\n  and\n  sub\n    /* \"@openzeppelin/contracts/access/Ownable.sol\":1269:1364  if (initialOwner == address(0)) {... */\n  tag_9\n  jumpi\n    /* \"@openzeppelin/contracts/access/Ownable.sol\":1350:1351  0 */\n  0x00\n    /* \"@openzeppelin/contracts/access/Ownable.sol\":1322:1353  OwnableInvalidOwner(address(0)) */\n  mload(0x40)\n  0x1e4fbdf700000000000000000000000000000000000000000000000000000000\n  dup2\n  mstore\n  0x04\n  add\n  tag_10\n  swap2\n  swap1\n  tag_11\n  jump\t// in\ntag_10:\n  mload(0x40)\n  dup1\n  swap2\n  sub\n  swap1\n  revert\n    /* \"@openzeppelin/contracts/access/Ownable.sol\":1269:1364  if (initialOwner == address(0)) {... */\ntag_9:\n    /* \"@openzeppelin/contracts/access/Ownable.sol\":1373:1405  _transferOwnership(initialOwner) */\n  tag_12\n    /* \"@openzeppelin/contracts/access/Ownable.sol\":1392:1404  initialOwner */\n  dup2\n    /* \"@openzeppelin/contracts/access/Ownable.sol\":1373:1391  _transferOwnership */\n  shl(0x20, tag_13)\n    /* \"@openzeppelin/contracts/access/Ownable.sol\":1373:1405  _transferOwnership(initialOwner) */\n  0x20\n  shr\n  jump\t// in\ntag_12:\n    /* \"@openzeppelin/contracts/access/Ownable.sol\":1225:1412  constructor(address initialOwner) {... */\n  pop\n    /* \"TinyRewardFromOwner.sol\":1058:1059  0 */\n  0x00\n    /* \"TinyRewardFromOwner.sol\":1030:1060  _designatedOwner == address(0) */\n  0xffffffffffffffffffffffffffffffffffffffff\n  and\n    /* \"TinyRewardFromOwner.sol\":1030:1046  _designatedOwner */\n  dup2\n    /* \"TinyRewardFromOwner.sol\":1030:1060  _designatedOwner == address(0) */\n  0xffffffffffffffffffffffffffffffffffffffff\n  and\n  sub\n    /* \"TinyRewardFromOwner.sol\":1026:1184  if (_designatedOwner == address(0)) {... */\n  tag_15\n  jumpi\n    /* \"TinyRewardFromOwner.sol\":1095:1105  msg.sender */\n  caller\n    /* \"TinyRewardFromOwner.sol\":1077:1092  designatedOwner */\n  0x02\n  0x00\n    /* \"TinyRewardFromOwner.sol\":1077:1105  designatedOwner = msg.sender */\n  0x0100\n  exp\n  dup2\n  sload\n  dup2\n  0xffffffffffffffffffffffffffffffffffffffff\n  mul\n  not\n  and\n  swap1\n  dup4\n  0xffffffffffffffffffffffffffffffffffffffff\n  and\n  mul\n  or\n  swap1\n  sstore\n  pop\n    /* \"TinyRewardFromOwner.sol\":1026:1184  if (_designatedOwner == address(0)) {... */\n  jump(tag_16)\ntag_15:\n    /* \"TinyRewardFromOwner.sol\":1156:1172  _designatedOwner */\n  dup1\n    /* \"TinyRewardFromOwner.sol\":1138:1153  designatedOwner */\n  0x02\n  0x00\n    /* \"TinyRewardFromOwner.sol\":1138:1172  designatedOwner = _designatedOwner */\n  0x0100\n  exp\n  dup2\n  sload\n  dup2\n  0xffffffffffffffffffffffffffffffffffffffff\n  mul\n  not\n  and\n  swap1\n  dup4\n  0xffffffffffffffffffffffffffffffffffffffff\n  and\n  mul\n  or\n  swap1\n  sstore\n  pop\n    /* \"TinyRewardFromOwner.sol\":1026:1184  if (_designatedOwner == address(0)) {... */\ntag_16:\n    /* \"TinyRewardFromOwner.sol\":1202:1203  0 */\n  0x00\n    /* \"TinyRewardFromOwner.sol\":1194:1199  nonce */\n  0x03\n    /* \"TinyRewardFromOwner.sol\":1194:1203  nonce = 0 */\n  dup2\n  swap1\n  sstore\n  pop\n    /* \"TinyRewardFromOwner.sol\":957:1211  constructor(address _designatedOwner) Ownable(msg.sender) {... */\n  pop\n    /* \"TinyRewardFromOwner.sol\":369:3104  contract TinyRewardFromOwner is ReentrancyGuard, Ownable {... */\n  jump(tag_17)\n    /* \"@openzeppelin/contracts/access/Ownable.sol\":2912:3099  function _transferOwnership(address newOwner) internal virtual {... */\ntag_13:\n    /* \"@openzeppelin/contracts/access/Ownable.sol\":2985:3001  address oldOwner */\n  0x00\n    /* \"@openzeppelin/contracts/access/Ownable.sol\":3004:3010  _owner */\n  0x01\n  0x00\n  swap1\n  sload\n  swap1\n  0x0100\n  exp\n  swap1\n  div\n  0xffffffffffffffffffffffffffffffffffffffff\n  and\n    /* \"@openzeppelin/contracts/access/Ownable.sol\":2985:3010  address oldOwner = _owner */\n  swap1\n  pop\n    /* \"@openzeppelin/contracts/access/Ownable.sol\":3029:3037  newOwner */\n  dup2\n    /* \"@openzeppelin/contracts/access/Ownable.sol\":3020:3026  _owner */\n  0x01\n  0x00\n    /* \"@openzeppelin/contracts/access/Ownable.sol\":3020:3037  _owner = newOwner */\n  0x0100\n  exp\n  dup2\n  sload\n  dup2\n  0xffffffffffffffffffffffffffffffffffffffff\n  mul\n  not\n  and\n  swap1\n  dup4\n  0xffffffffffffffffffffffffffffffffffffffff\n  and\n  mul\n  or\n  swap1\n  sstore\n  pop\n    /* \"@openzeppelin/contracts/access/Ownable.sol\":3083:3091  newOwner */\n  dup2\n    /* \"@openzeppelin/contracts/access/Ownable.sol\":3052:3092  OwnershipTransferred(oldOwner, newOwner) */\n  0xffffffffffffffffffffffffffffffffffffffff\n  and\n    /* \"@openzeppelin/contracts/access/Ownable.sol\":3073:3081  oldOwner */\n  dup2\n    /* \"@openzeppelin/contracts/access/Ownable.sol\":3052:3092  OwnershipTransferred(oldOwner, newOwner) */\n  0xffffffffffffffffffffffffffffffffffffffff\n  and\n  0x8be0079c531659141344cd1fd0a4f28419497f9722a3daafe3b4186f6b6457e0\n  mload(0x40)\n  mload(0x40)\n  dup1\n  swap2\n  sub\n  swap1\n  log3\n    /* \"@openzeppelin/contracts/access/Ownable.sol\":2975:3099  {... */\n  pop\n    /* \"@openzeppelin/contracts/access/Ownable.sol\":2912:3099  function _transferOwnership(address newOwner) internal virtual {... */\n  pop\n  jump\t// out\n    /* \"#utility.yul\":88:205   */\ntag_20:\n    /* \"#utility.yul\":197:198   */\n  0x00\n    /* \"#utility.yul\":194:195   */\n  0x00\n    /* \"#utility.yul\":187:199   */\n  revert\n    /* \"#utility.yul\":334:460   */\ntag_22:\n    /* \"#utility.yul\":371:378   */\n  0x00\n    /* \"#utility.yul\":411:453   */\n  0xffffffffffffffffffffffffffffffffffffffff\n    /* \"#utility.yul\":404:409   */\n  dup3\n    /* \"#utility.yul\":400:454   */\n  and\n    /* \"#utility.yul\":389:454   */\n  swap1\n  pop\n    /* \"#utility.yul\":334:460   */\n  swap2\n  swap1\n  pop\n  jump\t// out\n    /* \"#utility.yul\":466:562   */\ntag_23:\n    /* \"#utility.yul\":503:510   */\n  0x00\n    /* \"#utility.yul\":532:556   */\n  tag_33\n    /* \"#utility.yul\":550:555   */\n  dup3\n    /* \"#utility.yul\":532:556   */\n  tag_22\n  jump\t// in\ntag_33:\n    /* \"#utility.yul\":521:556   */\n  swap1\n  pop\n    /* \"#utility.yul\":466:562   */\n  swap2\n  swap1\n  pop\n  jump\t// out\n    /* \"#utility.yul\":568:690   */\ntag_24:\n    /* \"#utility.yul\":641:665   */\n  tag_35\n    /* \"#utility.yul\":659:664   */\n  dup2\n    /* \"#utility.yul\":641:665   */\n  tag_23\n  jump\t// in\ntag_35:\n    /* \"#utility.yul\":634:639   */\n  dup2\n    /* \"#utility.yul\":631:666   */\n  eq\n    /* \"#utility.yul\":621:684   */\n  tag_36\n  jumpi\n    /* \"#utility.yul\":680:681   */\n  0x00\n    /* \"#utility.yul\":677:678   */\n  0x00\n    /* \"#utility.yul\":670:682   */\n  revert\n    /* \"#utility.yul\":621:684   */\ntag_36:\n    /* \"#utility.yul\":568:690   */\n  pop\n  jump\t// out\n    /* \"#utility.yul\":696:839   */\ntag_25:\n    /* \"#utility.yul\":753:758   */\n  0x00\n    /* \"#utility.yul\":784:790   */\n  dup2\n    /* \"#utility.yul\":778:791   */\n  mload\n    /* \"#utility.yul\":769:791   */\n  swap1\n  pop\n    /* \"#utility.yul\":800:833   */\n  tag_38\n    /* \"#utility.yul\":827:832   */\n  dup2\n    /* \"#utility.yul\":800:833   */\n  tag_24\n  jump\t// in\ntag_38:\n    /* \"#utility.yul\":696:839   */\n  swap3\n  swap2\n  pop\n  pop\n  jump\t// out\n    /* \"#utility.yul\":845:1196   */\ntag_3:\n    /* \"#utility.yul\":915:921   */\n  0x00\n    /* \"#utility.yul\":964:966   */\n  0x20\n    /* \"#utility.yul\":952:961   */\n  dup3\n    /* \"#utility.yul\":943:950   */\n  dup5\n    /* \"#utility.yul\":939:962   */\n  sub\n    /* \"#utility.yul\":935:967   */\n  slt\n    /* \"#utility.yul\":932:1051   */\n  iszero\n  tag_40\n  jumpi\n    /* \"#utility.yul\":970:1049   */\n  tag_41\n  tag_20\n  jump\t// in\ntag_41:\n    /* \"#utility.yul\":932:1051   */\ntag_40:\n    /* \"#utility.yul\":1090:1091   */\n  0x00\n    /* \"#utility.yul\":1115:1179   */\n  tag_42\n    /* \"#utility.yul\":1171:1178   */\n  dup5\n    /* \"#utility.yul\":1162:1168   */\n  dup3\n    /* \"#utility.yul\":1151:1160   */\n  dup6\n    /* \"#utility.yul\":1147:1169   */\n  add\n    /* \"#utility.yul\":1115:1179   */\n  tag_25\n  jump\t// in\ntag_42:\n    /* \"#utility.yul\":1105:1179   */\n  swap2\n  pop\n    /* \"#utility.yul\":1061:1189   */\n  pop\n    /* \"#utility.yul\":845:1196   */\n  swap3\n  swap2\n  pop\n  pop\n  jump\t// out\n    /* \"#utility.yul\":1202:1320   */\ntag_26:\n    /* \"#utility.yul\":1289:1313   */\n  tag_44\n    /* \"#utility.yul\":1307:1312   */\n  dup2\n    /* \"#utility.yul\":1289:1313   */\n  tag_23\n  jump\t// in\ntag_44:\n    /* \"#utility.yul\":1284:1287   */\n  dup3\n    /* \"#utility.yul\":1277:1314   */\n  mstore\n    /* \"#utility.yul\":1202:1320   */\n  pop\n  pop\n  jump\t// out\n    /* \"#utility.yul\":1326:1548   */\ntag_11:\n    /* \"#utility.yul\":1419:1423   */\n  0x00\n    /* \"#utility.yul\":1457:1459   */\n  0x20\n    /* \"#utility.yul\":1446:1455   */\n  dup3\n    /* \"#utility.yul\":1442:1460   */\n  add\n    /* \"#utility.yul\":1434:1460   */\n  swap1\n  pop\n    /* \"#utility.yul\":1470:1541   */\n  tag_46\n    /* \"#utility.yul\":1538:1539   */\n  0x00\n    /* \"#utility.yul\":1527:1536   */\n  dup4\n    /* \"#utility.yul\":1523:1540   */\n  add\n    /* \"#utility.yul\":1514:1520   */\n  dup5\n    /* \"#utility.yul\":1470:1541   */\n  tag_26\n  jump\t// in\ntag_46:\n    /* \"#utility.yul\":1326:1548   */\n  swap3\n  swap2\n  pop\n  pop\n  jump\t// out\n    /* \"TinyRewardFromOwner.sol\":369:3104  contract TinyRewardFromOwner is ReentrancyGuard, Ownable {... */\ntag_17:\n  dataSize(sub_0)\n  dup1\n  dataOffset(sub_0)\n  0x00\n  codecopy\n  0x00\n  return\nstop\n\nsub_0: assembly {\n        /* \"TinyRewardFromOwner.sol\":369:3104  contract TinyRewardFromOwner is ReentrancyGuard, Ownable {... */\n      mstore(0x40, 0x80)\n      jumpi(tag_1, lt(calldatasize, 0x04))\n      shr(0xe0, calldataload(0x00))\n      dup1\n      0x80a33db1\n      gt\n      tag_13\n      jumpi\n      dup1\n      0x80a33db1\n      eq\n      tag_8\n      jumpi\n      dup1\n      0x8da5cb5b\n      eq\n      tag_9\n      jumpi\n      dup1\n      0x96365d44\n      eq\n      tag_10\n      jumpi\n      dup1\n      0xb88a802f\n      eq\n      tag_11\n      jumpi\n      dup1\n      0xf2fde38b\n      eq\n      tag_12\n      jumpi\n      jump(tag_2)\n    tag_13:\n      dup1\n      0xf714ce\n      eq\n      tag_3\n      jumpi\n      dup1\n      0x0e1505e0\n      eq\n      tag_4\n      jumpi\n      dup1\n      0x48ea0c03\n      eq\n      tag_5\n      jumpi\n      dup1\n      0x715018a6\n      eq\n      tag_6\n      jumpi\n      dup1\n      0x73138736\n      eq\n      tag_7\n      jumpi\n      jump(tag_2)\n    tag_1:\n      jumpi(tag_2, calldatasize)\n        /* \"TinyRewardFromOwner.sol\":1272:1282  msg.sender */\n      caller\n        /* \"TinyRewardFromOwner.sol\":1262:1294  Deposited(msg.sender, msg.value) */\n      0xffffffffffffffffffffffffffffffffffffffff\n      and\n      0x2da466a7b24304f47e87fa2e1e5a81b9831ce54fec19055ce277ca2f39ba42c4\n        /* \"TinyRewardFromOwner.sol\":1284:1293  msg.value */\n      callvalue\n        /* \"TinyRewardFromOwner.sol\":1262:1294  Deposited(msg.sender, msg.value) */\n      mload(0x40)\n      tag_16\n      swap2\n      swap1\n      tag_17\n      jump\t// in\n    tag_16:\n      mload(0x40)\n      dup1\n      swap2\n      sub\n      swap1\n      log2\n        /* \"TinyRewardFromOwner.sol\":369:3104  contract TinyRewardFromOwner is ReentrancyGuard, Ownable {... */\n      stop\n    tag_2:\n        /* \"TinyRewardFromOwner.sol\":1364:1374  msg.sender */\n      caller\n        /* \"TinyRewardFromOwner.sol\":1354:1386  Deposited(msg.sender, msg.value) */\n      0xffffffffffffffffffffffffffffffffffffffff\n      and\n      0x2da466a7b24304f47e87fa2e1e5a81b9831ce54fec19055ce277ca2f39ba42c4\n        /* \"TinyRewardFromOwner.sol\":1376:1385  msg.value */\n      callvalue\n        /* \"TinyRewardFromOwner.sol\":1354:1386  Deposited(msg.sender, msg.value) */\n      mload(0x40)\n      tag_20\n      swap2\n      swap1\n      tag_17\n      jump\t// in\n    tag_20:\n      mload(0x40)\n      dup1\n      swap2\n      sub\n      swap1\n      log2\n        /* \"TinyRewardFromOwner.sol\":369:3104  contract TinyRewardFromOwner is ReentrancyGuard, Ownable {... */\n      stop\n        /* \"TinyRewardFromOwner.sol\":2253:2586  function withdraw(uint256 amount, address payable to)... */\n    tag_3:\n      callvalue\n      dup1\n      iszero\n      tag_21\n      jumpi\n      revert(0x00, 0x00)\n    tag_21:\n      pop\n      tag_22\n      0x04\n      dup1\n      calldatasize\n      sub\n      dup2\n      add\n      swap1\n      tag_23\n      swap2\n      swap1\n      tag_24\n      jump\t// in\n    tag_23:\n      tag_25\n      jump\t// in\n    tag_22:\n      stop\n        /* \"TinyRewardFromOwner.sol\":491:531  uint256 public constant MAX_REWARD = 100 */\n    tag_4:\n      callvalue\n      dup1\n      iszero\n      tag_26\n      jumpi\n      revert(0x00, 0x00)\n    tag_26:\n      pop\n      tag_27\n      tag_28\n      jump\t// in\n    tag_27:\n      mload(0x40)\n      tag_29\n      swap2\n      swap1\n      tag_17\n      jump\t// in\n    tag_29:\n      mload(0x40)\n      dup1\n      swap2\n      sub\n      swap1\n      return\n        /* \"TinyRewardFromOwner.sol\":433:472  uint256 public constant MIN_REWARD = 50 */\n    tag_5:\n      callvalue\n      dup1\n      iszero\n      tag_30\n      jumpi\n      revert(0x00, 0x00)\n    tag_30:\n      pop\n      tag_31\n      tag_32\n      jump\t// in\n    tag_31:\n      mload(0x40)\n      tag_33\n      swap2\n      swap1\n      tag_17\n      jump\t// in\n    tag_33:\n      mload(0x40)\n      dup1\n      swap2\n      sub\n      swap1\n      return\n        /* \"@openzeppelin/contracts/access/Ownable.sol\":2293:2394  function renounceOwnership() public virtual onlyOwner {... */\n    tag_6:\n      callvalue\n      dup1\n      iszero\n      tag_34\n      jumpi\n      revert(0x00, 0x00)\n    tag_34:\n      pop\n      tag_35\n      tag_36\n      jump\t// in\n    tag_35:\n      stop\n        /* \"TinyRewardFromOwner.sol\":1402:1654  function setDesignatedOwner(address _newOwner) external onlyOwner {... */\n    tag_7:\n      callvalue\n      dup1\n      iszero\n      tag_37\n      jumpi\n      revert(0x00, 0x00)\n    tag_37:\n      pop\n      tag_38\n      0x04\n      dup1\n      calldatasize\n      sub\n      dup2\n      add\n      swap1\n      tag_39\n      swap2\n      swap1\n      tag_40\n      jump\t// in\n    tag_39:\n      tag_41\n      jump\t// in\n    tag_38:\n      stop\n        /* \"TinyRewardFromOwner.sol\":552:582  address public designatedOwner */\n    tag_8:\n      callvalue\n      dup1\n      iszero\n      tag_42\n      jumpi\n      revert(0x00, 0x00)\n    tag_42:\n      pop\n      tag_43\n      tag_44\n      jump\t// in\n    tag_43:\n      mload(0x40)\n      tag_45\n      swap2\n      swap1\n      tag_46\n      jump\t// in\n    tag_45:\n      mload(0x40)\n      dup1\n      swap2\n      sub\n      swap1\n      return\n        /* \"@openzeppelin/contracts/access/Ownable.sol\":1638:1723  function owner() public view virtual returns (address) {... */\n    tag_9:\n      callvalue\n      dup1\n      iszero\n      tag_47\n      jumpi\n      revert(0x00, 0x00)\n    tag_47:\n      pop\n      tag_48\n      tag_49\n      jump\t// in\n    tag_48:\n      mload(0x40)\n      tag_50\n      swap2\n      swap1\n      tag_46\n      jump\t// in\n    tag_50:\n      mload(0x40)\n      dup1\n      swap2\n      sub\n      swap1\n      return\n        /* \"TinyRewardFromOwner.sol\":2594:2696  function poolBalance() external view returns (uint256) {... */\n    tag_10:\n      callvalue\n      dup1\n      iszero\n      tag_51\n      jumpi\n      revert(0x00, 0x00)\n    tag_51:\n      pop\n      tag_52\n      tag_53\n      jump\t// in\n    tag_52:\n      mload(0x40)\n      tag_54\n      swap2\n      swap1\n      tag_17\n      jump\t// in\n    tag_54:\n      mload(0x40)\n      dup1\n      swap2\n      sub\n      swap1\n      return\n        /* \"TinyRewardFromOwner.sol\":1662:2245  function claimReward() external nonReentrant returns (uint256) {... */\n    tag_11:\n      callvalue\n      dup1\n      iszero\n      tag_55\n      jumpi\n      revert(0x00, 0x00)\n    tag_55:\n      pop\n      tag_56\n      tag_57\n      jump\t// in\n    tag_56:\n      mload(0x40)\n      tag_58\n      swap2\n      swap1\n      tag_17\n      jump\t// in\n    tag_58:\n      mload(0x40)\n      dup1\n      swap2\n      sub\n      swap1\n      return\n        /* \"@openzeppelin/contracts/access/Ownable.sol\":2543:2758  function transferOwnership(address newOwner) public virtual onlyOwner {... */\n    tag_12:\n      callvalue\n      dup1\n      iszero\n      tag_59\n      jumpi\n      revert(0x00, 0x00)\n    tag_59:\n      pop\n      tag_60\n      0x04\n      dup1\n      calldatasize\n      sub\n      dup2\n      add\n      swap1\n      tag_61\n      swap2\n      swap1\n      tag_40\n      jump\t// in\n    tag_61:\n      tag_62\n      jump\t// in\n    tag_60:\n      stop\n        /* \"TinyRewardFromOwner.sol\":2253:2586  function withdraw(uint256 amount, address payable to)... */\n    tag_25:\n        /* \"@openzeppelin/contracts/access/Ownable.sol\":1531:1544  _checkOwner() */\n      tag_64\n        /* \"@openzeppelin/contracts/access/Ownable.sol\":1531:1542  _checkOwner */\n      tag_65\n        /* \"@openzeppelin/contracts/access/Ownable.sol\":1531:1544  _checkOwner() */\n      jump\t// in\n    tag_64:\n        /* \"@openzeppelin/contracts/security/ReentrancyGuard.sol\":2261:2282  _nonReentrantBefore() */\n      tag_67\n        /* \"@openzeppelin/contracts/security/ReentrancyGuard.sol\":2261:2280  _nonReentrantBefore */\n      tag_68\n        /* \"@openzeppelin/contracts/security/ReentrancyGuard.sol\":2261:2282  _nonReentrantBefore() */\n      jump\t// in\n    tag_67:\n        /* \"TinyRewardFromOwner.sol\":2400:2421  address(this).balance */\n      selfbalance\n        /* \"TinyRewardFromOwner.sol\":2390:2396  amount */\n      dup3\n        /* \"TinyRewardFromOwner.sol\":2390:2421  amount <= address(this).balance */\n      gt\n      iszero\n        /* \"TinyRewardFromOwner.sol\":2382:2446  require(amount <= address(this).balance, \"Insufficient balance\") */\n      tag_70\n      jumpi\n      mload(0x40)\n      0x08c379a000000000000000000000000000000000000000000000000000000000\n      dup2\n      mstore\n      0x04\n      add\n      tag_71\n      swap1\n      tag_72\n      jump\t// in\n    tag_71:\n      mload(0x40)\n      dup1\n      swap2\n      sub\n      swap1\n      revert\n    tag_70:\n        /* \"TinyRewardFromOwner.sol\":2458:2467  bool sent */\n      0x00\n        /* \"TinyRewardFromOwner.sol\":2472:2474  to */\n      dup2\n        /* \"TinyRewardFromOwner.sol\":2472:2479  to.call */\n      0xffffffffffffffffffffffffffffffffffffffff\n      and\n        /* \"TinyRewardFromOwner.sol\":2487:2493  amount */\n      dup4\n        /* \"TinyRewardFromOwner.sol\":2472:2498  to.call{value: amount}(\"\") */\n      mload(0x40)\n      tag_73\n      swap1\n      tag_74\n      jump\t// in\n    tag_73:\n      0x00\n      mload(0x40)\n      dup1\n      dup4\n      sub\n      dup2\n      dup6\n      dup8\n      gas\n      call\n      swap3\n      pop\n      pop\n      pop\n      returndatasize\n      dup1\n      0x00\n      dup2\n      eq\n      tag_77\n      jumpi\n      mload(0x40)\n      swap2\n      pop\n      and(add(returndatasize, 0x3f), not(0x1f))\n      dup3\n      add\n      0x40\n      mstore\n      returndatasize\n      dup3\n      mstore\n      returndatasize\n      0x00\n      0x20\n      dup5\n      add\n      returndatacopy\n      jump(tag_76)\n    tag_77:\n      0x60\n      swap2\n      pop\n    tag_76:\n      pop\n        /* \"TinyRewardFromOwner.sol\":2457:2498  (bool sent,) = to.call{value: amount}(\"\") */\n      pop\n      swap1\n      pop\n        /* \"TinyRewardFromOwner.sol\":2517:2521  sent */\n      dup1\n        /* \"TinyRewardFromOwner.sol\":2509:2541  require(sent, \"Withdraw failed\") */\n      tag_78\n      jumpi\n      mload(0x40)\n      0x08c379a000000000000000000000000000000000000000000000000000000000\n      dup2\n      mstore\n      0x04\n      add\n      tag_79\n      swap1\n      tag_80\n      jump\t// in\n    tag_79:\n      mload(0x40)\n      dup1\n      swap2\n      sub\n      swap1\n      revert\n    tag_78:\n        /* \"TinyRewardFromOwner.sol\":2567:2569  to */\n      dup2\n        /* \"TinyRewardFromOwner.sol\":2557:2578  Withdrawn(to, amount) */\n      0xffffffffffffffffffffffffffffffffffffffff\n      and\n      0x7084f5476618d8e60b11ef0d7d3f06914655adb8793e28ff7f018d4c76d505d5\n        /* \"TinyRewardFromOwner.sol\":2571:2577  amount */\n      dup5\n        /* \"TinyRewardFromOwner.sol\":2557:2578  Withdrawn(to, amount) */\n      mload(0x40)\n      tag_81\n      swap2\n      swap1\n      tag_17\n      jump\t// in\n    tag_81:\n      mload(0x40)\n      dup1\n      swap2\n      sub\n      swap1\n      log2\n        /* \"TinyRewardFromOwner.sol\":2371:2586  {... */\n      pop\n        /* \"@openzeppelin/contracts/security/ReentrancyGuard.sol\":2303:2323  _nonReentrantAfter() */\n      tag_82\n        /* \"@openzeppelin/contracts/security/ReentrancyGuard.sol\":2303:2321  _nonReentrantAfter */\n      tag_83\n        /* \"@openzeppelin/contracts/security/ReentrancyGuard.sol\":2303:2323  _nonReentrantAfter() */\n      jump\t// in\n    tag_82:\n        /* \"TinyRewardFromOwner.sol\":2253:2586  function withdraw(uint256 amount, address payable to)... */\n      pop\n      pop\n      jump\t// out\n        /* \"TinyRewardFromOwner.sol\":491:531  uint256 public constant MAX_REWARD = 100 */\n    tag_28:\n        /* \"TinyRewardFromOwner.sol\":528:531  100 */\n      0x64\n        /* \"TinyRewardFromOwner.sol\":491:531  uint256 public constant MAX_REWARD = 100 */\n      dup2\n      jump\t// out\n        /* \"TinyRewardFromOwner.sol\":433:472  uint256 public constant MIN_REWARD = 50 */\n    tag_32:\n        /* \"TinyRewardFromOwner.sol\":470:472  50 */\n      0x32\n        /* \"TinyRewardFromOwner.sol\":433:472  uint256 public constant MIN_REWARD = 50 */\n      dup2\n      jump\t// out\n        /* \"@openzeppelin/contracts/access/Ownable.sol\":2293:2394  function renounceOwnership() public virtual onlyOwner {... */\n    tag_36:\n        /* \"@openzeppelin/contracts/access/Ownable.sol\":1531:1544  _checkOwner() */\n      tag_85\n        /* \"@openzeppelin/contracts/access/Ownable.sol\":1531:1542  _checkOwner */\n      tag_65\n        /* \"@openzeppelin/contracts/access/Ownable.sol\":1531:1544  _checkOwner() */\n      jump\t// in\n    tag_85:\n        /* \"@openzeppelin/contracts/access/Ownable.sol\":2357:2387  _transferOwnership(address(0)) */\n      tag_87\n        /* \"@openzeppelin/contracts/access/Ownable.sol\":2384:2385  0 */\n      0x00\n        /* \"@openzeppelin/contracts/access/Ownable.sol\":2357:2375  _transferOwnership */\n      tag_88\n        /* \"@openzeppelin/contracts/access/Ownable.sol\":2357:2387  _transferOwnership(address(0)) */\n      jump\t// in\n    tag_87:\n        /* \"@openzeppelin/contracts/access/Ownable.sol\":2293:2394  function renounceOwnership() public virtual onlyOwner {... */\n      jump\t// out\n        /* \"TinyRewardFromOwner.sol\":1402:1654  function setDesignatedOwner(address _newOwner) external onlyOwner {... */\n    tag_41:\n        /* \"@openzeppelin/contracts/access/Ownable.sol\":1531:1544  _checkOwner() */\n      tag_90\n        /* \"@openzeppelin/contracts/access/Ownable.sol\":1531:1542  _checkOwner */\n      tag_65\n        /* \"@openzeppelin/contracts/access/Ownable.sol\":1531:1544  _checkOwner() */\n      jump\t// in\n    tag_90:\n        /* \"TinyRewardFromOwner.sol\":1508:1509  0 */\n      0x00\n        /* \"TinyRewardFromOwner.sol\":1487:1510  _newOwner != address(0) */\n      0xffffffffffffffffffffffffffffffffffffffff\n      and\n        /* \"TinyRewardFromOwner.sol\":1487:1496  _newOwner */\n      dup2\n        /* \"TinyRewardFromOwner.sol\":1487:1510  _newOwner != address(0) */\n      0xffffffffffffffffffffffffffffffffffffffff\n      and\n      sub\n        /* \"TinyRewardFromOwner.sol\":1479:1524  require(_newOwner != address(0), \"zero addr\") */\n      tag_92\n      jumpi\n      mload(0x40)\n      0x08c379a000000000000000000000000000000000000000000000000000000000\n      dup2\n      mstore\n      0x04\n      add\n      tag_93\n      swap1\n      tag_94\n      jump\t// in\n    tag_93:\n      mload(0x40)\n      dup1\n      swap2\n      sub\n      swap1\n      revert\n    tag_92:\n        /* \"TinyRewardFromOwner.sol\":1535:1546  address old */\n      0x00\n        /* \"TinyRewardFromOwner.sol\":1549:1564  designatedOwner */\n      0x02\n      0x00\n      swap1\n      sload\n      swap1\n      0x0100\n      exp\n      swap1\n      div\n      0xffffffffffffffffffffffffffffffffffffffff\n      and\n        /* \"TinyRewardFromOwner.sol\":1535:1564  address old = designatedOwner */\n      swap1\n      pop\n        /* \"TinyRewardFromOwner.sol\":1593:1602  _newOwner */\n      dup2\n        /* \"TinyRewardFromOwner.sol\":1575:1590  designatedOwner */\n      0x02\n      0x00\n        /* \"TinyRewardFromOwner.sol\":1575:1602  designatedOwner = _newOwner */\n      0x0100\n      exp\n      dup2\n      sload\n      dup2\n      0xffffffffffffffffffffffffffffffffffffffff\n      mul\n      not\n      and\n      swap1\n      dup4\n      0xffffffffffffffffffffffffffffffffffffffff\n      and\n      mul\n      or\n      swap1\n      sstore\n      pop\n        /* \"TinyRewardFromOwner.sol\":1636:1645  _newOwner */\n      dup2\n        /* \"TinyRewardFromOwner.sol\":1618:1646  OwnerChanged(old, _newOwner) */\n      0xffffffffffffffffffffffffffffffffffffffff\n      and\n        /* \"TinyRewardFromOwner.sol\":1631:1634  old */\n      dup2\n        /* \"TinyRewardFromOwner.sol\":1618:1646  OwnerChanged(old, _newOwner) */\n      0xffffffffffffffffffffffffffffffffffffffff\n      and\n      0xb532073b38c83145e3e5135377a08bf9aab55bc0fd7c1179cd4fb995d2a5159c\n      mload(0x40)\n      mload(0x40)\n      dup1\n      swap2\n      sub\n      swap1\n      log3\n        /* \"TinyRewardFromOwner.sol\":1468:1654  {... */\n      pop\n        /* \"TinyRewardFromOwner.sol\":1402:1654  function setDesignatedOwner(address _newOwner) external onlyOwner {... */\n      pop\n      jump\t// out\n        /* \"TinyRewardFromOwner.sol\":552:582  address public designatedOwner */\n    tag_44:\n      0x02\n      0x00\n      swap1\n      sload\n      swap1\n      0x0100\n      exp\n      swap1\n      div\n      0xffffffffffffffffffffffffffffffffffffffff\n      and\n      dup2\n      jump\t// out\n        /* \"@openzeppelin/contracts/access/Ownable.sol\":1638:1723  function owner() public view virtual returns (address) {... */\n    tag_49:\n        /* \"@openzeppelin/contracts/access/Ownable.sol\":1684:1691  address */\n      0x00\n        /* \"@openzeppelin/contracts/access/Ownable.sol\":1710:1716  _owner */\n      0x01\n      0x00\n      swap1\n      sload\n      swap1\n      0x0100\n      exp\n      swap1\n      div\n      0xffffffffffffffffffffffffffffffffffffffff\n      and\n        /* \"@openzeppelin/contracts/access/Ownable.sol\":1703:1716  return _owner */\n      swap1\n      pop\n        /* \"@openzeppelin/contracts/access/Ownable.sol\":1638:1723  function owner() public view virtual returns (address) {... */\n      swap1\n      jump\t// out\n        /* \"TinyRewardFromOwner.sol\":2594:2696  function poolBalance() external view returns (uint256) {... */\n    tag_53:\n        /* \"TinyRewardFromOwner.sol\":2640:2647  uint256 */\n      0x00\n        /* \"TinyRewardFromOwner.sol\":2667:2688  address(this).balance */\n      selfbalance\n        /* \"TinyRewardFromOwner.sol\":2660:2688  return address(this).balance */\n      swap1\n      pop\n        /* \"TinyRewardFromOwner.sol\":2594:2696  function poolBalance() external view returns (uint256) {... */\n      swap1\n      jump\t// out\n        /* \"TinyRewardFromOwner.sol\":1662:2245  function claimReward() external nonReentrant returns (uint256) {... */\n    tag_57:\n        /* \"TinyRewardFromOwner.sol\":1716:1723  uint256 */\n      0x00\n        /* \"@openzeppelin/contracts/security/ReentrancyGuard.sol\":2261:2282  _nonReentrantBefore() */\n      tag_98\n        /* \"@openzeppelin/contracts/security/ReentrancyGuard.sol\":2261:2280  _nonReentrantBefore */\n      tag_68\n        /* \"@openzeppelin/contracts/security/ReentrancyGuard.sol\":2261:2282  _nonReentrantBefore() */\n      jump\t// in\n    tag_98:\n        /* \"TinyRewardFromOwner.sol\":1736:1751  uint256 balance */\n      0x00\n        /* \"TinyRewardFromOwner.sol\":1754:1775  address(this).balance */\n      selfbalance\n        /* \"TinyRewardFromOwner.sol\":1736:1775  uint256 balance = address(this).balance */\n      swap1\n      pop\n        /* \"TinyRewardFromOwner.sol\":470:472  50 */\n      0x32\n        /* \"TinyRewardFromOwner.sol\":1794:1801  balance */\n      dup2\n        /* \"TinyRewardFromOwner.sol\":1794:1815  balance >= MIN_REWARD */\n      lt\n      iszero\n        /* \"TinyRewardFromOwner.sol\":1786:1837  require(balance >= MIN_REWARD, \"Insufficient pool\") */\n      tag_100\n      jumpi\n      mload(0x40)\n      0x08c379a000000000000000000000000000000000000000000000000000000000\n      dup2\n      mstore\n      0x04\n      add\n      tag_101\n      swap1\n      tag_102\n      jump\t// in\n    tag_101:\n      mload(0x40)\n      dup1\n      swap2\n      sub\n      swap1\n      revert\n    tag_100:\n        /* \"TinyRewardFromOwner.sol\":1850:1861  uint256 rnd */\n      0x00\n        /* \"TinyRewardFromOwner.sol\":1864:1873  _random() */\n      tag_103\n        /* \"TinyRewardFromOwner.sol\":1864:1871  _random */\n      tag_104\n        /* \"TinyRewardFromOwner.sol\":1864:1873  _random() */\n      jump\t// in\n    tag_103:\n        /* \"TinyRewardFromOwner.sol\":1850:1873  uint256 rnd = _random() */\n      swap1\n      pop\n        /* \"TinyRewardFromOwner.sol\":1884:1897  uint256 range */\n      0x00\n        /* \"TinyRewardFromOwner.sol\":1927:1928  1 */\n      0x01\n        /* \"TinyRewardFromOwner.sol\":470:472  50 */\n      0x32\n        /* \"TinyRewardFromOwner.sol\":528:531  100 */\n      0x64\n        /* \"TinyRewardFromOwner.sol\":1901:1924  MAX_REWARD - MIN_REWARD */\n      tag_105\n      swap2\n      swap1\n      tag_106\n      jump\t// in\n    tag_105:\n        /* \"TinyRewardFromOwner.sol\":1901:1928  MAX_REWARD - MIN_REWARD + 1 */\n      tag_107\n      swap2\n      swap1\n      tag_108\n      jump\t// in\n    tag_107:\n        /* \"TinyRewardFromOwner.sol\":1884:1929  uint256 range = (MAX_REWARD - MIN_REWARD + 1) */\n      swap1\n      pop\n        /* \"TinyRewardFromOwner.sol\":1946:1960  uint256 amount */\n      0x00\n        /* \"TinyRewardFromOwner.sol\":1983:1988  range */\n      dup2\n        /* \"TinyRewardFromOwner.sol\":1977:1980  rnd */\n      dup4\n        /* \"TinyRewardFromOwner.sol\":1977:1988  rnd % range */\n      tag_109\n      swap2\n      swap1\n      tag_110\n      jump\t// in\n    tag_109:\n        /* \"TinyRewardFromOwner.sol\":470:472  50 */\n      0x32\n        /* \"TinyRewardFromOwner.sol\":1963:1989  MIN_REWARD + (rnd % range) */\n      tag_111\n      swap2\n      swap1\n      tag_108\n      jump\t// in\n    tag_111:\n        /* \"TinyRewardFromOwner.sol\":1946:1989  uint256 amount = MIN_REWARD + (rnd % range) */\n      swap1\n      pop\n        /* \"TinyRewardFromOwner.sol\":2028:2035  balance */\n      dup4\n        /* \"TinyRewardFromOwner.sol\":2019:2025  amount */\n      dup2\n        /* \"TinyRewardFromOwner.sol\":2019:2035  amount > balance */\n      gt\n        /* \"TinyRewardFromOwner.sol\":2015:2053  if (amount > balance) amount = balance */\n      iszero\n      tag_112\n      jumpi\n        /* \"TinyRewardFromOwner.sol\":2046:2053  balance */\n      dup4\n        /* \"TinyRewardFromOwner.sol\":2037:2053  amount = balance */\n      swap1\n      pop\n        /* \"TinyRewardFromOwner.sol\":2015:2053  if (amount > balance) amount = balance */\n    tag_112:\n        /* \"TinyRewardFromOwner.sol\":2067:2076  bool sent */\n      0x00\n        /* \"TinyRewardFromOwner.sol\":2081:2091  msg.sender */\n      caller\n        /* \"TinyRewardFromOwner.sol\":2081:2096  msg.sender.call */\n      0xffffffffffffffffffffffffffffffffffffffff\n      and\n        /* \"TinyRewardFromOwner.sol\":2104:2110  amount */\n      dup3\n        /* \"TinyRewardFromOwner.sol\":2081:2115  msg.sender.call{value: amount}(\"\") */\n      mload(0x40)\n      tag_113\n      swap1\n      tag_74\n      jump\t// in\n    tag_113:\n      0x00\n      mload(0x40)\n      dup1\n      dup4\n      sub\n      dup2\n      dup6\n      dup8\n      gas\n      call\n      swap3\n      pop\n      pop\n      pop\n      returndatasize\n      dup1\n      0x00\n      dup2\n      eq\n      tag_116\n      jumpi\n      mload(0x40)\n      swap2\n      pop\n      and(add(returndatasize, 0x3f), not(0x1f))\n      dup3\n      add\n      0x40\n      mstore\n      returndatasize\n      dup3\n      mstore\n      returndatasize\n      0x00\n      0x20\n      dup5\n      add\n      returndatacopy\n      jump(tag_115)\n    tag_116:\n      0x60\n      swap2\n      pop\n    tag_115:\n      pop\n        /* \"TinyRewardFromOwner.sol\":2066:2115  (bool sent,) = msg.sender.call{value: amount}(\"\") */\n      pop\n      swap1\n      pop\n        /* \"TinyRewardFromOwner.sol\":2134:2138  sent */\n      dup1\n        /* \"TinyRewardFromOwner.sol\":2126:2158  require(sent, \"Transfer failed\") */\n      tag_117\n      jumpi\n      mload(0x40)\n      0x08c379a000000000000000000000000000000000000000000000000000000000\n      dup2\n      mstore\n      0x04\n      add\n      tag_118\n      swap1\n      tag_119\n      jump\t// in\n    tag_118:\n      mload(0x40)\n      dup1\n      swap2\n      sub\n      swap1\n      revert\n    tag_117:\n        /* \"TinyRewardFromOwner.sol\":2187:2197  msg.sender */\n      caller\n        /* \"TinyRewardFromOwner.sol\":2176:2213  RewardPaid(msg.sender, amount, nonce) */\n      0xffffffffffffffffffffffffffffffffffffffff\n      and\n      0xd6f2c8500df5b44f11e9e48b91ff9f1b9d81bc496d55570c2b1b75bf65243f51\n        /* \"TinyRewardFromOwner.sol\":2199:2205  amount */\n      dup4\n        /* \"TinyRewardFromOwner.sol\":2207:2212  nonce */\n      sload(0x03)\n        /* \"TinyRewardFromOwner.sol\":2176:2213  RewardPaid(msg.sender, amount, nonce) */\n      mload(0x40)\n      tag_120\n      swap3\n      swap2\n      swap1\n      tag_121\n      jump\t// in\n    tag_120:\n      mload(0x40)\n      dup1\n      swap2\n      sub\n      swap1\n      log2\n        /* \"TinyRewardFromOwner.sol\":2231:2237  amount */\n      dup2\n        /* \"TinyRewardFromOwner.sol\":2224:2237  return amount */\n      swap6\n      pop\n      pop\n      pop\n      pop\n      pop\n      pop\n        /* \"@openzeppelin/contracts/security/ReentrancyGuard.sol\":2303:2323  _nonReentrantAfter() */\n      tag_122\n        /* \"@openzeppelin/contracts/security/ReentrancyGuard.sol\":2303:2321  _nonReentrantAfter */\n      tag_83\n        /* \"@openzeppelin/contracts/security/ReentrancyGuard.sol\":2303:2323  _nonReentrantAfter() */\n      jump\t// in\n    tag_122:\n        /* \"TinyRewardFromOwner.sol\":1662:2245  function claimReward() external nonReentrant returns (uint256) {... */\n      swap1\n      jump\t// out\n        /* \"@openzeppelin/contracts/access/Ownable.sol\":2543:2758  function transferOwnership(address newOwner) public virtual onlyOwner {... */\n    tag_62:\n        /* \"@openzeppelin/contracts/access/Ownable.sol\":1531:1544  _checkOwner() */\n      tag_124\n        /* \"@openzeppelin/contracts/access/Ownable.sol\":1531:1542  _checkOwner */\n      tag_65\n        /* \"@openzeppelin/contracts/access/Ownable.sol\":1531:1544  _checkOwner() */\n      jump\t// in\n    tag_124:\n        /* \"@openzeppelin/contracts/access/Ownable.sol\":2647:2648  0 */\n      0x00\n        /* \"@openzeppelin/contracts/access/Ownable.sol\":2627:2649  newOwner == address(0) */\n      0xffffffffffffffffffffffffffffffffffffffff\n      and\n        /* \"@openzeppelin/contracts/access/Ownable.sol\":2627:2635  newOwner */\n      dup2\n        /* \"@openzeppelin/contracts/access/Ownable.sol\":2627:2649  newOwner == address(0) */\n      0xffffffffffffffffffffffffffffffffffffffff\n      and\n      sub\n        /* \"@openzeppelin/contracts/access/Ownable.sol\":2623:2714  if (newOwner == address(0)) {... */\n      tag_126\n      jumpi\n        /* \"@openzeppelin/contracts/access/Ownable.sol\":2700:2701  0 */\n      0x00\n        /* \"@openzeppelin/contracts/access/Ownable.sol\":2672:2703  OwnableInvalidOwner(address(0)) */\n      mload(0x40)\n      0x1e4fbdf700000000000000000000000000000000000000000000000000000000\n      dup2\n      mstore\n      0x04\n      add\n      tag_127\n      swap2\n      swap1\n      tag_46\n      jump\t// in\n    tag_127:\n      mload(0x40)\n      dup1\n      swap2\n      sub\n      swap1\n      revert\n        /* \"@openzeppelin/contracts/access/Ownable.sol\":2623:2714  if (newOwner == address(0)) {... */\n    tag_126:\n        /* \"@openzeppelin/contracts/access/Ownable.sol\":2723:2751  _transferOwnership(newOwner) */\n      tag_128\n        /* \"@openzeppelin/contracts/access/Ownable.sol\":2742:2750  newOwner */\n      dup2\n        /* \"@openzeppelin/contracts/access/Ownable.sol\":2723:2741  _transferOwnership */\n      tag_88\n        /* \"@openzeppelin/contracts/access/Ownable.sol\":2723:2751  _transferOwnership(newOwner) */\n      jump\t// in\n    tag_128:\n        /* \"@openzeppelin/contracts/access/Ownable.sol\":2543:2758  function transferOwnership(address newOwner) public virtual onlyOwner {... */\n      pop\n      jump\t// out\n        /* \"@openzeppelin/contracts/access/Ownable.sol\":1796:1958  function _checkOwner() internal view virtual {... */\n    tag_65:\n        /* \"@openzeppelin/contracts/access/Ownable.sol\":1866:1878  _msgSender() */\n      tag_130\n        /* \"@openzeppelin/contracts/access/Ownable.sol\":1866:1876  _msgSender */\n      tag_131\n        /* \"@openzeppelin/contracts/access/Ownable.sol\":1866:1878  _msgSender() */\n      jump\t// in\n    tag_130:\n        /* \"@openzeppelin/contracts/access/Ownable.sol\":1855:1878  owner() != _msgSender() */\n      0xffffffffffffffffffffffffffffffffffffffff\n      and\n        /* \"@openzeppelin/contracts/access/Ownable.sol\":1855:1862  owner() */\n      tag_132\n        /* \"@openzeppelin/contracts/access/Ownable.sol\":1855:1860  owner */\n      tag_49\n        /* \"@openzeppelin/contracts/access/Ownable.sol\":1855:1862  owner() */\n      jump\t// in\n    tag_132:\n        /* \"@openzeppelin/contracts/access/Ownable.sol\":1855:1878  owner() != _msgSender() */\n      0xffffffffffffffffffffffffffffffffffffffff\n      and\n      eq\n        /* \"@openzeppelin/contracts/access/Ownable.sol\":1851:1952  if (owner() != _msgSender()) {... */\n      tag_133\n      jumpi\n        /* \"@openzeppelin/contracts/access/Ownable.sol\":1928:1940  _msgSender() */\n      tag_134\n        /* \"@openzeppelin/contracts/access/Ownable.sol\":1928:1938  _msgSender */\n      tag_131\n        /* \"@openzeppelin/contracts/access/Ownable.sol\":1928:1940  _msgSender() */\n      jump\t// in\n    tag_134:\n        /* \"@openzeppelin/contracts/access/Ownable.sol\":1901:1941  OwnableUnauthorizedAccount(_msgSender()) */\n      mload(0x40)\n      0x118cdaa700000000000000000000000000000000000000000000000000000000\n      dup2\n      mstore\n      0x04\n      add\n      tag_135\n      swap2\n      swap1\n      tag_46\n      jump\t// in\n    tag_135:\n      mload(0x40)\n      dup1\n      swap2\n      sub\n      swap1\n      revert\n        /* \"@openzeppelin/contracts/access/Ownable.sol\":1851:1952  if (owner() != _msgSender()) {... */\n    tag_133:\n        /* \"@openzeppelin/contracts/access/Ownable.sol\":1796:1958  function _checkOwner() internal view virtual {... */\n      jump\t// out\n        /* \"@openzeppelin/contracts/security/ReentrancyGuard.sol\":2336:2623  function _nonReentrantBefore() private {... */\n    tag_68:\n        /* \"@openzeppelin/contracts/security/ReentrancyGuard.sol\":1759:1760  2 */\n      0x02\n        /* \"@openzeppelin/contracts/security/ReentrancyGuard.sol\":2468:2475  _status */\n      sload(0x00)\n        /* \"@openzeppelin/contracts/security/ReentrancyGuard.sol\":2468:2487  _status != _ENTERED */\n      sub\n        /* \"@openzeppelin/contracts/security/ReentrancyGuard.sol\":2460:2523  require(_status != _ENTERED, \"ReentrancyGuard: reentrant call\") */\n      tag_137\n      jumpi\n      mload(0x40)\n      0x08c379a000000000000000000000000000000000000000000000000000000000\n      dup2\n      mstore\n      0x04\n      add\n      tag_138\n      swap1\n      tag_139\n      jump\t// in\n    tag_138:\n      mload(0x40)\n      dup1\n      swap2\n      sub\n      swap1\n      revert\n    tag_137:\n        /* \"@openzeppelin/contracts/security/ReentrancyGuard.sol\":1759:1760  2 */\n      0x02\n        /* \"@openzeppelin/contracts/security/ReentrancyGuard.sol\":2598:2605  _status */\n      0x00\n        /* \"@openzeppelin/contracts/security/ReentrancyGuard.sol\":2598:2616  _status = _ENTERED */\n      dup2\n      swap1\n      sstore\n      pop\n        /* \"@openzeppelin/contracts/security/ReentrancyGuard.sol\":2336:2623  function _nonReentrantBefore() private {... */\n      jump\t// out\n        /* \"@openzeppelin/contracts/security/ReentrancyGuard.sol\":2629:2838  function _nonReentrantAfter() private {... */\n    tag_83:\n        /* \"@openzeppelin/contracts/security/ReentrancyGuard.sol\":1716:1717  1 */\n      0x01\n        /* \"@openzeppelin/contracts/security/ReentrancyGuard.sol\":2809:2816  _status */\n      0x00\n        /* \"@openzeppelin/contracts/security/ReentrancyGuard.sol\":2809:2831  _status = _NOT_ENTERED */\n      dup2\n      swap1\n      sstore\n      pop\n        /* \"@openzeppelin/contracts/security/ReentrancyGuard.sol\":2629:2838  function _nonReentrantAfter() private {... */\n      jump\t// out\n        /* \"@openzeppelin/contracts/access/Ownable.sol\":2912:3099  function _transferOwnership(address newOwner) internal virtual {... */\n    tag_88:\n        /* \"@openzeppelin/contracts/access/Ownable.sol\":2985:3001  address oldOwner */\n      0x00\n        /* \"@openzeppelin/contracts/access/Ownable.sol\":3004:3010  _owner */\n      0x01\n      0x00\n      swap1\n      sload\n      swap1\n      0x0100\n      exp\n      swap1\n      div\n      0xffffffffffffffffffffffffffffffffffffffff\n      and\n        /* \"@openzeppelin/contracts/access/Ownable.sol\":2985:3010  address oldOwner = _owner */\n      swap1\n      pop\n        /* \"@openzeppelin/contracts/access/Ownable.sol\":3029:3037  newOwner */\n      dup2\n        /* \"@openzeppelin/contracts/access/Ownable.sol\":3020:3026  _owner */\n      0x01\n      0x00\n        /* \"@openzeppelin/contracts/access/Ownable.sol\":3020:3037  _owner = newOwner */\n      0x0100\n      exp\n      dup2\n      sload\n      dup2\n      0xffffffffffffffffffffffffffffffffffffffff\n      mul\n      not\n      and\n      swap1\n      dup4\n      0xffffffffffffffffffffffffffffffffffffffff\n      and\n      mul\n      or\n      swap1\n      sstore\n      pop\n        /* \"@openzeppelin/contracts/access/Ownable.sol\":3083:3091  newOwner */\n      dup2\n        /* \"@openzeppelin/contracts/access/Ownable.sol\":3052:3092  OwnershipTransferred(oldOwner, newOwner) */\n      0xffffffffffffffffffffffffffffffffffffffff\n      and\n        /* \"@openzeppelin/contracts/access/Ownable.sol\":3073:3081  oldOwner */\n      dup2\n        /* \"@openzeppelin/contracts/access/Ownable.sol\":3052:3092  OwnershipTransferred(oldOwner, newOwner) */\n      0xffffffffffffffffffffffffffffffffffffffff\n      and\n      0x8be0079c531659141344cd1fd0a4f28419497f9722a3daafe3b4186f6b6457e0\n      mload(0x40)\n      mload(0x40)\n      dup1\n      swap2\n      sub\n      swap1\n      log3\n        /* \"@openzeppelin/contracts/access/Ownable.sol\":2975:3099  {... */\n      pop\n        /* \"@openzeppelin/contracts/access/Ownable.sol\":2912:3099  function _transferOwnership(address newOwner) internal virtual {... */\n      pop\n      jump\t// out\n        /* \"TinyRewardFromOwner.sol\":2704:3101  function _random() private returns (uint256) {... */\n    tag_104:\n        /* \"TinyRewardFromOwner.sol\":2740:2747  uint256 */\n      0x00\n        /* \"TinyRewardFromOwner.sol\":2760:2769  uint256 r */\n      0x00\n        /* \"TinyRewardFromOwner.sol\":2861:2876  block.timestamp */\n      timestamp\n        /* \"TinyRewardFromOwner.sol\":2899:2915  block.prevrandao */\n      prevrandao\n        /* \"TinyRewardFromOwner.sol\":2938:2950  block.number */\n      number\n        /* \"TinyRewardFromOwner.sol\":2973:2983  msg.sender */\n      caller\n        /* \"TinyRewardFromOwner.sol\":3006:3011  nonce */\n      sload(0x03)\n        /* \"TinyRewardFromOwner.sol\":2822:3030  abi.encodePacked(... */\n      add(0x20, mload(0x40))\n      tag_143\n      swap6\n      swap5\n      swap4\n      swap3\n      swap2\n      swap1\n      tag_144\n      jump\t// in\n    tag_143:\n      mload(0x40)\n      0x20\n      dup2\n      dup4\n      sub\n      sub\n      dup2\n      mstore\n      swap1\n      0x40\n      mstore\n        /* \"TinyRewardFromOwner.sol\":2794:3045  keccak256(... */\n      dup1\n      mload\n      swap1\n      0x20\n      add\n      keccak256\n        /* \"TinyRewardFromOwner.sol\":2772:3056  uint256(... */\n      0x00\n      shr\n        /* \"TinyRewardFromOwner.sol\":2760:3056  uint256 r = uint256(... */\n      swap1\n      pop\n        /* \"TinyRewardFromOwner.sol\":3067:3072  nonce */\n      0x03\n      0x00\n        /* \"TinyRewardFromOwner.sol\":3067:3074  nonce++ */\n      dup2\n      sload\n      dup1\n      swap3\n      swap2\n      swap1\n      tag_145\n      swap1\n      tag_146\n      jump\t// in\n    tag_145:\n      swap2\n      swap1\n      pop\n      sstore\n      pop\n        /* \"TinyRewardFromOwner.sol\":3092:3093  r */\n      dup1\n        /* \"TinyRewardFromOwner.sol\":3085:3093  return r */\n      swap2\n      pop\n      pop\n        /* \"TinyRewardFromOwner.sol\":2704:3101  function _random() private returns (uint256) {... */\n      swap1\n      jump\t// out\n        /* \"@openzeppelin/contracts/utils/Context.sol\":656:752  function _msgSender() internal view virtual returns (address) {... */\n    tag_131:\n        /* \"@openzeppelin/contracts/utils/Context.sol\":709:716  address */\n      0x00\n        /* \"@openzeppelin/contracts/utils/Context.sol\":735:745  msg.sender */\n      caller\n        /* \"@openzeppelin/contracts/utils/Context.sol\":728:745  return msg.sender */\n      swap1\n      pop\n        /* \"@openzeppelin/contracts/utils/Context.sol\":656:752  function _msgSender() internal view virtual returns (address) {... */\n      swap1\n      jump\t// out\n        /* \"#utility.yul\":7:84   */\n    tag_148:\n        /* \"#utility.yul\":44:51   */\n      0x00\n        /* \"#utility.yul\":73:78   */\n      dup2\n        /* \"#utility.yul\":62:78   */\n      swap1\n      pop\n        /* \"#utility.yul\":7:84   */\n      swap2\n      swap1\n      pop\n      jump\t// out\n        /* \"#utility.yul\":90:208   */\n    tag_149:\n        /* \"#utility.yul\":177:201   */\n      tag_190\n        /* \"#utility.yul\":195:200   */\n      dup2\n        /* \"#utility.yul\":177:201   */\n      tag_148\n      jump\t// in\n    tag_190:\n        /* \"#utility.yul\":172:175   */\n      dup3\n        /* \"#utility.yul\":165:202   */\n      mstore\n        /* \"#utility.yul\":90:208   */\n      pop\n      pop\n      jump\t// out\n        /* \"#utility.yul\":214:436   */\n    tag_17:\n        /* \"#utility.yul\":307:311   */\n      0x00\n        /* \"#utility.yul\":345:347   */\n      0x20\n        /* \"#utility.yul\":334:343   */\n      dup3\n        /* \"#utility.yul\":330:348   */\n      add\n        /* \"#utility.yul\":322:348   */\n      swap1\n      pop\n        /* \"#utility.yul\":358:429   */\n      tag_192\n        /* \"#utility.yul\":426:427   */\n      0x00\n        /* \"#utility.yul\":415:424   */\n      dup4\n        /* \"#utility.yul\":411:428   */\n      add\n        /* \"#utility.yul\":402:408   */\n      dup5\n        /* \"#utility.yul\":358:429   */\n      tag_149\n      jump\t// in\n    tag_192:\n        /* \"#utility.yul\":214:436   */\n      swap3\n      swap2\n      pop\n      pop\n      jump\t// out\n        /* \"#utility.yul\":523:640   */\n    tag_151:\n        /* \"#utility.yul\":632:633   */\n      0x00\n        /* \"#utility.yul\":629:630   */\n      0x00\n        /* \"#utility.yul\":622:634   */\n      revert\n        /* \"#utility.yul\":769:891   */\n    tag_153:\n        /* \"#utility.yul\":842:866   */\n      tag_197\n        /* \"#utility.yul\":860:865   */\n      dup2\n        /* \"#utility.yul\":842:866   */\n      tag_148\n      jump\t// in\n    tag_197:\n        /* \"#utility.yul\":835:840   */\n      dup2\n        /* \"#utility.yul\":832:867   */\n      eq\n        /* \"#utility.yul\":822:885   */\n      tag_198\n      jumpi\n        /* \"#utility.yul\":881:882   */\n      0x00\n        /* \"#utility.yul\":878:879   */\n      0x00\n        /* \"#utility.yul\":871:883   */\n      revert\n        /* \"#utility.yul\":822:885   */\n    tag_198:\n        /* \"#utility.yul\":769:891   */\n      pop\n      jump\t// out\n        /* \"#utility.yul\":897:1036   */\n    tag_154:\n        /* \"#utility.yul\":943:948   */\n      0x00\n        /* \"#utility.yul\":981:987   */\n      dup2\n        /* \"#utility.yul\":968:988   */\n      calldataload\n        /* \"#utility.yul\":959:988   */\n      swap1\n      pop\n        /* \"#utility.yul\":997:1030   */\n      tag_200\n        /* \"#utility.yul\":1024:1029   */\n      dup2\n        /* \"#utility.yul\":997:1030   */\n      tag_153\n      jump\t// in\n    tag_200:\n        /* \"#utility.yul\":897:1036   */\n      swap3\n      swap2\n      pop\n      pop\n      jump\t// out\n        /* \"#utility.yul\":1042:1168   */\n    tag_155:\n        /* \"#utility.yul\":1079:1086   */\n      0x00\n        /* \"#utility.yul\":1119:1161   */\n      0xffffffffffffffffffffffffffffffffffffffff\n        /* \"#utility.yul\":1112:1117   */\n      dup3\n        /* \"#utility.yul\":1108:1162   */\n      and\n        /* \"#utility.yul\":1097:1162   */\n      swap1\n      pop\n        /* \"#utility.yul\":1042:1168   */\n      swap2\n      swap1\n      pop\n      jump\t// out\n        /* \"#utility.yul\":1174:1278   */\n    tag_156:\n        /* \"#utility.yul\":1219:1226   */\n      0x00\n        /* \"#utility.yul\":1248:1272   */\n      tag_203\n        /* \"#utility.yul\":1266:1271   */\n      dup3\n        /* \"#utility.yul\":1248:1272   */\n      tag_155\n      jump\t// in\n    tag_203:\n        /* \"#utility.yul\":1237:1272   */\n      swap1\n      pop\n        /* \"#utility.yul\":1174:1278   */\n      swap2\n      swap1\n      pop\n      jump\t// out\n        /* \"#utility.yul\":1284:1422   */\n    tag_157:\n        /* \"#utility.yul\":1365:1397   */\n      tag_205\n        /* \"#utility.yul\":1391:1396   */\n      dup2\n        /* \"#utility.yul\":1365:1397   */\n      tag_156\n      jump\t// in\n    tag_205:\n        /* \"#utility.yul\":1358:1363   */\n      dup2\n        /* \"#utility.yul\":1355:1398   */\n      eq\n        /* \"#utility.yul\":1345:1416   */\n      tag_206\n      jumpi\n        /* \"#utility.yul\":1412:1413   */\n      0x00\n        /* \"#utility.yul\":1409:1410   */\n      0x00\n        /* \"#utility.yul\":1402:1414   */\n      revert\n        /* \"#utility.yul\":1345:1416   */\n    tag_206:\n        /* \"#utility.yul\":1284:1422   */\n      pop\n      jump\t// out\n        /* \"#utility.yul\":1428:1583   */\n    tag_158:\n        /* \"#utility.yul\":1482:1487   */\n      0x00\n        /* \"#utility.yul\":1520:1526   */\n      dup2\n        /* \"#utility.yul\":1507:1527   */\n      calldataload\n        /* \"#utility.yul\":1498:1527   */\n      swap1\n      pop\n        /* \"#utility.yul\":1536:1577   */\n      tag_208\n        /* \"#utility.yul\":1571:1576   */\n      dup2\n        /* \"#utility.yul\":1536:1577   */\n      tag_157\n      jump\t// in\n    tag_208:\n        /* \"#utility.yul\":1428:1583   */\n      swap3\n      swap2\n      pop\n      pop\n      jump\t// out\n        /* \"#utility.yul\":1589:2079   */\n    tag_24:\n        /* \"#utility.yul\":1665:1671   */\n      0x00\n        /* \"#utility.yul\":1673:1679   */\n      0x00\n        /* \"#utility.yul\":1722:1724   */\n      0x40\n        /* \"#utility.yul\":1710:1719   */\n      dup4\n        /* \"#utility.yul\":1701:1708   */\n      dup6\n        /* \"#utility.yul\":1697:1720   */\n      sub\n        /* \"#utility.yul\":1693:1725   */\n      slt\n        /* \"#utility.yul\":1690:1809   */\n      iszero\n      tag_210\n      jumpi\n        /* \"#utility.yul\":1728:1807   */\n      tag_211\n      tag_151\n      jump\t// in\n    tag_211:\n        /* \"#utility.yul\":1690:1809   */\n    tag_210:\n        /* \"#utility.yul\":1848:1849   */\n      0x00\n        /* \"#utility.yul\":1873:1926   */\n      tag_212\n        /* \"#utility.yul\":1918:1925   */\n      dup6\n        /* \"#utility.yul\":1909:1915   */\n      dup3\n        /* \"#utility.yul\":1898:1907   */\n      dup7\n        /* \"#utility.yul\":1894:1916   */\n      add\n        /* \"#utility.yul\":1873:1926   */\n      tag_154\n      jump\t// in\n    tag_212:\n        /* \"#utility.yul\":1863:1926   */\n      swap3\n      pop\n        /* \"#utility.yul\":1819:1936   */\n      pop\n        /* \"#utility.yul\":1975:1977   */\n      0x20\n        /* \"#utility.yul\":2001:2062   */\n      tag_213\n        /* \"#utility.yul\":2054:2061   */\n      dup6\n        /* \"#utility.yul\":2045:2051   */\n      dup3\n        /* \"#utility.yul\":2034:2043   */\n      dup7\n        /* \"#utility.yul\":2030:2052   */\n      add\n        /* \"#utility.yul\":2001:2062   */\n      tag_158\n      jump\t// in\n    tag_213:\n        /* \"#utility.yul\":1991:2062   */\n      swap2\n      pop\n        /* \"#utility.yul\":1946:2072   */\n      pop\n        /* \"#utility.yul\":1589:2079   */\n      swap3\n      pop\n      swap3\n      swap1\n      pop\n      jump\t// out\n        /* \"#utility.yul\":2085:2181   */\n    tag_159:\n        /* \"#utility.yul\":2122:2129   */\n      0x00\n        /* \"#utility.yul\":2151:2175   */\n      tag_215\n        /* \"#utility.yul\":2169:2174   */\n      dup3\n        /* \"#utility.yul\":2151:2175   */\n      tag_155\n      jump\t// in\n    tag_215:\n        /* \"#utility.yul\":2140:2175   */\n      swap1\n      pop\n        /* \"#utility.yul\":2085:2181   */\n      swap2\n      swap1\n      pop\n      jump\t// out\n        /* \"#utility.yul\":2187:2309   */\n    tag_160:\n        /* \"#utility.yul\":2260:2284   */\n      tag_217\n        /* \"#utility.yul\":2278:2283   */\n      dup2\n        /* \"#utility.yul\":2260:2284   */\n      tag_159\n      jump\t// in\n    tag_217:\n        /* \"#utility.yul\":2253:2258   */\n      dup2\n        /* \"#utility.yul\":2250:2285   */\n      eq\n        /* \"#utility.yul\":2240:2303   */\n      tag_218\n      jumpi\n        /* \"#utility.yul\":2299:2300   */\n      0x00\n        /* \"#utility.yul\":2296:2297   */\n      0x00\n        /* \"#utility.yul\":2289:2301   */\n      revert\n        /* \"#utility.yul\":2240:2303   */\n    tag_218:\n        /* \"#utility.yul\":2187:2309   */\n      pop\n      jump\t// out\n        /* \"#utility.yul\":2315:2454   */\n    tag_161:\n        /* \"#utility.yul\":2361:2366   */\n      0x00\n        /* \"#utility.yul\":2399:2405   */\n      dup2\n        /* \"#utility.yul\":2386:2406   */\n      calldataload\n        /* \"#utility.yul\":2377:2406   */\n      swap1\n      pop\n        /* \"#utility.yul\":2415:2448   */\n      tag_220\n        /* \"#utility.yul\":2442:2447   */\n      dup2\n        /* \"#utility.yul\":2415:2448   */\n      tag_160\n      jump\t// in\n    tag_220:\n        /* \"#utility.yul\":2315:2454   */\n      swap3\n      swap2\n      pop\n      pop\n      jump\t// out\n        /* \"#utility.yul\":2460:2789   */\n    tag_40:\n        /* \"#utility.yul\":2519:2525   */\n      0x00\n        /* \"#utility.yul\":2568:2570   */\n      0x20\n        /* \"#utility.yul\":2556:2565   */\n      dup3\n        /* \"#utility.yul\":2547:2554   */\n      dup5\n        /* \"#utility.yul\":2543:2566   */\n      sub\n        /* \"#utility.yul\":2539:2571   */\n      slt\n        /* \"#utility.yul\":2536:2655   */\n      iszero\n      tag_222\n      jumpi\n        /* \"#utility.yul\":2574:2653   */\n      tag_223\n      tag_151\n      jump\t// in\n    tag_223:\n        /* \"#utility.yul\":2536:2655   */\n    tag_222:\n        /* \"#utility.yul\":2694:2695   */\n      0x00\n        /* \"#utility.yul\":2719:2772   */\n      tag_224\n        /* \"#utility.yul\":2764:2771   */\n      dup5\n        /* \"#utility.yul\":2755:2761   */\n      dup3\n        /* \"#utility.yul\":2744:2753   */\n      dup6\n        /* \"#utility.yul\":2740:2762   */\n      add\n        /* \"#utility.yul\":2719:2772   */\n      tag_161\n      jump\t// in\n    tag_224:\n        /* \"#utility.yul\":2709:2772   */\n      swap2\n      pop\n        /* \"#utility.yul\":2665:2782   */\n      pop\n        /* \"#utility.yul\":2460:2789   */\n      swap3\n      swap2\n      pop\n      pop\n      jump\t// out\n        /* \"#utility.yul\":2795:2913   */\n    tag_162:\n        /* \"#utility.yul\":2882:2906   */\n      tag_226\n        /* \"#utility.yul\":2900:2905   */\n      dup2\n        /* \"#utility.yul\":2882:2906   */\n      tag_159\n      jump\t// in\n    tag_226:\n        /* \"#utility.yul\":2877:2880   */\n      dup3\n        /* \"#utility.yul\":2870:2907   */\n      mstore\n        /* \"#utility.yul\":2795:2913   */\n      pop\n      pop\n      jump\t// out\n        /* \"#utility.yul\":2919:3141   */\n    tag_46:\n        /* \"#utility.yul\":3012:3016   */\n      0x00\n        /* \"#utility.yul\":3050:3052   */\n      0x20\n        /* \"#utility.yul\":3039:3048   */\n      dup3\n        /* \"#utility.yul\":3035:3053   */\n      add\n        /* \"#utility.yul\":3027:3053   */\n      swap1\n      pop\n        /* \"#utility.yul\":3063:3134   */\n      tag_228\n        /* \"#utility.yul\":3131:3132   */\n      0x00\n        /* \"#utility.yul\":3120:3129   */\n      dup4\n        /* \"#utility.yul\":3116:3133   */\n      add\n        /* \"#utility.yul\":3107:3113   */\n      dup5\n        /* \"#utility.yul\":3063:3134   */\n      tag_162\n      jump\t// in\n    tag_228:\n        /* \"#utility.yul\":2919:3141   */\n      swap3\n      swap2\n      pop\n      pop\n      jump\t// out\n        /* \"#utility.yul\":3147:3316   */\n    tag_163:\n        /* \"#utility.yul\":3231:3242   */\n      0x00\n        /* \"#utility.yul\":3265:3271   */\n      dup3\n        /* \"#utility.yul\":3260:3263   */\n      dup3\n        /* \"#utility.yul\":3253:3272   */\n      mstore\n        /* \"#utility.yul\":3305:3309   */\n      0x20\n        /* \"#utility.yul\":3300:3303   */\n      dup3\n        /* \"#utility.yul\":3296:3310   */\n      add\n        /* \"#utility.yul\":3281:3310   */\n      swap1\n      pop\n        /* \"#utility.yul\":3147:3316   */\n      swap3\n      swap2\n      pop\n      pop\n      jump\t// out\n        /* \"#utility.yul\":3322:3492   */\n    tag_164:\n        /* \"#utility.yul\":3462:3484   */\n      0x496e73756666696369656e742062616c616e6365000000000000000000000000\n        /* \"#utility.yul\":3458:3459   */\n      0x00\n        /* \"#utility.yul\":3450:3456   */\n      dup3\n        /* \"#utility.yul\":3446:3460   */\n      add\n        /* \"#utility.yul\":3439:3485   */\n      mstore\n        /* \"#utility.yul\":3322:3492   */\n      pop\n      jump\t// out\n        /* \"#utility.yul\":3498:3864   */\n    tag_165:\n        /* \"#utility.yul\":3640:3643   */\n      0x00\n        /* \"#utility.yul\":3661:3728   */\n      tag_232\n        /* \"#utility.yul\":3725:3727   */\n      0x14\n        /* \"#utility.yul\":3720:3723   */\n      dup4\n        /* \"#utility.yul\":3661:3728   */\n      tag_163\n      jump\t// in\n    tag_232:\n        /* \"#utility.yul\":3654:3728   */\n      swap2\n      pop\n        /* \"#utility.yul\":3737:3830   */\n      tag_233\n        /* \"#utility.yul\":3826:3829   */\n      dup3\n        /* \"#utility.yul\":3737:3830   */\n      tag_164\n      jump\t// in\n    tag_233:\n        /* \"#utility.yul\":3855:3857   */\n      0x20\n        /* \"#utility.yul\":3850:3853   */\n      dup3\n        /* \"#utility.yul\":3846:3858   */\n      add\n        /* \"#utility.yul\":3839:3858   */\n      swap1\n      pop\n        /* \"#utility.yul\":3498:3864   */\n      swap2\n      swap1\n      pop\n      jump\t// out\n        /* \"#utility.yul\":3870:4289   */\n    tag_72:\n        /* \"#utility.yul\":4036:4040   */\n      0x00\n        /* \"#utility.yul\":4074:4076   */\n      0x20\n        /* \"#utility.yul\":4063:4072   */\n      dup3\n        /* \"#utility.yul\":4059:4077   */\n      add\n        /* \"#utility.yul\":4051:4077   */\n      swap1\n      pop\n        /* \"#utility.yul\":4123:4132   */\n      dup2\n        /* \"#utility.yul\":4117:4121   */\n      dup2\n        /* \"#utility.yul\":4113:4133   */\n      sub\n        /* \"#utility.yul\":4109:4110   */\n      0x00\n        /* \"#utility.yul\":4098:4107   */\n      dup4\n        /* \"#utility.yul\":4094:4111   */\n      add\n        /* \"#utility.yul\":4087:4134   */\n      mstore\n        /* \"#utility.yul\":4151:4282   */\n      tag_235\n        /* \"#utility.yul\":4277:4281   */\n      dup2\n        /* \"#utility.yul\":4151:4282   */\n      tag_165\n      jump\t// in\n    tag_235:\n        /* \"#utility.yul\":4143:4282   */\n      swap1\n      pop\n        /* \"#utility.yul\":3870:4289   */\n      swap2\n      swap1\n      pop\n      jump\t// out\n        /* \"#utility.yul\":4295:4442   */\n    tag_166:\n        /* \"#utility.yul\":4396:4407   */\n      0x00\n        /* \"#utility.yul\":4433:4436   */\n      dup2\n        /* \"#utility.yul\":4418:4436   */\n      swap1\n      pop\n        /* \"#utility.yul\":4295:4442   */\n      swap3\n      swap2\n      pop\n      pop\n      jump\t// out\n        /* \"#utility.yul\":4448:4562   */\n    tag_167:\n      pop\n      jump\t// out\n        /* \"#utility.yul\":4568:4966   */\n    tag_168:\n        /* \"#utility.yul\":4727:4730   */\n      0x00\n        /* \"#utility.yul\":4748:4831   */\n      tag_239\n        /* \"#utility.yul\":4829:4830   */\n      0x00\n        /* \"#utility.yul\":4824:4827   */\n      dup4\n        /* \"#utility.yul\":4748:4831   */\n      tag_166\n      jump\t// in\n    tag_239:\n        /* \"#utility.yul\":4741:4831   */\n      swap2\n      pop\n        /* \"#utility.yul\":4840:4933   */\n      tag_240\n        /* \"#utility.yul\":4929:4932   */\n      dup3\n        /* \"#utility.yul\":4840:4933   */\n      tag_167\n      jump\t// in\n    tag_240:\n        /* \"#utility.yul\":4958:4959   */\n      0x00\n        /* \"#utility.yul\":4953:4956   */\n      dup3\n        /* \"#utility.yul\":4949:4960   */\n      add\n        /* \"#utility.yul\":4942:4960   */\n      swap1\n      pop\n        /* \"#utility.yul\":4568:4966   */\n      swap2\n      swap1\n      pop\n      jump\t// out\n        /* \"#utility.yul\":4972:5351   */\n    tag_74:\n        /* \"#utility.yul\":5156:5159   */\n      0x00\n        /* \"#utility.yul\":5178:5325   */\n      tag_242\n        /* \"#utility.yul\":5321:5324   */\n      dup3\n        /* \"#utility.yul\":5178:5325   */\n      tag_168\n      jump\t// in\n    tag_242:\n        /* \"#utility.yul\":5171:5325   */\n      swap2\n      pop\n        /* \"#utility.yul\":5342:5345   */\n      dup2\n        /* \"#utility.yul\":5335:5345   */\n      swap1\n      pop\n        /* \"#utility.yul\":4972:5351   */\n      swap2\n      swap1\n      pop\n      jump\t// out\n        /* \"#utility.yul\":5357:5522   */\n    tag_169:\n        /* \"#utility.yul\":5497:5514   */\n      0x5769746864726177206661696c65640000000000000000000000000000000000\n        /* \"#utility.yul\":5493:5494   */\n      0x00\n        /* \"#utility.yul\":5485:5491   */\n      dup3\n        /* \"#utility.yul\":5481:5495   */\n      add\n        /* \"#utility.yul\":5474:5515   */\n      mstore\n        /* \"#utility.yul\":5357:5522   */\n      pop\n      jump\t// out\n        /* \"#utility.yul\":5528:5894   */\n    tag_170:\n        /* \"#utility.yul\":5670:5673   */\n      0x00\n        /* \"#utility.yul\":5691:5758   */\n      tag_245\n        /* \"#utility.yul\":5755:5757   */\n      0x0f\n        /* \"#utility.yul\":5750:5753   */\n      dup4\n        /* \"#utility.yul\":5691:5758   */\n      tag_163\n      jump\t// in\n    tag_245:\n        /* \"#utility.yul\":5684:5758   */\n      swap2\n      pop\n        /* \"#utility.yul\":5767:5860   */\n      tag_246\n        /* \"#utility.yul\":5856:5859   */\n      dup3\n        /* \"#utility.yul\":5767:5860   */\n      tag_169\n      jump\t// in\n    tag_246:\n        /* \"#utility.yul\":5885:5887   */\n      0x20\n        /* \"#utility.yul\":5880:5883   */\n      dup3\n        /* \"#utility.yul\":5876:5888   */\n      add\n        /* \"#utility.yul\":5869:5888   */\n      swap1\n      pop\n        /* \"#utility.yul\":5528:5894   */\n      swap2\n      swap1\n      pop\n      jump\t// out\n        /* \"#utility.yul\":5900:6319   */\n    tag_80:\n        /* \"#utility.yul\":6066:6070   */\n      0x00\n        /* \"#utility.yul\":6104:6106   */\n      0x20\n        /* \"#utility.yul\":6093:6102   */\n      dup3\n        /* \"#utility.yul\":6089:6107   */\n      add\n        /* \"#utility.yul\":6081:6107   */\n      swap1\n      pop\n        /* \"#utility.yul\":6153:6162   */\n      dup2\n        /* \"#utility.yul\":6147:6151   */\n      dup2\n        /* \"#utility.yul\":6143:6163   */\n      sub\n        /* \"#utility.yul\":6139:6140   */\n      0x00\n        /* \"#utility.yul\":6128:6137   */\n      dup4\n        /* \"#utility.yul\":6124:6141   */\n      add\n        /* \"#utility.yul\":6117:6164   */\n      mstore\n        /* \"#utility.yul\":6181:6312   */\n      tag_248\n        /* \"#utility.yul\":6307:6311   */\n      dup2\n        /* \"#utility.yul\":6181:6312   */\n      tag_170\n      jump\t// in\n    tag_248:\n        /* \"#utility.yul\":6173:6312   */\n      swap1\n      pop\n        /* \"#utility.yul\":5900:6319   */\n      swap2\n      swap1\n      pop\n      jump\t// out\n        /* \"#utility.yul\":6325:6484   */\n    tag_171:\n        /* \"#utility.yul\":6465:6476   */\n      0x7a65726f20616464720000000000000000000000000000000000000000000000\n        /* \"#utility.yul\":6461:6462   */\n      0x00\n        /* \"#utility.yul\":6453:6459   */\n      dup3\n        /* \"#utility.yul\":6449:6463   */\n      add\n        /* \"#utility.yul\":6442:6477   */\n      mstore\n        /* \"#utility.yul\":6325:6484   */\n      pop\n      jump\t// out\n        /* \"#utility.yul\":6490:6855   */\n    tag_172:\n        /* \"#utility.yul\":6632:6635   */\n      0x00\n        /* \"#utility.yul\":6653:6719   */\n      tag_251\n        /* \"#utility.yul\":6717:6718   */\n      0x09\n        /* \"#utility.yul\":6712:6715   */\n      dup4\n        /* \"#utility.yul\":6653:6719   */\n      tag_163\n      jump\t// in\n    tag_251:\n        /* \"#utility.yul\":6646:6719   */\n      swap2\n      pop\n        /* \"#utility.yul\":6728:6821   */\n      tag_252\n        /* \"#utility.yul\":6817:6820   */\n      dup3\n        /* \"#utility.yul\":6728:6821   */\n      tag_171\n      jump\t// in\n    tag_252:\n        /* \"#utility.yul\":6846:6848   */\n      0x20\n        /* \"#utility.yul\":6841:6844   */\n      dup3\n        /* \"#utility.yul\":6837:6849   */\n      add\n        /* \"#utility.yul\":6830:6849   */\n      swap1\n      pop\n        /* \"#utility.yul\":6490:6855   */\n      swap2\n      swap1\n      pop\n      jump\t// out\n        /* \"#utility.yul\":6861:7280   */\n    tag_94:\n        /* \"#utility.yul\":7027:7031   */\n      0x00\n        /* \"#utility.yul\":7065:7067   */\n      0x20\n        /* \"#utility.yul\":7054:7063   */\n      dup3\n        /* \"#utility.yul\":7050:7068   */\n      add\n        /* \"#utility.yul\":7042:7068   */\n      swap1\n      pop\n        /* \"#utility.yul\":7114:7123   */\n      dup2\n        /* \"#utility.yul\":7108:7112   */\n      dup2\n        /* \"#utility.yul\":7104:7124   */\n      sub\n        /* \"#utility.yul\":7100:7101   */\n      0x00\n        /* \"#utility.yul\":7089:7098   */\n      dup4\n        /* \"#utility.yul\":7085:7102   */\n      add\n        /* \"#utility.yul\":7078:7125   */\n      mstore\n        /* \"#utility.yul\":7142:7273   */\n      tag_254\n        /* \"#utility.yul\":7268:7272   */\n      dup2\n        /* \"#utility.yul\":7142:7273   */\n      tag_172\n      jump\t// in\n    tag_254:\n        /* \"#utility.yul\":7134:7273   */\n      swap1\n      pop\n        /* \"#utility.yul\":6861:7280   */\n      swap2\n      swap1\n      pop\n      jump\t// out\n        /* \"#utility.yul\":7286:7453   */\n    tag_173:\n        /* \"#utility.yul\":7426:7445   */\n      0x496e73756666696369656e7420706f6f6c000000000000000000000000000000\n        /* \"#utility.yul\":7422:7423   */\n      0x00\n        /* \"#utility.yul\":7414:7420   */\n      dup3\n        /* \"#utility.yul\":7410:7424   */\n      add\n        /* \"#utility.yul\":7403:7446   */\n      mstore\n        /* \"#utility.yul\":7286:7453   */\n      pop\n      jump\t// out\n        /* \"#utility.yul\":7459:7825   */\n    tag_174:\n        /* \"#utility.yul\":7601:7604   */\n      0x00\n        /* \"#utility.yul\":7622:7689   */\n      tag_257\n        /* \"#utility.yul\":7686:7688   */\n      0x11\n        /* \"#utility.yul\":7681:7684   */\n      dup4\n        /* \"#utility.yul\":7622:7689   */\n      tag_163\n      jump\t// in\n    tag_257:\n        /* \"#utility.yul\":7615:7689   */\n      swap2\n      pop\n        /* \"#utility.yul\":7698:7791   */\n      tag_258\n        /* \"#utility.yul\":7787:7790   */\n      dup3\n        /* \"#utility.yul\":7698:7791   */\n      tag_173\n      jump\t// in\n    tag_258:\n        /* \"#utility.yul\":7816:7818   */\n      0x20\n        /* \"#utility.yul\":7811:7814   */\n      dup3\n        /* \"#utility.yul\":7807:7819   */\n      add\n        /* \"#utility.yul\":7800:7819   */\n      swap1\n      pop\n        /* \"#utility.yul\":7459:7825   */\n      swap2\n      swap1\n      pop\n      jump\t// out\n        /* \"#utility.yul\":7831:8250   */\n    tag_102:\n        /* \"#utility.yul\":7997:8001   */\n      0x00\n        /* \"#utility.yul\":8035:8037   */\n      0x20\n        /* \"#utility.yul\":8024:8033   */\n      dup3\n        /* \"#utility.yul\":8020:8038   */\n      add\n        /* \"#utility.yul\":8012:8038   */\n      swap1\n      pop\n        /* \"#utility.yul\":8084:8093   */\n      dup2\n        /* \"#utility.yul\":8078:8082   */\n      dup2\n        /* \"#utility.yul\":8074:8094   */\n      sub\n        /* \"#utility.yul\":8070:8071   */\n      0x00\n        /* \"#utility.yul\":8059:8068   */\n      dup4\n        /* \"#utility.yul\":8055:8072   */\n      add\n        /* \"#utility.yul\":8048:8095   */\n      mstore\n        /* \"#utility.yul\":8112:8243   */\n      tag_260\n        /* \"#utility.yul\":8238:8242   */\n      dup2\n        /* \"#utility.yul\":8112:8243   */\n      tag_174\n      jump\t// in\n    tag_260:\n        /* \"#utility.yul\":8104:8243   */\n      swap1\n      pop\n        /* \"#utility.yul\":7831:8250   */\n      swap2\n      swap1\n      pop\n      jump\t// out\n        /* \"#utility.yul\":8256:8436   */\n    tag_175:\n        /* \"#utility.yul\":8304:8381   */\n      0x4e487b7100000000000000000000000000000000000000000000000000000000\n        /* \"#utility.yul\":8301:8302   */\n      0x00\n        /* \"#utility.yul\":8294:8382   */\n      mstore\n        /* \"#utility.yul\":8401:8405   */\n      0x11\n        /* \"#utility.yul\":8398:8399   */\n      0x04\n        /* \"#utility.yul\":8391:8406   */\n      mstore\n        /* \"#utility.yul\":8425:8429   */\n      0x24\n        /* \"#utility.yul\":8422:8423   */\n      0x00\n        /* \"#utility.yul\":8415:8430   */\n      revert\n        /* \"#utility.yul\":8442:8636   */\n    tag_106:\n        /* \"#utility.yul\":8482:8486   */\n      0x00\n        /* \"#utility.yul\":8502:8522   */\n      tag_263\n        /* \"#utility.yul\":8520:8521   */\n      dup3\n        /* \"#utility.yul\":8502:8522   */\n      tag_148\n      jump\t// in\n    tag_263:\n        /* \"#utility.yul\":8497:8522   */\n      swap2\n      pop\n        /* \"#utility.yul\":8536:8556   */\n      tag_264\n        /* \"#utility.yul\":8554:8555   */\n      dup4\n        /* \"#utility.yul\":8536:8556   */\n      tag_148\n      jump\t// in\n    tag_264:\n        /* \"#utility.yul\":8531:8556   */\n      swap3\n      pop\n        /* \"#utility.yul\":8580:8581   */\n      dup3\n        /* \"#utility.yul\":8577:8578   */\n      dup3\n        /* \"#utility.yul\":8573:8582   */\n      sub\n        /* \"#utility.yul\":8565:8582   */\n      swap1\n      pop\n        /* \"#utility.yul\":8604:8605   */\n      dup2\n        /* \"#utility.yul\":8598:8602   */\n      dup2\n        /* \"#utility.yul\":8595:8606   */\n      gt\n        /* \"#utility.yul\":8592:8629   */\n      iszero\n      tag_265\n      jumpi\n        /* \"#utility.yul\":8609:8627   */\n      tag_266\n      tag_175\n      jump\t// in\n    tag_266:\n        /* \"#utility.yul\":8592:8629   */\n    tag_265:\n        /* \"#utility.yul\":8442:8636   */\n      swap3\n      swap2\n      pop\n      pop\n      jump\t// out\n        /* \"#utility.yul\":8642:8833   */\n    tag_108:\n        /* \"#utility.yul\":8682:8685   */\n      0x00\n        /* \"#utility.yul\":8701:8721   */\n      tag_268\n        /* \"#utility.yul\":8719:8720   */\n      dup3\n        /* \"#utility.yul\":8701:8721   */\n      tag_148\n      jump\t// in\n    tag_268:\n        /* \"#utility.yul\":8696:8721   */\n      swap2\n      pop\n        /* \"#utility.yul\":8735:8755   */\n      tag_269\n        /* \"#utility.yul\":8753:8754   */\n      dup4\n        /* \"#utility.yul\":8735:8755   */\n      tag_148\n      jump\t// in\n    tag_269:\n        /* \"#utility.yul\":8730:8755   */\n      swap3\n      pop\n        /* \"#utility.yul\":8778:8779   */\n      dup3\n        /* \"#utility.yul\":8775:8776   */\n      dup3\n        /* \"#utility.yul\":8771:8780   */\n      add\n        /* \"#utility.yul\":8764:8780   */\n      swap1\n      pop\n        /* \"#utility.yul\":8799:8802   */\n      dup1\n        /* \"#utility.yul\":8796:8797   */\n      dup3\n        /* \"#utility.yul\":8793:8803   */\n      gt\n        /* \"#utility.yul\":8790:8826   */\n      iszero\n      tag_270\n      jumpi\n        /* \"#utility.yul\":8806:8824   */\n      tag_271\n      tag_175\n      jump\t// in\n    tag_271:\n        /* \"#utility.yul\":8790:8826   */\n    tag_270:\n        /* \"#utility.yul\":8642:8833   */\n      swap3\n      swap2\n      pop\n      pop\n      jump\t// out\n        /* \"#utility.yul\":8839:9019   */\n    tag_176:\n        /* \"#utility.yul\":8887:8964   */\n      0x4e487b7100000000000000000000000000000000000000000000000000000000\n        /* \"#utility.yul\":8884:8885   */\n      0x00\n        /* \"#utility.yul\":8877:8965   */\n      mstore\n        /* \"#utility.yul\":8984:8988   */\n      0x12\n        /* \"#utility.yul\":8981:8982   */\n      0x04\n        /* \"#utility.yul\":8974:8989   */\n      mstore\n        /* \"#utility.yul\":9008:9012   */\n      0x24\n        /* \"#utility.yul\":9005:9006   */\n      0x00\n        /* \"#utility.yul\":8998:9013   */\n      revert\n        /* \"#utility.yul\":9025:9201   */\n    tag_110:\n        /* \"#utility.yul\":9057:9058   */\n      0x00\n        /* \"#utility.yul\":9074:9094   */\n      tag_274\n        /* \"#utility.yul\":9092:9093   */\n      dup3\n        /* \"#utility.yul\":9074:9094   */\n      tag_148\n      jump\t// in\n    tag_274:\n        /* \"#utility.yul\":9069:9094   */\n      swap2\n      pop\n        /* \"#utility.yul\":9108:9128   */\n      tag_275\n        /* \"#utility.yul\":9126:9127   */\n      dup4\n        /* \"#utility.yul\":9108:9128   */\n      tag_148\n      jump\t// in\n    tag_275:\n        /* \"#utility.yul\":9103:9128   */\n      swap3\n      pop\n        /* \"#utility.yul\":9147:9148   */\n      dup3\n        /* \"#utility.yul\":9137:9172   */\n      tag_276\n      jumpi\n        /* \"#utility.yul\":9152:9170   */\n      tag_277\n      tag_176\n      jump\t// in\n    tag_277:\n        /* \"#utility.yul\":9137:9172   */\n    tag_276:\n        /* \"#utility.yul\":9193:9194   */\n      dup3\n        /* \"#utility.yul\":9190:9191   */\n      dup3\n        /* \"#utility.yul\":9186:9195   */\n      mod\n        /* \"#utility.yul\":9181:9195   */\n      swap1\n      pop\n        /* \"#utility.yul\":9025:9201   */\n      swap3\n      swap2\n      pop\n      pop\n      jump\t// out\n        /* \"#utility.yul\":9207:9372   */\n    tag_177:\n        /* \"#utility.yul\":9347:9364   */\n      0x5472616e73666572206661696c65640000000000000000000000000000000000\n        /* \"#utility.yul\":9343:9344   */\n      0x00\n        /* \"#utility.yul\":9335:9341   */\n      dup3\n        /* \"#utility.yul\":9331:9345   */\n      add\n        /* \"#utility.yul\":9324:9365   */\n      mstore\n        /* \"#utility.yul\":9207:9372   */\n      pop\n      jump\t// out\n        /* \"#utility.yul\":9378:9744   */\n    tag_178:\n        /* \"#utility.yul\":9520:9523   */\n      0x00\n        /* \"#utility.yul\":9541:9608   */\n      tag_280\n        /* \"#utility.yul\":9605:9607   */\n      0x0f\n        /* \"#utility.yul\":9600:9603   */\n      dup4\n        /* \"#utility.yul\":9541:9608   */\n      tag_163\n      jump\t// in\n    tag_280:\n        /* \"#utility.yul\":9534:9608   */\n      swap2\n      pop\n        /* \"#utility.yul\":9617:9710   */\n      tag_281\n        /* \"#utility.yul\":9706:9709   */\n      dup3\n        /* \"#utility.yul\":9617:9710   */\n      tag_177\n      jump\t// in\n    tag_281:\n        /* \"#utility.yul\":9735:9737   */\n      0x20\n        /* \"#utility.yul\":9730:9733   */\n      dup3\n        /* \"#utility.yul\":9726:9738   */\n      add\n        /* \"#utility.yul\":9719:9738   */\n      swap1\n      pop\n        /* \"#utility.yul\":9378:9744   */\n      swap2\n      swap1\n      pop\n      jump\t// out\n        /* \"#utility.yul\":9750:10169   */\n    tag_119:\n        /* \"#utility.yul\":9916:9920   */\n      0x00\n        /* \"#utility.yul\":9954:9956   */\n      0x20\n        /* \"#utility.yul\":9943:9952   */\n      dup3\n        /* \"#utility.yul\":9939:9957   */\n      add\n        /* \"#utility.yul\":9931:9957   */\n      swap1\n      pop\n        /* \"#utility.yul\":10003:10012   */\n      dup2\n        /* \"#utility.yul\":9997:10001   */\n      dup2\n        /* \"#utility.yul\":9993:10013   */\n      sub\n        /* \"#utility.yul\":9989:9990   */\n      0x00\n        /* \"#utility.yul\":9978:9987   */\n      dup4\n        /* \"#utility.yul\":9974:9991   */\n      add\n        /* \"#utility.yul\":9967:10014   */\n      mstore\n        /* \"#utility.yul\":10031:10162   */\n      tag_283\n        /* \"#utility.yul\":10157:10161   */\n      dup2\n        /* \"#utility.yul\":10031:10162   */\n      tag_178\n      jump\t// in\n    tag_283:\n        /* \"#utility.yul\":10023:10162   */\n      swap1\n      pop\n        /* \"#utility.yul\":9750:10169   */\n      swap2\n      swap1\n      pop\n      jump\t// out\n        /* \"#utility.yul\":10175:10507   */\n    tag_121:\n        /* \"#utility.yul\":10296:10300   */\n      0x00\n        /* \"#utility.yul\":10334:10336   */\n      0x40\n        /* \"#utility.yul\":10323:10332   */\n      dup3\n        /* \"#utility.yul\":10319:10337   */\n      add\n        /* \"#utility.yul\":10311:10337   */\n      swap1\n      pop\n        /* \"#utility.yul\":10347:10418   */\n      tag_285\n        /* \"#utility.yul\":10415:10416   */\n      0x00\n        /* \"#utility.yul\":10404:10413   */\n      dup4\n        /* \"#utility.yul\":10400:10417   */\n      add\n        /* \"#utility.yul\":10391:10397   */\n      dup6\n        /* \"#utility.yul\":10347:10418   */\n      tag_149\n      jump\t// in\n    tag_285:\n        /* \"#utility.yul\":10428:10500   */\n      tag_286\n        /* \"#utility.yul\":10496:10498   */\n      0x20\n        /* \"#utility.yul\":10485:10494   */\n      dup4\n        /* \"#utility.yul\":10481:10499   */\n      add\n        /* \"#utility.yul\":10472:10478   */\n      dup5\n        /* \"#utility.yul\":10428:10500   */\n      tag_149\n      jump\t// in\n    tag_286:\n        /* \"#utility.yul\":10175:10507   */\n      swap4\n      swap3\n      pop\n      pop\n      pop\n      jump\t// out\n        /* \"#utility.yul\":10513:10694   */\n    tag_179:\n        /* \"#utility.yul\":10653:10686   */\n      0x5265656e7472616e637947756172643a207265656e7472616e742063616c6c00\n        /* \"#utility.yul\":10649:10650   */\n      0x00\n        /* \"#utility.yul\":10641:10647   */\n      dup3\n        /* \"#utility.yul\":10637:10651   */\n      add\n        /* \"#utility.yul\":10630:10687   */\n      mstore\n        /* \"#utility.yul\":10513:10694   */\n      pop\n      jump\t// out\n        /* \"#utility.yul\":10700:11066   */\n    tag_180:\n        /* \"#utility.yul\":10842:10845   */\n      0x00\n        /* \"#utility.yul\":10863:10930   */\n      tag_289\n        /* \"#utility.yul\":10927:10929   */\n      0x1f\n        /* \"#utility.yul\":10922:10925   */\n      dup4\n        /* \"#utility.yul\":10863:10930   */\n      tag_163\n      jump\t// in\n    tag_289:\n        /* \"#utility.yul\":10856:10930   */\n      swap2\n      pop\n        /* \"#utility.yul\":10939:11032   */\n      tag_290\n        /* \"#utility.yul\":11028:11031   */\n      dup3\n        /* \"#utility.yul\":10939:11032   */\n      tag_179\n      jump\t// in\n    tag_290:\n        /* \"#utility.yul\":11057:11059   */\n      0x20\n        /* \"#utility.yul\":11052:11055   */\n      dup3\n        /* \"#utility.yul\":11048:11060   */\n      add\n        /* \"#utility.yul\":11041:11060   */\n      swap1\n      pop\n        /* \"#utility.yul\":10700:11066   */\n      swap2\n      swap1\n      pop\n      jump\t// out\n        /* \"#utility.yul\":11072:11491   */\n    tag_139:\n        /* \"#utility.yul\":11238:11242   */\n      0x00\n        /* \"#utility.yul\":11276:11278   */\n      0x20\n        /* \"#utility.yul\":11265:11274   */\n      dup3\n        /* \"#utility.yul\":11261:11279   */\n      add\n        /* \"#utility.yul\":11253:11279   */\n      swap1\n      pop\n        /* \"#utility.yul\":11325:11334   */\n      dup2\n        /* \"#utility.yul\":11319:11323   */\n      dup2\n        /* \"#utility.yul\":11315:11335   */\n      sub\n        /* \"#utility.yul\":11311:11312   */\n      0x00\n        /* \"#utility.yul\":11300:11309   */\n      dup4\n        /* \"#utility.yul\":11296:11313   */\n      add\n        /* \"#utility.yul\":11289:11336   */\n      mstore\n        /* \"#utility.yul\":11353:11484   */\n      tag_292\n        /* \"#utility.yul\":11479:11483   */\n      dup2\n        /* \"#utility.yul\":11353:11484   */\n      tag_180\n      jump\t// in\n    tag_292:\n        /* \"#utility.yul\":11345:11484   */\n      swap1\n      pop\n        /* \"#utility.yul\":11072:11491   */\n      swap2\n      swap1\n      pop\n      jump\t// out\n        /* \"#utility.yul\":11497:11576   */\n    tag_181:\n        /* \"#utility.yul\":11536:11543   */\n      0x00\n        /* \"#utility.yul\":11565:11570   */\n      dup2\n        /* \"#utility.yul\":11554:11570   */\n      swap1\n      pop\n        /* \"#utility.yul\":11497:11576   */\n      swap2\n      swap1\n      pop\n      jump\t// out\n        /* \"#utility.yul\":11582:11739   */\n    tag_182:\n        /* \"#utility.yul\":11687:11732   */\n      tag_295\n        /* \"#utility.yul\":11707:11731   */\n      tag_296\n        /* \"#utility.yul\":11725:11730   */\n      dup3\n        /* \"#utility.yul\":11707:11731   */\n      tag_148\n      jump\t// in\n    tag_296:\n        /* \"#utility.yul\":11687:11732   */\n      tag_181\n      jump\t// in\n    tag_295:\n        /* \"#utility.yul\":11682:11685   */\n      dup3\n        /* \"#utility.yul\":11675:11733   */\n      mstore\n        /* \"#utility.yul\":11582:11739   */\n      pop\n      pop\n      jump\t// out\n        /* \"#utility.yul\":11745:11839   */\n    tag_183:\n        /* \"#utility.yul\":11778:11786   */\n      0x00\n        /* \"#utility.yul\":11826:11831   */\n      dup2\n        /* \"#utility.yul\":11822:11824   */\n      0x60\n        /* \"#utility.yul\":11818:11832   */\n      shl\n        /* \"#utility.yul\":11797:11832   */\n      swap1\n      pop\n        /* \"#utility.yul\":11745:11839   */\n      swap2\n      swap1\n      pop\n      jump\t// out\n        /* \"#utility.yul\":11845:11939   */\n    tag_184:\n        /* \"#utility.yul\":11884:11891   */\n      0x00\n        /* \"#utility.yul\":11913:11933   */\n      tag_299\n        /* \"#utility.yul\":11927:11932   */\n      dup3\n        /* \"#utility.yul\":11913:11933   */\n      tag_183\n      jump\t// in\n    tag_299:\n        /* \"#utility.yul\":11902:11933   */\n      swap1\n      pop\n        /* \"#utility.yul\":11845:11939   */\n      swap2\n      swap1\n      pop\n      jump\t// out\n        /* \"#utility.yul\":11945:12045   */\n    tag_185:\n        /* \"#utility.yul\":11984:11991   */\n      0x00\n        /* \"#utility.yul\":12013:12039   */\n      tag_301\n        /* \"#utility.yul\":12033:12038   */\n      dup3\n        /* \"#utility.yul\":12013:12039   */\n      tag_184\n      jump\t// in\n    tag_301:\n        /* \"#utility.yul\":12002:12039   */\n      swap1\n      pop\n        /* \"#utility.yul\":11945:12045   */\n      swap2\n      swap1\n      pop\n      jump\t// out\n        /* \"#utility.yul\":12051:12208   */\n    tag_186:\n        /* \"#utility.yul\":12156:12201   */\n      tag_303\n        /* \"#utility.yul\":12176:12200   */\n      tag_304\n        /* \"#utility.yul\":12194:12199   */\n      dup3\n        /* \"#utility.yul\":12176:12200   */\n      tag_159\n      jump\t// in\n    tag_304:\n        /* \"#utility.yul\":12156:12201   */\n      tag_185\n      jump\t// in\n    tag_303:\n        /* \"#utility.yul\":12151:12154   */\n      dup3\n        /* \"#utility.yul\":12144:12202   */\n      mstore\n        /* \"#utility.yul\":12051:12208   */\n      pop\n      pop\n      jump\t// out\n        /* \"#utility.yul\":12214:13034   */\n    tag_144:\n        /* \"#utility.yul\":12438:12441   */\n      0x00\n        /* \"#utility.yul\":12453:12528   */\n      tag_306\n        /* \"#utility.yul\":12524:12527   */\n      dup3\n        /* \"#utility.yul\":12515:12521   */\n      dup9\n        /* \"#utility.yul\":12453:12528   */\n      tag_182\n      jump\t// in\n    tag_306:\n        /* \"#utility.yul\":12553:12555   */\n      0x20\n        /* \"#utility.yul\":12548:12551   */\n      dup3\n        /* \"#utility.yul\":12544:12556   */\n      add\n        /* \"#utility.yul\":12537:12556   */\n      swap2\n      pop\n        /* \"#utility.yul\":12566:12641   */\n      tag_307\n        /* \"#utility.yul\":12637:12640   */\n      dup3\n        /* \"#utility.yul\":12628:12634   */\n      dup8\n        /* \"#utility.yul\":12566:12641   */\n      tag_182\n      jump\t// in\n    tag_307:\n        /* \"#utility.yul\":12666:12668   */\n      0x20\n        /* \"#utility.yul\":12661:12664   */\n      dup3\n        /* \"#utility.yul\":12657:12669   */\n      add\n        /* \"#utility.yul\":12650:12669   */\n      swap2\n      pop\n        /* \"#utility.yul\":12679:12754   */\n      tag_308\n        /* \"#utility.yul\":12750:12753   */\n      dup3\n        /* \"#utility.yul\":12741:12747   */\n      dup7\n        /* \"#utility.yul\":12679:12754   */\n      tag_182\n      jump\t// in\n    tag_308:\n        /* \"#utility.yul\":12779:12781   */\n      0x20\n        /* \"#utility.yul\":12774:12777   */\n      dup3\n        /* \"#utility.yul\":12770:12782   */\n      add\n        /* \"#utility.yul\":12763:12782   */\n      swap2\n      pop\n        /* \"#utility.yul\":12792:12867   */\n      tag_309\n        /* \"#utility.yul\":12863:12866   */\n      dup3\n        /* \"#utility.yul\":12854:12860   */\n      dup6\n        /* \"#utility.yul\":12792:12867   */\n      tag_186\n      jump\t// in\n    tag_309:\n        /* \"#utility.yul\":12892:12894   */\n      0x14\n        /* \"#utility.yul\":12887:12890   */\n      dup3\n        /* \"#utility.yul\":12883:12895   */\n      add\n        /* \"#utility.yul\":12876:12895   */\n      swap2\n      pop\n        /* \"#utility.yul\":12905:12980   */\n      tag_310\n        /* \"#utility.yul\":12976:12979   */\n      dup3\n        /* \"#utility.yul\":12967:12973   */\n      dup5\n        /* \"#utility.yul\":12905:12980   */\n      tag_182\n      jump\t// in\n    tag_310:\n        /* \"#utility.yul\":13005:13007   */\n      0x20\n        /* \"#utility.yul\":13000:13003   */\n      dup3\n        /* \"#utility.yul\":12996:13008   */\n      add\n        /* \"#utility.yul\":12989:13008   */\n      swap2\n      pop\n        /* \"#utility.yul\":13025:13028   */\n      dup2\n        /* \"#utility.yul\":13018:13028   */\n      swap1\n      pop\n        /* \"#utility.yul\":12214:13034   */\n      swap7\n      swap6\n      pop\n      pop\n      pop\n      pop\n      pop\n      pop\n      jump\t// out\n        /* \"#utility.yul\":13040:13273   */\n    tag_146:\n        /* \"#utility.yul\":13079:13082   */\n      0x00\n        /* \"#utility.yul\":13102:13126   */\n      tag_312\n        /* \"#utility.yul\":13120:13125   */\n      dup3\n        /* \"#utility.yul\":13102:13126   */\n      tag_148\n      jump\t// in\n    tag_312:\n        /* \"#utility.yul\":13093:13126   */\n      swap2\n      pop\n        /* \"#utility.yul\":13148:13214   */\n      0xffffffffffffffffffffffffffffffffffffffffffffffffffffffffffffffff\n        /* \"#utility.yul\":13141:13146   */\n      dup3\n        /* \"#utility.yul\":13138:13215   */\n      sub\n        /* \"#utility.yul\":13135:13238   */\n      tag_313\n      jumpi\n        /* \"#utility.yul\":13218:13236   */\n      tag_314\n      tag_175\n      jump\t// in\n    tag_314:\n        /* \"#utility.yul\":13135:13238   */\n    tag_313:\n        /* \"#utility.yul\":13265:13266   */\n      0x01\n        /* \"#utility.yul\":13258:13263   */\n      dup3\n        /* \"#utility.yul\":13254:13267   */\n      add\n        /* \"#utility.yul\":13247:13267   */\n      swap1\n      pop\n        /* \"#utility.yul\":13040:13273   */\n      swap2\n      swap1\n      pop\n      jump\t// out\n\n    auxdata: 0xa2646970667358221220bbe2df3dd5f1271d6577761451997d4b0742757cd4eaf6b4379fd10f06d63bcc64736f6c634300081e0033\n}\n",
				"bytecode": {
					"linkReferences": {},
					"object": "608060405234801561000f575f5ffd5b5060405161138c38038061138c833981810160405281019061003191906102a0565b3360015f819055505f73ffffffffffffffffffffffffffffffffffffffff168173ffffffffffffffffffffffffffffffffffffffff16036100a9575f6040517f1e4fbdf70000000000000000000000000000000000000000000000000000000081526004016100a091906102da565b60405180910390fd5b6100b88161017f60201b60201c565b505f73ffffffffffffffffffffffffffffffffffffffff168173ffffffffffffffffffffffffffffffffffffffff1603610131573360025f6101000a81548173ffffffffffffffffffffffffffffffffffffffff021916908373ffffffffffffffffffffffffffffffffffffffff160217905550610172565b8060025f6101000a81548173ffffffffffffffffffffffffffffffffffffffff021916908373ffffffffffffffffffffffffffffffffffffffff1602179055505b5f600381905550506102f3565b5f60015f9054906101000a900473ffffffffffffffffffffffffffffffffffffffff1690508160015f6101000a81548173ffffffffffffffffffffffffffffffffffffffff021916908373ffffffffffffffffffffffffffffffffffffffff1602179055508173ffffffffffffffffffffffffffffffffffffffff168173ffffffffffffffffffffffffffffffffffffffff167f8be0079c531659141344cd1fd0a4f28419497f9722a3daafe3b4186f6b6457e060405160405180910390a35050565b5f5ffd5b5f73ffffffffffffffffffffffffffffffffffffffff82169050919050565b5f61026f82610246565b9050919050565b61027f81610265565b8114610289575f5ffd5b50565b5f8151905061029a81610276565b92915050565b5f602082840312156102b5576102b4610242565b5b5f6102c28482850161028c565b91505092915050565b6102d481610265565b82525050565b5f6020820190506102ed5f8301846102cb565b92915050565b61108c806103005f395ff3fe608060405260043610610093575f3560e01c806380a33db11161005857806380a33db1146101f25780638da5cb5b1461021c57806396365d4414610246578063b88a802f14610270578063f2fde38b1461029a576100e8565b8062f714ce146101385780630e1505e01461016057806348ea0c031461018a578063715018a6146101b457806373138736146101ca576100e8565b366100e8573373ffffffffffffffffffffffffffffffffffffffff167f2da466a7b24304f47e87fa2e1e5a81b9831ce54fec19055ce277ca2f39ba42c4346040516100de9190610a07565b60405180910390a2005b3373ffffffffffffffffffffffffffffffffffffffff167f2da466a7b24304f47e87fa2e1e5a81b9831ce54fec19055ce277ca2f39ba42c43460405161012e9190610a07565b60405180910390a2005b348015610143575f5ffd5b5061015e60048036038101906101599190610aa8565b6102c2565b005b34801561016b575f5ffd5b50610174610418565b6040516101819190610a07565b60405180910390f35b348015610195575f5ffd5b5061019e61041d565b6040516101ab9190610a07565b60405180910390f35b3480156101bf575f5ffd5b506101c8610422565b005b3480156101d5575f5ffd5b506101f060048036038101906101eb9190610b21565b610435565b005b3480156101fd575f5ffd5b5061020661056e565b6040516102139190610b5b565b60405180910390f35b348015610227575f5ffd5b50610230610593565b60405161023d9190610b5b565b60405180910390f35b348015610251575f5ffd5b5061025a6105bb565b6040516102679190610a07565b60405180910390f35b34801561027b575f5ffd5b506102846105c2565b6040516102919190610a07565b60405180910390f35b3480156102a5575f5ffd5b506102c060048036038101906102bb9190610b21565b61076f565b005b6102ca6107f3565b6102d261087a565b47821115610315576040517f08c379a000000000000000000000000000000000000000000000000000000000815260040161030c90610bce565b60405180910390fd5b5f8173ffffffffffffffffffffffffffffffffffffffff168360405161033a90610c19565b5f6040518083038185875af1925050503d805f8114610374576040519150601f19603f3d011682016040523d82523d5f602084013e610379565b606091505b50509050806103bd576040517f08c379a00000000000000000000000000000000000000000000000000000000081526004016103b490610c77565b60405180910390fd5b8173ffffffffffffffffffffffffffffffffffffffff167f7084f5476618d8e60b11ef0d7d3f06914655adb8793e28ff7f018d4c76d505d5846040516104039190610a07565b60405180910390a2506104146108c7565b5050565b606481565b603281565b61042a6107f3565b6104335f6108d0565b565b61043d6107f3565b5f73ffffffffffffffffffffffffffffffffffffffff168173ffffffffffffffffffffffffffffffffffffffff16036104ab576040517f08c379a00000000000000000000000000000000000000000000000000000000081526004016104a290610cdf565b60405180910390fd5b5f60025f9054906101000a900473ffffffffffffffffffffffffffffffffffffffff1690508160025f6101000a81548173ffffffffffffffffffffffffffffffffffffffff021916908373ffffffffffffffffffffffffffffffffffffffff1602179055508173ffffffffffffffffffffffffffffffffffffffff168173ffffffffffffffffffffffffffffffffffffffff167fb532073b38c83145e3e5135377a08bf9aab55bc0fd7c1179cd4fb995d2a5159c60405160405180910390a35050565b60025f9054906101000a900473ffffffffffffffffffffffffffffffffffffffff1681565b5f60015f9054906101000a900473ffffffffffffffffffffffffffffffffffffffff16905090565b5f47905090565b5f6105cb61087a565b5f4790506032811015610613576040517f08c379a000000000000000000000000000000000000000000000000000000000815260040161060a90610d47565b60405180910390fd5b5f61061c610993565b90505f60016032606461062f9190610d92565b6106399190610dc5565b90505f81836106489190610e25565b60326106549190610dc5565b905083811115610662578390505b5f3373ffffffffffffffffffffffffffffffffffffffff168260405161068790610c19565b5f6040518083038185875af1925050503d805f81146106c1576040519150601f19603f3d011682016040523d82523d5f602084013e6106c6565b606091505b505090508061070a576040517f08c379a000000000000000000000000000000000000000000000000000000000815260040161070190610e9f565b60405180910390fd5b3373ffffffffffffffffffffffffffffffffffffffff167fd6f2c8500df5b44f11e9e48b91ff9f1b9d81bc496d55570c2b1b75bf65243f5183600354604051610754929190610ebd565b60405180910390a2819550505050505061076c6108c7565b90565b6107776107f3565b5f73ffffffffffffffffffffffffffffffffffffffff168173ffffffffffffffffffffffffffffffffffffffff16036107e7575f6040517f1e4fbdf70000000000000000000000000000000000000000000000000000000081526004016107de9190610b5b565b60405180910390fd5b6107f0816108d0565b50565b6107fb6109e8565b73ffffffffffffffffffffffffffffffffffffffff16610819610593565b73ffffffffffffffffffffffffffffffffffffffff16146108785761083c6109e8565b6040517f118cdaa700000000000000000000000000000000000000000000000000000000815260040161086f9190610b5b565b60405180910390fd5b565b60025f54036108be576040517f08c379a00000000000000000000000000000000000000000000000000000000081526004016108b590610f2e565b60405180910390fd5b60025f81905550565b60015f81905550565b5f60015f9054906101000a900473ffffffffffffffffffffffffffffffffffffffff1690508160015f6101000a81548173ffffffffffffffffffffffffffffffffffffffff021916908373ffffffffffffffffffffffffffffffffffffffff1602179055508173ffffffffffffffffffffffffffffffffffffffff168173ffffffffffffffffffffffffffffffffffffffff167f8be0079c531659141344cd1fd0a4f28419497f9722a3daafe3b4186f6b6457e060405160405180910390a35050565b5f5f424443336003546040516020016109b0959493929190610fb1565b604051602081830303815290604052805190602001205f1c905060035f8154809291906109dc9061100f565b91905055508091505090565b5f33905090565b5f819050919050565b610a01816109ef565b82525050565b5f602082019050610a1a5f8301846109f8565b92915050565b5f5ffd5b610a2d816109ef565b8114610a37575f5ffd5b50565b5f81359050610a4881610a24565b92915050565b5f73ffffffffffffffffffffffffffffffffffffffff82169050919050565b5f610a7782610a4e565b9050919050565b610a8781610a6d565b8114610a91575f5ffd5b50565b5f81359050610aa281610a7e565b92915050565b5f5f60408385031215610abe57610abd610a20565b5b5f610acb85828601610a3a565b9250506020610adc85828601610a94565b9150509250929050565b5f610af082610a4e565b9050919050565b610b0081610ae6565b8114610b0a575f5ffd5b50565b5f81359050610b1b81610af7565b92915050565b5f60208284031215610b3657610b35610a20565b5b5f610b4384828501610b0d565b91505092915050565b610b5581610ae6565b82525050565b5f602082019050610b6e5f830184610b4c565b92915050565b5f82825260208201905092915050565b7f496e73756666696369656e742062616c616e63650000000000000000000000005f82015250565b5f610bb8601483610b74565b9150610bc382610b84565b602082019050919050565b5f6020820190508181035f830152610be581610bac565b9050919050565b5f81905092915050565b50565b5f610c045f83610bec565b9150610c0f82610bf6565b5f82019050919050565b5f610c2382610bf9565b9150819050919050565b7f5769746864726177206661696c656400000000000000000000000000000000005f82015250565b5f610c61600f83610b74565b9150610c6c82610c2d565b602082019050919050565b5f6020820190508181035f830152610c8e81610c55565b9050919050565b7f7a65726f206164647200000000000000000000000000000000000000000000005f82015250565b5f610cc9600983610b74565b9150610cd482610c95565b602082019050919050565b5f6020820190508181035f830152610cf681610cbd565b9050919050565b7f496e73756666696369656e7420706f6f6c0000000000000000000000000000005f82015250565b5f610d31601183610b74565b9150610d3c82610cfd565b602082019050919050565b5f6020820190508181035f830152610d5e81610d25565b9050919050565b7f4e487b71000000000000000000000000000000000000000000000000000000005f52601160045260245ffd5b5f610d9c826109ef565b9150610da7836109ef565b9250828203905081811115610dbf57610dbe610d65565b5b92915050565b5f610dcf826109ef565b9150610dda836109ef565b9250828201905080821115610df257610df1610d65565b5b92915050565b7f4e487b71000000000000000000000000000000000000000000000000000000005f52601260045260245ffd5b5f610e2f826109ef565b9150610e3a836109ef565b925082610e4a57610e49610df8565b5b828206905092915050565b7f5472616e73666572206661696c656400000000000000000000000000000000005f82015250565b5f610e89600f83610b74565b9150610e9482610e55565b602082019050919050565b5f6020820190508181035f830152610eb681610e7d565b9050919050565b5f604082019050610ed05f8301856109f8565b610edd60208301846109f8565b9392505050565b7f5265656e7472616e637947756172643a207265656e7472616e742063616c6c005f82015250565b5f610f18601f83610b74565b9150610f2382610ee4565b602082019050919050565b5f6020820190508181035f830152610f4581610f0c565b9050919050565b5f819050919050565b610f66610f61826109ef565b610f4c565b82525050565b5f8160601b9050919050565b5f610f8282610f6c565b9050919050565b5f610f9382610f78565b9050919050565b610fab610fa682610ae6565b610f89565b82525050565b5f610fbc8288610f55565b602082019150610fcc8287610f55565b602082019150610fdc8286610f55565b602082019150610fec8285610f9a565b601482019150610ffc8284610f55565b6020820191508190509695505050505050565b5f611019826109ef565b91507fffffffffffffffffffffffffffffffffffffffffffffffffffffffffffffffff820361104b5761104a610d65565b5b60018201905091905056fea2646970667358221220bbe2df3dd5f1271d6577761451997d4b0742757cd4eaf6b4379fd10f06d63bcc64736f6c634300081e0033",
					"opcodes": "PUSH1 0x80 PUSH1 0x40 MSTORE CALLVALUE DUP1 ISZERO PUSH2 0xF JUMPI PUSH0 PUSH0 REVERT JUMPDEST POP PUSH1 0x40 MLOAD PUSH2 0x138C CODESIZE SUB DUP1 PUSH2 0x138C DUP4 CODECOPY DUP2 DUP2 ADD PUSH1 0x40 MSTORE DUP2 ADD SWAP1 PUSH2 0x31 SWAP2 SWAP1 PUSH2 0x2A0 JUMP JUMPDEST CALLER PUSH1 0x1 PUSH0 DUP2 SWAP1 SSTORE POP PUSH0 PUSH20 0xFFFFFFFFFFFFFFFFFFFFFFFFFFFFFFFFFFFFFFFF AND DUP2 PUSH20 0xFFFFFFFFFFFFFFFFFFFFFFFFFFFFFFFFFFFFFFFF AND SUB PUSH2 0xA9 JUMPI PUSH0 PUSH1 0x40 MLOAD PUSH32 0x1E4FBDF700000000000000000000000000000000000000000000000000000000 DUP2 MSTORE PUSH1 0x4 ADD PUSH2 0xA0 SWAP2 SWAP1 PUSH2 0x2DA JUMP JUMPDEST PUSH1 0x40 MLOAD DUP1 SWAP2 SUB SWAP1 REVERT JUMPDEST PUSH2 0xB8 DUP2 PUSH2 0x17F PUSH1 0x20 SHL PUSH1 0x20 SHR JUMP JUMPDEST POP PUSH0 PUSH20 0xFFFFFFFFFFFFFFFFFFFFFFFFFFFFFFFFFFFFFFFF AND DUP2 PUSH20 0xFFFFFFFFFFFFFFFFFFFFFFFFFFFFFFFFFFFFFFFF AND SUB PUSH2 0x131 JUMPI CALLER PUSH1 0x2 PUSH0 PUSH2 0x100 EXP DUP2 SLOAD DUP2 PUSH20 0xFFFFFFFFFFFFFFFFFFFFFFFFFFFFFFFFFFFFFFFF MUL NOT AND SWAP1 DUP4 PUSH20 0xFFFFFFFFFFFFFFFFFFFFFFFFFFFFFFFFFFFFFFFF AND MUL OR SWAP1 SSTORE POP PUSH2 0x172 JUMP JUMPDEST DUP1 PUSH1 0x2 PUSH0 PUSH2 0x100 EXP DUP2 SLOAD DUP2 PUSH20 0xFFFFFFFFFFFFFFFFFFFFFFFFFFFFFFFFFFFFFFFF MUL NOT AND SWAP1 DUP4 PUSH20 0xFFFFFFFFFFFFFFFFFFFFFFFFFFFFFFFFFFFFFFFF AND MUL OR SWAP1 SSTORE POP JUMPDEST PUSH0 PUSH1 0x3 DUP2 SWAP1 SSTORE POP POP PUSH2 0x2F3 JUMP JUMPDEST PUSH0 PUSH1 0x1 PUSH0 SWAP1 SLOAD SWAP1 PUSH2 0x100 EXP SWAP1 DIV PUSH20 0xFFFFFFFFFFFFFFFFFFFFFFFFFFFFFFFFFFFFFFFF AND SWAP1 POP DUP2 PUSH1 0x1 PUSH0 PUSH2 0x100 EXP DUP2 SLOAD DUP2 PUSH20 0xFFFFFFFFFFFFFFFFFFFFFFFFFFFFFFFFFFFFFFFF MUL NOT AND SWAP1 DUP4 PUSH20 0xFFFFFFFFFFFFFFFFFFFFFFFFFFFFFFFFFFFFFFFF AND MUL OR SWAP1 SSTORE POP DUP2 PUSH20 0xFFFFFFFFFFFFFFFFFFFFFFFFFFFFFFFFFFFFFFFF AND DUP2 PUSH20 0xFFFFFFFFFFFFFFFFFFFFFFFFFFFFFFFFFFFFFFFF AND PUSH32 0x8BE0079C531659141344CD1FD0A4F28419497F9722A3DAAFE3B4186F6B6457E0 PUSH1 0x40 MLOAD PUSH1 0x40 MLOAD DUP1 SWAP2 SUB SWAP1 LOG3 POP POP JUMP JUMPDEST PUSH0 PUSH0 REVERT JUMPDEST PUSH0 PUSH20 0xFFFFFFFFFFFFFFFFFFFFFFFFFFFFFFFFFFFFFFFF DUP3 AND SWAP1 POP SWAP2 SWAP1 POP JUMP JUMPDEST PUSH0 PUSH2 0x26F DUP3 PUSH2 0x246 JUMP JUMPDEST SWAP1 POP SWAP2 SWAP1 POP JUMP JUMPDEST PUSH2 0x27F DUP2 PUSH2 0x265 JUMP JUMPDEST DUP2 EQ PUSH2 0x289 JUMPI PUSH0 PUSH0 REVERT JUMPDEST POP JUMP JUMPDEST PUSH0 DUP2 MLOAD SWAP1 POP PUSH2 0x29A DUP2 PUSH2 0x276 JUMP JUMPDEST SWAP3 SWAP2 POP POP JUMP JUMPDEST PUSH0 PUSH1 0x20 DUP3 DUP5 SUB SLT ISZERO PUSH2 0x2B5 JUMPI PUSH2 0x2B4 PUSH2 0x242 JUMP JUMPDEST JUMPDEST PUSH0 PUSH2 0x2C2 DUP5 DUP3 DUP6 ADD PUSH2 0x28C JUMP JUMPDEST SWAP2 POP POP SWAP3 SWAP2 POP POP JUMP JUMPDEST PUSH2 0x2D4 DUP2 PUSH2 0x265 JUMP JUMPDEST DUP3 MSTORE POP POP JUMP JUMPDEST PUSH0 PUSH1 0x20 DUP3 ADD SWAP1 POP PUSH2 0x2ED PUSH0 DUP4 ADD DUP5 PUSH2 0x2CB JUMP JUMPDEST SWAP3 SWAP2 POP POP JUMP JUMPDEST PUSH2 0x108C DUP1 PUSH2 0x300 PUSH0 CODECOPY PUSH0 RETURN INVALID PUSH1 0x80 PUSH1 0x40 MSTORE PUSH1 0x4 CALLDATASIZE LT PUSH2 0x93 JUMPI PUSH0 CALLDATALOAD PUSH1 0xE0 SHR DUP1 PUSH4 0x80A33DB1 GT PUSH2 0x58 JUMPI DUP1 PUSH4 0x80A33DB1 EQ PUSH2 0x1F2 JUMPI DUP1 PUSH4 0x8DA5CB5B EQ PUSH2 0x21C JUMPI DUP1 PUSH4 0x96365D44 EQ PUSH2 0x246 JUMPI DUP1 PUSH4 0xB88A802F EQ PUSH2 0x270 JUMPI DUP1 PUSH4 0xF2FDE38B EQ PUSH2 0x29A JUMPI PUSH2 0xE8 JUMP JUMPDEST DUP1 PUSH3 0xF714CE EQ PUSH2 0x138 JUMPI DUP1 PUSH4 0xE1505E0 EQ PUSH2 0x160 JUMPI DUP1 PUSH4 0x48EA0C03 EQ PUSH2 0x18A JUMPI DUP1 PUSH4 0x715018A6 EQ PUSH2 0x1B4 JUMPI DUP1 PUSH4 0x73138736 EQ PUSH2 0x1CA JUMPI PUSH2 0xE8 JUMP JUMPDEST CALLDATASIZE PUSH2 0xE8 JUMPI CALLER PUSH20 0xFFFFFFFFFFFFFFFFFFFFFFFFFFFFFFFFFFFFFFFF AND PUSH32 0x2DA466A7B24304F47E87FA2E1E5A81B9831CE54FEC19055CE277CA2F39BA42C4 CALLVALUE PUSH1 0x40 MLOAD PUSH2 0xDE SWAP2 SWAP1 PUSH2 0xA07 JUMP JUMPDEST PUSH1 0x40 MLOAD DUP1 SWAP2 SUB SWAP1 LOG2 STOP JUMPDEST CALLER PUSH20 0xFFFFFFFFFFFFFFFFFFFFFFFFFFFFFFFFFFFFFFFF AND PUSH32 0x2DA466A7B24304F47E87FA2E1E5A81B9831CE54FEC19055CE277CA2F39BA42C4 CALLVALUE PUSH1 0x40 MLOAD PUSH2 0x12E SWAP2 SWAP1 PUSH2 0xA07 JUMP JUMPDEST PUSH1 0x40 MLOAD DUP1 SWAP2 SUB SWAP1 LOG2 STOP JUMPDEST CALLVALUE DUP1 ISZERO PUSH2 0x143 JUMPI PUSH0 PUSH0 REVERT JUMPDEST POP PUSH2 0x15E PUSH1 0x4 DUP1 CALLDATASIZE SUB DUP2 ADD SWAP1 PUSH2 0x159 SWAP2 SWAP1 PUSH2 0xAA8 JUMP JUMPDEST PUSH2 0x2C2 JUMP JUMPDEST STOP JUMPDEST CALLVALUE DUP1 ISZERO PUSH2 0x16B JUMPI PUSH0 PUSH0 REVERT JUMPDEST POP PUSH2 0x174 PUSH2 0x418 JUMP JUMPDEST PUSH1 0x40 MLOAD PUSH2 0x181 SWAP2 SWAP1 PUSH2 0xA07 JUMP JUMPDEST PUSH1 0x40 MLOAD DUP1 SWAP2 SUB SWAP1 RETURN JUMPDEST CALLVALUE DUP1 ISZERO PUSH2 0x195 JUMPI PUSH0 PUSH0 REVERT JUMPDEST POP PUSH2 0x19E PUSH2 0x41D JUMP JUMPDEST PUSH1 0x40 MLOAD PUSH2 0x1AB SWAP2 SWAP1 PUSH2 0xA07 JUMP JUMPDEST PUSH1 0x40 MLOAD DUP1 SWAP2 SUB SWAP1 RETURN JUMPDEST CALLVALUE DUP1 ISZERO PUSH2 0x1BF JUMPI PUSH0 PUSH0 REVERT JUMPDEST POP PUSH2 0x1C8 PUSH2 0x422 JUMP JUMPDEST STOP JUMPDEST CALLVALUE DUP1 ISZERO PUSH2 0x1D5 JUMPI PUSH0 PUSH0 REVERT JUMPDEST POP PUSH2 0x1F0 PUSH1 0x4 DUP1 CALLDATASIZE SUB DUP2 ADD SWAP1 PUSH2 0x1EB SWAP2 SWAP1 PUSH2 0xB21 JUMP JUMPDEST PUSH2 0x435 JUMP JUMPDEST STOP JUMPDEST CALLVALUE DUP1 ISZERO PUSH2 0x1FD JUMPI PUSH0 PUSH0 REVERT JUMPDEST POP PUSH2 0x206 PUSH2 0x56E JUMP JUMPDEST PUSH1 0x40 MLOAD PUSH2 0x213 SWAP2 SWAP1 PUSH2 0xB5B JUMP JUMPDEST PUSH1 0x40 MLOAD DUP1 SWAP2 SUB SWAP1 RETURN JUMPDEST CALLVALUE DUP1 ISZERO PUSH2 0x227 JUMPI PUSH0 PUSH0 REVERT JUMPDEST POP PUSH2 0x230 PUSH2 0x593 JUMP JUMPDEST PUSH1 0x40 MLOAD PUSH2 0x23D SWAP2 SWAP1 PUSH2 0xB5B JUMP JUMPDEST PUSH1 0x40 MLOAD DUP1 SWAP2 SUB SWAP1 RETURN JUMPDEST CALLVALUE DUP1 ISZERO PUSH2 0x251 JUMPI PUSH0 PUSH0 REVERT JUMPDEST POP PUSH2 0x25A PUSH2 0x5BB JUMP JUMPDEST PUSH1 0x40 MLOAD PUSH2 0x267 SWAP2 SWAP1 PUSH2 0xA07 JUMP JUMPDEST PUSH1 0x40 MLOAD DUP1 SWAP2 SUB SWAP1 RETURN JUMPDEST CALLVALUE DUP1 ISZERO PUSH2 0x27B JUMPI PUSH0 PUSH0 REVERT JUMPDEST POP PUSH2 0x284 PUSH2 0x5C2 JUMP JUMPDEST PUSH1 0x40 MLOAD PUSH2 0x291 SWAP2 SWAP1 PUSH2 0xA07 JUMP JUMPDEST PUSH1 0x40 MLOAD DUP1 SWAP2 SUB SWAP1 RETURN JUMPDEST CALLVALUE DUP1 ISZERO PUSH2 0x2A5 JUMPI PUSH0 PUSH0 REVERT JUMPDEST POP PUSH2 0x2C0 PUSH1 0x4 DUP1 CALLDATASIZE SUB DUP2 ADD SWAP1 PUSH2 0x2BB SWAP2 SWAP1 PUSH2 0xB21 JUMP JUMPDEST PUSH2 0x76F JUMP JUMPDEST STOP JUMPDEST PUSH2 0x2CA PUSH2 0x7F3 JUMP JUMPDEST PUSH2 0x2D2 PUSH2 0x87A JUMP JUMPDEST SELFBALANCE DUP3 GT ISZERO PUSH2 0x315 JUMPI PUSH1 0x40 MLOAD PUSH32 0x8C379A000000000000000000000000000000000000000000000000000000000 DUP2 MSTORE PUSH1 0x4 ADD PUSH2 0x30C SWAP1 PUSH2 0xBCE JUMP JUMPDEST PUSH1 0x40 MLOAD DUP1 SWAP2 SUB SWAP1 REVERT JUMPDEST PUSH0 DUP2 PUSH20 0xFFFFFFFFFFFFFFFFFFFFFFFFFFFFFFFFFFFFFFFF AND DUP4 PUSH1 0x40 MLOAD PUSH2 0x33A SWAP1 PUSH2 0xC19 JUMP JUMPDEST PUSH0 PUSH1 0x40 MLOAD DUP1 DUP4 SUB DUP2 DUP6 DUP8 GAS CALL SWAP3 POP POP POP RETURNDATASIZE DUP1 PUSH0 DUP2 EQ PUSH2 0x374 JUMPI PUSH1 0x40 MLOAD SWAP2 POP PUSH1 0x1F NOT PUSH1 0x3F RETURNDATASIZE ADD AND DUP3 ADD PUSH1 0x40 MSTORE RETURNDATASIZE DUP3 MSTORE RETURNDATASIZE PUSH0 PUSH1 0x20 DUP5 ADD RETURNDATACOPY PUSH2 0x379 JUMP JUMPDEST PUSH1 0x60 SWAP2 POP JUMPDEST POP POP SWAP1 POP DUP1 PUSH2 0x3BD JUMPI PUSH1 0x40 MLOAD PUSH32 0x8C379A000000000000000000000000000000000000000000000000000000000 DUP2 MSTORE PUSH1 0x4 ADD PUSH2 0x3B4 SWAP1 PUSH2 0xC77 JUMP JUMPDEST PUSH1 0x40 MLOAD DUP1 SWAP2 SUB SWAP1 REVERT JUMPDEST DUP2 PUSH20 0xFFFFFFFFFFFFFFFFFFFFFFFFFFFFFFFFFFFFFFFF AND PUSH32 0x7084F5476618D8E60B11EF0D7D3F06914655ADB8793E28FF7F018D4C76D505D5 DUP5 PUSH1 0x40 MLOAD PUSH2 0x403 SWAP2 SWAP1 PUSH2 0xA07 JUMP JUMPDEST PUSH1 0x40 MLOAD DUP1 SWAP2 SUB SWAP1 LOG2 POP PUSH2 0x414 PUSH2 0x8C7 JUMP JUMPDEST POP POP JUMP JUMPDEST PUSH1 0x64 DUP2 JUMP JUMPDEST PUSH1 0x32 DUP2 JUMP JUMPDEST PUSH2 0x42A PUSH2 0x7F3 JUMP JUMPDEST PUSH2 0x433 PUSH0 PUSH2 0x8D0 JUMP JUMPDEST JUMP JUMPDEST PUSH2 0x43D PUSH2 0x7F3 JUMP JUMPDEST PUSH0 PUSH20 0xFFFFFFFFFFFFFFFFFFFFFFFFFFFFFFFFFFFFFFFF AND DUP2 PUSH20 0xFFFFFFFFFFFFFFFFFFFFFFFFFFFFFFFFFFFFFFFF AND SUB PUSH2 0x4AB JUMPI PUSH1 0x40 MLOAD PUSH32 0x8C379A000000000000000000000000000000000000000000000000000000000 DUP2 MSTORE PUSH1 0x4 ADD PUSH2 0x4A2 SWAP1 PUSH2 0xCDF JUMP JUMPDEST PUSH1 0x40 MLOAD DUP1 SWAP2 SUB SWAP1 REVERT JUMPDEST PUSH0 PUSH1 0x2 PUSH0 SWAP1 SLOAD SWAP1 PUSH2 0x100 EXP SWAP1 DIV PUSH20 0xFFFFFFFFFFFFFFFFFFFFFFFFFFFFFFFFFFFFFFFF AND SWAP1 POP DUP2 PUSH1 0x2 PUSH0 PUSH2 0x100 EXP DUP2 SLOAD DUP2 PUSH20 0xFFFFFFFFFFFFFFFFFFFFFFFFFFFFFFFFFFFFFFFF MUL NOT AND SWAP1 DUP4 PUSH20 0xFFFFFFFFFFFFFFFFFFFFFFFFFFFFFFFFFFFFFFFF AND MUL OR SWAP1 SSTORE POP DUP2 PUSH20 0xFFFFFFFFFFFFFFFFFFFFFFFFFFFFFFFFFFFFFFFF AND DUP2 PUSH20 0xFFFFFFFFFFFFFFFFFFFFFFFFFFFFFFFFFFFFFFFF AND PUSH32 0xB532073B38C83145E3E5135377A08BF9AAB55BC0FD7C1179CD4FB995D2A5159C PUSH1 0x40 MLOAD PUSH1 0x40 MLOAD DUP1 SWAP2 SUB SWAP1 LOG3 POP POP JUMP JUMPDEST PUSH1 0x2 PUSH0 SWAP1 SLOAD SWAP1 PUSH2 0x100 EXP SWAP1 DIV PUSH20 0xFFFFFFFFFFFFFFFFFFFFFFFFFFFFFFFFFFFFFFFF AND DUP2 JUMP JUMPDEST PUSH0 PUSH1 0x1 PUSH0 SWAP1 SLOAD SWAP1 PUSH2 0x100 EXP SWAP1 DIV PUSH20 0xFFFFFFFFFFFFFFFFFFFFFFFFFFFFFFFFFFFFFFFF AND SWAP1 POP SWAP1 JUMP JUMPDEST PUSH0 SELFBALANCE SWAP1 POP SWAP1 JUMP JUMPDEST PUSH0 PUSH2 0x5CB PUSH2 0x87A JUMP JUMPDEST PUSH0 SELFBALANCE SWAP1 POP PUSH1 0x32 DUP2 LT ISZERO PUSH2 0x613 JUMPI PUSH1 0x40 MLOAD PUSH32 0x8C379A000000000000000000000000000000000000000000000000000000000 DUP2 MSTORE PUSH1 0x4 ADD PUSH2 0x60A SWAP1 PUSH2 0xD47 JUMP JUMPDEST PUSH1 0x40 MLOAD DUP1 SWAP2 SUB SWAP1 REVERT JUMPDEST PUSH0 PUSH2 0x61C PUSH2 0x993 JUMP JUMPDEST SWAP1 POP PUSH0 PUSH1 0x1 PUSH1 0x32 PUSH1 0x64 PUSH2 0x62F SWAP2 SWAP1 PUSH2 0xD92 JUMP JUMPDEST PUSH2 0x639 SWAP2 SWAP1 PUSH2 0xDC5 JUMP JUMPDEST SWAP1 POP PUSH0 DUP2 DUP4 PUSH2 0x648 SWAP2 SWAP1 PUSH2 0xE25 JUMP JUMPDEST PUSH1 0x32 PUSH2 0x654 SWAP2 SWAP1 PUSH2 0xDC5 JUMP JUMPDEST SWAP1 POP DUP4 DUP2 GT ISZERO PUSH2 0x662 JUMPI DUP4 SWAP1 POP JUMPDEST PUSH0 CALLER PUSH20 0xFFFFFFFFFFFFFFFFFFFFFFFFFFFFFFFFFFFFFFFF AND DUP3 PUSH1 0x40 MLOAD PUSH2 0x687 SWAP1 PUSH2 0xC19 JUMP JUMPDEST PUSH0 PUSH1 0x40 MLOAD DUP1 DUP4 SUB DUP2 DUP6 DUP8 GAS CALL SWAP3 POP POP POP RETURNDATASIZE DUP1 PUSH0 DUP2 EQ PUSH2 0x6C1 JUMPI PUSH1 0x40 MLOAD SWAP2 POP PUSH1 0x1F NOT PUSH1 0x3F RETURNDATASIZE ADD AND DUP3 ADD PUSH1 0x40 MSTORE RETURNDATASIZE DUP3 MSTORE RETURNDATASIZE PUSH0 PUSH1 0x20 DUP5 ADD RETURNDATACOPY PUSH2 0x6C6 JUMP JUMPDEST PUSH1 0x60 SWAP2 POP JUMPDEST POP POP SWAP1 POP DUP1 PUSH2 0x70A JUMPI PUSH1 0x40 MLOAD PUSH32 0x8C379A000000000000000000000000000000000000000000000000000000000 DUP2 MSTORE PUSH1 0x4 ADD PUSH2 0x701 SWAP1 PUSH2 0xE9F JUMP JUMPDEST PUSH1 0x40 MLOAD DUP1 SWAP2 SUB SWAP1 REVERT JUMPDEST CALLER PUSH20 0xFFFFFFFFFFFFFFFFFFFFFFFFFFFFFFFFFFFFFFFF AND PUSH32 0xD6F2C8500DF5B44F11E9E48B91FF9F1B9D81BC496D55570C2B1B75BF65243F51 DUP4 PUSH1 0x3 SLOAD PUSH1 0x40 MLOAD PUSH2 0x754 SWAP3 SWAP2 SWAP1 PUSH2 0xEBD JUMP JUMPDEST PUSH1 0x40 MLOAD DUP1 SWAP2 SUB SWAP1 LOG2 DUP2 SWAP6 POP POP POP POP POP POP PUSH2 0x76C PUSH2 0x8C7 JUMP JUMPDEST SWAP1 JUMP JUMPDEST PUSH2 0x777 PUSH2 0x7F3 JUMP JUMPDEST PUSH0 PUSH20 0xFFFFFFFFFFFFFFFFFFFFFFFFFFFFFFFFFFFFFFFF AND DUP2 PUSH20 0xFFFFFFFFFFFFFFFFFFFFFFFFFFFFFFFFFFFFFFFF AND SUB PUSH2 0x7E7 JUMPI PUSH0 PUSH1 0x40 MLOAD PUSH32 0x1E4FBDF700000000000000000000000000000000000000000000000000000000 DUP2 MSTORE PUSH1 0x4 ADD PUSH2 0x7DE SWAP2 SWAP1 PUSH2 0xB5B JUMP JUMPDEST PUSH1 0x40 MLOAD DUP1 SWAP2 SUB SWAP1 REVERT JUMPDEST PUSH2 0x7F0 DUP2 PUSH2 0x8D0 JUMP JUMPDEST POP JUMP JUMPDEST PUSH2 0x7FB PUSH2 0x9E8 JUMP JUMPDEST PUSH20 0xFFFFFFFFFFFFFFFFFFFFFFFFFFFFFFFFFFFFFFFF AND PUSH2 0x819 PUSH2 0x593 JUMP JUMPDEST PUSH20 0xFFFFFFFFFFFFFFFFFFFFFFFFFFFFFFFFFFFFFFFF AND EQ PUSH2 0x878 JUMPI PUSH2 0x83C PUSH2 0x9E8 JUMP JUMPDEST PUSH1 0x40 MLOAD PUSH32 0x118CDAA700000000000000000000000000000000000000000000000000000000 DUP2 MSTORE PUSH1 0x4 ADD PUSH2 0x86F SWAP2 SWAP1 PUSH2 0xB5B JUMP JUMPDEST PUSH1 0x40 MLOAD DUP1 SWAP2 SUB SWAP1 REVERT JUMPDEST JUMP JUMPDEST PUSH1 0x2 PUSH0 SLOAD SUB PUSH2 0x8BE JUMPI PUSH1 0x40 MLOAD PUSH32 0x8C379A000000000000000000000000000000000000000000000000000000000 DUP2 MSTORE PUSH1 0x4 ADD PUSH2 0x8B5 SWAP1 PUSH2 0xF2E JUMP JUMPDEST PUSH1 0x40 MLOAD DUP1 SWAP2 SUB SWAP1 REVERT JUMPDEST PUSH1 0x2 PUSH0 DUP2 SWAP1 SSTORE POP JUMP JUMPDEST PUSH1 0x1 PUSH0 DUP2 SWAP1 SSTORE POP JUMP JUMPDEST PUSH0 PUSH1 0x1 PUSH0 SWAP1 SLOAD SWAP1 PUSH2 0x100 EXP SWAP1 DIV PUSH20 0xFFFFFFFFFFFFFFFFFFFFFFFFFFFFFFFFFFFFFFFF AND SWAP1 POP DUP2 PUSH1 0x1 PUSH0 PUSH2 0x100 EXP DUP2 SLOAD DUP2 PUSH20 0xFFFFFFFFFFFFFFFFFFFFFFFFFFFFFFFFFFFFFFFF MUL NOT AND SWAP1 DUP4 PUSH20 0xFFFFFFFFFFFFFFFFFFFFFFFFFFFFFFFFFFFFFFFF AND MUL OR SWAP1 SSTORE POP DUP2 PUSH20 0xFFFFFFFFFFFFFFFFFFFFFFFFFFFFFFFFFFFFFFFF AND DUP2 PUSH20 0xFFFFFFFFFFFFFFFFFFFFFFFFFFFFFFFFFFFFFFFF AND PUSH32 0x8BE0079C531659141344CD1FD0A4F28419497F9722A3DAAFE3B4186F6B6457E0 PUSH1 0x40 MLOAD PUSH1 0x40 MLOAD DUP1 SWAP2 SUB SWAP1 LOG3 POP POP JUMP JUMPDEST PUSH0 PUSH0 TIMESTAMP PREVRANDAO NUMBER CALLER PUSH1 0x3 SLOAD PUSH1 0x40 MLOAD PUSH1 0x20 ADD PUSH2 0x9B0 SWAP6 SWAP5 SWAP4 SWAP3 SWAP2 SWAP1 PUSH2 0xFB1 JUMP JUMPDEST PUSH1 0x40 MLOAD PUSH1 0x20 DUP2 DUP4 SUB SUB DUP2 MSTORE SWAP1 PUSH1 0x40 MSTORE DUP1 MLOAD SWAP1 PUSH1 0x20 ADD KECCAK256 PUSH0 SHR SWAP1 POP PUSH1 0x3 PUSH0 DUP2 SLOAD DUP1 SWAP3 SWAP2 SWAP1 PUSH2 0x9DC SWAP1 PUSH2 0x100F JUMP JUMPDEST SWAP2 SWAP1 POP SSTORE POP DUP1 SWAP2 POP POP SWAP1 JUMP JUMPDEST PUSH0 CALLER SWAP1 POP SWAP1 JUMP JUMPDEST PUSH0 DUP2 SWAP1 POP SWAP2 SWAP1 POP JUMP JUMPDEST PUSH2 0xA01 DUP2 PUSH2 0x9EF JUMP JUMPDEST DUP3 MSTORE POP POP JUMP JUMPDEST PUSH0 PUSH1 0x20 DUP3 ADD SWAP1 POP PUSH2 0xA1A PUSH0 DUP4 ADD DUP5 PUSH2 0x9F8 JUMP JUMPDEST SWAP3 SWAP2 POP POP JUMP JUMPDEST PUSH0 PUSH0 REVERT JUMPDEST PUSH2 0xA2D DUP2 PUSH2 0x9EF JUMP JUMPDEST DUP2 EQ PUSH2 0xA37 JUMPI PUSH0 PUSH0 REVERT JUMPDEST POP JUMP JUMPDEST PUSH0 DUP2 CALLDATALOAD SWAP1 POP PUSH2 0xA48 DUP2 PUSH2 0xA24 JUMP JUMPDEST SWAP3 SWAP2 POP POP JUMP JUMPDEST PUSH0 PUSH20 0xFFFFFFFFFFFFFFFFFFFFFFFFFFFFFFFFFFFFFFFF DUP3 AND SWAP1 POP SWAP2 SWAP1 POP JUMP JUMPDEST PUSH0 PUSH2 0xA77 DUP3 PUSH2 0xA4E JUMP JUMPDEST SWAP1 POP SWAP2 SWAP1 POP JUMP JUMPDEST PUSH2 0xA87 DUP2 PUSH2 0xA6D JUMP JUMPDEST DUP2 EQ PUSH2 0xA91 JUMPI PUSH0 PUSH0 REVERT JUMPDEST POP JUMP JUMPDEST PUSH0 DUP2 CALLDATALOAD SWAP1 POP PUSH2 0xAA2 DUP2 PUSH2 0xA7E JUMP JUMPDEST SWAP3 SWAP2 POP POP JUMP JUMPDEST PUSH0 PUSH0 PUSH1 0x40 DUP4 DUP6 SUB SLT ISZERO PUSH2 0xABE JUMPI PUSH2 0xABD PUSH2 0xA20 JUMP JUMPDEST JUMPDEST PUSH0 PUSH2 0xACB DUP6 DUP3 DUP7 ADD PUSH2 0xA3A JUMP JUMPDEST SWAP3 POP POP PUSH1 0x20 PUSH2 0xADC DUP6 DUP3 DUP7 ADD PUSH2 0xA94 JUMP JUMPDEST SWAP2 POP POP SWAP3 POP SWAP3 SWAP1 POP JUMP JUMPDEST PUSH0 PUSH2 0xAF0 DUP3 PUSH2 0xA4E JUMP JUMPDEST SWAP1 POP SWAP2 SWAP1 POP JUMP JUMPDEST PUSH2 0xB00 DUP2 PUSH2 0xAE6 JUMP JUMPDEST DUP2 EQ PUSH2 0xB0A JUMPI PUSH0 PUSH0 REVERT JUMPDEST POP JUMP JUMPDEST PUSH0 DUP2 CALLDATALOAD SWAP1 POP PUSH2 0xB1B DUP2 PUSH2 0xAF7 JUMP JUMPDEST SWAP3 SWAP2 POP POP JUMP JUMPDEST PUSH0 PUSH1 0x20 DUP3 DUP5 SUB SLT ISZERO PUSH2 0xB36 JUMPI PUSH2 0xB35 PUSH2 0xA20 JUMP JUMPDEST JUMPDEST PUSH0 PUSH2 0xB43 DUP5 DUP3 DUP6 ADD PUSH2 0xB0D JUMP JUMPDEST SWAP2 POP POP SWAP3 SWAP2 POP POP JUMP JUMPDEST PUSH2 0xB55 DUP2 PUSH2 0xAE6 JUMP JUMPDEST DUP3 MSTORE POP POP JUMP JUMPDEST PUSH0 PUSH1 0x20 DUP3 ADD SWAP1 POP PUSH2 0xB6E PUSH0 DUP4 ADD DUP5 PUSH2 0xB4C JUMP JUMPDEST SWAP3 SWAP2 POP POP JUMP JUMPDEST PUSH0 DUP3 DUP3 MSTORE PUSH1 0x20 DUP3 ADD SWAP1 POP SWAP3 SWAP2 POP POP JUMP JUMPDEST PUSH32 0x496E73756666696369656E742062616C616E6365000000000000000000000000 PUSH0 DUP3 ADD MSTORE POP JUMP JUMPDEST PUSH0 PUSH2 0xBB8 PUSH1 0x14 DUP4 PUSH2 0xB74 JUMP JUMPDEST SWAP2 POP PUSH2 0xBC3 DUP3 PUSH2 0xB84 JUMP JUMPDEST PUSH1 0x20 DUP3 ADD SWAP1 POP SWAP2 SWAP1 POP JUMP JUMPDEST PUSH0 PUSH1 0x20 DUP3 ADD SWAP1 POP DUP2 DUP2 SUB PUSH0 DUP4 ADD MSTORE PUSH2 0xBE5 DUP2 PUSH2 0xBAC JUMP JUMPDEST SWAP1 POP SWAP2 SWAP1 POP JUMP JUMPDEST PUSH0 DUP2 SWAP1 POP SWAP3 SWAP2 POP POP JUMP JUMPDEST POP JUMP JUMPDEST PUSH0 PUSH2 0xC04 PUSH0 DUP4 PUSH2 0xBEC JUMP JUMPDEST SWAP2 POP PUSH2 0xC0F DUP3 PUSH2 0xBF6 JUMP JUMPDEST PUSH0 DUP3 ADD SWAP1 POP SWAP2 SWAP1 POP JUMP JUMPDEST PUSH0 PUSH2 0xC23 DUP3 PUSH2 0xBF9 JUMP JUMPDEST SWAP2 POP DUP2 SWAP1 POP SWAP2 SWAP1 POP JUMP JUMPDEST PUSH32 0x5769746864726177206661696C65640000000000000000000000000000000000 PUSH0 DUP3 ADD MSTORE POP JUMP JUMPDEST PUSH0 PUSH2 0xC61 PUSH1 0xF DUP4 PUSH2 0xB74 JUMP JUMPDEST SWAP2 POP PUSH2 0xC6C DUP3 PUSH2 0xC2D JUMP JUMPDEST PUSH1 0x20 DUP3 ADD SWAP1 POP SWAP2 SWAP1 POP JUMP JUMPDEST PUSH0 PUSH1 0x20 DUP3 ADD SWAP1 POP DUP2 DUP2 SUB PUSH0 DUP4 ADD MSTORE PUSH2 0xC8E DUP2 PUSH2 0xC55 JUMP JUMPDEST SWAP1 POP SWAP2 SWAP1 POP JUMP JUMPDEST PUSH32 0x7A65726F20616464720000000000000000000000000000000000000000000000 PUSH0 DUP3 ADD MSTORE POP JUMP JUMPDEST PUSH0 PUSH2 0xCC9 PUSH1 0x9 DUP4 PUSH2 0xB74 JUMP JUMPDEST SWAP2 POP PUSH2 0xCD4 DUP3 PUSH2 0xC95 JUMP JUMPDEST PUSH1 0x20 DUP3 ADD SWAP1 POP SWAP2 SWAP1 POP JUMP JUMPDEST PUSH0 PUSH1 0x20 DUP3 ADD SWAP1 POP DUP2 DUP2 SUB PUSH0 DUP4 ADD MSTORE PUSH2 0xCF6 DUP2 PUSH2 0xCBD JUMP JUMPDEST SWAP1 POP SWAP2 SWAP1 POP JUMP JUMPDEST PUSH32 0x496E73756666696369656E7420706F6F6C000000000000000000000000000000 PUSH0 DUP3 ADD MSTORE POP JUMP JUMPDEST PUSH0 PUSH2 0xD31 PUSH1 0x11 DUP4 PUSH2 0xB74 JUMP JUMPDEST SWAP2 POP PUSH2 0xD3C DUP3 PUSH2 0xCFD JUMP JUMPDEST PUSH1 0x20 DUP3 ADD SWAP1 POP SWAP2 SWAP1 POP JUMP JUMPDEST PUSH0 PUSH1 0x20 DUP3 ADD SWAP1 POP DUP2 DUP2 SUB PUSH0 DUP4 ADD MSTORE PUSH2 0xD5E DUP2 PUSH2 0xD25 JUMP JUMPDEST SWAP1 POP SWAP2 SWAP1 POP JUMP JUMPDEST PUSH32 0x4E487B7100000000000000000000000000000000000000000000000000000000 PUSH0 MSTORE PUSH1 0x11 PUSH1 0x4 MSTORE PUSH1 0x24 PUSH0 REVERT JUMPDEST PUSH0 PUSH2 0xD9C DUP3 PUSH2 0x9EF JUMP JUMPDEST SWAP2 POP PUSH2 0xDA7 DUP4 PUSH2 0x9EF JUMP JUMPDEST SWAP3 POP DUP3 DUP3 SUB SWAP1 POP DUP2 DUP2 GT ISZERO PUSH2 0xDBF JUMPI PUSH2 0xDBE PUSH2 0xD65 JUMP JUMPDEST JUMPDEST SWAP3 SWAP2 POP POP JUMP JUMPDEST PUSH0 PUSH2 0xDCF DUP3 PUSH2 0x9EF JUMP JUMPDEST SWAP2 POP PUSH2 0xDDA DUP4 PUSH2 0x9EF JUMP JUMPDEST SWAP3 POP DUP3 DUP3 ADD SWAP1 POP DUP1 DUP3 GT ISZERO PUSH2 0xDF2 JUMPI PUSH2 0xDF1 PUSH2 0xD65 JUMP JUMPDEST JUMPDEST SWAP3 SWAP2 POP POP JUMP JUMPDEST PUSH32 0x4E487B7100000000000000000000000000000000000000000000000000000000 PUSH0 MSTORE PUSH1 0x12 PUSH1 0x4 MSTORE PUSH1 0x24 PUSH0 REVERT JUMPDEST PUSH0 PUSH2 0xE2F DUP3 PUSH2 0x9EF JUMP JUMPDEST SWAP2 POP PUSH2 0xE3A DUP4 PUSH2 0x9EF JUMP JUMPDEST SWAP3 POP DUP3 PUSH2 0xE4A JUMPI PUSH2 0xE49 PUSH2 0xDF8 JUMP JUMPDEST JUMPDEST DUP3 DUP3 MOD SWAP1 POP SWAP3 SWAP2 POP POP JUMP JUMPDEST PUSH32 0x5472616E73666572206661696C65640000000000000000000000000000000000 PUSH0 DUP3 ADD MSTORE POP JUMP JUMPDEST PUSH0 PUSH2 0xE89 PUSH1 0xF DUP4 PUSH2 0xB74 JUMP JUMPDEST SWAP2 POP PUSH2 0xE94 DUP3 PUSH2 0xE55 JUMP JUMPDEST PUSH1 0x20 DUP3 ADD SWAP1 POP SWAP2 SWAP1 POP JUMP JUMPDEST PUSH0 PUSH1 0x20 DUP3 ADD SWAP1 POP DUP2 DUP2 SUB PUSH0 DUP4 ADD MSTORE PUSH2 0xEB6 DUP2 PUSH2 0xE7D JUMP JUMPDEST SWAP1 POP SWAP2 SWAP1 POP JUMP JUMPDEST PUSH0 PUSH1 0x40 DUP3 ADD SWAP1 POP PUSH2 0xED0 PUSH0 DUP4 ADD DUP6 PUSH2 0x9F8 JUMP JUMPDEST PUSH2 0xEDD PUSH1 0x20 DUP4 ADD DUP5 PUSH2 0x9F8 JUMP JUMPDEST SWAP4 SWAP3 POP POP POP JUMP JUMPDEST PUSH32 0x5265656E7472616E637947756172643A207265656E7472616E742063616C6C00 PUSH0 DUP3 ADD MSTORE POP JUMP JUMPDEST PUSH0 PUSH2 0xF18 PUSH1 0x1F DUP4 PUSH2 0xB74 JUMP JUMPDEST SWAP2 POP PUSH2 0xF23 DUP3 PUSH2 0xEE4 JUMP JUMPDEST PUSH1 0x20 DUP3 ADD SWAP1 POP SWAP2 SWAP1 POP JUMP JUMPDEST PUSH0 PUSH1 0x20 DUP3 ADD SWAP1 POP DUP2 DUP2 SUB PUSH0 DUP4 ADD MSTORE PUSH2 0xF45 DUP2 PUSH2 0xF0C JUMP JUMPDEST SWAP1 POP SWAP2 SWAP1 POP JUMP JUMPDEST PUSH0 DUP2 SWAP1 POP SWAP2 SWAP1 POP JUMP JUMPDEST PUSH2 0xF66 PUSH2 0xF61 DUP3 PUSH2 0x9EF JUMP JUMPDEST PUSH2 0xF4C JUMP JUMPDEST DUP3 MSTORE POP POP JUMP JUMPDEST PUSH0 DUP2 PUSH1 0x60 SHL SWAP1 POP SWAP2 SWAP1 POP JUMP JUMPDEST PUSH0 PUSH2 0xF82 DUP3 PUSH2 0xF6C JUMP JUMPDEST SWAP1 POP SWAP2 SWAP1 POP JUMP JUMPDEST PUSH0 PUSH2 0xF93 DUP3 PUSH2 0xF78 JUMP JUMPDEST SWAP1 POP SWAP2 SWAP1 POP JUMP JUMPDEST PUSH2 0xFAB PUSH2 0xFA6 DUP3 PUSH2 0xAE6 JUMP JUMPDEST PUSH2 0xF89 JUMP JUMPDEST DUP3 MSTORE POP POP JUMP JUMPDEST PUSH0 PUSH2 0xFBC DUP3 DUP9 PUSH2 0xF55 JUMP JUMPDEST PUSH1 0x20 DUP3 ADD SWAP2 POP PUSH2 0xFCC DUP3 DUP8 PUSH2 0xF55 JUMP JUMPDEST PUSH1 0x20 DUP3 ADD SWAP2 POP PUSH2 0xFDC DUP3 DUP7 PUSH2 0xF55 JUMP JUMPDEST PUSH1 0x20 DUP3 ADD SWAP2 POP PUSH2 0xFEC DUP3 DUP6 PUSH2 0xF9A JUMP JUMPDEST PUSH1 0x14 DUP3 ADD SWAP2 POP PUSH2 0xFFC DUP3 DUP5 PUSH2 0xF55 JUMP JUMPDEST PUSH1 0x20 DUP3 ADD SWAP2 POP DUP2 SWAP1 POP SWAP7 SWAP6 POP POP POP POP POP POP JUMP JUMPDEST PUSH0 PUSH2 0x1019 DUP3 PUSH2 0x9EF JUMP JUMPDEST SWAP2 POP PUSH32 0xFFFFFFFFFFFFFFFFFFFFFFFFFFFFFFFFFFFFFFFFFFFFFFFFFFFFFFFFFFFFFFFF DUP3 SUB PUSH2 0x104B JUMPI PUSH2 0x104A PUSH2 0xD65 JUMP JUMPDEST JUMPDEST PUSH1 0x1 DUP3 ADD SWAP1 POP SWAP2 SWAP1 POP JUMP INVALID LOG2 PUSH5 0x6970667358 0x22 SLT KECCAK256 0xBB 0xE2 0xDF RETURNDATASIZE 0xD5 CALL 0x27 SAR PUSH6 0x77761451997D 0x4B SMOD TIMESTAMP PUSH22 0x7CD4EAF6B4379FD10F06D63BCC64736F6C634300081E STOP CALLER "
				},
				"gasEstimates": {
					"creation": {
						"codeDepositCost": "847200",
						"executionCost": "infinite",
						"totalCost": "infinite"
					},
					"external": {
						"": "1765",
						"MAX_REWARD()": "348",
						"MIN_REWARD()": "370",
						"claimReward()": "infinite",
						"designatedOwner()": "2508",
						"owner()": "2537",
						"poolBalance()": "378",
						"renounceOwnership()": "infinite",
						"setDesignatedOwner(address)": "infinite",
						"transferOwnership(address)": "infinite",
						"withdraw(uint256,address)": "infinite"
					},
					"internal": {
						"_random()": "infinite"
					}
				},
				"methodIdentifiers": {
					"MAX_REWARD()": "0e1505e0",
					"MIN_REWARD()": "48ea0c03",
					"claimReward()": "b88a802f",
					"designatedOwner()": "80a33db1",
					"owner()": "8da5cb5b",
					"poolBalance()": "96365d44",
					"renounceOwnership()": "715018a6",
					"setDesignatedOwner(address)": "73138736",
					"transferOwnership(address)": "f2fde38b",
					"withdraw(uint256,address)": "00f714ce"
				}
			},
			"storageLayout": {
				"storage": [
					{
						"astId": 158,
						"contract": "TinyRewardFromOwner.sol:TinyRewardFromOwner",
						"label": "_status",
						"offset": 0,
						"slot": "0",
						"type": "t_uint256"
					},
					{
						"astId": 8,
						"contract": "TinyRewardFromOwner.sol:TinyRewardFromOwner",
						"label": "_owner",
						"offset": 0,
						"slot": "1",
						"type": "t_address"
					},
					{
						"astId": 259,
						"contract": "TinyRewardFromOwner.sol:TinyRewardFromOwner",
						"label": "designatedOwner",
						"offset": 0,
						"slot": "2",
						"type": "t_address"
					},
					{
						"astId": 261,
						"contract": "TinyRewardFromOwner.sol:TinyRewardFromOwner",
						"label": "nonce",
						"offset": 0,
						"slot": "3",
						"type": "t_uint256"
					}
				],
				"types": {
					"t_address": {
						"encoding": "inplace",
						"label": "address",
						"numberOfBytes": "20"
					},
					"t_uint256": {
						"encoding": "inplace",
						"label": "uint256",
						"numberOfBytes": "32"
					}
				}
			},
			"userdoc": {
				"kind": "user",
				"methods": {
					"constructor": {
						"notice": "NEW: Pass owner to Ownable() base constructor"
					}
				},
				"notice": "Tiny random reward (50–100 wei) on Sepolia. Owner pre-funds contract.",
				"version": 1
			}
		}
	}
}