{
	"PaymentProcessor.sol": {
		"PaymentProcessor": {
			"abi": [
				{
					"inputs": [
						{
							"internalType": "address",
							"name": "_merchant",
							"type": "address"
						}
					],
					"stateMutability": "nonpayable",
					"type": "constructor"
				},
				{
					"anonymous": false,
					"inputs": [
						{
							"indexed": true,
							"internalType": "uint256",
							"name": "uid",
							"type": "uint256"
						},
						{
							"indexed": false,
							"internalType": "uint256",
							"name": "amount",
							"type": "uint256"
						}
					],
					"name": "PaymentProcessed",
					"type": "event"
				},
				{
					"anonymous": false,
					"inputs": [
						{
							"indexed": true,
							"internalType": "uint256",
							"name": "uid",
							"type": "uint256"
						},
						{
							"indexed": false,
							"internalType": "uint256",
							"name": "amount",
							"type": "uint256"
						}
					],
					"name": "TopUp",
					"type": "event"
				},
				{
					"anonymous": false,
					"inputs": [
						{
							"indexed": false,
							"internalType": "uint256",
							"name": "amount",
							"type": "uint256"
						}
					],
					"name": "Withdrawal",
					"type": "event"
				},
				{
					"inputs": [
						{
							"internalType": "uint256",
							"name": "",
							"type": "uint256"
						}
					],
					"name": "balances",
					"outputs": [
						{
							"internalType": "uint256",
							"name": "",
							"type": "uint256"
						}
					],
					"stateMutability": "view",
					"type": "function"
				},
				{
					"inputs": [],
					"name": "merchant",
					"outputs": [
						{
							"internalType": "address",
							"name": "",
							"type": "address"
						}
					],
					"stateMutability": "view",
					"type": "function"
				},
				{
					"inputs": [],
					"name": "owner",
					"outputs": [
						{
							"internalType": "address",
							"name": "",
							"type": "address"
						}
					],
					"stateMutability": "view",
					"type": "function"
				},
				{
					"inputs": [
						{
							"internalType": "uint256",
							"name": "amount",
							"type": "uint256"
						}
					],
					"name": "ownerWithdraw",
					"outputs": [],
					"stateMutability": "nonpayable",
					"type": "function"
				},
				{
					"inputs": [
						{
							"internalType": "uint256",
							"name": "uid",
							"type": "uint256"
						},
						{
							"internalType": "uint256",
							"name": "amount",
							"type": "uint256"
						}
					],
					"name": "pay",
					"outputs": [],
					"stateMutability": "nonpayable",
					"type": "function"
				},
				{
					"inputs": [
						{
							"internalType": "uint256",
							"name": "uid",
							"type": "uint256"
						}
					],
					"name": "topUp",
					"outputs": [],
					"stateMutability": "payable",
					"type": "function"
				},
				{
					"stateMutability": "payable",
					"type": "receive"
				}
			],
			"devdoc": {
				"kind": "dev",
				"methods": {},
				"title": "ElitePay Payment Smart Contract (Core V1)",
				"version": 1
			},
			"evm": {
				"assembly": "    /* \"PaymentProcessor.sol\":248:1804  contract PaymentProcessor is ReentrancyGuard {... */\n  mstore(0x40, 0x80)\n    /* \"PaymentProcessor.sol\":575:744  constructor(address _merchant) {... */\n  callvalue\n  dup1\n  iszero\n  tag_1\n  jumpi\n  revert(0x00, 0x00)\ntag_1:\n  pop\n  mload(0x40)\n  sub(codesize, bytecodeSize)\n  dup1\n  bytecodeSize\n  dup4\n  codecopy\n  dup2\n  dup2\n  add\n  0x40\n  mstore\n  dup2\n  add\n  swap1\n  tag_2\n  swap2\n  swap1\n  tag_3\n  jump\t// in\ntag_2:\n    /* \"@openzeppelin/contracts/security/ReentrancyGuard.sol\":1716:1717  1 */\n  0x01\n    /* \"@openzeppelin/contracts/security/ReentrancyGuard.sol\":1821:1828  _status */\n  0x00\n    /* \"@openzeppelin/contracts/security/ReentrancyGuard.sol\":1821:1843  _status = _NOT_ENTERED */\n  dup2\n  swap1\n  sstore\n  pop\n    /* \"PaymentProcessor.sol\":646:647  0 */\n  0x00\n    /* \"PaymentProcessor.sol\":625:648  _merchant != address(0) */\n  0xffffffffffffffffffffffffffffffffffffffff\n  and\n    /* \"PaymentProcessor.sol\":625:634  _merchant */\n  dup2\n    /* \"PaymentProcessor.sol\":625:648  _merchant != address(0) */\n  0xffffffffffffffffffffffffffffffffffffffff\n  and\n  sub\n    /* \"PaymentProcessor.sol\":617:676  require(_merchant != address(0), \"Merchant cannot be zero\") */\n  tag_8\n  jumpi\n  mload(0x40)\n  0x08c379a000000000000000000000000000000000000000000000000000000000\n  dup2\n  mstore\n  0x04\n  add\n  tag_9\n  swap1\n  tag_10\n  jump\t// in\ntag_9:\n  mload(0x40)\n  dup1\n  swap2\n  sub\n  swap1\n  revert\ntag_8:\n    /* \"PaymentProcessor.sol\":695:705  msg.sender */\n  caller\n    /* \"PaymentProcessor.sol\":687:692  owner */\n  0x01\n  0x00\n    /* \"PaymentProcessor.sol\":687:705  owner = msg.sender */\n  0x0100\n  exp\n  dup2\n  sload\n  dup2\n  0xffffffffffffffffffffffffffffffffffffffff\n  mul\n  not\n  and\n  swap1\n  dup4\n  0xffffffffffffffffffffffffffffffffffffffff\n  and\n  mul\n  or\n  swap1\n  sstore\n  pop\n    /* \"PaymentProcessor.sol\":727:736  _merchant */\n  dup1\n    /* \"PaymentProcessor.sol\":716:724  merchant */\n  0x02\n  0x00\n    /* \"PaymentProcessor.sol\":716:736  merchant = _merchant */\n  0x0100\n  exp\n  dup2\n  sload\n  dup2\n  0xffffffffffffffffffffffffffffffffffffffff\n  mul\n  not\n  and\n  swap1\n  dup4\n  0xffffffffffffffffffffffffffffffffffffffff\n  and\n  mul\n  or\n  swap1\n  sstore\n  pop\n    /* \"PaymentProcessor.sol\":575:744  constructor(address _merchant) {... */\n  pop\n    /* \"PaymentProcessor.sol\":248:1804  contract PaymentProcessor is ReentrancyGuard {... */\n  jump(tag_11)\n    /* \"#utility.yul\":88:205   */\ntag_13:\n    /* \"#utility.yul\":197:198   */\n  0x00\n    /* \"#utility.yul\":194:195   */\n  0x00\n    /* \"#utility.yul\":187:199   */\n  revert\n    /* \"#utility.yul\":334:460   */\ntag_15:\n    /* \"#utility.yul\":371:378   */\n  0x00\n    /* \"#utility.yul\":411:453   */\n  0xffffffffffffffffffffffffffffffffffffffff\n    /* \"#utility.yul\":404:409   */\n  dup3\n    /* \"#utility.yul\":400:454   */\n  and\n    /* \"#utility.yul\":389:454   */\n  swap1\n  pop\n    /* \"#utility.yul\":334:460   */\n  swap2\n  swap1\n  pop\n  jump\t// out\n    /* \"#utility.yul\":466:562   */\ntag_16:\n    /* \"#utility.yul\":503:510   */\n  0x00\n    /* \"#utility.yul\":532:556   */\n  tag_28\n    /* \"#utility.yul\":550:555   */\n  dup3\n    /* \"#utility.yul\":532:556   */\n  tag_15\n  jump\t// in\ntag_28:\n    /* \"#utility.yul\":521:556   */\n  swap1\n  pop\n    /* \"#utility.yul\":466:562   */\n  swap2\n  swap1\n  pop\n  jump\t// out\n    /* \"#utility.yul\":568:690   */\ntag_17:\n    /* \"#utility.yul\":641:665   */\n  tag_30\n    /* \"#utility.yul\":659:664   */\n  dup2\n    /* \"#utility.yul\":641:665   */\n  tag_16\n  jump\t// in\ntag_30:\n    /* \"#utility.yul\":634:639   */\n  dup2\n    /* \"#utility.yul\":631:666   */\n  eq\n    /* \"#utility.yul\":621:684   */\n  tag_31\n  jumpi\n    /* \"#utility.yul\":680:681   */\n  0x00\n    /* \"#utility.yul\":677:678   */\n  0x00\n    /* \"#utility.yul\":670:682   */\n  revert\n    /* \"#utility.yul\":621:684   */\ntag_31:\n    /* \"#utility.yul\":568:690   */\n  pop\n  jump\t// out\n    /* \"#utility.yul\":696:839   */\ntag_18:\n    /* \"#utility.yul\":753:758   */\n  0x00\n    /* \"#utility.yul\":784:790   */\n  dup2\n    /* \"#utility.yul\":778:791   */\n  mload\n    /* \"#utility.yul\":769:791   */\n  swap1\n  pop\n    /* \"#utility.yul\":800:833   */\n  tag_33\n    /* \"#utility.yul\":827:832   */\n  dup2\n    /* \"#utility.yul\":800:833   */\n  tag_17\n  jump\t// in\ntag_33:\n    /* \"#utility.yul\":696:839   */\n  swap3\n  swap2\n  pop\n  pop\n  jump\t// out\n    /* \"#utility.yul\":845:1196   */\ntag_3:\n    /* \"#utility.yul\":915:921   */\n  0x00\n    /* \"#utility.yul\":964:966   */\n  0x20\n    /* \"#utility.yul\":952:961   */\n  dup3\n    /* \"#utility.yul\":943:950   */\n  dup5\n    /* \"#utility.yul\":939:962   */\n  sub\n    /* \"#utility.yul\":935:967   */\n  slt\n    /* \"#utility.yul\":932:1051   */\n  iszero\n  tag_35\n  jumpi\n    /* \"#utility.yul\":970:1049   */\n  tag_36\n  tag_13\n  jump\t// in\ntag_36:\n    /* \"#utility.yul\":932:1051   */\ntag_35:\n    /* \"#utility.yul\":1090:1091   */\n  0x00\n    /* \"#utility.yul\":1115:1179   */\n  tag_37\n    /* \"#utility.yul\":1171:1178   */\n  dup5\n    /* \"#utility.yul\":1162:1168   */\n  dup3\n    /* \"#utility.yul\":1151:1160   */\n  dup6\n    /* \"#utility.yul\":1147:1169   */\n  add\n    /* \"#utility.yul\":1115:1179   */\n  tag_18\n  jump\t// in\ntag_37:\n    /* \"#utility.yul\":1105:1179   */\n  swap2\n  pop\n    /* \"#utility.yul\":1061:1189   */\n  pop\n    /* \"#utility.yul\":845:1196   */\n  swap3\n  swap2\n  pop\n  pop\n  jump\t// out\n    /* \"#utility.yul\":1202:1371   */\ntag_19:\n    /* \"#utility.yul\":1286:1297   */\n  0x00\n    /* \"#utility.yul\":1320:1326   */\n  dup3\n    /* \"#utility.yul\":1315:1318   */\n  dup3\n    /* \"#utility.yul\":1308:1327   */\n  mstore\n    /* \"#utility.yul\":1360:1364   */\n  0x20\n    /* \"#utility.yul\":1355:1358   */\n  dup3\n    /* \"#utility.yul\":1351:1365   */\n  add\n    /* \"#utility.yul\":1336:1365   */\n  swap1\n  pop\n    /* \"#utility.yul\":1202:1371   */\n  swap3\n  swap2\n  pop\n  pop\n  jump\t// out\n    /* \"#utility.yul\":1377:1550   */\ntag_20:\n    /* \"#utility.yul\":1517:1542   */\n  0x4d65726368616e742063616e6e6f74206265207a65726f000000000000000000\n    /* \"#utility.yul\":1513:1514   */\n  0x00\n    /* \"#utility.yul\":1505:1511   */\n  dup3\n    /* \"#utility.yul\":1501:1515   */\n  add\n    /* \"#utility.yul\":1494:1543   */\n  mstore\n    /* \"#utility.yul\":1377:1550   */\n  pop\n  jump\t// out\n    /* \"#utility.yul\":1556:1922   */\ntag_21:\n    /* \"#utility.yul\":1698:1701   */\n  0x00\n    /* \"#utility.yul\":1719:1786   */\n  tag_41\n    /* \"#utility.yul\":1783:1785   */\n  0x17\n    /* \"#utility.yul\":1778:1781   */\n  dup4\n    /* \"#utility.yul\":1719:1786   */\n  tag_19\n  jump\t// in\ntag_41:\n    /* \"#utility.yul\":1712:1786   */\n  swap2\n  pop\n    /* \"#utility.yul\":1795:1888   */\n  tag_42\n    /* \"#utility.yul\":1884:1887   */\n  dup3\n    /* \"#utility.yul\":1795:1888   */\n  tag_20\n  jump\t// in\ntag_42:\n    /* \"#utility.yul\":1913:1915   */\n  0x20\n    /* \"#utility.yul\":1908:1911   */\n  dup3\n    /* \"#utility.yul\":1904:1916   */\n  add\n    /* \"#utility.yul\":1897:1916   */\n  swap1\n  pop\n    /* \"#utility.yul\":1556:1922   */\n  swap2\n  swap1\n  pop\n  jump\t// out\n    /* \"#utility.yul\":1928:2347   */\ntag_10:\n    /* \"#utility.yul\":2094:2098   */\n  0x00\n    /* \"#utility.yul\":2132:2134   */\n  0x20\n    /* \"#utility.yul\":2121:2130   */\n  dup3\n    /* \"#utility.yul\":2117:2135   */\n  add\n    /* \"#utility.yul\":2109:2135   */\n  swap1\n  pop\n    /* \"#utility.yul\":2181:2190   */\n  dup2\n    /* \"#utility.yul\":2175:2179   */\n  dup2\n    /* \"#utility.yul\":2171:2191   */\n  sub\n    /* \"#utility.yul\":2167:2168   */\n  0x00\n    /* \"#utility.yul\":2156:2165   */\n  dup4\n    /* \"#utility.yul\":2152:2169   */\n  add\n    /* \"#utility.yul\":2145:2192   */\n  mstore\n    /* \"#utility.yul\":2209:2340   */\n  tag_44\n    /* \"#utility.yul\":2335:2339   */\n  dup2\n    /* \"#utility.yul\":2209:2340   */\n  tag_21\n  jump\t// in\ntag_44:\n    /* \"#utility.yul\":2201:2340   */\n  swap1\n  pop\n    /* \"#utility.yul\":1928:2347   */\n  swap2\n  swap1\n  pop\n  jump\t// out\n    /* \"PaymentProcessor.sol\":248:1804  contract PaymentProcessor is ReentrancyGuard {... */\ntag_11:\n  dataSize(sub_0)\n  dup1\n  dataOffset(sub_0)\n  0x00\n  codecopy\n  0x00\n  return\nstop\n\nsub_0: assembly {\n        /* \"PaymentProcessor.sol\":248:1804  contract PaymentProcessor is ReentrancyGuard {... */\n      mstore(0x40, 0x80)\n      jumpi(tag_1, lt(calldatasize, 0x04))\n      shr(0xe0, calldataload(0x00))\n      dup1\n      0x33f707d1\n      eq\n      tag_3\n      jumpi\n      dup1\n      0x4903b0d1\n      eq\n      tag_4\n      jumpi\n      dup1\n      0x50017f3e\n      eq\n      tag_5\n      jumpi\n      dup1\n      0x8da5cb5b\n      eq\n      tag_6\n      jumpi\n      dup1\n      0xa5ff7651\n      eq\n      tag_7\n      jumpi\n      dup1\n      0xef48eee6\n      eq\n      tag_8\n      jumpi\n      jump(tag_2)\n    tag_1:\n      jumpi(tag_2, calldatasize)\n      stop\n    tag_2:\n      revert(0x00, 0x00)\n        /* \"PaymentProcessor.sol\":1405:1764  function ownerWithdraw(uint256 amount) external nonReentrant {... */\n    tag_3:\n      callvalue\n      dup1\n      iszero\n      tag_11\n      jumpi\n      revert(0x00, 0x00)\n    tag_11:\n      pop\n      tag_12\n      0x04\n      dup1\n      calldatasize\n      sub\n      dup2\n      add\n      swap1\n      tag_13\n      swap2\n      swap1\n      tag_14\n      jump\t// in\n    tag_13:\n      tag_15\n      jump\t// in\n    tag_12:\n      stop\n        /* \"PaymentProcessor.sol\":361:404  mapping(uint256 => uint256) public balances */\n    tag_4:\n      callvalue\n      dup1\n      iszero\n      tag_16\n      jumpi\n      revert(0x00, 0x00)\n    tag_16:\n      pop\n      tag_17\n      0x04\n      dup1\n      calldatasize\n      sub\n      dup2\n      add\n      swap1\n      tag_18\n      swap2\n      swap1\n      tag_14\n      jump\t// in\n    tag_18:\n      tag_19\n      jump\t// in\n    tag_17:\n      mload(0x40)\n      tag_20\n      swap2\n      swap1\n      tag_21\n      jump\t// in\n    tag_20:\n      mload(0x40)\n      dup1\n      swap2\n      sub\n      swap1\n      return\n        /* \"PaymentProcessor.sol\":752:986  function topUp(uint256 uid) external payable {... */\n    tag_5:\n      tag_22\n      0x04\n      dup1\n      calldatasize\n      sub\n      dup2\n      add\n      swap1\n      tag_23\n      swap2\n      swap1\n      tag_14\n      jump\t// in\n    tag_23:\n      tag_24\n      jump\t// in\n    tag_22:\n      stop\n        /* \"PaymentProcessor.sol\":302:322  address public owner */\n    tag_6:\n      callvalue\n      dup1\n      iszero\n      tag_25\n      jumpi\n      revert(0x00, 0x00)\n    tag_25:\n      pop\n      tag_26\n      tag_27\n      jump\t// in\n    tag_26:\n      mload(0x40)\n      tag_28\n      swap2\n      swap1\n      tag_29\n      jump\t// in\n    tag_28:\n      mload(0x40)\n      dup1\n      swap2\n      sub\n      swap1\n      return\n        /* \"PaymentProcessor.sol\":329:352  address public merchant */\n    tag_7:\n      callvalue\n      dup1\n      iszero\n      tag_30\n      jumpi\n      revert(0x00, 0x00)\n    tag_30:\n      pop\n      tag_31\n      tag_32\n      jump\t// in\n    tag_31:\n      mload(0x40)\n      tag_33\n      swap2\n      swap1\n      tag_29\n      jump\t// in\n    tag_33:\n      mload(0x40)\n      dup1\n      swap2\n      sub\n      swap1\n      return\n        /* \"PaymentProcessor.sol\":994:1397  function pay(uint256 uid, uint256 amount) external nonReentrant {... */\n    tag_8:\n      callvalue\n      dup1\n      iszero\n      tag_34\n      jumpi\n      revert(0x00, 0x00)\n    tag_34:\n      pop\n      tag_35\n      0x04\n      dup1\n      calldatasize\n      sub\n      dup2\n      add\n      swap1\n      tag_36\n      swap2\n      swap1\n      tag_37\n      jump\t// in\n    tag_36:\n      tag_38\n      jump\t// in\n    tag_35:\n      stop\n        /* \"PaymentProcessor.sol\":1405:1764  function ownerWithdraw(uint256 amount) external nonReentrant {... */\n    tag_15:\n        /* \"@openzeppelin/contracts/security/ReentrancyGuard.sol\":2261:2282  _nonReentrantBefore() */\n      tag_40\n        /* \"@openzeppelin/contracts/security/ReentrancyGuard.sol\":2261:2280  _nonReentrantBefore */\n      tag_41\n        /* \"@openzeppelin/contracts/security/ReentrancyGuard.sol\":2261:2282  _nonReentrantBefore() */\n      jump\t// in\n    tag_40:\n        /* \"PaymentProcessor.sol\":1499:1504  owner */\n      0x01\n      0x00\n      swap1\n      sload\n      swap1\n      0x0100\n      exp\n      swap1\n      div\n      0xffffffffffffffffffffffffffffffffffffffff\n      and\n        /* \"PaymentProcessor.sol\":1485:1504  msg.sender == owner */\n      0xffffffffffffffffffffffffffffffffffffffff\n      and\n        /* \"PaymentProcessor.sol\":1485:1495  msg.sender */\n      caller\n        /* \"PaymentProcessor.sol\":1485:1504  msg.sender == owner */\n      0xffffffffffffffffffffffffffffffffffffffff\n      and\n      eq\n        /* \"PaymentProcessor.sol\":1477:1518  require(msg.sender == owner, \"Not owner\") */\n      tag_43\n      jumpi\n      mload(0x40)\n      0x08c379a000000000000000000000000000000000000000000000000000000000\n      dup2\n      mstore\n      0x04\n      add\n      tag_44\n      swap1\n      tag_45\n      jump\t// in\n    tag_44:\n      mload(0x40)\n      dup1\n      swap2\n      sub\n      swap1\n      revert\n    tag_43:\n        /* \"PaymentProcessor.sol\":1547:1568  address(this).balance */\n      selfbalance\n        /* \"PaymentProcessor.sol\":1537:1543  amount */\n      dup2\n        /* \"PaymentProcessor.sol\":1537:1568  amount <= address(this).balance */\n      gt\n      iszero\n        /* \"PaymentProcessor.sol\":1529:1602  require(amount <= address(this).balance, \"Insufficient contract balance\") */\n      tag_46\n      jumpi\n      mload(0x40)\n      0x08c379a000000000000000000000000000000000000000000000000000000000\n      dup2\n      mstore\n      0x04\n      add\n      tag_47\n      swap1\n      tag_48\n      jump\t// in\n    tag_47:\n      mload(0x40)\n      dup1\n      swap2\n      sub\n      swap1\n      revert\n    tag_46:\n        /* \"PaymentProcessor.sol\":1616:1628  bool success */\n      0x00\n        /* \"PaymentProcessor.sol\":1642:1647  owner */\n      0x01\n      0x00\n      swap1\n      sload\n      swap1\n      0x0100\n      exp\n      swap1\n      div\n      0xffffffffffffffffffffffffffffffffffffffff\n      and\n        /* \"PaymentProcessor.sol\":1634:1653  payable(owner).call */\n      0xffffffffffffffffffffffffffffffffffffffff\n      and\n        /* \"PaymentProcessor.sol\":1661:1667  amount */\n      dup3\n        /* \"PaymentProcessor.sol\":1634:1672  payable(owner).call{value: amount}(\"\") */\n      mload(0x40)\n      tag_49\n      swap1\n      tag_50\n      jump\t// in\n    tag_49:\n      0x00\n      mload(0x40)\n      dup1\n      dup4\n      sub\n      dup2\n      dup6\n      dup8\n      gas\n      call\n      swap3\n      pop\n      pop\n      pop\n      returndatasize\n      dup1\n      0x00\n      dup2\n      eq\n      tag_53\n      jumpi\n      mload(0x40)\n      swap2\n      pop\n      and(add(returndatasize, 0x3f), not(0x1f))\n      dup3\n      add\n      0x40\n      mstore\n      returndatasize\n      dup3\n      mstore\n      returndatasize\n      0x00\n      0x20\n      dup5\n      add\n      returndatacopy\n      jump(tag_52)\n    tag_53:\n      0x60\n      swap2\n      pop\n    tag_52:\n      pop\n        /* \"PaymentProcessor.sol\":1615:1672  (bool success, ) = payable(owner).call{value: amount}(\"\") */\n      pop\n      swap1\n      pop\n        /* \"PaymentProcessor.sol\":1691:1698  success */\n      dup1\n        /* \"PaymentProcessor.sol\":1683:1720  require(success, \"Withdrawal failed\") */\n      tag_54\n      jumpi\n      mload(0x40)\n      0x08c379a000000000000000000000000000000000000000000000000000000000\n      dup2\n      mstore\n      0x04\n      add\n      tag_55\n      swap1\n      tag_56\n      jump\t// in\n    tag_55:\n      mload(0x40)\n      dup1\n      swap2\n      sub\n      swap1\n      revert\n    tag_54:\n        /* \"PaymentProcessor.sol\":1738:1756  Withdrawal(amount) */\n      0x4e70a604b23a8edee2b1d0a656e9b9c00b73ad8bb1afc2c59381ee9f69197de7\n        /* \"PaymentProcessor.sol\":1749:1755  amount */\n      dup3\n        /* \"PaymentProcessor.sol\":1738:1756  Withdrawal(amount) */\n      mload(0x40)\n      tag_57\n      swap2\n      swap1\n      tag_21\n      jump\t// in\n    tag_57:\n      mload(0x40)\n      dup1\n      swap2\n      sub\n      swap1\n      log1\n        /* \"PaymentProcessor.sol\":1466:1764  {... */\n      pop\n        /* \"@openzeppelin/contracts/security/ReentrancyGuard.sol\":2303:2323  _nonReentrantAfter() */\n      tag_58\n        /* \"@openzeppelin/contracts/security/ReentrancyGuard.sol\":2303:2321  _nonReentrantAfter */\n      tag_59\n        /* \"@openzeppelin/contracts/security/ReentrancyGuard.sol\":2303:2323  _nonReentrantAfter() */\n      jump\t// in\n    tag_58:\n        /* \"PaymentProcessor.sol\":1405:1764  function ownerWithdraw(uint256 amount) external nonReentrant {... */\n      pop\n      jump\t// out\n        /* \"PaymentProcessor.sol\":361:404  mapping(uint256 => uint256) public balances */\n    tag_19:\n      mstore(0x20, 0x03)\n      dup1\n      0x00\n      mstore\n      keccak256(0x00, 0x40)\n      0x00\n      swap2\n      pop\n      swap1\n      pop\n      sload\n      dup2\n      jump\t// out\n        /* \"PaymentProcessor.sol\":752:986  function topUp(uint256 uid) external payable {... */\n    tag_24:\n        /* \"PaymentProcessor.sol\":828:829  0 */\n      0x00\n        /* \"PaymentProcessor.sol\":816:825  msg.value */\n      callvalue\n        /* \"PaymentProcessor.sol\":816:829  msg.value > 0 */\n      gt\n        /* \"PaymentProcessor.sol\":808:852  require(msg.value > 0, \"Amount must be > 0\") */\n      tag_61\n      jumpi\n      mload(0x40)\n      0x08c379a000000000000000000000000000000000000000000000000000000000\n      dup2\n      mstore\n      0x04\n      add\n      tag_62\n      swap1\n      tag_63\n      jump\t// in\n    tag_62:\n      mload(0x40)\n      dup1\n      swap2\n      sub\n      swap1\n      revert\n    tag_61:\n        /* \"PaymentProcessor.sol\":878:879  0 */\n      0x00\n        /* \"PaymentProcessor.sol\":871:874  uid */\n      dup2\n        /* \"PaymentProcessor.sol\":871:879  uid != 0 */\n      sub\n        /* \"PaymentProcessor.sol\":863:902  require(uid != 0, \"UID cannot be zero\") */\n      tag_64\n      jumpi\n      mload(0x40)\n      0x08c379a000000000000000000000000000000000000000000000000000000000\n      dup2\n      mstore\n      0x04\n      add\n      tag_65\n      swap1\n      tag_66\n      jump\t// in\n    tag_65:\n      mload(0x40)\n      dup1\n      swap2\n      sub\n      swap1\n      revert\n    tag_64:\n        /* \"PaymentProcessor.sol\":932:941  msg.value */\n      callvalue\n        /* \"PaymentProcessor.sol\":915:923  balances */\n      0x03\n        /* \"PaymentProcessor.sol\":915:928  balances[uid] */\n      0x00\n        /* \"PaymentProcessor.sol\":924:927  uid */\n      dup4\n        /* \"PaymentProcessor.sol\":915:928  balances[uid] */\n      dup2\n      mstore\n      0x20\n      add\n      swap1\n      dup2\n      mstore\n      0x20\n      add\n      0x00\n      keccak256\n      0x00\n        /* \"PaymentProcessor.sol\":915:941  balances[uid] += msg.value */\n      dup3\n      dup3\n      sload\n      tag_67\n      swap2\n      swap1\n      tag_68\n      jump\t// in\n    tag_67:\n      swap3\n      pop\n      pop\n      dup2\n      swap1\n      sstore\n      pop\n        /* \"PaymentProcessor.sol\":963:966  uid */\n      dup1\n        /* \"PaymentProcessor.sol\":957:978  TopUp(uid, msg.value) */\n      0x9580ef1bd2c88526f7c878185e323d2bef5d3f0f9471577f3e3a2bfdb87763ef\n        /* \"PaymentProcessor.sol\":968:977  msg.value */\n      callvalue\n        /* \"PaymentProcessor.sol\":957:978  TopUp(uid, msg.value) */\n      mload(0x40)\n      tag_69\n      swap2\n      swap1\n      tag_21\n      jump\t// in\n    tag_69:\n      mload(0x40)\n      dup1\n      swap2\n      sub\n      swap1\n      log2\n        /* \"PaymentProcessor.sol\":752:986  function topUp(uint256 uid) external payable {... */\n      pop\n      jump\t// out\n        /* \"PaymentProcessor.sol\":302:322  address public owner */\n    tag_27:\n      0x01\n      0x00\n      swap1\n      sload\n      swap1\n      0x0100\n      exp\n      swap1\n      div\n      0xffffffffffffffffffffffffffffffffffffffff\n      and\n      dup2\n      jump\t// out\n        /* \"PaymentProcessor.sol\":329:352  address public merchant */\n    tag_32:\n      0x02\n      0x00\n      swap1\n      sload\n      swap1\n      0x0100\n      exp\n      swap1\n      div\n      0xffffffffffffffffffffffffffffffffffffffff\n      and\n      dup2\n      jump\t// out\n        /* \"PaymentProcessor.sol\":994:1397  function pay(uint256 uid, uint256 amount) external nonReentrant {... */\n    tag_38:\n        /* \"@openzeppelin/contracts/security/ReentrancyGuard.sol\":2261:2282  _nonReentrantBefore() */\n      tag_71\n        /* \"@openzeppelin/contracts/security/ReentrancyGuard.sol\":2261:2280  _nonReentrantBefore */\n      tag_41\n        /* \"@openzeppelin/contracts/security/ReentrancyGuard.sol\":2261:2282  _nonReentrantBefore() */\n      jump\t// in\n    tag_71:\n        /* \"PaymentProcessor.sol\":1094:1100  amount */\n      dup1\n        /* \"PaymentProcessor.sol\":1077:1085  balances */\n      0x03\n        /* \"PaymentProcessor.sol\":1077:1090  balances[uid] */\n      0x00\n        /* \"PaymentProcessor.sol\":1086:1089  uid */\n      dup5\n        /* \"PaymentProcessor.sol\":1077:1090  balances[uid] */\n      dup2\n      mstore\n      0x20\n      add\n      swap1\n      dup2\n      mstore\n      0x20\n      add\n      0x00\n      keccak256\n      sload\n        /* \"PaymentProcessor.sol\":1077:1100  balances[uid] >= amount */\n      lt\n      iszero\n        /* \"PaymentProcessor.sol\":1069:1125  require(balances[uid] >= amount, \"Insufficient balance\") */\n      tag_73\n      jumpi\n      mload(0x40)\n      0x08c379a000000000000000000000000000000000000000000000000000000000\n      dup2\n      mstore\n      0x04\n      add\n      tag_74\n      swap1\n      tag_75\n      jump\t// in\n    tag_74:\n      mload(0x40)\n      dup1\n      swap2\n      sub\n      swap1\n      revert\n    tag_73:\n        /* \"PaymentProcessor.sol\":1164:1165  0 */\n      0x00\n        /* \"PaymentProcessor.sol\":1144:1166  merchant != address(0) */\n      0xffffffffffffffffffffffffffffffffffffffff\n      and\n        /* \"PaymentProcessor.sol\":1144:1152  merchant */\n      0x02\n      0x00\n      swap1\n      sload\n      swap1\n      0x0100\n      exp\n      swap1\n      div\n      0xffffffffffffffffffffffffffffffffffffffff\n      and\n        /* \"PaymentProcessor.sol\":1144:1166  merchant != address(0) */\n      0xffffffffffffffffffffffffffffffffffffffff\n      and\n      sub\n        /* \"PaymentProcessor.sol\":1136:1187  require(merchant != address(0), \"Invalid merchant\") */\n      tag_76\n      jumpi\n      mload(0x40)\n      0x08c379a000000000000000000000000000000000000000000000000000000000\n      dup2\n      mstore\n      0x04\n      add\n      tag_77\n      swap1\n      tag_78\n      jump\t// in\n    tag_77:\n      mload(0x40)\n      dup1\n      swap2\n      sub\n      swap1\n      revert\n    tag_76:\n        /* \"PaymentProcessor.sol\":1217:1223  amount */\n      dup1\n        /* \"PaymentProcessor.sol\":1200:1208  balances */\n      0x03\n        /* \"PaymentProcessor.sol\":1200:1213  balances[uid] */\n      0x00\n        /* \"PaymentProcessor.sol\":1209:1212  uid */\n      dup5\n        /* \"PaymentProcessor.sol\":1200:1213  balances[uid] */\n      dup2\n      mstore\n      0x20\n      add\n      swap1\n      dup2\n      mstore\n      0x20\n      add\n      0x00\n      keccak256\n      0x00\n        /* \"PaymentProcessor.sol\":1200:1223  balances[uid] -= amount */\n      dup3\n      dup3\n      sload\n      tag_79\n      swap2\n      swap1\n      tag_80\n      jump\t// in\n    tag_79:\n      swap3\n      pop\n      pop\n      dup2\n      swap1\n      sstore\n      pop\n        /* \"PaymentProcessor.sol\":1237:1249  bool success */\n      0x00\n        /* \"PaymentProcessor.sol\":1263:1271  merchant */\n      0x02\n      0x00\n      swap1\n      sload\n      swap1\n      0x0100\n      exp\n      swap1\n      div\n      0xffffffffffffffffffffffffffffffffffffffff\n      and\n        /* \"PaymentProcessor.sol\":1255:1277  payable(merchant).call */\n      0xffffffffffffffffffffffffffffffffffffffff\n      and\n        /* \"PaymentProcessor.sol\":1285:1291  amount */\n      dup3\n        /* \"PaymentProcessor.sol\":1255:1296  payable(merchant).call{value: amount}(\"\") */\n      mload(0x40)\n      tag_81\n      swap1\n      tag_50\n      jump\t// in\n    tag_81:\n      0x00\n      mload(0x40)\n      dup1\n      dup4\n      sub\n      dup2\n      dup6\n      dup8\n      gas\n      call\n      swap3\n      pop\n      pop\n      pop\n      returndatasize\n      dup1\n      0x00\n      dup2\n      eq\n      tag_84\n      jumpi\n      mload(0x40)\n      swap2\n      pop\n      and(add(returndatasize, 0x3f), not(0x1f))\n      dup3\n      add\n      0x40\n      mstore\n      returndatasize\n      dup3\n      mstore\n      returndatasize\n      0x00\n      0x20\n      dup5\n      add\n      returndatacopy\n      jump(tag_83)\n    tag_84:\n      0x60\n      swap2\n      pop\n    tag_83:\n      pop\n        /* \"PaymentProcessor.sol\":1236:1296  (bool success, ) = payable(merchant).call{value: amount}(\"\") */\n      pop\n      swap1\n      pop\n        /* \"PaymentProcessor.sol\":1315:1322  success */\n      dup1\n        /* \"PaymentProcessor.sol\":1307:1342  require(success, \"Transfer failed\") */\n      tag_85\n      jumpi\n      mload(0x40)\n      0x08c379a000000000000000000000000000000000000000000000000000000000\n      dup2\n      mstore\n      0x04\n      add\n      tag_86\n      swap1\n      tag_87\n      jump\t// in\n    tag_86:\n      mload(0x40)\n      dup1\n      swap2\n      sub\n      swap1\n      revert\n    tag_85:\n        /* \"PaymentProcessor.sol\":1377:1380  uid */\n      dup3\n        /* \"PaymentProcessor.sol\":1360:1389  PaymentProcessed(uid, amount) */\n      0xeee6595b95458aeb5d6b0f0f282dcb44a1378b4547bfe73681dfc0b012985e90\n        /* \"PaymentProcessor.sol\":1382:1388  amount */\n      dup4\n        /* \"PaymentProcessor.sol\":1360:1389  PaymentProcessed(uid, amount) */\n      mload(0x40)\n      tag_88\n      swap2\n      swap1\n      tag_21\n      jump\t// in\n    tag_88:\n      mload(0x40)\n      dup1\n      swap2\n      sub\n      swap1\n      log2\n        /* \"PaymentProcessor.sol\":1058:1397  {... */\n      pop\n        /* \"@openzeppelin/contracts/security/ReentrancyGuard.sol\":2303:2323  _nonReentrantAfter() */\n      tag_89\n        /* \"@openzeppelin/contracts/security/ReentrancyGuard.sol\":2303:2321  _nonReentrantAfter */\n      tag_59\n        /* \"@openzeppelin/contracts/security/ReentrancyGuard.sol\":2303:2323  _nonReentrantAfter() */\n      jump\t// in\n    tag_89:\n        /* \"PaymentProcessor.sol\":994:1397  function pay(uint256 uid, uint256 amount) external nonReentrant {... */\n      pop\n      pop\n      jump\t// out\n        /* \"@openzeppelin/contracts/security/ReentrancyGuard.sol\":2336:2623  function _nonReentrantBefore() private {... */\n    tag_41:\n        /* \"@openzeppelin/contracts/security/ReentrancyGuard.sol\":1759:1760  2 */\n      0x02\n        /* \"@openzeppelin/contracts/security/ReentrancyGuard.sol\":2468:2475  _status */\n      sload(0x00)\n        /* \"@openzeppelin/contracts/security/ReentrancyGuard.sol\":2468:2487  _status != _ENTERED */\n      sub\n        /* \"@openzeppelin/contracts/security/ReentrancyGuard.sol\":2460:2523  require(_status != _ENTERED, \"ReentrancyGuard: reentrant call\") */\n      tag_91\n      jumpi\n      mload(0x40)\n      0x08c379a000000000000000000000000000000000000000000000000000000000\n      dup2\n      mstore\n      0x04\n      add\n      tag_92\n      swap1\n      tag_93\n      jump\t// in\n    tag_92:\n      mload(0x40)\n      dup1\n      swap2\n      sub\n      swap1\n      revert\n    tag_91:\n        /* \"@openzeppelin/contracts/security/ReentrancyGuard.sol\":1759:1760  2 */\n      0x02\n        /* \"@openzeppelin/contracts/security/ReentrancyGuard.sol\":2598:2605  _status */\n      0x00\n        /* \"@openzeppelin/contracts/security/ReentrancyGuard.sol\":2598:2616  _status = _ENTERED */\n      dup2\n      swap1\n      sstore\n      pop\n        /* \"@openzeppelin/contracts/security/ReentrancyGuard.sol\":2336:2623  function _nonReentrantBefore() private {... */\n      jump\t// out\n        /* \"@openzeppelin/contracts/security/ReentrancyGuard.sol\":2629:2838  function _nonReentrantAfter() private {... */\n    tag_59:\n        /* \"@openzeppelin/contracts/security/ReentrancyGuard.sol\":1716:1717  1 */\n      0x01\n        /* \"@openzeppelin/contracts/security/ReentrancyGuard.sol\":2809:2816  _status */\n      0x00\n        /* \"@openzeppelin/contracts/security/ReentrancyGuard.sol\":2809:2831  _status = _NOT_ENTERED */\n      dup2\n      swap1\n      sstore\n      pop\n        /* \"@openzeppelin/contracts/security/ReentrancyGuard.sol\":2629:2838  function _nonReentrantAfter() private {... */\n      jump\t// out\n        /* \"#utility.yul\":88:205   */\n    tag_96:\n        /* \"#utility.yul\":197:198   */\n      0x00\n        /* \"#utility.yul\":194:195   */\n      0x00\n        /* \"#utility.yul\":187:199   */\n      revert\n        /* \"#utility.yul\":334:411   */\n    tag_98:\n        /* \"#utility.yul\":371:378   */\n      0x00\n        /* \"#utility.yul\":400:405   */\n      dup2\n        /* \"#utility.yul\":389:405   */\n      swap1\n      pop\n        /* \"#utility.yul\":334:411   */\n      swap2\n      swap1\n      pop\n      jump\t// out\n        /* \"#utility.yul\":417:539   */\n    tag_99:\n        /* \"#utility.yul\":490:514   */\n      tag_134\n        /* \"#utility.yul\":508:513   */\n      dup2\n        /* \"#utility.yul\":490:514   */\n      tag_98\n      jump\t// in\n    tag_134:\n        /* \"#utility.yul\":483:488   */\n      dup2\n        /* \"#utility.yul\":480:515   */\n      eq\n        /* \"#utility.yul\":470:533   */\n      tag_135\n      jumpi\n        /* \"#utility.yul\":529:530   */\n      0x00\n        /* \"#utility.yul\":526:527   */\n      0x00\n        /* \"#utility.yul\":519:531   */\n      revert\n        /* \"#utility.yul\":470:533   */\n    tag_135:\n        /* \"#utility.yul\":417:539   */\n      pop\n      jump\t// out\n        /* \"#utility.yul\":545:684   */\n    tag_100:\n        /* \"#utility.yul\":591:596   */\n      0x00\n        /* \"#utility.yul\":629:635   */\n      dup2\n        /* \"#utility.yul\":616:636   */\n      calldataload\n        /* \"#utility.yul\":607:636   */\n      swap1\n      pop\n        /* \"#utility.yul\":645:678   */\n      tag_137\n        /* \"#utility.yul\":672:677   */\n      dup2\n        /* \"#utility.yul\":645:678   */\n      tag_99\n      jump\t// in\n    tag_137:\n        /* \"#utility.yul\":545:684   */\n      swap3\n      swap2\n      pop\n      pop\n      jump\t// out\n        /* \"#utility.yul\":690:1019   */\n    tag_14:\n        /* \"#utility.yul\":749:755   */\n      0x00\n        /* \"#utility.yul\":798:800   */\n      0x20\n        /* \"#utility.yul\":786:795   */\n      dup3\n        /* \"#utility.yul\":777:784   */\n      dup5\n        /* \"#utility.yul\":773:796   */\n      sub\n        /* \"#utility.yul\":769:801   */\n      slt\n        /* \"#utility.yul\":766:885   */\n      iszero\n      tag_139\n      jumpi\n        /* \"#utility.yul\":804:883   */\n      tag_140\n      tag_96\n      jump\t// in\n    tag_140:\n        /* \"#utility.yul\":766:885   */\n    tag_139:\n        /* \"#utility.yul\":924:925   */\n      0x00\n        /* \"#utility.yul\":949:1002   */\n      tag_141\n        /* \"#utility.yul\":994:1001   */\n      dup5\n        /* \"#utility.yul\":985:991   */\n      dup3\n        /* \"#utility.yul\":974:983   */\n      dup6\n        /* \"#utility.yul\":970:992   */\n      add\n        /* \"#utility.yul\":949:1002   */\n      tag_100\n      jump\t// in\n    tag_141:\n        /* \"#utility.yul\":939:1002   */\n      swap2\n      pop\n        /* \"#utility.yul\":895:1012   */\n      pop\n        /* \"#utility.yul\":690:1019   */\n      swap3\n      swap2\n      pop\n      pop\n      jump\t// out\n        /* \"#utility.yul\":1025:1143   */\n    tag_101:\n        /* \"#utility.yul\":1112:1136   */\n      tag_143\n        /* \"#utility.yul\":1130:1135   */\n      dup2\n        /* \"#utility.yul\":1112:1136   */\n      tag_98\n      jump\t// in\n    tag_143:\n        /* \"#utility.yul\":1107:1110   */\n      dup3\n        /* \"#utility.yul\":1100:1137   */\n      mstore\n        /* \"#utility.yul\":1025:1143   */\n      pop\n      pop\n      jump\t// out\n        /* \"#utility.yul\":1149:1371   */\n    tag_21:\n        /* \"#utility.yul\":1242:1246   */\n      0x00\n        /* \"#utility.yul\":1280:1282   */\n      0x20\n        /* \"#utility.yul\":1269:1278   */\n      dup3\n        /* \"#utility.yul\":1265:1283   */\n      add\n        /* \"#utility.yul\":1257:1283   */\n      swap1\n      pop\n        /* \"#utility.yul\":1293:1364   */\n      tag_145\n        /* \"#utility.yul\":1361:1362   */\n      0x00\n        /* \"#utility.yul\":1350:1359   */\n      dup4\n        /* \"#utility.yul\":1346:1363   */\n      add\n        /* \"#utility.yul\":1337:1343   */\n      dup5\n        /* \"#utility.yul\":1293:1364   */\n      tag_101\n      jump\t// in\n    tag_145:\n        /* \"#utility.yul\":1149:1371   */\n      swap3\n      swap2\n      pop\n      pop\n      jump\t// out\n        /* \"#utility.yul\":1377:1503   */\n    tag_102:\n        /* \"#utility.yul\":1414:1421   */\n      0x00\n        /* \"#utility.yul\":1454:1496   */\n      0xffffffffffffffffffffffffffffffffffffffff\n        /* \"#utility.yul\":1447:1452   */\n      dup3\n        /* \"#utility.yul\":1443:1497   */\n      and\n        /* \"#utility.yul\":1432:1497   */\n      swap1\n      pop\n        /* \"#utility.yul\":1377:1503   */\n      swap2\n      swap1\n      pop\n      jump\t// out\n        /* \"#utility.yul\":1509:1605   */\n    tag_103:\n        /* \"#utility.yul\":1546:1553   */\n      0x00\n        /* \"#utility.yul\":1575:1599   */\n      tag_148\n        /* \"#utility.yul\":1593:1598   */\n      dup3\n        /* \"#utility.yul\":1575:1599   */\n      tag_102\n      jump\t// in\n    tag_148:\n        /* \"#utility.yul\":1564:1599   */\n      swap1\n      pop\n        /* \"#utility.yul\":1509:1605   */\n      swap2\n      swap1\n      pop\n      jump\t// out\n        /* \"#utility.yul\":1611:1729   */\n    tag_104:\n        /* \"#utility.yul\":1698:1722   */\n      tag_150\n        /* \"#utility.yul\":1716:1721   */\n      dup2\n        /* \"#utility.yul\":1698:1722   */\n      tag_103\n      jump\t// in\n    tag_150:\n        /* \"#utility.yul\":1693:1696   */\n      dup3\n        /* \"#utility.yul\":1686:1723   */\n      mstore\n        /* \"#utility.yul\":1611:1729   */\n      pop\n      pop\n      jump\t// out\n        /* \"#utility.yul\":1735:1957   */\n    tag_29:\n        /* \"#utility.yul\":1828:1832   */\n      0x00\n        /* \"#utility.yul\":1866:1868   */\n      0x20\n        /* \"#utility.yul\":1855:1864   */\n      dup3\n        /* \"#utility.yul\":1851:1869   */\n      add\n        /* \"#utility.yul\":1843:1869   */\n      swap1\n      pop\n        /* \"#utility.yul\":1879:1950   */\n      tag_152\n        /* \"#utility.yul\":1947:1948   */\n      0x00\n        /* \"#utility.yul\":1936:1945   */\n      dup4\n        /* \"#utility.yul\":1932:1949   */\n      add\n        /* \"#utility.yul\":1923:1929   */\n      dup5\n        /* \"#utility.yul\":1879:1950   */\n      tag_104\n      jump\t// in\n    tag_152:\n        /* \"#utility.yul\":1735:1957   */\n      swap3\n      swap2\n      pop\n      pop\n      jump\t// out\n        /* \"#utility.yul\":1963:2437   */\n    tag_37:\n        /* \"#utility.yul\":2031:2037   */\n      0x00\n        /* \"#utility.yul\":2039:2045   */\n      0x00\n        /* \"#utility.yul\":2088:2090   */\n      0x40\n        /* \"#utility.yul\":2076:2085   */\n      dup4\n        /* \"#utility.yul\":2067:2074   */\n      dup6\n        /* \"#utility.yul\":2063:2086   */\n      sub\n        /* \"#utility.yul\":2059:2091   */\n      slt\n        /* \"#utility.yul\":2056:2175   */\n      iszero\n      tag_154\n      jumpi\n        /* \"#utility.yul\":2094:2173   */\n      tag_155\n      tag_96\n      jump\t// in\n    tag_155:\n        /* \"#utility.yul\":2056:2175   */\n    tag_154:\n        /* \"#utility.yul\":2214:2215   */\n      0x00\n        /* \"#utility.yul\":2239:2292   */\n      tag_156\n        /* \"#utility.yul\":2284:2291   */\n      dup6\n        /* \"#utility.yul\":2275:2281   */\n      dup3\n        /* \"#utility.yul\":2264:2273   */\n      dup7\n        /* \"#utility.yul\":2260:2282   */\n      add\n        /* \"#utility.yul\":2239:2292   */\n      tag_100\n      jump\t// in\n    tag_156:\n        /* \"#utility.yul\":2229:2292   */\n      swap3\n      pop\n        /* \"#utility.yul\":2185:2302   */\n      pop\n        /* \"#utility.yul\":2341:2343   */\n      0x20\n        /* \"#utility.yul\":2367:2420   */\n      tag_157\n        /* \"#utility.yul\":2412:2419   */\n      dup6\n        /* \"#utility.yul\":2403:2409   */\n      dup3\n        /* \"#utility.yul\":2392:2401   */\n      dup7\n        /* \"#utility.yul\":2388:2410   */\n      add\n        /* \"#utility.yul\":2367:2420   */\n      tag_100\n      jump\t// in\n    tag_157:\n        /* \"#utility.yul\":2357:2420   */\n      swap2\n      pop\n        /* \"#utility.yul\":2312:2430   */\n      pop\n        /* \"#utility.yul\":1963:2437   */\n      swap3\n      pop\n      swap3\n      swap1\n      pop\n      jump\t// out\n        /* \"#utility.yul\":2443:2612   */\n    tag_105:\n        /* \"#utility.yul\":2527:2538   */\n      0x00\n        /* \"#utility.yul\":2561:2567   */\n      dup3\n        /* \"#utility.yul\":2556:2559   */\n      dup3\n        /* \"#utility.yul\":2549:2568   */\n      mstore\n        /* \"#utility.yul\":2601:2605   */\n      0x20\n        /* \"#utility.yul\":2596:2599   */\n      dup3\n        /* \"#utility.yul\":2592:2606   */\n      add\n        /* \"#utility.yul\":2577:2606   */\n      swap1\n      pop\n        /* \"#utility.yul\":2443:2612   */\n      swap3\n      swap2\n      pop\n      pop\n      jump\t// out\n        /* \"#utility.yul\":2618:2777   */\n    tag_106:\n        /* \"#utility.yul\":2758:2769   */\n      0x4e6f74206f776e65720000000000000000000000000000000000000000000000\n        /* \"#utility.yul\":2754:2755   */\n      0x00\n        /* \"#utility.yul\":2746:2752   */\n      dup3\n        /* \"#utility.yul\":2742:2756   */\n      add\n        /* \"#utility.yul\":2735:2770   */\n      mstore\n        /* \"#utility.yul\":2618:2777   */\n      pop\n      jump\t// out\n        /* \"#utility.yul\":2783:3148   */\n    tag_107:\n        /* \"#utility.yul\":2925:2928   */\n      0x00\n        /* \"#utility.yul\":2946:3012   */\n      tag_161\n        /* \"#utility.yul\":3010:3011   */\n      0x09\n        /* \"#utility.yul\":3005:3008   */\n      dup4\n        /* \"#utility.yul\":2946:3012   */\n      tag_105\n      jump\t// in\n    tag_161:\n        /* \"#utility.yul\":2939:3012   */\n      swap2\n      pop\n        /* \"#utility.yul\":3021:3114   */\n      tag_162\n        /* \"#utility.yul\":3110:3113   */\n      dup3\n        /* \"#utility.yul\":3021:3114   */\n      tag_106\n      jump\t// in\n    tag_162:\n        /* \"#utility.yul\":3139:3141   */\n      0x20\n        /* \"#utility.yul\":3134:3137   */\n      dup3\n        /* \"#utility.yul\":3130:3142   */\n      add\n        /* \"#utility.yul\":3123:3142   */\n      swap1\n      pop\n        /* \"#utility.yul\":2783:3148   */\n      swap2\n      swap1\n      pop\n      jump\t// out\n        /* \"#utility.yul\":3154:3573   */\n    tag_45:\n        /* \"#utility.yul\":3320:3324   */\n      0x00\n        /* \"#utility.yul\":3358:3360   */\n      0x20\n        /* \"#utility.yul\":3347:3356   */\n      dup3\n        /* \"#utility.yul\":3343:3361   */\n      add\n        /* \"#utility.yul\":3335:3361   */\n      swap1\n      pop\n        /* \"#utility.yul\":3407:3416   */\n      dup2\n        /* \"#utility.yul\":3401:3405   */\n      dup2\n        /* \"#utility.yul\":3397:3417   */\n      sub\n        /* \"#utility.yul\":3393:3394   */\n      0x00\n        /* \"#utility.yul\":3382:3391   */\n      dup4\n        /* \"#utility.yul\":3378:3395   */\n      add\n        /* \"#utility.yul\":3371:3418   */\n      mstore\n        /* \"#utility.yul\":3435:3566   */\n      tag_164\n        /* \"#utility.yul\":3561:3565   */\n      dup2\n        /* \"#utility.yul\":3435:3566   */\n      tag_107\n      jump\t// in\n    tag_164:\n        /* \"#utility.yul\":3427:3566   */\n      swap1\n      pop\n        /* \"#utility.yul\":3154:3573   */\n      swap2\n      swap1\n      pop\n      jump\t// out\n        /* \"#utility.yul\":3579:3758   */\n    tag_108:\n        /* \"#utility.yul\":3719:3750   */\n      0x496e73756666696369656e7420636f6e74726163742062616c616e6365000000\n        /* \"#utility.yul\":3715:3716   */\n      0x00\n        /* \"#utility.yul\":3707:3713   */\n      dup3\n        /* \"#utility.yul\":3703:3717   */\n      add\n        /* \"#utility.yul\":3696:3751   */\n      mstore\n        /* \"#utility.yul\":3579:3758   */\n      pop\n      jump\t// out\n        /* \"#utility.yul\":3764:4130   */\n    tag_109:\n        /* \"#utility.yul\":3906:3909   */\n      0x00\n        /* \"#utility.yul\":3927:3994   */\n      tag_167\n        /* \"#utility.yul\":3991:3993   */\n      0x1d\n        /* \"#utility.yul\":3986:3989   */\n      dup4\n        /* \"#utility.yul\":3927:3994   */\n      tag_105\n      jump\t// in\n    tag_167:\n        /* \"#utility.yul\":3920:3994   */\n      swap2\n      pop\n        /* \"#utility.yul\":4003:4096   */\n      tag_168\n        /* \"#utility.yul\":4092:4095   */\n      dup3\n        /* \"#utility.yul\":4003:4096   */\n      tag_108\n      jump\t// in\n    tag_168:\n        /* \"#utility.yul\":4121:4123   */\n      0x20\n        /* \"#utility.yul\":4116:4119   */\n      dup3\n        /* \"#utility.yul\":4112:4124   */\n      add\n        /* \"#utility.yul\":4105:4124   */\n      swap1\n      pop\n        /* \"#utility.yul\":3764:4130   */\n      swap2\n      swap1\n      pop\n      jump\t// out\n        /* \"#utility.yul\":4136:4555   */\n    tag_48:\n        /* \"#utility.yul\":4302:4306   */\n      0x00\n        /* \"#utility.yul\":4340:4342   */\n      0x20\n        /* \"#utility.yul\":4329:4338   */\n      dup3\n        /* \"#utility.yul\":4325:4343   */\n      add\n        /* \"#utility.yul\":4317:4343   */\n      swap1\n      pop\n        /* \"#utility.yul\":4389:4398   */\n      dup2\n        /* \"#utility.yul\":4383:4387   */\n      dup2\n        /* \"#utility.yul\":4379:4399   */\n      sub\n        /* \"#utility.yul\":4375:4376   */\n      0x00\n        /* \"#utility.yul\":4364:4373   */\n      dup4\n        /* \"#utility.yul\":4360:4377   */\n      add\n        /* \"#utility.yul\":4353:4400   */\n      mstore\n        /* \"#utility.yul\":4417:4548   */\n      tag_170\n        /* \"#utility.yul\":4543:4547   */\n      dup2\n        /* \"#utility.yul\":4417:4548   */\n      tag_109\n      jump\t// in\n    tag_170:\n        /* \"#utility.yul\":4409:4548   */\n      swap1\n      pop\n        /* \"#utility.yul\":4136:4555   */\n      swap2\n      swap1\n      pop\n      jump\t// out\n        /* \"#utility.yul\":4561:4708   */\n    tag_110:\n        /* \"#utility.yul\":4662:4673   */\n      0x00\n        /* \"#utility.yul\":4699:4702   */\n      dup2\n        /* \"#utility.yul\":4684:4702   */\n      swap1\n      pop\n        /* \"#utility.yul\":4561:4708   */\n      swap3\n      swap2\n      pop\n      pop\n      jump\t// out\n        /* \"#utility.yul\":4714:4828   */\n    tag_111:\n      pop\n      jump\t// out\n        /* \"#utility.yul\":4834:5232   */\n    tag_112:\n        /* \"#utility.yul\":4993:4996   */\n      0x00\n        /* \"#utility.yul\":5014:5097   */\n      tag_174\n        /* \"#utility.yul\":5095:5096   */\n      0x00\n        /* \"#utility.yul\":5090:5093   */\n      dup4\n        /* \"#utility.yul\":5014:5097   */\n      tag_110\n      jump\t// in\n    tag_174:\n        /* \"#utility.yul\":5007:5097   */\n      swap2\n      pop\n        /* \"#utility.yul\":5106:5199   */\n      tag_175\n        /* \"#utility.yul\":5195:5198   */\n      dup3\n        /* \"#utility.yul\":5106:5199   */\n      tag_111\n      jump\t// in\n    tag_175:\n        /* \"#utility.yul\":5224:5225   */\n      0x00\n        /* \"#utility.yul\":5219:5222   */\n      dup3\n        /* \"#utility.yul\":5215:5226   */\n      add\n        /* \"#utility.yul\":5208:5226   */\n      swap1\n      pop\n        /* \"#utility.yul\":4834:5232   */\n      swap2\n      swap1\n      pop\n      jump\t// out\n        /* \"#utility.yul\":5238:5617   */\n    tag_50:\n        /* \"#utility.yul\":5422:5425   */\n      0x00\n        /* \"#utility.yul\":5444:5591   */\n      tag_177\n        /* \"#utility.yul\":5587:5590   */\n      dup3\n        /* \"#utility.yul\":5444:5591   */\n      tag_112\n      jump\t// in\n    tag_177:\n        /* \"#utility.yul\":5437:5591   */\n      swap2\n      pop\n        /* \"#utility.yul\":5608:5611   */\n      dup2\n        /* \"#utility.yul\":5601:5611   */\n      swap1\n      pop\n        /* \"#utility.yul\":5238:5617   */\n      swap2\n      swap1\n      pop\n      jump\t// out\n        /* \"#utility.yul\":5623:5790   */\n    tag_113:\n        /* \"#utility.yul\":5763:5782   */\n      0x5769746864726177616c206661696c6564000000000000000000000000000000\n        /* \"#utility.yul\":5759:5760   */\n      0x00\n        /* \"#utility.yul\":5751:5757   */\n      dup3\n        /* \"#utility.yul\":5747:5761   */\n      add\n        /* \"#utility.yul\":5740:5783   */\n      mstore\n        /* \"#utility.yul\":5623:5790   */\n      pop\n      jump\t// out\n        /* \"#utility.yul\":5796:6162   */\n    tag_114:\n        /* \"#utility.yul\":5938:5941   */\n      0x00\n        /* \"#utility.yul\":5959:6026   */\n      tag_180\n        /* \"#utility.yul\":6023:6025   */\n      0x11\n        /* \"#utility.yul\":6018:6021   */\n      dup4\n        /* \"#utility.yul\":5959:6026   */\n      tag_105\n      jump\t// in\n    tag_180:\n        /* \"#utility.yul\":5952:6026   */\n      swap2\n      pop\n        /* \"#utility.yul\":6035:6128   */\n      tag_181\n        /* \"#utility.yul\":6124:6127   */\n      dup3\n        /* \"#utility.yul\":6035:6128   */\n      tag_113\n      jump\t// in\n    tag_181:\n        /* \"#utility.yul\":6153:6155   */\n      0x20\n        /* \"#utility.yul\":6148:6151   */\n      dup3\n        /* \"#utility.yul\":6144:6156   */\n      add\n        /* \"#utility.yul\":6137:6156   */\n      swap1\n      pop\n        /* \"#utility.yul\":5796:6162   */\n      swap2\n      swap1\n      pop\n      jump\t// out\n        /* \"#utility.yul\":6168:6587   */\n    tag_56:\n        /* \"#utility.yul\":6334:6338   */\n      0x00\n        /* \"#utility.yul\":6372:6374   */\n      0x20\n        /* \"#utility.yul\":6361:6370   */\n      dup3\n        /* \"#utility.yul\":6357:6375   */\n      add\n        /* \"#utility.yul\":6349:6375   */\n      swap1\n      pop\n        /* \"#utility.yul\":6421:6430   */\n      dup2\n        /* \"#utility.yul\":6415:6419   */\n      dup2\n        /* \"#utility.yul\":6411:6431   */\n      sub\n        /* \"#utility.yul\":6407:6408   */\n      0x00\n        /* \"#utility.yul\":6396:6405   */\n      dup4\n        /* \"#utility.yul\":6392:6409   */\n      add\n        /* \"#utility.yul\":6385:6432   */\n      mstore\n        /* \"#utility.yul\":6449:6580   */\n      tag_183\n        /* \"#utility.yul\":6575:6579   */\n      dup2\n        /* \"#utility.yul\":6449:6580   */\n      tag_114\n      jump\t// in\n    tag_183:\n        /* \"#utility.yul\":6441:6580   */\n      swap1\n      pop\n        /* \"#utility.yul\":6168:6587   */\n      swap2\n      swap1\n      pop\n      jump\t// out\n        /* \"#utility.yul\":6593:6761   */\n    tag_115:\n        /* \"#utility.yul\":6733:6753   */\n      0x416d6f756e74206d757374206265203e20300000000000000000000000000000\n        /* \"#utility.yul\":6729:6730   */\n      0x00\n        /* \"#utility.yul\":6721:6727   */\n      dup3\n        /* \"#utility.yul\":6717:6731   */\n      add\n        /* \"#utility.yul\":6710:6754   */\n      mstore\n        /* \"#utility.yul\":6593:6761   */\n      pop\n      jump\t// out\n        /* \"#utility.yul\":6767:7133   */\n    tag_116:\n        /* \"#utility.yul\":6909:6912   */\n      0x00\n        /* \"#utility.yul\":6930:6997   */\n      tag_186\n        /* \"#utility.yul\":6994:6996   */\n      0x12\n        /* \"#utility.yul\":6989:6992   */\n      dup4\n        /* \"#utility.yul\":6930:6997   */\n      tag_105\n      jump\t// in\n    tag_186:\n        /* \"#utility.yul\":6923:6997   */\n      swap2\n      pop\n        /* \"#utility.yul\":7006:7099   */\n      tag_187\n        /* \"#utility.yul\":7095:7098   */\n      dup3\n        /* \"#utility.yul\":7006:7099   */\n      tag_115\n      jump\t// in\n    tag_187:\n        /* \"#utility.yul\":7124:7126   */\n      0x20\n        /* \"#utility.yul\":7119:7122   */\n      dup3\n        /* \"#utility.yul\":7115:7127   */\n      add\n        /* \"#utility.yul\":7108:7127   */\n      swap1\n      pop\n        /* \"#utility.yul\":6767:7133   */\n      swap2\n      swap1\n      pop\n      jump\t// out\n        /* \"#utility.yul\":7139:7558   */\n    tag_63:\n        /* \"#utility.yul\":7305:7309   */\n      0x00\n        /* \"#utility.yul\":7343:7345   */\n      0x20\n        /* \"#utility.yul\":7332:7341   */\n      dup3\n        /* \"#utility.yul\":7328:7346   */\n      add\n        /* \"#utility.yul\":7320:7346   */\n      swap1\n      pop\n        /* \"#utility.yul\":7392:7401   */\n      dup2\n        /* \"#utility.yul\":7386:7390   */\n      dup2\n        /* \"#utility.yul\":7382:7402   */\n      sub\n        /* \"#utility.yul\":7378:7379   */\n      0x00\n        /* \"#utility.yul\":7367:7376   */\n      dup4\n        /* \"#utility.yul\":7363:7380   */\n      add\n        /* \"#utility.yul\":7356:7403   */\n      mstore\n        /* \"#utility.yul\":7420:7551   */\n      tag_189\n        /* \"#utility.yul\":7546:7550   */\n      dup2\n        /* \"#utility.yul\":7420:7551   */\n      tag_116\n      jump\t// in\n    tag_189:\n        /* \"#utility.yul\":7412:7551   */\n      swap1\n      pop\n        /* \"#utility.yul\":7139:7558   */\n      swap2\n      swap1\n      pop\n      jump\t// out\n        /* \"#utility.yul\":7564:7732   */\n    tag_117:\n        /* \"#utility.yul\":7704:7724   */\n      0x5549442063616e6e6f74206265207a65726f0000000000000000000000000000\n        /* \"#utility.yul\":7700:7701   */\n      0x00\n        /* \"#utility.yul\":7692:7698   */\n      dup3\n        /* \"#utility.yul\":7688:7702   */\n      add\n        /* \"#utility.yul\":7681:7725   */\n      mstore\n        /* \"#utility.yul\":7564:7732   */\n      pop\n      jump\t// out\n        /* \"#utility.yul\":7738:8104   */\n    tag_118:\n        /* \"#utility.yul\":7880:7883   */\n      0x00\n        /* \"#utility.yul\":7901:7968   */\n      tag_192\n        /* \"#utility.yul\":7965:7967   */\n      0x12\n        /* \"#utility.yul\":7960:7963   */\n      dup4\n        /* \"#utility.yul\":7901:7968   */\n      tag_105\n      jump\t// in\n    tag_192:\n        /* \"#utility.yul\":7894:7968   */\n      swap2\n      pop\n        /* \"#utility.yul\":7977:8070   */\n      tag_193\n        /* \"#utility.yul\":8066:8069   */\n      dup3\n        /* \"#utility.yul\":7977:8070   */\n      tag_117\n      jump\t// in\n    tag_193:\n        /* \"#utility.yul\":8095:8097   */\n      0x20\n        /* \"#utility.yul\":8090:8093   */\n      dup3\n        /* \"#utility.yul\":8086:8098   */\n      add\n        /* \"#utility.yul\":8079:8098   */\n      swap1\n      pop\n        /* \"#utility.yul\":7738:8104   */\n      swap2\n      swap1\n      pop\n      jump\t// out\n        /* \"#utility.yul\":8110:8529   */\n    tag_66:\n        /* \"#utility.yul\":8276:8280   */\n      0x00\n        /* \"#utility.yul\":8314:8316   */\n      0x20\n        /* \"#utility.yul\":8303:8312   */\n      dup3\n        /* \"#utility.yul\":8299:8317   */\n      add\n        /* \"#utility.yul\":8291:8317   */\n      swap1\n      pop\n        /* \"#utility.yul\":8363:8372   */\n      dup2\n        /* \"#utility.yul\":8357:8361   */\n      dup2\n        /* \"#utility.yul\":8353:8373   */\n      sub\n        /* \"#utility.yul\":8349:8350   */\n      0x00\n        /* \"#utility.yul\":8338:8347   */\n      dup4\n        /* \"#utility.yul\":8334:8351   */\n      add\n        /* \"#utility.yul\":8327:8374   */\n      mstore\n        /* \"#utility.yul\":8391:8522   */\n      tag_195\n        /* \"#utility.yul\":8517:8521   */\n      dup2\n        /* \"#utility.yul\":8391:8522   */\n      tag_118\n      jump\t// in\n    tag_195:\n        /* \"#utility.yul\":8383:8522   */\n      swap1\n      pop\n        /* \"#utility.yul\":8110:8529   */\n      swap2\n      swap1\n      pop\n      jump\t// out\n        /* \"#utility.yul\":8535:8715   */\n    tag_119:\n        /* \"#utility.yul\":8583:8660   */\n      0x4e487b7100000000000000000000000000000000000000000000000000000000\n        /* \"#utility.yul\":8580:8581   */\n      0x00\n        /* \"#utility.yul\":8573:8661   */\n      mstore\n        /* \"#utility.yul\":8680:8684   */\n      0x11\n        /* \"#utility.yul\":8677:8678   */\n      0x04\n        /* \"#utility.yul\":8670:8685   */\n      mstore\n        /* \"#utility.yul\":8704:8708   */\n      0x24\n        /* \"#utility.yul\":8701:8702   */\n      0x00\n        /* \"#utility.yul\":8694:8709   */\n      revert\n        /* \"#utility.yul\":8721:8912   */\n    tag_68:\n        /* \"#utility.yul\":8761:8764   */\n      0x00\n        /* \"#utility.yul\":8780:8800   */\n      tag_198\n        /* \"#utility.yul\":8798:8799   */\n      dup3\n        /* \"#utility.yul\":8780:8800   */\n      tag_98\n      jump\t// in\n    tag_198:\n        /* \"#utility.yul\":8775:8800   */\n      swap2\n      pop\n        /* \"#utility.yul\":8814:8834   */\n      tag_199\n        /* \"#utility.yul\":8832:8833   */\n      dup4\n        /* \"#utility.yul\":8814:8834   */\n      tag_98\n      jump\t// in\n    tag_199:\n        /* \"#utility.yul\":8809:8834   */\n      swap3\n      pop\n        /* \"#utility.yul\":8857:8858   */\n      dup3\n        /* \"#utility.yul\":8854:8855   */\n      dup3\n        /* \"#utility.yul\":8850:8859   */\n      add\n        /* \"#utility.yul\":8843:8859   */\n      swap1\n      pop\n        /* \"#utility.yul\":8878:8881   */\n      dup1\n        /* \"#utility.yul\":8875:8876   */\n      dup3\n        /* \"#utility.yul\":8872:8882   */\n      gt\n        /* \"#utility.yul\":8869:8905   */\n      iszero\n      tag_200\n      jumpi\n        /* \"#utility.yul\":8885:8903   */\n      tag_201\n      tag_119\n      jump\t// in\n    tag_201:\n        /* \"#utility.yul\":8869:8905   */\n    tag_200:\n        /* \"#utility.yul\":8721:8912   */\n      swap3\n      swap2\n      pop\n      pop\n      jump\t// out\n        /* \"#utility.yul\":8918:9088   */\n    tag_120:\n        /* \"#utility.yul\":9058:9080   */\n      0x496e73756666696369656e742062616c616e6365000000000000000000000000\n        /* \"#utility.yul\":9054:9055   */\n      0x00\n        /* \"#utility.yul\":9046:9052   */\n      dup3\n        /* \"#utility.yul\":9042:9056   */\n      add\n        /* \"#utility.yul\":9035:9081   */\n      mstore\n        /* \"#utility.yul\":8918:9088   */\n      pop\n      jump\t// out\n        /* \"#utility.yul\":9094:9460   */\n    tag_121:\n        /* \"#utility.yul\":9236:9239   */\n      0x00\n        /* \"#utility.yul\":9257:9324   */\n      tag_204\n        /* \"#utility.yul\":9321:9323   */\n      0x14\n        /* \"#utility.yul\":9316:9319   */\n      dup4\n        /* \"#utility.yul\":9257:9324   */\n      tag_105\n      jump\t// in\n    tag_204:\n        /* \"#utility.yul\":9250:9324   */\n      swap2\n      pop\n        /* \"#utility.yul\":9333:9426   */\n      tag_205\n        /* \"#utility.yul\":9422:9425   */\n      dup3\n        /* \"#utility.yul\":9333:9426   */\n      tag_120\n      jump\t// in\n    tag_205:\n        /* \"#utility.yul\":9451:9453   */\n      0x20\n        /* \"#utility.yul\":9446:9449   */\n      dup3\n        /* \"#utility.yul\":9442:9454   */\n      add\n        /* \"#utility.yul\":9435:9454   */\n      swap1\n      pop\n        /* \"#utility.yul\":9094:9460   */\n      swap2\n      swap1\n      pop\n      jump\t// out\n        /* \"#utility.yul\":9466:9885   */\n    tag_75:\n        /* \"#utility.yul\":9632:9636   */\n      0x00\n        /* \"#utility.yul\":9670:9672   */\n      0x20\n        /* \"#utility.yul\":9659:9668   */\n      dup3\n        /* \"#utility.yul\":9655:9673   */\n      add\n        /* \"#utility.yul\":9647:9673   */\n      swap1\n      pop\n        /* \"#utility.yul\":9719:9728   */\n      dup2\n        /* \"#utility.yul\":9713:9717   */\n      dup2\n        /* \"#utility.yul\":9709:9729   */\n      sub\n        /* \"#utility.yul\":9705:9706   */\n      0x00\n        /* \"#utility.yul\":9694:9703   */\n      dup4\n        /* \"#utility.yul\":9690:9707   */\n      add\n        /* \"#utility.yul\":9683:9730   */\n      mstore\n        /* \"#utility.yul\":9747:9878   */\n      tag_207\n        /* \"#utility.yul\":9873:9877   */\n      dup2\n        /* \"#utility.yul\":9747:9878   */\n      tag_121\n      jump\t// in\n    tag_207:\n        /* \"#utility.yul\":9739:9878   */\n      swap1\n      pop\n        /* \"#utility.yul\":9466:9885   */\n      swap2\n      swap1\n      pop\n      jump\t// out\n        /* \"#utility.yul\":9891:10057   */\n    tag_122:\n        /* \"#utility.yul\":10031:10049   */\n      0x496e76616c6964206d65726368616e7400000000000000000000000000000000\n        /* \"#utility.yul\":10027:10028   */\n      0x00\n        /* \"#utility.yul\":10019:10025   */\n      dup3\n        /* \"#utility.yul\":10015:10029   */\n      add\n        /* \"#utility.yul\":10008:10050   */\n      mstore\n        /* \"#utility.yul\":9891:10057   */\n      pop\n      jump\t// out\n        /* \"#utility.yul\":10063:10429   */\n    tag_123:\n        /* \"#utility.yul\":10205:10208   */\n      0x00\n        /* \"#utility.yul\":10226:10293   */\n      tag_210\n        /* \"#utility.yul\":10290:10292   */\n      0x10\n        /* \"#utility.yul\":10285:10288   */\n      dup4\n        /* \"#utility.yul\":10226:10293   */\n      tag_105\n      jump\t// in\n    tag_210:\n        /* \"#utility.yul\":10219:10293   */\n      swap2\n      pop\n        /* \"#utility.yul\":10302:10395   */\n      tag_211\n        /* \"#utility.yul\":10391:10394   */\n      dup3\n        /* \"#utility.yul\":10302:10395   */\n      tag_122\n      jump\t// in\n    tag_211:\n        /* \"#utility.yul\":10420:10422   */\n      0x20\n        /* \"#utility.yul\":10415:10418   */\n      dup3\n        /* \"#utility.yul\":10411:10423   */\n      add\n        /* \"#utility.yul\":10404:10423   */\n      swap1\n      pop\n        /* \"#utility.yul\":10063:10429   */\n      swap2\n      swap1\n      pop\n      jump\t// out\n        /* \"#utility.yul\":10435:10854   */\n    tag_78:\n        /* \"#utility.yul\":10601:10605   */\n      0x00\n        /* \"#utility.yul\":10639:10641   */\n      0x20\n        /* \"#utility.yul\":10628:10637   */\n      dup3\n        /* \"#utility.yul\":10624:10642   */\n      add\n        /* \"#utility.yul\":10616:10642   */\n      swap1\n      pop\n        /* \"#utility.yul\":10688:10697   */\n      dup2\n        /* \"#utility.yul\":10682:10686   */\n      dup2\n        /* \"#utility.yul\":10678:10698   */\n      sub\n        /* \"#utility.yul\":10674:10675   */\n      0x00\n        /* \"#utility.yul\":10663:10672   */\n      dup4\n        /* \"#utility.yul\":10659:10676   */\n      add\n        /* \"#utility.yul\":10652:10699   */\n      mstore\n        /* \"#utility.yul\":10716:10847   */\n      tag_213\n        /* \"#utility.yul\":10842:10846   */\n      dup2\n        /* \"#utility.yul\":10716:10847   */\n      tag_123\n      jump\t// in\n    tag_213:\n        /* \"#utility.yul\":10708:10847   */\n      swap1\n      pop\n        /* \"#utility.yul\":10435:10854   */\n      swap2\n      swap1\n      pop\n      jump\t// out\n        /* \"#utility.yul\":10860:11054   */\n    tag_80:\n        /* \"#utility.yul\":10900:10904   */\n      0x00\n        /* \"#utility.yul\":10920:10940   */\n      tag_215\n        /* \"#utility.yul\":10938:10939   */\n      dup3\n        /* \"#utility.yul\":10920:10940   */\n      tag_98\n      jump\t// in\n    tag_215:\n        /* \"#utility.yul\":10915:10940   */\n      swap2\n      pop\n        /* \"#utility.yul\":10954:10974   */\n      tag_216\n        /* \"#utility.yul\":10972:10973   */\n      dup4\n        /* \"#utility.yul\":10954:10974   */\n      tag_98\n      jump\t// in\n    tag_216:\n        /* \"#utility.yul\":10949:10974   */\n      swap3\n      pop\n        /* \"#utility.yul\":10998:10999   */\n      dup3\n        /* \"#utility.yul\":10995:10996   */\n      dup3\n        /* \"#utility.yul\":10991:11000   */\n      sub\n        /* \"#utility.yul\":10983:11000   */\n      swap1\n      pop\n        /* \"#utility.yul\":11022:11023   */\n      dup2\n        /* \"#utility.yul\":11016:11020   */\n      dup2\n        /* \"#utility.yul\":11013:11024   */\n      gt\n        /* \"#utility.yul\":11010:11047   */\n      iszero\n      tag_217\n      jumpi\n        /* \"#utility.yul\":11027:11045   */\n      tag_218\n      tag_119\n      jump\t// in\n    tag_218:\n        /* \"#utility.yul\":11010:11047   */\n    tag_217:\n        /* \"#utility.yul\":10860:11054   */\n      swap3\n      swap2\n      pop\n      pop\n      jump\t// out\n        /* \"#utility.yul\":11060:11225   */\n    tag_124:\n        /* \"#utility.yul\":11200:11217   */\n      0x5472616e73666572206661696c65640000000000000000000000000000000000\n        /* \"#utility.yul\":11196:11197   */\n      0x00\n        /* \"#utility.yul\":11188:11194   */\n      dup3\n        /* \"#utility.yul\":11184:11198   */\n      add\n        /* \"#utility.yul\":11177:11218   */\n      mstore\n        /* \"#utility.yul\":11060:11225   */\n      pop\n      jump\t// out\n        /* \"#utility.yul\":11231:11597   */\n    tag_125:\n        /* \"#utility.yul\":11373:11376   */\n      0x00\n        /* \"#utility.yul\":11394:11461   */\n      tag_221\n        /* \"#utility.yul\":11458:11460   */\n      0x0f\n        /* \"#utility.yul\":11453:11456   */\n      dup4\n        /* \"#utility.yul\":11394:11461   */\n      tag_105\n      jump\t// in\n    tag_221:\n        /* \"#utility.yul\":11387:11461   */\n      swap2\n      pop\n        /* \"#utility.yul\":11470:11563   */\n      tag_222\n        /* \"#utility.yul\":11559:11562   */\n      dup3\n        /* \"#utility.yul\":11470:11563   */\n      tag_124\n      jump\t// in\n    tag_222:\n        /* \"#utility.yul\":11588:11590   */\n      0x20\n        /* \"#utility.yul\":11583:11586   */\n      dup3\n        /* \"#utility.yul\":11579:11591   */\n      add\n        /* \"#utility.yul\":11572:11591   */\n      swap1\n      pop\n        /* \"#utility.yul\":11231:11597   */\n      swap2\n      swap1\n      pop\n      jump\t// out\n        /* \"#utility.yul\":11603:12022   */\n    tag_87:\n        /* \"#utility.yul\":11769:11773   */\n      0x00\n        /* \"#utility.yul\":11807:11809   */\n      0x20\n        /* \"#utility.yul\":11796:11805   */\n      dup3\n        /* \"#utility.yul\":11792:11810   */\n      add\n        /* \"#utility.yul\":11784:11810   */\n      swap1\n      pop\n        /* \"#utility.yul\":11856:11865   */\n      dup2\n        /* \"#utility.yul\":11850:11854   */\n      dup2\n        /* \"#utility.yul\":11846:11866   */\n      sub\n        /* \"#utility.yul\":11842:11843   */\n      0x00\n        /* \"#utility.yul\":11831:11840   */\n      dup4\n        /* \"#utility.yul\":11827:11844   */\n      add\n        /* \"#utility.yul\":11820:11867   */\n      mstore\n        /* \"#utility.yul\":11884:12015   */\n      tag_224\n        /* \"#utility.yul\":12010:12014   */\n      dup2\n        /* \"#utility.yul\":11884:12015   */\n      tag_125\n      jump\t// in\n    tag_224:\n        /* \"#utility.yul\":11876:12015   */\n      swap1\n      pop\n        /* \"#utility.yul\":11603:12022   */\n      swap2\n      swap1\n      pop\n      jump\t// out\n        /* \"#utility.yul\":12028:12209   */\n    tag_126:\n        /* \"#utility.yul\":12168:12201   */\n      0x5265656e7472616e637947756172643a207265656e7472616e742063616c6c00\n        /* \"#utility.yul\":12164:12165   */\n      0x00\n        /* \"#utility.yul\":12156:12162   */\n      dup3\n        /* \"#utility.yul\":12152:12166   */\n      add\n        /* \"#utility.yul\":12145:12202   */\n      mstore\n        /* \"#utility.yul\":12028:12209   */\n      pop\n      jump\t// out\n        /* \"#utility.yul\":12215:12581   */\n    tag_127:\n        /* \"#utility.yul\":12357:12360   */\n      0x00\n        /* \"#utility.yul\":12378:12445   */\n      tag_227\n        /* \"#utility.yul\":12442:12444   */\n      0x1f\n        /* \"#utility.yul\":12437:12440   */\n      dup4\n        /* \"#utility.yul\":12378:12445   */\n      tag_105\n      jump\t// in\n    tag_227:\n        /* \"#utility.yul\":12371:12445   */\n      swap2\n      pop\n        /* \"#utility.yul\":12454:12547   */\n      tag_228\n        /* \"#utility.yul\":12543:12546   */\n      dup3\n        /* \"#utility.yul\":12454:12547   */\n      tag_126\n      jump\t// in\n    tag_228:\n        /* \"#utility.yul\":12572:12574   */\n      0x20\n        /* \"#utility.yul\":12567:12570   */\n      dup3\n        /* \"#utility.yul\":12563:12575   */\n      add\n        /* \"#utility.yul\":12556:12575   */\n      swap1\n      pop\n        /* \"#utility.yul\":12215:12581   */\n      swap2\n      swap1\n      pop\n      jump\t// out\n        /* \"#utility.yul\":12587:13006   */\n    tag_93:\n        /* \"#utility.yul\":12753:12757   */\n      0x00\n        /* \"#utility.yul\":12791:12793   */\n      0x20\n        /* \"#utility.yul\":12780:12789   */\n      dup3\n        /* \"#utility.yul\":12776:12794   */\n      add\n        /* \"#utility.yul\":12768:12794   */\n      swap1\n      pop\n        /* \"#utility.yul\":12840:12849   */\n      dup2\n        /* \"#utility.yul\":12834:12838   */\n      dup2\n        /* \"#utility.yul\":12830:12850   */\n      sub\n        /* \"#utility.yul\":12826:12827   */\n      0x00\n        /* \"#utility.yul\":12815:12824   */\n      dup4\n        /* \"#utility.yul\":12811:12828   */\n      add\n        /* \"#utility.yul\":12804:12851   */\n      mstore\n        /* \"#utility.yul\":12868:12999   */\n      tag_230\n        /* \"#utility.yul\":12994:12998   */\n      dup2\n        /* \"#utility.yul\":12868:12999   */\n      tag_127\n      jump\t// in\n    tag_230:\n        /* \"#utility.yul\":12860:12999   */\n      swap1\n      pop\n        /* \"#utility.yul\":12587:13006   */\n      swap2\n      swap1\n      pop\n      jump\t// out\n\n    auxdata: 0xa264697066735822122063012a7719f33079031432116b757ecef4049d12e5d3d806a5c1ab3bb7f3e5e864736f6c634300081e0033\n}\n",
				"bytecode": {
					"linkReferences": {},
					"object": "608060405234801561000f575f5ffd5b50604051610f1c380380610f1c8339818101604052810190610031919061018a565b60015f819055505f73ffffffffffffffffffffffffffffffffffffffff168173ffffffffffffffffffffffffffffffffffffffff16036100a6576040517f08c379a000000000000000000000000000000000000000000000000000000000815260040161009d9061020f565b60405180910390fd5b3360015f6101000a81548173ffffffffffffffffffffffffffffffffffffffff021916908373ffffffffffffffffffffffffffffffffffffffff1602179055508060025f6101000a81548173ffffffffffffffffffffffffffffffffffffffff021916908373ffffffffffffffffffffffffffffffffffffffff1602179055505061022d565b5f5ffd5b5f73ffffffffffffffffffffffffffffffffffffffff82169050919050565b5f61015982610130565b9050919050565b6101698161014f565b8114610173575f5ffd5b50565b5f8151905061018481610160565b92915050565b5f6020828403121561019f5761019e61012c565b5b5f6101ac84828501610176565b91505092915050565b5f82825260208201905092915050565b7f4d65726368616e742063616e6e6f74206265207a65726f0000000000000000005f82015250565b5f6101f96017836101b5565b9150610204826101c5565b602082019050919050565b5f6020820190508181035f830152610226816101ed565b9050919050565b610ce28061023a5f395ff3fe608060405260043610610058575f3560e01c806333f707d1146100635780634903b0d11461008b57806350017f3e146100c75780638da5cb5b146100e3578063a5ff76511461010d578063ef48eee6146101375761005f565b3661005f57005b5f5ffd5b34801561006e575f5ffd5b5061008960048036038101906100849190610737565b61015f565b005b348015610096575f5ffd5b506100b160048036038101906100ac9190610737565b610345565b6040516100be9190610771565b60405180910390f35b6100e160048036038101906100dc9190610737565b61035a565b005b3480156100ee575f5ffd5b506100f7610440565b60405161010491906107c9565b60405180910390f35b348015610118575f5ffd5b50610121610465565b60405161012e91906107c9565b60405180910390f35b348015610142575f5ffd5b5061015d600480360381019061015891906107e2565b61048a565b005b6101676106aa565b60015f9054906101000a900473ffffffffffffffffffffffffffffffffffffffff1673ffffffffffffffffffffffffffffffffffffffff163373ffffffffffffffffffffffffffffffffffffffff16146101f6576040517f08c379a00000000000000000000000000000000000000000000000000000000081526004016101ed9061087a565b60405180910390fd5b47811115610239576040517f08c379a0000000000000000000000000000000000000000000000000000000008152600401610230906108e2565b60405180910390fd5b5f60015f9054906101000a900473ffffffffffffffffffffffffffffffffffffffff1673ffffffffffffffffffffffffffffffffffffffff168260405161027f9061092d565b5f6040518083038185875af1925050503d805f81146102b9576040519150601f19603f3d011682016040523d82523d5f602084013e6102be565b606091505b5050905080610302576040517f08c379a00000000000000000000000000000000000000000000000000000000081526004016102f99061098b565b60405180910390fd5b7f4e70a604b23a8edee2b1d0a656e9b9c00b73ad8bb1afc2c59381ee9f69197de7826040516103319190610771565b60405180910390a1506103426106f7565b50565b6003602052805f5260405f205f915090505481565b5f341161039c576040517f08c379a0000000000000000000000000000000000000000000000000000000008152600401610393906109f3565b60405180910390fd5b5f81036103de576040517f08c379a00000000000000000000000000000000000000000000000000000000081526004016103d590610a5b565b60405180910390fd5b3460035f8381526020019081526020015f205f8282546103fe9190610aa6565b92505081905550807f9580ef1bd2c88526f7c878185e323d2bef5d3f0f9471577f3e3a2bfdb87763ef346040516104359190610771565b60405180910390a250565b60015f9054906101000a900473ffffffffffffffffffffffffffffffffffffffff1681565b60025f9054906101000a900473ffffffffffffffffffffffffffffffffffffffff1681565b6104926106aa565b8060035f8481526020019081526020015f205410156104e6576040517f08c379a00000000000000000000000000000000000000000000000000000000081526004016104dd90610b23565b60405180910390fd5b5f73ffffffffffffffffffffffffffffffffffffffff1660025f9054906101000a900473ffffffffffffffffffffffffffffffffffffffff1673ffffffffffffffffffffffffffffffffffffffff1603610575576040517f08c379a000000000000000000000000000000000000000000000000000000000815260040161056c90610b8b565b60405180910390fd5b8060035f8481526020019081526020015f205f8282546105959190610ba9565b925050819055505f60025f9054906101000a900473ffffffffffffffffffffffffffffffffffffffff1673ffffffffffffffffffffffffffffffffffffffff16826040516105e29061092d565b5f6040518083038185875af1925050503d805f811461061c576040519150601f19603f3d011682016040523d82523d5f602084013e610621565b606091505b5050905080610665576040517f08c379a000000000000000000000000000000000000000000000000000000000815260040161065c90610c26565b60405180910390fd5b827feee6595b95458aeb5d6b0f0f282dcb44a1378b4547bfe73681dfc0b012985e90836040516106959190610771565b60405180910390a2506106a66106f7565b5050565b60025f54036106ee576040517f08c379a00000000000000000000000000000000000000000000000000000000081526004016106e590610c8e565b60405180910390fd5b60025f81905550565b60015f81905550565b5f5ffd5b5f819050919050565b61071681610704565b8114610720575f5ffd5b50565b5f813590506107318161070d565b92915050565b5f6020828403121561074c5761074b610700565b5b5f61075984828501610723565b91505092915050565b61076b81610704565b82525050565b5f6020820190506107845f830184610762565b92915050565b5f73ffffffffffffffffffffffffffffffffffffffff82169050919050565b5f6107b38261078a565b9050919050565b6107c3816107a9565b82525050565b5f6020820190506107dc5f8301846107ba565b92915050565b5f5f604083850312156107f8576107f7610700565b5b5f61080585828601610723565b925050602061081685828601610723565b9150509250929050565b5f82825260208201905092915050565b7f4e6f74206f776e657200000000000000000000000000000000000000000000005f82015250565b5f610864600983610820565b915061086f82610830565b602082019050919050565b5f6020820190508181035f83015261089181610858565b9050919050565b7f496e73756666696369656e7420636f6e74726163742062616c616e63650000005f82015250565b5f6108cc601d83610820565b91506108d782610898565b602082019050919050565b5f6020820190508181035f8301526108f9816108c0565b9050919050565b5f81905092915050565b50565b5f6109185f83610900565b91506109238261090a565b5f82019050919050565b5f6109378261090d565b9150819050919050565b7f5769746864726177616c206661696c65640000000000000000000000000000005f82015250565b5f610975601183610820565b915061098082610941565b602082019050919050565b5f6020820190508181035f8301526109a281610969565b9050919050565b7f416d6f756e74206d757374206265203e203000000000000000000000000000005f82015250565b5f6109dd601283610820565b91506109e8826109a9565b602082019050919050565b5f6020820190508181035f830152610a0a816109d1565b9050919050565b7f5549442063616e6e6f74206265207a65726f00000000000000000000000000005f82015250565b5f610a45601283610820565b9150610a5082610a11565b602082019050919050565b5f6020820190508181035f830152610a7281610a39565b9050919050565b7f4e487b71000000000000000000000000000000000000000000000000000000005f52601160045260245ffd5b5f610ab082610704565b9150610abb83610704565b9250828201905080821115610ad357610ad2610a79565b5b92915050565b7f496e73756666696369656e742062616c616e63650000000000000000000000005f82015250565b5f610b0d601483610820565b9150610b1882610ad9565b602082019050919050565b5f6020820190508181035f830152610b3a81610b01565b9050919050565b7f496e76616c6964206d65726368616e74000000000000000000000000000000005f82015250565b5f610b75601083610820565b9150610b8082610b41565b602082019050919050565b5f6020820190508181035f830152610ba281610b69565b9050919050565b5f610bb382610704565b9150610bbe83610704565b9250828203905081811115610bd657610bd5610a79565b5b92915050565b7f5472616e73666572206661696c656400000000000000000000000000000000005f82015250565b5f610c10600f83610820565b9150610c1b82610bdc565b602082019050919050565b5f6020820190508181035f830152610c3d81610c04565b9050919050565b7f5265656e7472616e637947756172643a207265656e7472616e742063616c6c005f82015250565b5f610c78601f83610820565b9150610c8382610c44565b602082019050919050565b5f6020820190508181035f830152610ca581610c6c565b905091905056fea264697066735822122063012a7719f33079031432116b757ecef4049d12e5d3d806a5c1ab3bb7f3e5e864736f6c634300081e0033",
					"opcodes": "PUSH1 0x80 PUSH1 0x40 MSTORE CALLVALUE DUP1 ISZERO PUSH2 0xF JUMPI PUSH0 PUSH0 REVERT JUMPDEST POP PUSH1 0x40 MLOAD PUSH2 0xF1C CODESIZE SUB DUP1 PUSH2 0xF1C DUP4 CODECOPY DUP2 DUP2 ADD PUSH1 0x40 MSTORE DUP2 ADD SWAP1 PUSH2 0x31 SWAP2 SWAP1 PUSH2 0x18A JUMP JUMPDEST PUSH1 0x1 PUSH0 DUP2 SWAP1 SSTORE POP PUSH0 PUSH20 0xFFFFFFFFFFFFFFFFFFFFFFFFFFFFFFFFFFFFFFFF AND DUP2 PUSH20 0xFFFFFFFFFFFFFFFFFFFFFFFFFFFFFFFFFFFFFFFF AND SUB PUSH2 0xA6 JUMPI PUSH1 0x40 MLOAD PUSH32 0x8C379A000000000000000000000000000000000000000000000000000000000 DUP2 MSTORE PUSH1 0x4 ADD PUSH2 0x9D SWAP1 PUSH2 0x20F JUMP JUMPDEST PUSH1 0x40 MLOAD DUP1 SWAP2 SUB SWAP1 REVERT JUMPDEST CALLER PUSH1 0x1 PUSH0 PUSH2 0x100 EXP DUP2 SLOAD DUP2 PUSH20 0xFFFFFFFFFFFFFFFFFFFFFFFFFFFFFFFFFFFFFFFF MUL NOT AND SWAP1 DUP4 PUSH20 0xFFFFFFFFFFFFFFFFFFFFFFFFFFFFFFFFFFFFFFFF AND MUL OR SWAP1 SSTORE POP DUP1 PUSH1 0x2 PUSH0 PUSH2 0x100 EXP DUP2 SLOAD DUP2 PUSH20 0xFFFFFFFFFFFFFFFFFFFFFFFFFFFFFFFFFFFFFFFF MUL NOT AND SWAP1 DUP4 PUSH20 0xFFFFFFFFFFFFFFFFFFFFFFFFFFFFFFFFFFFFFFFF AND MUL OR SWAP1 SSTORE POP POP PUSH2 0x22D JUMP JUMPDEST PUSH0 PUSH0 REVERT JUMPDEST PUSH0 PUSH20 0xFFFFFFFFFFFFFFFFFFFFFFFFFFFFFFFFFFFFFFFF DUP3 AND SWAP1 POP SWAP2 SWAP1 POP JUMP JUMPDEST PUSH0 PUSH2 0x159 DUP3 PUSH2 0x130 JUMP JUMPDEST SWAP1 POP SWAP2 SWAP1 POP JUMP JUMPDEST PUSH2 0x169 DUP2 PUSH2 0x14F JUMP JUMPDEST DUP2 EQ PUSH2 0x173 JUMPI PUSH0 PUSH0 REVERT JUMPDEST POP JUMP JUMPDEST PUSH0 DUP2 MLOAD SWAP1 POP PUSH2 0x184 DUP2 PUSH2 0x160 JUMP JUMPDEST SWAP3 SWAP2 POP POP JUMP JUMPDEST PUSH0 PUSH1 0x20 DUP3 DUP5 SUB SLT ISZERO PUSH2 0x19F JUMPI PUSH2 0x19E PUSH2 0x12C JUMP JUMPDEST JUMPDEST PUSH0 PUSH2 0x1AC DUP5 DUP3 DUP6 ADD PUSH2 0x176 JUMP JUMPDEST SWAP2 POP POP SWAP3 SWAP2 POP POP JUMP JUMPDEST PUSH0 DUP3 DUP3 MSTORE PUSH1 0x20 DUP3 ADD SWAP1 POP SWAP3 SWAP2 POP POP JUMP JUMPDEST PUSH32 0x4D65726368616E742063616E6E6F74206265207A65726F000000000000000000 PUSH0 DUP3 ADD MSTORE POP JUMP JUMPDEST PUSH0 PUSH2 0x1F9 PUSH1 0x17 DUP4 PUSH2 0x1B5 JUMP JUMPDEST SWAP2 POP PUSH2 0x204 DUP3 PUSH2 0x1C5 JUMP JUMPDEST PUSH1 0x20 DUP3 ADD SWAP1 POP SWAP2 SWAP1 POP JUMP JUMPDEST PUSH0 PUSH1 0x20 DUP3 ADD SWAP1 POP DUP2 DUP2 SUB PUSH0 DUP4 ADD MSTORE PUSH2 0x226 DUP2 PUSH2 0x1ED JUMP JUMPDEST SWAP1 POP SWAP2 SWAP1 POP JUMP JUMPDEST PUSH2 0xCE2 DUP1 PUSH2 0x23A PUSH0 CODECOPY PUSH0 RETURN INVALID PUSH1 0x80 PUSH1 0x40 MSTORE PUSH1 0x4 CALLDATASIZE LT PUSH2 0x58 JUMPI PUSH0 CALLDATALOAD PUSH1 0xE0 SHR DUP1 PUSH4 0x33F707D1 EQ PUSH2 0x63 JUMPI DUP1 PUSH4 0x4903B0D1 EQ PUSH2 0x8B JUMPI DUP1 PUSH4 0x50017F3E EQ PUSH2 0xC7 JUMPI DUP1 PUSH4 0x8DA5CB5B EQ PUSH2 0xE3 JUMPI DUP1 PUSH4 0xA5FF7651 EQ PUSH2 0x10D JUMPI DUP1 PUSH4 0xEF48EEE6 EQ PUSH2 0x137 JUMPI PUSH2 0x5F JUMP JUMPDEST CALLDATASIZE PUSH2 0x5F JUMPI STOP JUMPDEST PUSH0 PUSH0 REVERT JUMPDEST CALLVALUE DUP1 ISZERO PUSH2 0x6E JUMPI PUSH0 PUSH0 REVERT JUMPDEST POP PUSH2 0x89 PUSH1 0x4 DUP1 CALLDATASIZE SUB DUP2 ADD SWAP1 PUSH2 0x84 SWAP2 SWAP1 PUSH2 0x737 JUMP JUMPDEST PUSH2 0x15F JUMP JUMPDEST STOP JUMPDEST CALLVALUE DUP1 ISZERO PUSH2 0x96 JUMPI PUSH0 PUSH0 REVERT JUMPDEST POP PUSH2 0xB1 PUSH1 0x4 DUP1 CALLDATASIZE SUB DUP2 ADD SWAP1 PUSH2 0xAC SWAP2 SWAP1 PUSH2 0x737 JUMP JUMPDEST PUSH2 0x345 JUMP JUMPDEST PUSH1 0x40 MLOAD PUSH2 0xBE SWAP2 SWAP1 PUSH2 0x771 JUMP JUMPDEST PUSH1 0x40 MLOAD DUP1 SWAP2 SUB SWAP1 RETURN JUMPDEST PUSH2 0xE1 PUSH1 0x4 DUP1 CALLDATASIZE SUB DUP2 ADD SWAP1 PUSH2 0xDC SWAP2 SWAP1 PUSH2 0x737 JUMP JUMPDEST PUSH2 0x35A JUMP JUMPDEST STOP JUMPDEST CALLVALUE DUP1 ISZERO PUSH2 0xEE JUMPI PUSH0 PUSH0 REVERT JUMPDEST POP PUSH2 0xF7 PUSH2 0x440 JUMP JUMPDEST PUSH1 0x40 MLOAD PUSH2 0x104 SWAP2 SWAP1 PUSH2 0x7C9 JUMP JUMPDEST PUSH1 0x40 MLOAD DUP1 SWAP2 SUB SWAP1 RETURN JUMPDEST CALLVALUE DUP1 ISZERO PUSH2 0x118 JUMPI PUSH0 PUSH0 REVERT JUMPDEST POP PUSH2 0x121 PUSH2 0x465 JUMP JUMPDEST PUSH1 0x40 MLOAD PUSH2 0x12E SWAP2 SWAP1 PUSH2 0x7C9 JUMP JUMPDEST PUSH1 0x40 MLOAD DUP1 SWAP2 SUB SWAP1 RETURN JUMPDEST CALLVALUE DUP1 ISZERO PUSH2 0x142 JUMPI PUSH0 PUSH0 REVERT JUMPDEST POP PUSH2 0x15D PUSH1 0x4 DUP1 CALLDATASIZE SUB DUP2 ADD SWAP1 PUSH2 0x158 SWAP2 SWAP1 PUSH2 0x7E2 JUMP JUMPDEST PUSH2 0x48A JUMP JUMPDEST STOP JUMPDEST PUSH2 0x167 PUSH2 0x6AA JUMP JUMPDEST PUSH1 0x1 PUSH0 SWAP1 SLOAD SWAP1 PUSH2 0x100 EXP SWAP1 DIV PUSH20 0xFFFFFFFFFFFFFFFFFFFFFFFFFFFFFFFFFFFFFFFF AND PUSH20 0xFFFFFFFFFFFFFFFFFFFFFFFFFFFFFFFFFFFFFFFF AND CALLER PUSH20 0xFFFFFFFFFFFFFFFFFFFFFFFFFFFFFFFFFFFFFFFF AND EQ PUSH2 0x1F6 JUMPI PUSH1 0x40 MLOAD PUSH32 0x8C379A000000000000000000000000000000000000000000000000000000000 DUP2 MSTORE PUSH1 0x4 ADD PUSH2 0x1ED SWAP1 PUSH2 0x87A JUMP JUMPDEST PUSH1 0x40 MLOAD DUP1 SWAP2 SUB SWAP1 REVERT JUMPDEST SELFBALANCE DUP2 GT ISZERO PUSH2 0x239 JUMPI PUSH1 0x40 MLOAD PUSH32 0x8C379A000000000000000000000000000000000000000000000000000000000 DUP2 MSTORE PUSH1 0x4 ADD PUSH2 0x230 SWAP1 PUSH2 0x8E2 JUMP JUMPDEST PUSH1 0x40 MLOAD DUP1 SWAP2 SUB SWAP1 REVERT JUMPDEST PUSH0 PUSH1 0x1 PUSH0 SWAP1 SLOAD SWAP1 PUSH2 0x100 EXP SWAP1 DIV PUSH20 0xFFFFFFFFFFFFFFFFFFFFFFFFFFFFFFFFFFFFFFFF AND PUSH20 0xFFFFFFFFFFFFFFFFFFFFFFFFFFFFFFFFFFFFFFFF AND DUP3 PUSH1 0x40 MLOAD PUSH2 0x27F SWAP1 PUSH2 0x92D JUMP JUMPDEST PUSH0 PUSH1 0x40 MLOAD DUP1 DUP4 SUB DUP2 DUP6 DUP8 GAS CALL SWAP3 POP POP POP RETURNDATASIZE DUP1 PUSH0 DUP2 EQ PUSH2 0x2B9 JUMPI PUSH1 0x40 MLOAD SWAP2 POP PUSH1 0x1F NOT PUSH1 0x3F RETURNDATASIZE ADD AND DUP3 ADD PUSH1 0x40 MSTORE RETURNDATASIZE DUP3 MSTORE RETURNDATASIZE PUSH0 PUSH1 0x20 DUP5 ADD RETURNDATACOPY PUSH2 0x2BE JUMP JUMPDEST PUSH1 0x60 SWAP2 POP JUMPDEST POP POP SWAP1 POP DUP1 PUSH2 0x302 JUMPI PUSH1 0x40 MLOAD PUSH32 0x8C379A000000000000000000000000000000000000000000000000000000000 DUP2 MSTORE PUSH1 0x4 ADD PUSH2 0x2F9 SWAP1 PUSH2 0x98B JUMP JUMPDEST PUSH1 0x40 MLOAD DUP1 SWAP2 SUB SWAP1 REVERT JUMPDEST PUSH32 0x4E70A604B23A8EDEE2B1D0A656E9B9C00B73AD8BB1AFC2C59381EE9F69197DE7 DUP3 PUSH1 0x40 MLOAD PUSH2 0x331 SWAP2 SWAP1 PUSH2 0x771 JUMP JUMPDEST PUSH1 0x40 MLOAD DUP1 SWAP2 SUB SWAP1 LOG1 POP PUSH2 0x342 PUSH2 0x6F7 JUMP JUMPDEST POP JUMP JUMPDEST PUSH1 0x3 PUSH1 0x20 MSTORE DUP1 PUSH0 MSTORE PUSH1 0x40 PUSH0 KECCAK256 PUSH0 SWAP2 POP SWAP1 POP SLOAD DUP2 JUMP JUMPDEST PUSH0 CALLVALUE GT PUSH2 0x39C JUMPI PUSH1 0x40 MLOAD PUSH32 0x8C379A000000000000000000000000000000000000000000000000000000000 DUP2 MSTORE PUSH1 0x4 ADD PUSH2 0x393 SWAP1 PUSH2 0x9F3 JUMP JUMPDEST PUSH1 0x40 MLOAD DUP1 SWAP2 SUB SWAP1 REVERT JUMPDEST PUSH0 DUP2 SUB PUSH2 0x3DE JUMPI PUSH1 0x40 MLOAD PUSH32 0x8C379A000000000000000000000000000000000000000000000000000000000 DUP2 MSTORE PUSH1 0x4 ADD PUSH2 0x3D5 SWAP1 PUSH2 0xA5B JUMP JUMPDEST PUSH1 0x40 MLOAD DUP1 SWAP2 SUB SWAP1 REVERT JUMPDEST CALLVALUE PUSH1 0x3 PUSH0 DUP4 DUP2 MSTORE PUSH1 0x20 ADD SWAP1 DUP2 MSTORE PUSH1 0x20 ADD PUSH0 KECCAK256 PUSH0 DUP3 DUP3 SLOAD PUSH2 0x3FE SWAP2 SWAP1 PUSH2 0xAA6 JUMP JUMPDEST SWAP3 POP POP DUP2 SWAP1 SSTORE POP DUP1 PUSH32 0x9580EF1BD2C88526F7C878185E323D2BEF5D3F0F9471577F3E3A2BFDB87763EF CALLVALUE PUSH1 0x40 MLOAD PUSH2 0x435 SWAP2 SWAP1 PUSH2 0x771 JUMP JUMPDEST PUSH1 0x40 MLOAD DUP1 SWAP2 SUB SWAP1 LOG2 POP JUMP JUMPDEST PUSH1 0x1 PUSH0 SWAP1 SLOAD SWAP1 PUSH2 0x100 EXP SWAP1 DIV PUSH20 0xFFFFFFFFFFFFFFFFFFFFFFFFFFFFFFFFFFFFFFFF AND DUP2 JUMP JUMPDEST PUSH1 0x2 PUSH0 SWAP1 SLOAD SWAP1 PUSH2 0x100 EXP SWAP1 DIV PUSH20 0xFFFFFFFFFFFFFFFFFFFFFFFFFFFFFFFFFFFFFFFF AND DUP2 JUMP JUMPDEST PUSH2 0x492 PUSH2 0x6AA JUMP JUMPDEST DUP1 PUSH1 0x3 PUSH0 DUP5 DUP2 MSTORE PUSH1 0x20 ADD SWAP1 DUP2 MSTORE PUSH1 0x20 ADD PUSH0 KECCAK256 SLOAD LT ISZERO PUSH2 0x4E6 JUMPI PUSH1 0x40 MLOAD PUSH32 0x8C379A000000000000000000000000000000000000000000000000000000000 DUP2 MSTORE PUSH1 0x4 ADD PUSH2 0x4DD SWAP1 PUSH2 0xB23 JUMP JUMPDEST PUSH1 0x40 MLOAD DUP1 SWAP2 SUB SWAP1 REVERT JUMPDEST PUSH0 PUSH20 0xFFFFFFFFFFFFFFFFFFFFFFFFFFFFFFFFFFFFFFFF AND PUSH1 0x2 PUSH0 SWAP1 SLOAD SWAP1 PUSH2 0x100 EXP SWAP1 DIV PUSH20 0xFFFFFFFFFFFFFFFFFFFFFFFFFFFFFFFFFFFFFFFF AND PUSH20 0xFFFFFFFFFFFFFFFFFFFFFFFFFFFFFFFFFFFFFFFF AND SUB PUSH2 0x575 JUMPI PUSH1 0x40 MLOAD PUSH32 0x8C379A000000000000000000000000000000000000000000000000000000000 DUP2 MSTORE PUSH1 0x4 ADD PUSH2 0x56C SWAP1 PUSH2 0xB8B JUMP JUMPDEST PUSH1 0x40 MLOAD DUP1 SWAP2 SUB SWAP1 REVERT JUMPDEST DUP1 PUSH1 0x3 PUSH0 DUP5 DUP2 MSTORE PUSH1 0x20 ADD SWAP1 DUP2 MSTORE PUSH1 0x20 ADD PUSH0 KECCAK256 PUSH0 DUP3 DUP3 SLOAD PUSH2 0x595 SWAP2 SWAP1 PUSH2 0xBA9 JUMP JUMPDEST SWAP3 POP POP DUP2 SWAP1 SSTORE POP PUSH0 PUSH1 0x2 PUSH0 SWAP1 SLOAD SWAP1 PUSH2 0x100 EXP SWAP1 DIV PUSH20 0xFFFFFFFFFFFFFFFFFFFFFFFFFFFFFFFFFFFFFFFF AND PUSH20 0xFFFFFFFFFFFFFFFFFFFFFFFFFFFFFFFFFFFFFFFF AND DUP3 PUSH1 0x40 MLOAD PUSH2 0x5E2 SWAP1 PUSH2 0x92D JUMP JUMPDEST PUSH0 PUSH1 0x40 MLOAD DUP1 DUP4 SUB DUP2 DUP6 DUP8 GAS CALL SWAP3 POP POP POP RETURNDATASIZE DUP1 PUSH0 DUP2 EQ PUSH2 0x61C JUMPI PUSH1 0x40 MLOAD SWAP2 POP PUSH1 0x1F NOT PUSH1 0x3F RETURNDATASIZE ADD AND DUP3 ADD PUSH1 0x40 MSTORE RETURNDATASIZE DUP3 MSTORE RETURNDATASIZE PUSH0 PUSH1 0x20 DUP5 ADD RETURNDATACOPY PUSH2 0x621 JUMP JUMPDEST PUSH1 0x60 SWAP2 POP JUMPDEST POP POP SWAP1 POP DUP1 PUSH2 0x665 JUMPI PUSH1 0x40 MLOAD PUSH32 0x8C379A000000000000000000000000000000000000000000000000000000000 DUP2 MSTORE PUSH1 0x4 ADD PUSH2 0x65C SWAP1 PUSH2 0xC26 JUMP JUMPDEST PUSH1 0x40 MLOAD DUP1 SWAP2 SUB SWAP1 REVERT JUMPDEST DUP3 PUSH32 0xEEE6595B95458AEB5D6B0F0F282DCB44A1378B4547BFE73681DFC0B012985E90 DUP4 PUSH1 0x40 MLOAD PUSH2 0x695 SWAP2 SWAP1 PUSH2 0x771 JUMP JUMPDEST PUSH1 0x40 MLOAD DUP1 SWAP2 SUB SWAP1 LOG2 POP PUSH2 0x6A6 PUSH2 0x6F7 JUMP JUMPDEST POP POP JUMP JUMPDEST PUSH1 0x2 PUSH0 SLOAD SUB PUSH2 0x6EE JUMPI PUSH1 0x40 MLOAD PUSH32 0x8C379A000000000000000000000000000000000000000000000000000000000 DUP2 MSTORE PUSH1 0x4 ADD PUSH2 0x6E5 SWAP1 PUSH2 0xC8E JUMP JUMPDEST PUSH1 0x40 MLOAD DUP1 SWAP2 SUB SWAP1 REVERT JUMPDEST PUSH1 0x2 PUSH0 DUP2 SWAP1 SSTORE POP JUMP JUMPDEST PUSH1 0x1 PUSH0 DUP2 SWAP1 SSTORE POP JUMP JUMPDEST PUSH0 PUSH0 REVERT JUMPDEST PUSH0 DUP2 SWAP1 POP SWAP2 SWAP1 POP JUMP JUMPDEST PUSH2 0x716 DUP2 PUSH2 0x704 JUMP JUMPDEST DUP2 EQ PUSH2 0x720 JUMPI PUSH0 PUSH0 REVERT JUMPDEST POP JUMP JUMPDEST PUSH0 DUP2 CALLDATALOAD SWAP1 POP PUSH2 0x731 DUP2 PUSH2 0x70D JUMP JUMPDEST SWAP3 SWAP2 POP POP JUMP JUMPDEST PUSH0 PUSH1 0x20 DUP3 DUP5 SUB SLT ISZERO PUSH2 0x74C JUMPI PUSH2 0x74B PUSH2 0x700 JUMP JUMPDEST JUMPDEST PUSH0 PUSH2 0x759 DUP5 DUP3 DUP6 ADD PUSH2 0x723 JUMP JUMPDEST SWAP2 POP POP SWAP3 SWAP2 POP POP JUMP JUMPDEST PUSH2 0x76B DUP2 PUSH2 0x704 JUMP JUMPDEST DUP3 MSTORE POP POP JUMP JUMPDEST PUSH0 PUSH1 0x20 DUP3 ADD SWAP1 POP PUSH2 0x784 PUSH0 DUP4 ADD DUP5 PUSH2 0x762 JUMP JUMPDEST SWAP3 SWAP2 POP POP JUMP JUMPDEST PUSH0 PUSH20 0xFFFFFFFFFFFFFFFFFFFFFFFFFFFFFFFFFFFFFFFF DUP3 AND SWAP1 POP SWAP2 SWAP1 POP JUMP JUMPDEST PUSH0 PUSH2 0x7B3 DUP3 PUSH2 0x78A JUMP JUMPDEST SWAP1 POP SWAP2 SWAP1 POP JUMP JUMPDEST PUSH2 0x7C3 DUP2 PUSH2 0x7A9 JUMP JUMPDEST DUP3 MSTORE POP POP JUMP JUMPDEST PUSH0 PUSH1 0x20 DUP3 ADD SWAP1 POP PUSH2 0x7DC PUSH0 DUP4 ADD DUP5 PUSH2 0x7BA JUMP JUMPDEST SWAP3 SWAP2 POP POP JUMP JUMPDEST PUSH0 PUSH0 PUSH1 0x40 DUP4 DUP6 SUB SLT ISZERO PUSH2 0x7F8 JUMPI PUSH2 0x7F7 PUSH2 0x700 JUMP JUMPDEST JUMPDEST PUSH0 PUSH2 0x805 DUP6 DUP3 DUP7 ADD PUSH2 0x723 JUMP JUMPDEST SWAP3 POP POP PUSH1 0x20 PUSH2 0x816 DUP6 DUP3 DUP7 ADD PUSH2 0x723 JUMP JUMPDEST SWAP2 POP POP SWAP3 POP SWAP3 SWAP1 POP JUMP JUMPDEST PUSH0 DUP3 DUP3 MSTORE PUSH1 0x20 DUP3 ADD SWAP1 POP SWAP3 SWAP2 POP POP JUMP JUMPDEST PUSH32 0x4E6F74206F776E65720000000000000000000000000000000000000000000000 PUSH0 DUP3 ADD MSTORE POP JUMP JUMPDEST PUSH0 PUSH2 0x864 PUSH1 0x9 DUP4 PUSH2 0x820 JUMP JUMPDEST SWAP2 POP PUSH2 0x86F DUP3 PUSH2 0x830 JUMP JUMPDEST PUSH1 0x20 DUP3 ADD SWAP1 POP SWAP2 SWAP1 POP JUMP JUMPDEST PUSH0 PUSH1 0x20 DUP3 ADD SWAP1 POP DUP2 DUP2 SUB PUSH0 DUP4 ADD MSTORE PUSH2 0x891 DUP2 PUSH2 0x858 JUMP JUMPDEST SWAP1 POP SWAP2 SWAP1 POP JUMP JUMPDEST PUSH32 0x496E73756666696369656E7420636F6E74726163742062616C616E6365000000 PUSH0 DUP3 ADD MSTORE POP JUMP JUMPDEST PUSH0 PUSH2 0x8CC PUSH1 0x1D DUP4 PUSH2 0x820 JUMP JUMPDEST SWAP2 POP PUSH2 0x8D7 DUP3 PUSH2 0x898 JUMP JUMPDEST PUSH1 0x20 DUP3 ADD SWAP1 POP SWAP2 SWAP1 POP JUMP JUMPDEST PUSH0 PUSH1 0x20 DUP3 ADD SWAP1 POP DUP2 DUP2 SUB PUSH0 DUP4 ADD MSTORE PUSH2 0x8F9 DUP2 PUSH2 0x8C0 JUMP JUMPDEST SWAP1 POP SWAP2 SWAP1 POP JUMP JUMPDEST PUSH0 DUP2 SWAP1 POP SWAP3 SWAP2 POP POP JUMP JUMPDEST POP JUMP JUMPDEST PUSH0 PUSH2 0x918 PUSH0 DUP4 PUSH2 0x900 JUMP JUMPDEST SWAP2 POP PUSH2 0x923 DUP3 PUSH2 0x90A JUMP JUMPDEST PUSH0 DUP3 ADD SWAP1 POP SWAP2 SWAP1 POP JUMP JUMPDEST PUSH0 PUSH2 0x937 DUP3 PUSH2 0x90D JUMP JUMPDEST SWAP2 POP DUP2 SWAP1 POP SWAP2 SWAP1 POP JUMP JUMPDEST PUSH32 0x5769746864726177616C206661696C6564000000000000000000000000000000 PUSH0 DUP3 ADD MSTORE POP JUMP JUMPDEST PUSH0 PUSH2 0x975 PUSH1 0x11 DUP4 PUSH2 0x820 JUMP JUMPDEST SWAP2 POP PUSH2 0x980 DUP3 PUSH2 0x941 JUMP JUMPDEST PUSH1 0x20 DUP3 ADD SWAP1 POP SWAP2 SWAP1 POP JUMP JUMPDEST PUSH0 PUSH1 0x20 DUP3 ADD SWAP1 POP DUP2 DUP2 SUB PUSH0 DUP4 ADD MSTORE PUSH2 0x9A2 DUP2 PUSH2 0x969 JUMP JUMPDEST SWAP1 POP SWAP2 SWAP1 POP JUMP JUMPDEST PUSH32 0x416D6F756E74206D757374206265203E20300000000000000000000000000000 PUSH0 DUP3 ADD MSTORE POP JUMP JUMPDEST PUSH0 PUSH2 0x9DD PUSH1 0x12 DUP4 PUSH2 0x820 JUMP JUMPDEST SWAP2 POP PUSH2 0x9E8 DUP3 PUSH2 0x9A9 JUMP JUMPDEST PUSH1 0x20 DUP3 ADD SWAP1 POP SWAP2 SWAP1 POP JUMP JUMPDEST PUSH0 PUSH1 0x20 DUP3 ADD SWAP1 POP DUP2 DUP2 SUB PUSH0 DUP4 ADD MSTORE PUSH2 0xA0A DUP2 PUSH2 0x9D1 JUMP JUMPDEST SWAP1 POP SWAP2 SWAP1 POP JUMP JUMPDEST PUSH32 0x5549442063616E6E6F74206265207A65726F0000000000000000000000000000 PUSH0 DUP3 ADD MSTORE POP JUMP JUMPDEST PUSH0 PUSH2 0xA45 PUSH1 0x12 DUP4 PUSH2 0x820 JUMP JUMPDEST SWAP2 POP PUSH2 0xA50 DUP3 PUSH2 0xA11 JUMP JUMPDEST PUSH1 0x20 DUP3 ADD SWAP1 POP SWAP2 SWAP1 POP JUMP JUMPDEST PUSH0 PUSH1 0x20 DUP3 ADD SWAP1 POP DUP2 DUP2 SUB PUSH0 DUP4 ADD MSTORE PUSH2 0xA72 DUP2 PUSH2 0xA39 JUMP JUMPDEST SWAP1 POP SWAP2 SWAP1 POP JUMP JUMPDEST PUSH32 0x4E487B7100000000000000000000000000000000000000000000000000000000 PUSH0 MSTORE PUSH1 0x11 PUSH1 0x4 MSTORE PUSH1 0x24 PUSH0 REVERT JUMPDEST PUSH0 PUSH2 0xAB0 DUP3 PUSH2 0x704 JUMP JUMPDEST SWAP2 POP PUSH2 0xABB DUP4 PUSH2 0x704 JUMP JUMPDEST SWAP3 POP DUP3 DUP3 ADD SWAP1 POP DUP1 DUP3 GT ISZERO PUSH2 0xAD3 JUMPI PUSH2 0xAD2 PUSH2 0xA79 JUMP JUMPDEST JUMPDEST SWAP3 SWAP2 POP POP JUMP JUMPDEST PUSH32 0x496E73756666696369656E742062616C616E6365000000000000000000000000 PUSH0 DUP3 ADD MSTORE POP JUMP JUMPDEST PUSH0 PUSH2 0xB0D PUSH1 0x14 DUP4 PUSH2 0x820 JUMP JUMPDEST SWAP2 POP PUSH2 0xB18 DUP3 PUSH2 0xAD9 JUMP JUMPDEST PUSH1 0x20 DUP3 ADD SWAP1 POP SWAP2 SWAP1 POP JUMP JUMPDEST PUSH0 PUSH1 0x20 DUP3 ADD SWAP1 POP DUP2 DUP2 SUB PUSH0 DUP4 ADD MSTORE PUSH2 0xB3A DUP2 PUSH2 0xB01 JUMP JUMPDEST SWAP1 POP SWAP2 SWAP1 POP JUMP JUMPDEST PUSH32 0x496E76616C6964206D65726368616E7400000000000000000000000000000000 PUSH0 DUP3 ADD MSTORE POP JUMP JUMPDEST PUSH0 PUSH2 0xB75 PUSH1 0x10 DUP4 PUSH2 0x820 JUMP JUMPDEST SWAP2 POP PUSH2 0xB80 DUP3 PUSH2 0xB41 JUMP JUMPDEST PUSH1 0x20 DUP3 ADD SWAP1 POP SWAP2 SWAP1 POP JUMP JUMPDEST PUSH0 PUSH1 0x20 DUP3 ADD SWAP1 POP DUP2 DUP2 SUB PUSH0 DUP4 ADD MSTORE PUSH2 0xBA2 DUP2 PUSH2 0xB69 JUMP JUMPDEST SWAP1 POP SWAP2 SWAP1 POP JUMP JUMPDEST PUSH0 PUSH2 0xBB3 DUP3 PUSH2 0x704 JUMP JUMPDEST SWAP2 POP PUSH2 0xBBE DUP4 PUSH2 0x704 JUMP JUMPDEST SWAP3 POP DUP3 DUP3 SUB SWAP1 POP DUP2 DUP2 GT ISZERO PUSH2 0xBD6 JUMPI PUSH2 0xBD5 PUSH2 0xA79 JUMP JUMPDEST JUMPDEST SWAP3 SWAP2 POP POP JUMP JUMPDEST PUSH32 0x5472616E73666572206661696C65640000000000000000000000000000000000 PUSH0 DUP3 ADD MSTORE POP JUMP JUMPDEST PUSH0 PUSH2 0xC10 PUSH1 0xF DUP4 PUSH2 0x820 JUMP JUMPDEST SWAP2 POP PUSH2 0xC1B DUP3 PUSH2 0xBDC JUMP JUMPDEST PUSH1 0x20 DUP3 ADD SWAP1 POP SWAP2 SWAP1 POP JUMP JUMPDEST PUSH0 PUSH1 0x20 DUP3 ADD SWAP1 POP DUP2 DUP2 SUB PUSH0 DUP4 ADD MSTORE PUSH2 0xC3D DUP2 PUSH2 0xC04 JUMP JUMPDEST SWAP1 POP SWAP2 SWAP1 POP JUMP JUMPDEST PUSH32 0x5265656E7472616E637947756172643A207265656E7472616E742063616C6C00 PUSH0 DUP3 ADD MSTORE POP JUMP JUMPDEST PUSH0 PUSH2 0xC78 PUSH1 0x1F DUP4 PUSH2 0x820 JUMP JUMPDEST SWAP2 POP PUSH2 0xC83 DUP3 PUSH2 0xC44 JUMP JUMPDEST PUSH1 0x20 DUP3 ADD SWAP1 POP SWAP2 SWAP1 POP JUMP JUMPDEST PUSH0 PUSH1 0x20 DUP3 ADD SWAP1 POP DUP2 DUP2 SUB PUSH0 DUP4 ADD MSTORE PUSH2 0xCA5 DUP2 PUSH2 0xC6C JUMP JUMPDEST SWAP1 POP SWAP2 SWAP1 POP JUMP INVALID LOG2 PUSH5 0x6970667358 0x22 SLT KECCAK256 PUSH4 0x12A7719 RETURN ADDRESS PUSH26 0x31432116B757ECEF4049D12E5D3D806A5C1AB3BB7F3E5E86473 PUSH16 0x6C634300081E00330000000000000000 "
				},
				"gasEstimates": {
					"creation": {
						"codeDepositCost": "659600",
						"executionCost": "infinite",
						"totalCost": "infinite"
					},
					"external": {
						"balances(uint256)": "infinite",
						"merchant()": "2574",
						"owner()": "2552",
						"ownerWithdraw(uint256)": "infinite",
						"pay(uint256,uint256)": "infinite",
						"topUp(uint256)": "infinite"
					}
				},
				"methodIdentifiers": {
					"balances(uint256)": "4903b0d1",
					"merchant()": "a5ff7651",
					"owner()": "8da5cb5b",
					"ownerWithdraw(uint256)": "33f707d1",
					"pay(uint256,uint256)": "ef48eee6",
					"topUp(uint256)": "50017f3e"
				}
			},
			"storageLayout": {
				"storage": [
					{
						"astId": 10,
						"contract": "PaymentProcessor.sol:PaymentProcessor",
						"label": "_status",
						"offset": 0,
						"slot": "0",
						"type": "t_uint256"
					},
					{
						"astId": 72,
						"contract": "PaymentProcessor.sol:PaymentProcessor",
						"label": "owner",
						"offset": 0,
						"slot": "1",
						"type": "t_address"
					},
					{
						"astId": 74,
						"contract": "PaymentProcessor.sol:PaymentProcessor",
						"label": "merchant",
						"offset": 0,
						"slot": "2",
						"type": "t_address"
					},
					{
						"astId": 78,
						"contract": "PaymentProcessor.sol:PaymentProcessor",
						"label": "balances",
						"offset": 0,
						"slot": "3",
						"type": "t_mapping(t_uint256,t_uint256)"
					}
				],
				"types": {
					"t_address": {
						"encoding": "inplace",
						"label": "address",
						"numberOfBytes": "20"
					},
					"t_mapping(t_uint256,t_uint256)": {
						"encoding": "mapping",
						"key": "t_uint256",
						"label": "mapping(uint256 => uint256)",
						"numberOfBytes": "32",
						"value": "t_uint256"
					},
					"t_uint256": {
						"encoding": "inplace",
						"label": "uint256",
						"numberOfBytes": "32"
					}
				}
			},
			"userdoc": {
				"kind": "user",
				"methods": {},
				"notice": "Stores user balance by UID + allows merchant payments",
				"version": 1
			}
		}
	}
}